{
  "contractName": "Exchange",
  "abi": [
    {
      "constant": true,
      "inputs": [],
      "name": "tokenTransferProxy",
      "outputs": [
        {
          "name": "",
          "type": "address"
        }
      ],
      "payable": false,
      "stateMutability": "view",
      "type": "function"
    },
    {
      "constant": true,
      "inputs": [
        {
          "name": "target",
          "type": "address"
        },
        {
          "name": "calldata",
          "type": "bytes"
        },
        {
          "name": "extradata",
          "type": "bytes"
        }
      ],
      "name": "staticCall",
      "outputs": [
        {
          "name": "result",
          "type": "bool"
        }
      ],
      "payable": false,
      "stateMutability": "view",
      "type": "function"
    },
    {
      "constant": false,
      "inputs": [
        {
          "name": "newMinimumMakerProtocolFee",
          "type": "uint256"
        }
      ],
      "name": "changeMinimumMakerProtocolFee",
      "outputs": [],
      "payable": false,
      "stateMutability": "nonpayable",
      "type": "function"
    },
    {
      "constant": false,
      "inputs": [
        {
          "name": "newMinimumTakerProtocolFee",
          "type": "uint256"
        }
      ],
      "name": "changeMinimumTakerProtocolFee",
      "outputs": [],
      "payable": false,
      "stateMutability": "nonpayable",
      "type": "function"
    },
    {
      "constant": true,
      "inputs": [],
      "name": "minimumTakerProtocolFee",
      "outputs": [
        {
          "name": "",
          "type": "uint256"
        }
      ],
      "payable": false,
      "stateMutability": "view",
      "type": "function"
    },
    {
      "constant": false,
      "inputs": [
        {
          "name": "newDevWalletAddress",
          "type": "address"
        }
      ],
      "name": "changeDevWalletAddress",
      "outputs": [],
      "payable": false,
      "stateMutability": "nonpayable",
      "type": "function"
    },
    {
      "constant": false,
      "inputs": [
        {
          "name": "newProtocolFeeRecipient",
          "type": "address"
        }
      ],
      "name": "changeProtocolFeeRecipient",
      "outputs": [],
      "payable": false,
      "stateMutability": "nonpayable",
      "type": "function"
    },
    {
      "constant": true,
      "inputs": [],
      "name": "protocolFeeRecipient",
      "outputs": [
        {
          "name": "",
          "type": "address"
        }
      ],
      "payable": false,
      "stateMutability": "view",
      "type": "function"
    },
    {
      "constant": false,
      "inputs": [],
      "name": "renounceOwnership",
      "outputs": [],
      "payable": false,
      "stateMutability": "nonpayable",
      "type": "function"
    },
    {
      "constant": true,
      "inputs": [],
      "name": "registry",
      "outputs": [
        {
          "name": "",
          "type": "address"
        }
      ],
      "payable": false,
      "stateMutability": "view",
      "type": "function"
    },
    {
      "constant": true,
      "inputs": [],
      "name": "minimumMakerProtocolFee",
      "outputs": [
        {
          "name": "",
          "type": "uint256"
        }
      ],
      "payable": false,
      "stateMutability": "view",
      "type": "function"
    },
    {
      "constant": true,
      "inputs": [
        {
          "name": "",
          "type": "bytes32"
        }
      ],
      "name": "cancelledOrFinalized",
      "outputs": [
        {
          "name": "",
          "type": "bool"
        }
      ],
      "payable": false,
      "stateMutability": "view",
      "type": "function"
    },
    {
      "constant": true,
      "inputs": [],
      "name": "owner",
      "outputs": [
        {
          "name": "",
          "type": "address"
        }
      ],
      "payable": false,
      "stateMutability": "view",
      "type": "function"
    },
    {
      "constant": true,
      "inputs": [],
      "name": "devWallet",
      "outputs": [
        {
          "name": "",
          "type": "address"
        }
      ],
      "payable": false,
      "stateMutability": "view",
      "type": "function"
    },
    {
      "constant": true,
      "inputs": [],
      "name": "exchangeToken",
      "outputs": [
        {
          "name": "",
          "type": "address"
        }
      ],
      "payable": false,
      "stateMutability": "view",
      "type": "function"
    },
    {
      "constant": true,
      "inputs": [],
      "name": "INVERSE_BASIS_POINT",
      "outputs": [
        {
          "name": "",
          "type": "uint256"
        }
      ],
      "payable": false,
      "stateMutability": "view",
      "type": "function"
    },
    {
      "constant": true,
      "inputs": [
        {
          "name": "",
          "type": "bytes32"
        }
      ],
      "name": "approvedOrders",
      "outputs": [
        {
          "name": "",
          "type": "bool"
        }
      ],
      "payable": false,
      "stateMutability": "view",
      "type": "function"
    },
    {
      "constant": false,
      "inputs": [
        {
          "name": "_newOwner",
          "type": "address"
        }
      ],
      "name": "transferOwnership",
      "outputs": [],
      "payable": false,
      "stateMutability": "nonpayable",
      "type": "function"
    },
    {
      "anonymous": false,
      "inputs": [
        {
          "indexed": true,
          "name": "hash",
          "type": "bytes32"
        },
        {
          "indexed": false,
          "name": "exchange",
          "type": "address"
        },
        {
          "indexed": true,
          "name": "maker",
          "type": "address"
        },
        {
          "indexed": false,
          "name": "taker",
          "type": "address"
        },
        {
          "indexed": false,
          "name": "makerRelayerFee",
          "type": "uint256"
        },
        {
          "indexed": false,
          "name": "takerRelayerFee",
          "type": "uint256"
        },
        {
          "indexed": false,
          "name": "makerProtocolFee",
          "type": "uint256"
        },
        {
          "indexed": false,
          "name": "takerProtocolFee",
          "type": "uint256"
        },
        {
          "indexed": true,
          "name": "feeRecipient",
          "type": "address"
        },
        {
          "indexed": false,
          "name": "feeMethod",
          "type": "uint8"
        },
        {
          "indexed": false,
          "name": "side",
          "type": "uint8"
        },
        {
          "indexed": false,
          "name": "saleKind",
          "type": "uint8"
        },
        {
          "indexed": false,
          "name": "target",
          "type": "address"
        }
      ],
      "name": "OrderApprovedPartOne",
      "type": "event"
    },
    {
      "anonymous": false,
      "inputs": [
        {
          "indexed": true,
          "name": "hash",
          "type": "bytes32"
        },
        {
          "indexed": false,
          "name": "howToCall",
          "type": "uint8"
        },
        {
          "indexed": false,
          "name": "calldata",
          "type": "bytes"
        },
        {
          "indexed": false,
          "name": "replacementPattern",
          "type": "bytes"
        },
        {
          "indexed": false,
          "name": "staticTarget",
          "type": "address"
        },
        {
          "indexed": false,
          "name": "staticExtradata",
          "type": "bytes"
        },
        {
          "indexed": false,
          "name": "paymentToken",
          "type": "address"
        },
        {
          "indexed": false,
          "name": "basePrice",
          "type": "uint256"
        },
        {
          "indexed": false,
          "name": "extra",
          "type": "uint256"
        },
        {
          "indexed": false,
          "name": "listingTime",
          "type": "uint256"
        },
        {
          "indexed": false,
          "name": "expirationTime",
          "type": "uint256"
        },
        {
          "indexed": false,
          "name": "salt",
          "type": "uint256"
        },
        {
          "indexed": false,
          "name": "orderbookInclusionDesired",
          "type": "bool"
        }
      ],
      "name": "OrderApprovedPartTwo",
      "type": "event"
    },
    {
      "anonymous": false,
      "inputs": [
        {
          "indexed": true,
          "name": "hash",
          "type": "bytes32"
        }
      ],
      "name": "OrderCancelled",
      "type": "event"
    },
    {
      "anonymous": false,
      "inputs": [
        {
          "indexed": false,
          "name": "buyHash",
          "type": "bytes32"
        },
        {
          "indexed": false,
          "name": "sellHash",
          "type": "bytes32"
        },
        {
          "indexed": true,
          "name": "maker",
          "type": "address"
        },
        {
          "indexed": true,
          "name": "taker",
          "type": "address"
        },
        {
          "indexed": false,
          "name": "price",
          "type": "uint256"
        },
        {
          "indexed": true,
          "name": "metadata",
          "type": "bytes32"
        }
      ],
      "name": "OrdersMatched",
      "type": "event"
    },
    {
      "anonymous": false,
      "inputs": [
        {
          "indexed": true,
          "name": "previousOwner",
          "type": "address"
        }
      ],
      "name": "OwnershipRenounced",
      "type": "event"
    },
    {
      "anonymous": false,
      "inputs": [
        {
          "indexed": true,
          "name": "previousOwner",
          "type": "address"
        },
        {
          "indexed": true,
          "name": "newOwner",
          "type": "address"
        }
      ],
      "name": "OwnershipTransferred",
      "type": "event"
    },
    {
      "constant": true,
      "inputs": [
        {
          "name": "array",
          "type": "bytes"
        },
        {
          "name": "desired",
          "type": "bytes"
        },
        {
          "name": "mask",
          "type": "bytes"
        }
      ],
      "name": "guardedArrayReplace",
      "outputs": [
        {
          "name": "",
          "type": "bytes"
        }
      ],
      "payable": false,
      "stateMutability": "pure",
      "type": "function"
    },
    {
      "constant": true,
      "inputs": [
        {
          "name": "arrToCopy",
          "type": "bytes"
        }
      ],
      "name": "testCopy",
      "outputs": [
        {
          "name": "",
          "type": "bytes"
        }
      ],
      "payable": false,
      "stateMutability": "pure",
      "type": "function"
    },
    {
      "constant": true,
      "inputs": [
        {
          "name": "addr",
          "type": "address"
        }
      ],
      "name": "testCopyAddress",
      "outputs": [
        {
          "name": "",
          "type": "bytes"
        }
      ],
      "payable": false,
      "stateMutability": "pure",
      "type": "function"
    },
    {
      "constant": true,
      "inputs": [
        {
          "name": "side",
          "type": "uint8"
        },
        {
          "name": "saleKind",
          "type": "uint8"
        },
        {
          "name": "basePrice",
          "type": "uint256"
        },
        {
          "name": "extra",
          "type": "uint256"
        },
        {
          "name": "listingTime",
          "type": "uint256"
        },
        {
          "name": "expirationTime",
          "type": "uint256"
        }
      ],
      "name": "calculateFinalPrice",
      "outputs": [
        {
          "name": "",
          "type": "uint256"
        }
      ],
      "payable": false,
      "stateMutability": "view",
      "type": "function"
    },
    {
      "constant": true,
      "inputs": [
        {
          "name": "addrs",
          "type": "address[7]"
        },
        {
          "name": "uints",
          "type": "uint256[9]"
        },
        {
          "name": "feeMethod",
          "type": "uint8"
        },
        {
          "name": "side",
          "type": "uint8"
        },
        {
          "name": "saleKind",
          "type": "uint8"
        },
        {
          "name": "howToCall",
          "type": "uint8"
        },
        {
          "name": "calldata",
          "type": "bytes"
        },
        {
          "name": "replacementPattern",
          "type": "bytes"
        },
        {
          "name": "staticExtradata",
          "type": "bytes"
        }
      ],
      "name": "hashOrder_",
      "outputs": [
        {
          "name": "",
          "type": "bytes32"
        }
      ],
      "payable": false,
      "stateMutability": "pure",
      "type": "function"
    },
    {
      "constant": true,
      "inputs": [
        {
          "name": "addrs",
          "type": "address[7]"
        },
        {
          "name": "uints",
          "type": "uint256[9]"
        },
        {
          "name": "feeMethod",
          "type": "uint8"
        },
        {
          "name": "side",
          "type": "uint8"
        },
        {
          "name": "saleKind",
          "type": "uint8"
        },
        {
          "name": "howToCall",
          "type": "uint8"
        },
        {
          "name": "calldata",
          "type": "bytes"
        },
        {
          "name": "replacementPattern",
          "type": "bytes"
        },
        {
          "name": "staticExtradata",
          "type": "bytes"
        }
      ],
      "name": "hashToSign_",
      "outputs": [
        {
          "name": "",
          "type": "bytes32"
        }
      ],
      "payable": false,
      "stateMutability": "pure",
      "type": "function"
    },
    {
      "constant": true,
      "inputs": [
        {
          "name": "addrs",
          "type": "address[7]"
        },
        {
          "name": "uints",
          "type": "uint256[9]"
        },
        {
          "name": "feeMethod",
          "type": "uint8"
        },
        {
          "name": "side",
          "type": "uint8"
        },
        {
          "name": "saleKind",
          "type": "uint8"
        },
        {
          "name": "howToCall",
          "type": "uint8"
        },
        {
          "name": "calldata",
          "type": "bytes"
        },
        {
          "name": "replacementPattern",
          "type": "bytes"
        },
        {
          "name": "staticExtradata",
          "type": "bytes"
        }
      ],
      "name": "validateOrderParameters_",
      "outputs": [
        {
          "name": "",
          "type": "bool"
        }
      ],
      "payable": false,
      "stateMutability": "view",
      "type": "function"
    },
    {
      "constant": true,
      "inputs": [
        {
          "name": "addrs",
          "type": "address[7]"
        },
        {
          "name": "uints",
          "type": "uint256[9]"
        },
        {
          "name": "feeMethod",
          "type": "uint8"
        },
        {
          "name": "side",
          "type": "uint8"
        },
        {
          "name": "saleKind",
          "type": "uint8"
        },
        {
          "name": "howToCall",
          "type": "uint8"
        },
        {
          "name": "calldata",
          "type": "bytes"
        },
        {
          "name": "replacementPattern",
          "type": "bytes"
        },
        {
          "name": "staticExtradata",
          "type": "bytes"
        },
        {
          "name": "v",
          "type": "uint8"
        },
        {
          "name": "r",
          "type": "bytes32"
        },
        {
          "name": "s",
          "type": "bytes32"
        }
      ],
      "name": "validateOrder_",
      "outputs": [
        {
          "name": "",
          "type": "bool"
        }
      ],
      "payable": false,
      "stateMutability": "view",
      "type": "function"
    },
    {
      "constant": false,
      "inputs": [
        {
          "name": "addrs",
          "type": "address[7]"
        },
        {
          "name": "uints",
          "type": "uint256[9]"
        },
        {
          "name": "feeMethod",
          "type": "uint8"
        },
        {
          "name": "side",
          "type": "uint8"
        },
        {
          "name": "saleKind",
          "type": "uint8"
        },
        {
          "name": "howToCall",
          "type": "uint8"
        },
        {
          "name": "calldata",
          "type": "bytes"
        },
        {
          "name": "replacementPattern",
          "type": "bytes"
        },
        {
          "name": "staticExtradata",
          "type": "bytes"
        },
        {
          "name": "orderbookInclusionDesired",
          "type": "bool"
        }
      ],
      "name": "approveOrder_",
      "outputs": [],
      "payable": false,
      "stateMutability": "nonpayable",
      "type": "function"
    },
    {
      "constant": false,
      "inputs": [
        {
          "name": "addrs",
          "type": "address[7]"
        },
        {
          "name": "uints",
          "type": "uint256[9]"
        },
        {
          "name": "feeMethod",
          "type": "uint8"
        },
        {
          "name": "side",
          "type": "uint8"
        },
        {
          "name": "saleKind",
          "type": "uint8"
        },
        {
          "name": "howToCall",
          "type": "uint8"
        },
        {
          "name": "calldata",
          "type": "bytes"
        },
        {
          "name": "replacementPattern",
          "type": "bytes"
        },
        {
          "name": "staticExtradata",
          "type": "bytes"
        },
        {
          "name": "v",
          "type": "uint8"
        },
        {
          "name": "r",
          "type": "bytes32"
        },
        {
          "name": "s",
          "type": "bytes32"
        }
      ],
      "name": "cancelOrder_",
      "outputs": [],
      "payable": false,
      "stateMutability": "nonpayable",
      "type": "function"
    },
    {
      "constant": true,
      "inputs": [
        {
          "name": "addrs",
          "type": "address[7]"
        },
        {
          "name": "uints",
          "type": "uint256[9]"
        },
        {
          "name": "feeMethod",
          "type": "uint8"
        },
        {
          "name": "side",
          "type": "uint8"
        },
        {
          "name": "saleKind",
          "type": "uint8"
        },
        {
          "name": "howToCall",
          "type": "uint8"
        },
        {
          "name": "calldata",
          "type": "bytes"
        },
        {
          "name": "replacementPattern",
          "type": "bytes"
        },
        {
          "name": "staticExtradata",
          "type": "bytes"
        }
      ],
      "name": "calculateCurrentPrice_",
      "outputs": [
        {
          "name": "",
          "type": "uint256"
        }
      ],
      "payable": false,
      "stateMutability": "view",
      "type": "function"
    },
    {
      "constant": true,
      "inputs": [
        {
          "name": "addrs",
          "type": "address[14]"
        },
        {
          "name": "uints",
          "type": "uint256[18]"
        },
        {
          "name": "feeMethodsSidesKindsHowToCalls",
          "type": "uint8[8]"
        },
        {
          "name": "calldataBuy",
          "type": "bytes"
        },
        {
          "name": "calldataSell",
          "type": "bytes"
        },
        {
          "name": "replacementPatternBuy",
          "type": "bytes"
        },
        {
          "name": "replacementPatternSell",
          "type": "bytes"
        },
        {
          "name": "staticExtradataBuy",
          "type": "bytes"
        },
        {
          "name": "staticExtradataSell",
          "type": "bytes"
        }
      ],
      "name": "ordersCanMatch_",
      "outputs": [
        {
          "name": "",
          "type": "bool"
        }
      ],
      "payable": false,
      "stateMutability": "view",
      "type": "function"
    },
    {
      "constant": true,
      "inputs": [
        {
          "name": "buyCalldata",
          "type": "bytes"
        },
        {
          "name": "buyReplacementPattern",
          "type": "bytes"
        },
        {
          "name": "sellCalldata",
          "type": "bytes"
        },
        {
          "name": "sellReplacementPattern",
          "type": "bytes"
        }
      ],
      "name": "orderCalldataCanMatch",
      "outputs": [
        {
          "name": "",
          "type": "bool"
        }
      ],
      "payable": false,
      "stateMutability": "pure",
      "type": "function"
    },
    {
      "constant": true,
      "inputs": [
        {
          "name": "addrs",
          "type": "address[14]"
        },
        {
          "name": "uints",
          "type": "uint256[18]"
        },
        {
          "name": "feeMethodsSidesKindsHowToCalls",
          "type": "uint8[8]"
        },
        {
          "name": "calldataBuy",
          "type": "bytes"
        },
        {
          "name": "calldataSell",
          "type": "bytes"
        },
        {
          "name": "replacementPatternBuy",
          "type": "bytes"
        },
        {
          "name": "replacementPatternSell",
          "type": "bytes"
        },
        {
          "name": "staticExtradataBuy",
          "type": "bytes"
        },
        {
          "name": "staticExtradataSell",
          "type": "bytes"
        }
      ],
      "name": "calculateMatchPrice_",
      "outputs": [
        {
          "name": "",
          "type": "uint256"
        }
      ],
      "payable": false,
      "stateMutability": "view",
      "type": "function"
    },
    {
      "constant": false,
      "inputs": [
        {
          "name": "addrs",
          "type": "address[14]"
        },
        {
          "name": "uints",
          "type": "uint256[18]"
        },
        {
          "name": "feeMethodsSidesKindsHowToCalls",
          "type": "uint8[8]"
        },
        {
          "name": "calldataBuy",
          "type": "bytes"
        },
        {
          "name": "calldataSell",
          "type": "bytes"
        },
        {
          "name": "replacementPatternBuy",
          "type": "bytes"
        },
        {
          "name": "replacementPatternSell",
          "type": "bytes"
        },
        {
          "name": "staticExtradataBuy",
          "type": "bytes"
        },
        {
          "name": "staticExtradataSell",
          "type": "bytes"
        },
        {
          "name": "vs",
          "type": "uint8[2]"
        },
        {
          "name": "rssMetadata",
          "type": "bytes32[5]"
        }
      ],
      "name": "atomicMatch_",
      "outputs": [],
      "payable": true,
      "stateMutability": "payable",
      "type": "function"
    }
  ],
  "bytecode": "0x60806040526000805460068290556007829055600160a060020a03331661010002600160a860020a0319909116179055614e768061003e6000396000f3006080604052600436106101875763ffffffff60e060020a6000350416630eefdbad811461018c57806310796a47146101bd57806314350c24146102765780631a6b13e214610290578063239e83df146102a857806328a8ee68146103f25780633464af6a146104195780633e1e292a1461043a5780633f67ee0d146104935780633fcaeb74146105d8578063514f0330146105f9578063562b2ebc1461061a57806360bef33a1461072d57806363d36c0b1461088157806364df049e146108ae578063715018a6146108c357806371d02b38146108d857806372593b4c14610a1d5780637966686814610c245780637b10399914610d6d5780637ccefc5214610d825780637d76698114610d975780638076f00514610edc5780638da5cb5b14610ef45780638ea5220f14610f09578063a25eb5d914610f1e578063a8a41c7014610f33578063ab834bab14611087578063ca595b9a146112ca578063cae6047f1461140f578063d537e13114611424578063e57d4adb1461162b578063f2fde38b14611643575b600080fd5b34801561019857600080fd5b506101a1611664565b60408051600160a060020a039092168252519081900360200190f35b3480156101c957600080fd5b5060408051602060046024803582810135601f8101859004850286018501909652858552610262958335600160a060020a031695369560449491939091019190819084018382808284375050604080516020601f89358b018035918201839004830284018301909452808352979a9998810197919650918201945092508291508401838280828437509497506116739650505050505050565b604080519115158252519081900360200190f35b34801561028257600080fd5b5061028e6004356116e2565b005b34801561029c57600080fd5b5061028e600435611707565b3480156102b457600080fd5b506040805160206004803580820135601f810184900484028501840190955284845261037d94369492936024939284019190819084018382808284375050604080516020601f89358b018035918201839004830284018301909452808352979a99988101979196509182019450925082915084018382808284375050604080516020601f89358b018035918201839004830284018301909452808352979a99988101979196509182019450925082915084018382808284375094975061172c9650505050505050565b6040805160208082528351818301528351919283929083019185019080838360005b838110156103b757818101518382015260200161039f565b50505050905090810190601f1680156103e45780820380516001836020036101000a031916815260200191505b509250505060405180910390f35b3480156103fe57600080fd5b50610407611743565b60408051918252519081900360200190f35b34801561042557600080fd5b5061037d600160a060020a0360043516611749565b34801561044657600080fd5b506040805160206004803580820135601f810184900484028501840190955284845261037d9436949293602493928401919081908401838280828437509497506117899650505050505050565b34801561049f57600080fd5b506040805160e081810190925261040791369160049160e49190839060079083908390808284375050604080516101208181019092529497969581810195945092506009915083908390808284375050604080516020601f60808901358a0180359182018390048302840183018552818452979a60ff8a3581169b848c013582169b9687013582169a6060880135909216995091975090955060a090940193820191819084018382808284375050604080516020601f89358b018035918201839004830284018301909452808352979a99988101979196509182019450925082915084018382808284375050604080516020601f89358b018035918201839004830284018301909452808352979a9998810197919650918201945092508291508401838280828437509497506117cf9650505050505050565b3480156105e457600080fd5b5061028e600160a060020a036004351661191d565b34801561060557600080fd5b5061028e600160a060020a036004351661196c565b34801561062657600080fd5b506040805160206004803580820135601f810184900484028501840190955284845261026294369492936024939284019190819084018382808284375050604080516020601f89358b018035918201839004830284018301909452808352979a99988101979196509182019450925082915084018382808284375050604080516020601f89358b018035918201839004830284018301909452808352979a99988101979196509182019450925082915084018382808284375050604080516020601f89358b018035918201839004830284018301909452808352979a9998810197919650918201945092508291508401838280828437509497506119bb9650505050505050565b34801561073957600080fd5b506040805160e081810190925261026291369160049160e49190839060079083908390808284375050604080516101208181019092529497969581810195945092506009915083908390808284375050604080516020601f60808901358a0180359182018390048302840183018552818452979a60ff8a3581169b848c013582169b9687013582169a6060880135909216995091975090955060a090940193820191819084018382808284375050604080516020601f89358b018035918201839004830284018301909452808352979a99988101979196509182019450925082915084018382808284375050604080516020601f89358b018035918201839004830284018301909452808352979a9998810197919650918201945092508291508401838280828437509497505050833560ff16945050506020820135916040013590506119f9565b34801561088d57600080fd5b5061040760ff6004358116906024351660443560643560843560a435611be8565b3480156108ba57600080fd5b506101a1611c03565b3480156108cf57600080fd5b5061028e611c12565b3480156108e457600080fd5b506040805160e081810190925261040791369160049160e49190839060079083908390808284375050604080516101208181019092529497969581810195945092506009915083908390808284375050604080516020601f60808901358a0180359182018390048302840183018552818452979a60ff8a3581169b848c013582169b9687013582169a6060880135909216995091975090955060a090940193820191819084018382808284375050604080516020601f89358b018035918201839004830284018301909452808352979a99988101979196509182019450925082915084018382808284375050604080516020601f89358b018035918201839004830284018301909452808352979a999881019791965091820194509250829150840183828082843750949750611c8c9650505050505050565b348015610a2957600080fd5b50604080516101c08181019092526102629136916004916101c491908390600e9083908390808284375050604080516102408181019092529497969581810195945092506012915083908390808284375050604080516101008181019092529497969581810195945092506008915083908390808284375050604080516020601f88358a0180359182018390048302840183019094528083529699989781019691955091820193509150819084018382808284375050604080516020601f89358b018035918201839004830284018301909452808352979a99988101979196509182019450925082915084018382808284375050604080516020601f89358b018035918201839004830284018301909452808352979a99988101979196509182019450925082915084018382808284375050604080516020601f89358b018035918201839004830284018301909452808352979a99988101979196509182019450925082915084018382808284375050604080516020601f89358b018035918201839004830284018301909452808352979a99988101979196509182019450925082915084018382808284375050604080516020601f89358b018035918201839004830284018301909452808352979a999881019791965091820194509250829150840183828082843750949750611dcc9650505050505050565b348015610c3057600080fd5b506040805160e081810190925261028e91369160049160e49190839060079083908390808284375050604080516101208181019092529497969581810195945092506009915083908390808284375050604080516020601f60808901358a0180359182018390048302840183018552818452979a60ff8a3581169b848c013582169b9687013582169a6060880135909216995091975090955060a090940193820191819084018382808284375050604080516020601f89358b018035918201839004830284018301909452808352979a99988101979196509182019450925082915084018382808284375050604080516020601f89358b018035918201839004830284018301909452808352979a9998810197919650918201945092508291508401838280828437509497505050509135151592506121b8915050565b348015610d7957600080fd5b506101a161230d565b348015610d8e57600080fd5b5061040761231c565b348015610da357600080fd5b506040805160e081810190925261040791369160049160e49190839060079083908390808284375050604080516101208181019092529497969581810195945092506009915083908390808284375050604080516020601f60808901358a0180359182018390048302840183018552818452979a60ff8a3581169b848c013582169b9687013582169a6060880135909216995091975090955060a090940193820191819084018382808284375050604080516020601f89358b018035918201839004830284018301909452808352979a99988101979196509182019450925082915084018382808284375050604080516020601f89358b018035918201839004830284018301909452808352979a9998810197919650918201945092508291508401838280828437509497506123229650505050505050565b348015610ee857600080fd5b50610262600435612462565b348015610f0057600080fd5b506101a1612477565b348015610f1557600080fd5b506101a161248b565b348015610f2a57600080fd5b506101a161249a565b348015610f3f57600080fd5b506040805160e081810190925261028e91369160049160e49190839060079083908390808284375050604080516101208181019092529497969581810195945092506009915083908390808284375050604080516020601f60808901358a0180359182018390048302840183018552818452979a60ff8a3581169b848c013582169b9687013582169a6060880135909216995091975090955060a090940193820191819084018382808284375050604080516020601f89358b018035918201839004830284018301909452808352979a99988101979196509182019450925082915084018382808284375050604080516020601f89358b018035918201839004830284018301909452808352979a9998810197919650918201945092508291508401838280828437509497505050833560ff16945050506020820135916040013590506124a9565b604080516101c081810190925261028e9136916004916101c491908390600e9083908390808284375050604080516102408181019092529497969581810195945092506012915083908390808284375050604080516101008181019092529497969581810195945092506008915083908390808284375050604080516020601f88358a0180359182018390048302840183019094528083529699989781019691955091820193509150819084018382808284375050604080516020601f89358b018035918201839004830284018301909452808352979a99988101979196509182019450925082915084018382808284375050604080516020601f89358b018035918201839004830284018301909452808352979a99988101979196509182019450925082915084018382808284375050604080516020601f89358b018035918201839004830284018301909452808352979a99988101979196509182019450925082915084018382808284375050604080516020601f89358b018035918201839004830284018301909452808352979a99988101979196509182019450925082915084018382808284375050604080516020601f89358b018035918201839004830284018301909452808352979a999881019791965091820194509250829150840183828082843750506040805180820182529598979681810196955093506002925084915083908082843750506040805160a08181019092529497969581810195945092506005915083908390808284375093965061267f95505050505050565b3480156112d657600080fd5b506040805160e081810190925261026291369160049160e49190839060079083908390808284375050604080516101208181019092529497969581810195945092506009915083908390808284375050604080516020601f60808901358a0180359182018390048302840183018552818452979a60ff8a3581169b848c013582169b9687013582169a6060880135909216995091975090955060a090940193820191819084018382808284375050604080516020601f89358b018035918201839004830284018301909452808352979a99988101979196509182019450925082915084018382808284375050604080516020601f89358b018035918201839004830284018301909452808352979a999881019791965091820194509250829150840183828082843750949750612a959650505050505050565b34801561141b57600080fd5b50610407612bed565b34801561143057600080fd5b50604080516101c08181019092526104079136916004916101c491908390600e9083908390808284375050604080516102408181019092529497969581810195945092506012915083908390808284375050604080516101008181019092529497969581810195945092506008915083908390808284375050604080516020601f88358a0180359182018390048302840183019094528083529699989781019691955091820193509150819084018382808284375050604080516020601f89358b018035918201839004830284018301909452808352979a99988101979196509182019450925082915084018382808284375050604080516020601f89358b018035918201839004830284018301909452808352979a99988101979196509182019450925082915084018382808284375050604080516020601f89358b018035918201839004830284018301909452808352979a99988101979196509182019450925082915084018382808284375050604080516020601f89358b018035918201839004830284018301909452808352979a99988101979196509182019450925082915084018382808284375050604080516020601f89358b018035918201839004830284018301909452808352979a999881019791965091820194509250829150840183828082843750949750612bf39650505050505050565b34801561163757600080fd5b50610262600435612fcf565b34801561164f57600080fd5b5061028e600160a060020a0360043516612fe4565b600354600160a060020a031681565b60006060600083518551016040519080825280601f01601f1916602001820160405280156116ab578160200160208202803883390190505b50915050602081016116bd8185613010565b90506116c98186613010565b506000604051835160208501895afa9695505050505050565b60005433600160a060020a03908116610100909204161461170257600080fd5b600655565b60005433600160a060020a03908116610100909204161461172757600080fd5b600755565b6060611739848484613056565b50825b9392505050565b60075481565b60408051601480825281830190925260609182916000916020820161028080388339019050509150506020810161178081856131dd565b50909392505050565b606080600083516040519080825280601f01601f1916602001820160405280156117bd578160200160208202803883390190505b50915050602081016117808185613010565b604080516102e0810182528a51600160a060020a0390811682526020808d01518216818401528c8401518216838501528b51606080850191909152908c01516080840152928b015160a08301528a83015160c0830152918b015190911660e082015260009061190f9061010081018a600181111561184957fe5b815260200189600181111561185a57fe5b815260200188600181111561186b57fe5b815260808d0151600160a060020a0316602082015260400187600181111561188f57fe5b8152602081018790526040810186905260a0808e0151600160a060020a0316606083015260808201869052018c600660209081029190910151600160a060020a031682526080808e01519183019190915260a0808e0151604084015260c08e0151606084015260e08e0151918301919091526101008d01519101526131fd565b9a9950505050505050505050565b60005433600160a060020a03908116610100909204161461193d57600080fd5b6009805473ffffffffffffffffffffffffffffffffffffffff1916600160a060020a0392909216919091179055565b60005433600160a060020a03908116610100909204161461198c57600080fd5b6008805473ffffffffffffffffffffffffffffffffffffffff1916600160a060020a0392909216919091179055565b600080845111156119d1576119d1858486613056565b6000825111156119e6576119e6838684613056565b6119f08584613233565b95945050505050565b6000611a03614d86565b604080516102e08101909152808f600060209081029190910151600160a060020a03168252018f600160209081029190910151600160a060020a03168252018f600260209081029190910151600160a060020a03168252018e6000602090810291909101518252018e6001602090810291909101518252018e6002602090810291909101518252018e6003602090810291909101518252018f60036020020151600160a060020a031681526020018d6001811115611abd57fe5b81526020018c6001811115611ace57fe5b81526020018b6001811115611adf57fe5b81526020018f60046020020151600160a060020a031681526020018a6001811115611b0657fe5b8152602081018a9052604081018990526060018f60056020020151600160a060020a031681526020018781526020018f6006600781101515611b4457fe5b60209081029190910151600160a060020a03168252018e6004602090810291909101518252018e6005602090810291909101518252018e6006602090810291909101518252018e6007602090810291909101518252018e6008602002015190529050611bd6611bb282613297565b6040805160608101825260ff891681526020810188905290810186905283906132e2565b9e9d5050505050505050505050505050565b6000611bf88787878787876133d7565b979650505050505050565b600854600160a060020a031681565b60005433600160a060020a039081166101009092041614611c3257600080fd5b60008054604051610100909104600160a060020a0316917ff8df31144d9c2f0f6b59d69b8b98abd5459d07f2742c4df920b25aae33c6482091a26000805474ffffffffffffffffffffffffffffffffffffffff0019169055565b604080516102e0810182528a51600160a060020a0390811682526020808d01518216818401528c8401518216838501528b51606080850191909152908c01516080840152928b015160a08301528a83015160c0830152918b015190911660e082015260009061190f9061010081018a6001811115611d0657fe5b8152602001896001811115611d1757fe5b8152602001886001811115611d2857fe5b815260808d0151600160a060020a03166020820152604001876001811115611d4c57fe5b8152602081018790526040810186905260a0808e0151600160a060020a0316606083015260808201869052018c600660209081029190910151600160a060020a031682526080808e01519183019190915260a0808e0151604084015260c08e0151606084015260e08e0151918301919091526101008d015191015261346a565b6000611dd6614d86565b611dde614d86565b604080516102e08101909152808d600060209081029190910151600160a060020a03168252018d600160209081029190910151600160a060020a03168252018d600260209081029190910151600160a060020a03168252018c6000602090810291909101518252018c6001602090810291909101518252018c6002602090810291909101518252018c6003602090810291909101518252018d600360209081029190910151600160a060020a03168252018b6000602002015160ff166001811115611ea557fe5b6001811115611eb057fe5b81526020018b6001602002015160ff166001811115611ecb57fe5b6001811115611ed657fe5b81526020018b6002602002015160ff166001811115611ef157fe5b6001811115611efc57fe5b815260808e0151600160a060020a0316602082015260608c015160409091019060ff166001811115611f2a57fe5b6001811115611f3557fe5b8152602081018b90526040810189905260a0808f0151600160a060020a0316606083015260808201889052018d600660209081029190910151600160a060020a03168252018c6004602090810291909101518252018c6005602090810291909101518252018c6006602090810291909101518252018c6007602090810291909101518252018c600860200201519052604080516102e08101909152909250808d600760209081029190910151600160a060020a03168252018d600860209081029190910151600160a060020a03168252018d600960209081029190910151600160a060020a03168252018c6009602090810291909101518252018c600a602090810291909101518252018c600b602090810291909101518252018c600c602090810291909101518252018d600a60209081029190910151600160a060020a03168252018b6004602002015160ff16600181111561208e57fe5b600181111561209957fe5b81526020018b6005602002015160ff1660018111156120b457fe5b60018111156120bf57fe5b81526020018b6006602002015160ff1660018111156120da57fe5b60018111156120e557fe5b81526101608e0151600160a060020a0316602082015260e08c015160409091019060ff16600181111561211457fe5b600181111561211f57fe5b8152602081018a9052604081018890526101808e0151600160a060020a031660608201526080810186905260a0018d600d60209081029190910151600160a060020a031682526101a08e0151908201526101c08d015160408201526101e08d015160608201526102008d015160808201526102208d015160a09091015290506121a88282613659565b9c9b505050505050505050505050565b6121c0614d86565b604080516102e0810182528c51600160a060020a0390811682526020808f01518216818401528e8401518216838501528d51606080850191909152908e01516080840152928d015160a08301528c83015160c0830152918d015190911660e082015261010081018a600181111561223357fe5b815260200189600181111561224457fe5b815260200188600181111561225557fe5b815260808d0151600160a060020a0316602082015260400187600181111561227957fe5b8152602081018790526040810186905260a0808e0151600160a060020a0316606083015260808201869052018c600660209081029190910151600160a060020a031682526080808e01519183019190915260a0808e0151604084015260c08e0151606084015260e08e0151918301919091526101008d015191015290506123008183613833565b5050505050505050505050565b600254600160a060020a031681565b60065481565b604080516102e0810182528a51600160a060020a0390811682526020808d01518216818401528c8401518216838501528b51606080850191909152908c01516080840152928b015160a08301528a83015160c0830152918b015190911660e082015260009061190f9061010081018a600181111561239c57fe5b81526020018960018111156123ad57fe5b81526020018860018111156123be57fe5b815260808d0151600160a060020a031660208201526040018760018111156123e257fe5b8152602081018790526040810186905260a0808e0151600160a060020a0316606083015260808201869052018c600660209081029190910151600160a060020a031682526080808e01519183019190915260a0808e0151604084015260c08e0151606084015260e08e0151918301919091526101008d0151910152613297565b60046020526000908152604090205460ff1681565b6000546101009004600160a060020a031681565b600954600160a060020a031681565b600154600160a060020a031681565b604080516102e0810190915261267190808e600060209081029190910151600160a060020a03168252018e600160209081029190910151600160a060020a03168252018e600260209081029190910151600160a060020a03168252018d6000602090810291909101518252018d6001602090810291909101518252018d6002602090810291909101518252018d6003602090810291909101518252018e60036020020151600160a060020a031681526020018c600181111561256757fe5b81526020018b600181111561257857fe5b81526020018a600181111561258957fe5b815260808f0151600160a060020a031660208201526040018960018111156125ad57fe5b815260208101899052604081018890526060018e60056020020151600160a060020a031681526020018681526020018e60066007811015156125eb57fe5b60209081029190910151600160a060020a03168252018d6004602090810291909101518252018d6005602090810291909101518252018d6006602090810291909101518252018d6007602090810291909101518252018d6008602090810291909101519091526040805160608101825260ff881681529182018690528101849052613c01565b505050505050505050505050565b604080516102e0810182528c51600160a060020a0390811682526020808f01518216818401528e8401518216838501528d51606080850191909152908e01516080840152928d015160a08301528c83015160c0830152918d015190911660e08201528951612300919061010082019060ff1660018111156126fc57fe5b600181111561270757fe5b81526020018b6001602002015160ff16600181111561272257fe5b600181111561272d57fe5b81526020018b6002602002015160ff16600181111561274857fe5b600181111561275357fe5b815260808e0151600160a060020a0316602082015260608c015160409091019060ff16600181111561278157fe5b600181111561278c57fe5b8152602081018b90526040810189905260a0808f0151600160a060020a0316606083015260808201889052018d600660209081029190910151600160a060020a03168252018c6004602090810291909101518252018c6005602090810291909101518252018c6006602090810291909101518252018c6007602090810291909101518252018c6008602002015190526040805160608101909152808560006020908102919091015160ff168252018460006020908102919091015182520184600160200201519052604080516102e08101909152808f600760209081029190910151600160a060020a03168252018f600860209081029190910151600160a060020a03168252018f600960209081029190910151600160a060020a03168252018e6009602090810291909101518252018e600a602090810291909101518252018e600b602090810291909101518252018e600c602090810291909101518252018f600a60209081029190910151600160a060020a03168252018d6004602002015160ff16600181111561291b57fe5b600181111561292657fe5b81526020018d6005602002015160ff16600181111561294157fe5b600181111561294c57fe5b81526020018d6006602002015160ff16600181111561296757fe5b600181111561297257fe5b81526020018f600b60209081029190910151600160a060020a03168252018d6007602002015160ff1660018111156129a657fe5b60018111156129b157fe5b8152602081018c9052604081018a90526060018f600c6020020151600160a060020a031681526020018781526020018f600d600e811015156129ef57fe5b60209081029190910151600160a060020a03168252018e600d602090810291909101518252018e600e602090810291909101518252018e600f602090810291909101518252018e6010602090810291909101518252018e6011602002015190526040805160608101909152808760016020908102919091015160ff1682520186600260209081029190910151825201866003602002015190528560046020020151613c78565b6000612a9f614d86565b604080516102e0810182528c51600160a060020a0390811682526020808f01518216818401528e8401518216838501528d51606080850191909152908e01516080840152928d015160a08301528c83015160c0830152918d015190911660e082015261010081018a6001811115612b1257fe5b8152602001896001811115612b2357fe5b8152602001886001811115612b3457fe5b815260808d0151600160a060020a03166020820152604001876001811115612b5857fe5b8152602081018790526040810186905260a0808e0151600160a060020a0316606083015260808201869052018c600660209081029190910151600160a060020a031682526080808e01519183019190915260a0808e0151604084015260c08e0151606084015260e08e0151918301919091526101008d01519101529050612bde81614258565b9b9a5050505050505050505050565b61271081565b6000612bfd614d86565b612c05614d86565b604080516102e08101909152808d600060209081029190910151600160a060020a03168252018d600160209081029190910151600160a060020a03168252018d600260209081029190910151600160a060020a03168252018c6000602090810291909101518252018c6001602090810291909101518252018c6002602090810291909101518252018c6003602090810291909101518252018d600360209081029190910151600160a060020a03168252018b6000602002015160ff166001811115612ccc57fe5b6001811115612cd757fe5b81526020018b6001602002015160ff166001811115612cf257fe5b6001811115612cfd57fe5b81526020018b6002602002015160ff166001811115612d1857fe5b6001811115612d2357fe5b815260808e0151600160a060020a0316602082015260608c015160409091019060ff166001811115612d5157fe5b6001811115612d5c57fe5b8152602081018b90526040810189905260a0808f0151600160a060020a0316606083015260808201889052018d600660209081029190910151600160a060020a03168252018c6004602090810291909101518252018c6005602090810291909101518252018c6006602090810291909101518252018c6007602090810291909101518252018c600860200201519052604080516102e08101909152909250808d600760209081029190910151600160a060020a03168252018d600860209081029190910151600160a060020a03168252018d600960209081029190910151600160a060020a03168252018c6009602090810291909101518252018c600a602090810291909101518252018c600b602090810291909101518252018c600c602090810291909101518252018d600a60209081029190910151600160a060020a03168252018b6004602002015160ff166001811115612eb557fe5b6001811115612ec057fe5b81526020018b6005602002015160ff166001811115612edb57fe5b6001811115612ee657fe5b81526020018b6006602002015160ff166001811115612f0157fe5b6001811115612f0c57fe5b81526101608e0151600160a060020a0316602082015260e08c015160409091019060ff166001811115612f3b57fe5b6001811115612f4657fe5b8152602081018a9052604081018890526101808e0151600160a060020a031660608201526080810186905260a0018d600d60209081029190910151600160a060020a031682526101a08e0151908201526101c08d015160408201526101e08d015160608201526102008d015160808201526102208d015160a09091015290506121a882826142ec565b60056020526000908152604090205460ff1681565b60005433600160a060020a03908116610100909204161461300457600080fd5b61300d8161437c565b50565b6000808251111561304d57815180602001830160208401855b60018383101415613044578151815260209182019101613029565b50505092909201915b50815b92915050565b60008060008451865114151561306b57600080fd5b835186511461307957600080fd5b855160209004925060208084029250839083041461309357fe5b5060005b828110156130c35760010160208102848101518682015191880180519282169119909216179052613097565b60008311156130f357829050806001016020028085015181870151811682890151821916178289015250506131d5565b50805b85518110156131d557848181518110151561310d57fe5b90602001015160f860020a900460f860020a02848281518110151561312e57fe5b90602001015160f860020a900460f860020a0216868281518110151561315057fe5b90602001015160f860020a900460f860020a02858381518110151561317157fe5b90602001015160f860020a900460f860020a0260ff60f860020a02181617868281518110151561319d57fe5b9060200101907effffffffffffffffffffffffffffffffffffffffffffffffffffffffffffff1916908160001a9053506001016130f6565b505050505050565b600160a060020a03166c0100000000000000000000000002815260140190565b600061322b826101200151836101400151846102400151856102600151866102800151876102a001516133d7565b90505b919050565b81518151600091600191811480831461324f576000925061328d565b600160208701838101602088015b60028483851001141561328857805183511461327c5760009650600093505b6020928301920161325d565b505050505b5090949350505050565b60006132a28261346a565b604080517f19457468657265756d205369676e6564204d6573736167653a0a3332000000008152601c8101929092525190819003603c0190209050919050565b60006132ed83614258565b15156132fb5750600061173c565b60008481526004602052604090205460ff161561331a5750600061173c565b60008481526005602052604090205460ff16156133395750600161173c565b602080840151835184830151604080870151815160008082528188018085528c905260ff909516818401526060810193909352608083015251600160a060020a039093169360019360a0808401949293601f19830193908390039091019190865af11580156133ac573d6000803e3d6000fd5b50505060206040510351600160a060020a031614156133cd5750600161173c565b5060009392505050565b600080808760018111156133e757fe5b14156133f55785915061345f565b600187600181111561340357fe5b141561345f5761342e61341f8661341a4288614404565b614416565b6134298587614404565b61443f565b9050600188600181111561343e57fe5b14156134555761344e8682614404565b915061345f565b61344e8682614454565b509695505050505050565b6000806060600061347a85614461565b9250826040519080825280601f01601f1916602001820160405280156134aa578160200160208202803883390190505b5091506020820190506134c18186600001516131dd565b90506134d18186602001516131dd565b90506134e18186604001516131dd565b90506134f1818660600151614481565b9050613501818660800151614481565b9050613511818660a00151614481565b9050613521818660c00151614481565b9050613531818660e001516131dd565b905061354d81866101000151600181111561354857fe5b614489565b905061356481866101200151600181111561354857fe5b905061357b81866101400151600181111561354857fe5b905061358c818661016001516131dd565b90506135a381866101800151600181111561354857fe5b90506135b481866101a00151613010565b90506135c581866101c00151613010565b90506135d681866101e001516131dd565b90506135e781866102000151613010565b90506135f8818661022001516131dd565b905061360981866102400151614481565b905061361a81866102600151614481565b905061362b81866102800151614481565b905061363c81866102a00151614481565b905061364d81866102c00151614481565b50506020012092915050565b600080836101200151600181111561366d57fe5b14801561368a57506001826101200151600181111561368857fe5b145b80156136b5575081610100015160018111156136a257fe5b83610100015160018111156136b357fe5b145b80156136dc5750816102200151600160a060020a0316836102200151600160a060020a0316145b801561371657506040820151600160a060020a0316158061371657508260200151600160a060020a03168260400151600160a060020a0316145b801561375057506040830151600160a060020a0316158061375057508160200151600160a060020a03168360400151600160a060020a0316145b80156137ab575060e0820151600160a060020a031615801561377e575060e0830151600160a060020a031615155b806137ab575060e0820151600160a060020a0316158015906137ab575060e0830151600160a060020a0316155b80156137d25750816101600151600160a060020a0316836101600151600160a060020a0316145b80156137fd575081610180015160018111156137ea57fe5b83610180015160018111156137fb57fe5b145b80156138185750613818836102800151846102a00151614496565b801561173c575061173c826102800151836102a00151614496565b60008260200151600160a060020a031633600160a060020a031614151561385957600080fd5b61386283613297565b60008181526005602052604090205490915060ff161561388157600080fd5b600160056000836000191660001916815260200190815260200160002060006101000a81548160ff0219169083151502179055508260e00151600160a060020a03168360200151600160a060020a031682600019167f90c7f9f5b58c15f0f635bfb99f55d3d78fdbef3559e7d8abf5c81052a527662286600001518760400151886060015189608001518a60a001518b60c001518c61010001518d61012001518e61014001518f6101600151604051808b600160a060020a0316600160a060020a031681526020018a600160a060020a0316600160a060020a0316815260200189815260200188815260200187815260200186815260200185600181111561398557fe5b60ff16815260200184600181111561399957fe5b60ff1681526020018360018111156139ad57fe5b60ff168152600160a060020a039092166020830152506040805191829003019950975050505050505050a480600019167fe55393c778364e440d958b39ac1debd99dcfae3775a8a04d1e79124adf6a2d08846101800151856101a00151866101c00151876101e001518861020001518961022001518a61024001518b61026001518c61028001518d6102a001518e6102c001518e604051808d6001811115613a5157fe5b60ff16815260200180602001806020018c600160a060020a0316600160a060020a03168152602001806020018b600160a060020a0316600160a060020a031681526020018a81526020018981526020018881526020018781526020018681526020018515151515815260200184810384528f818151815260200191508051906020019080838360005b83811015613af2578181015183820152602001613ada565b50505050905090810190601f168015613b1f5780820380516001836020036101000a031916815260200191505b5084810383528e818151815260200191508051906020019080838360005b83811015613b55578181015183820152602001613b3d565b50505050905090810190601f168015613b825780820380516001836020036101000a031916815260200191505b5084810382528c5181528c516020918201918e019080838360005b83811015613bb5578181015183820152602001613b9d565b50505050905090810190601f168015613be25780820380516001836020036101000a031916815260200191505b509f5050505050505050505050505050505060405180910390a2505050565b6000613c0d83836144b2565b90508260200151600160a060020a031633600160a060020a0316141515613c3357600080fd5b600081815260046020526040808220805460ff191660011790555182917f5152abf959f6564662358c2e52b702259b78bac5ee7842a0f01937e670efcc7d91a2505050565b6000805481908190819081908190819060ff1615613c9557600080fd5b6000805460ff1916600117905560208c0151600160a060020a0390811633919091161415613cd657613cc68c614258565b1515613cd157600080fd5b613ce3565b613ce08c8c6144b2565b96505b33600160a060020a03168a60200151600160a060020a03161415613d1a57613d0a8a614258565b1515613d1557600080fd5b613d27565b613d248a8a6144b2565b95505b613d318c8b613659565b1515613d3c57600080fd5b6101608a0151803b9550935060008511613d5557600080fd5b60008c6101c00151511115613d7e57613d7e8c6101a001518b6101a001518e6101c00151613056565b60008a6101c00151511115613da757613da78a6101a001518d6101a001518c6101c00151613056565b613dbb8c6101a001518b6101a00151613233565b1515613dc657600080fd5b6002546020808c0151604080517fc4552791000000000000000000000000000000000000000000000000000000008152600160a060020a0392831660048201529051919093169263c45527919260248083019391928290030181600087803b158015613e3157600080fd5b505af1158015613e45573d6000803e3d6000fd5b505050506040513d6020811015613e5b57600080fd5b50519250600160a060020a0383161515613e7457600080fd5b600260009054906101000a9004600160a060020a0316600160a060020a03166397204d8e6040518163ffffffff1660e060020a028152600401602060405180830381600087803b158015613ec757600080fd5b505af1158015613edb573d6000803e3d6000fd5b505050506040513d6020811015613ef157600080fd5b5051604080517f5c60da1b0000000000000000000000000000000000000000000000000000000081529051600160a060020a0392831692861691635c60da1b9160048083019260209291908290030181600087803b158015613f5257600080fd5b505af1158015613f66573d6000803e3d6000fd5b505050506040513d6020811015613f7c57600080fd5b5051600160a060020a031614613f9157600080fd5b8291508b60200151600160a060020a031633600160a060020a0316141515613fcd576000878152600460205260409020805460ff191660011790555b8960200151600160a060020a031633600160a060020a0316141515614006576000868152600460205260409020805460ff191660011790555b6140108c8b6144d6565b905081600160a060020a0316631b0f7ba98b61016001518c61018001518d6101a001516040518463ffffffff1660e060020a0281526004018084600160a060020a0316600160a060020a0316815260200183600181111561406d57fe5b60ff16815260200180602001828103825283818151815260200191508051906020019080838360005b838110156140ae578181015183820152602001614096565b50505050905090810190601f1680156140db5780820380516001836020036101000a031916815260200191505b50945050505050602060405180830381600087803b1580156140fc57600080fd5b505af1158015614110573d6000803e3d6000fd5b505050506040513d602081101561412657600080fd5b5051151561413357600080fd5b6101e08c0151600160a060020a03161561416c576141618c6101e001518b6101a001518e6102000151611673565b151561416c57600080fd5b6101e08a0151600160a060020a0316156141a55761419a8a6101e001518b6101a001518c6102000151611673565b15156141a557600080fd5b60e08a01518890600160a060020a031615156141c5578a602001516141cb565b8c602001515b60e08c0151600160a060020a03918216911615156141ed578d602001516141f3565b8b602001515b604080518b8152602081018b90528082018690529051600160a060020a0392909216917fc4109843e0b7d514e4c093114b863f8e7d8d9a458c372cd51bfe526b588006c99181900360600190a450506000805460ff1916905550505050505050505050565b600030600160a060020a03168260000151600160a060020a03161415156142815750600061322e565b614295826101400151836102a00151614b71565b15156142a35750600061322e565b600182610100015160018111156142b657fe5b1480156142d757506006548260a0015110806142d757506007548260c00151105b156142e45750600061322e565b506001919050565b600080600061431d846101200151856101400151866102400151876102600151886102800151896102a001516133d7565b915061434b8561012001518661014001518761024001518861026001518961028001518a6102a001516133d7565b90508181101561435a57600080fd5b60e0840151600160a060020a0316151561437457806119f0565b509392505050565b600160a060020a038116151561439157600080fd5b60008054604051600160a060020a038085169361010090930416917f8be0079c531659141344cd1fd0a4f28419497f9722a3daafe3b4186f6b6457e091a360008054600160a060020a039092166101000274ffffffffffffffffffffffffffffffffffffffff0019909216919091179055565b60008282111561441057fe5b50900390565b600082151561442757506000613050565b5081810281838281151561443757fe5b041461305057fe5b6000818381151561444c57fe5b049392505050565b8181018281101561305057fe5b610200810151516101c0820151516101a08301515101016101b001919050565b815260200190565b6000818353505060010190565b6000428310801561173c575081158061173c5750504210919050565b6000806144be84613297565b90506144cb8185856132e2565b151561173c57600080fd5b600080600080600080600080600080600160a060020a03168a6102200151600160a060020a031614151561450f57341561450f57600080fd5b6145198b8b6142ec565b975060008811801561453857506102208a0151600160a060020a031615155b15614556576145568a61022001518c602001518c602001518b614b90565b60e08a0151889750879650600160a060020a0316156148d0576080808c0151908b0151111561458457600080fd5b60018a6101000151600181111561459757fe5b141561489d5760c0808c0151908b015111156145b257600080fd5b60008a606001511115614656576145d86145d08b606001518a614416565b61271061443f565b6102208b0151909550600160a060020a0316151561463d576145fa8786614404565b60e08b0151604051919850600160a060020a03169086156108fc029087906000818181858888f19350505050158015614637573d6000803e3d6000fd5b50614656565b6146568a61022001518b602001518c60e0015188614b90565b60008a6080015111156146f2576146746145d08b608001518a614416565b6102208b0151909450600160a060020a031615156146d9576146968685614454565b60e08b0151604051919750600160a060020a03169085156108fc029086906000818181858888f193505050501580156146d3573d6000803e3d6000fd5b506146f2565b6146f28a61022001518c602001518c60e0015187614b90565b60008a60a0015111156147c5576147106145d08b60a001518a614416565b6102208b0151909350600160a060020a03161515614773576147328784614404565b600854604051919850600160a060020a03169084156108fc029085906000818181858888f1935050505015801561476d573d6000803e3d6000fd5b506147c5565b6001546102208b0151600160a060020a03908116911614156147a25761479d8a6020015184614c55565b6147c5565b6102208a015160208b01516008546147c5929190600160a060020a031686614b90565b60008a60c001511115614898576147e36145d08b60c001518a614416565b6102208b0151909250600160a060020a03161515614846576148058683614454565b600854604051919750600160a060020a03169083156108fc029084906000818181858888f19350505050158015614840573d6000803e3d6000fd5b50614898565b6001546102208b0151600160a060020a0390811691161415614875576148708b6020015183614c55565b614898565b6102208a015160208c0151600854614898929190600160a060020a031685614b90565b6148cb565b6148b48a602001518b60e001518c60600151614d69565b6148cb8b602001518b60e001518c60800151614d69565b614aae565b6080808b0151908c015111156148e557600080fd5b60018a610100015160018111156148f857fe5b1415614a80576102208a0151600160a060020a0316151561491857600080fd5b60c0808b0151908c0151111561492d57600080fd5b60008b6060015111156149665761494b6145d08c606001518a614416565b94506149668a61022001518c602001518d60e0015188614b90565b60008b60800151111561499f576149846145d08c608001518a614416565b935061499f8a61022001518b602001518d60e0015187614b90565b60008b60a001511115614a12576149bd6145d08c60a001518a614416565b6001546102208c0151919450600160a060020a03918216911614156149ef576149ea8b6020015184614c55565b614a12565b6102208a015160208c0151600854614a12929190600160a060020a031686614b90565b60008b60c0015111156148cb57614a306145d08c60c001518a614416565b6001546102208c0151919350600160a060020a0391821691161415614a5d576148988a6020015183614c55565b6102208a015160208b01516008546148cb929190600160a060020a031685614b90565b614a978b602001518c60e001518d60600151614d69565b614aae8a602001518c60e001518d60800151614d69565b6102208a0151600160a060020a03161515614b625734861115614ad057600080fd5b8960200151600160a060020a03166108fc889081150290604051600060405180830381858888f19350505050158015614b0d573d6000803e3d6000fd5b50614b183487614404565b90506000811115614b62578a60200151600160a060020a03166108fc829081150290604051600060405180830381858888f19350505050158015614b60573d6000803e3d6000fd5b505b50959998505050505050505050565b600080836001811115614b8057fe5b148061173c575050600010919050565b6000811115614c4f57600354604080517f15dacbea000000000000000000000000000000000000000000000000000000008152600160a060020a0387811660048301528681166024830152858116604483015260648201859052915191909216916315dacbea9160848083019260209291908290030181600087803b158015614c1857600080fd5b505af1158015614c2c573d6000803e3d6000fd5b505050506040513d6020811015614c4257600080fd5b50511515614c4f57600080fd5b50505050565b600080600080841115614d6257614c77614c7085600a614416565b606461443f565b9250829150614c8f614c898585614404565b83614404565b600154600854919250614cb191600160a060020a039182169188911684614b90565b600154600954614cd091600160a060020a039081169188911686614b90565b600354600154604080517fec60bcf3000000000000000000000000000000000000000000000000000000008152600160a060020a0392831660048201528883166024820152604481018690529051919092169163ec60bcf391606480830192600092919082900301818387803b158015614d4957600080fd5b505af1158015614d5d573d6000803e3d6000fd5b505050505b5050505050565b600154614d8190600160a060020a0316848484614b90565b505050565b604080516102e081018252600080825260208201819052918101829052606081018290526080810182905260a0810182905260c0810182905260e081018290529061010082019081526020016000815260200160008152600060208201819052604090910190815260200160608152602001606081526020016000600160a060020a03168152602001606081526020016000600160a060020a03168152602001600081526020016000815260200160008152602001600081526020016000815250905600a165627a7a723058204b28a56cdcc1077870a2f7be68d2cc53136271a2b9063a334ce7fc935a39e6160029",
  "source": "/*\n  \n  Exchange contract. This is an outer contract with public or convenience functions and includes no state-modifying functions.\n \n*/\n\npragma solidity 0.4.23;\n\nimport \"./ExchangeCore.sol\";\n\n/**\n * @title Exchange\n * @author Project Wyvern Developers\n */\ncontract Exchange is ExchangeCore {\n\n    /**\n     * @dev Call guardedArrayReplace - library function exposed for testing.\n     */\n    function guardedArrayReplace(bytes array, bytes desired, bytes mask)\n        public\n        pure\n        returns (bytes)\n    {\n        ArrayUtils.guardedArrayReplace(array, desired, mask);\n        return array;\n    }\n\n    /**\n     * Test copy byte array\n     *\n     * @param arrToCopy Array to copy\n     * @return byte array\n     */\n    function testCopy(bytes arrToCopy)\n        public\n        pure\n        returns (bytes)\n    {\n        bytes memory arr = new bytes(arrToCopy.length);\n        uint index;\n        assembly {\n            index := add(arr, 0x20)\n        }\n        ArrayUtils.unsafeWriteBytes(index, arrToCopy);\n        return arr;\n    }\n\n    /**\n     * Test write address to bytes\n     *\n     * @param addr Address to write\n     * @return byte array\n     */\n    function testCopyAddress(address addr)\n        public\n        pure\n        returns (bytes)\n    {\n        bytes memory arr = new bytes(0x14);\n        uint index;\n        assembly {\n            index := add(arr, 0x20)\n        }\n        ArrayUtils.unsafeWriteAddress(index, addr);\n        return arr;\n    }\n\n    /**\n     * @dev Call calculateFinalPrice - library function exposed for testing.\n     */\n    function calculateFinalPrice(SaleKindInterface.Side side, SaleKindInterface.SaleKind saleKind, uint basePrice, uint extra, uint listingTime, uint expirationTime)\n        public\n        view\n        returns (uint)\n    {\n        return SaleKindInterface.calculateFinalPrice(side, saleKind, basePrice, extra, listingTime, expirationTime);\n    }\n\n    /**\n     * @dev Call hashOrder - Solidity ABI encoding limitation workaround, hopefully temporary.\n     */\n    function hashOrder_(\n        address[7] addrs,\n        uint[9] uints,\n        FeeMethod feeMethod,\n        SaleKindInterface.Side side,\n        SaleKindInterface.SaleKind saleKind,\n        AuthenticatedProxy.HowToCall howToCall,\n        bytes calldata,\n        bytes replacementPattern,\n        bytes staticExtradata)\n        public\n        pure\n        returns (bytes32)\n    {\n        return hashOrder(\n          Order(addrs[0], addrs[1], addrs[2], uints[0], uints[1], uints[2], uints[3], addrs[3], feeMethod, side, saleKind, addrs[4], howToCall, calldata, replacementPattern, addrs[5], staticExtradata, ERC20(addrs[6]), uints[4], uints[5], uints[6], uints[7], uints[8])\n        );\n    }\n\n    /**\n     * @dev Call hashToSign - Solidity ABI encoding limitation workaround, hopefully temporary.\n     */\n    function hashToSign_(\n        address[7] addrs,\n        uint[9] uints,\n        FeeMethod feeMethod,\n        SaleKindInterface.Side side,\n        SaleKindInterface.SaleKind saleKind,\n        AuthenticatedProxy.HowToCall howToCall,\n        bytes calldata,\n        bytes replacementPattern,\n        bytes staticExtradata)\n        public\n        pure\n        returns (bytes32)\n    { \n        return hashToSign(\n          Order(addrs[0], addrs[1], addrs[2], uints[0], uints[1], uints[2], uints[3], addrs[3], feeMethod, side, saleKind, addrs[4], howToCall, calldata, replacementPattern, addrs[5], staticExtradata, ERC20(addrs[6]), uints[4], uints[5], uints[6], uints[7], uints[8])\n        );\n    }\n\n    /**\n     * @dev Call validateOrderParameters - Solidity ABI encoding limitation workaround, hopefully temporary.\n     */\n    function validateOrderParameters_ (\n        address[7] addrs,\n        uint[9] uints,\n        FeeMethod feeMethod,\n        SaleKindInterface.Side side,\n        SaleKindInterface.SaleKind saleKind,\n        AuthenticatedProxy.HowToCall howToCall,\n        bytes calldata,\n        bytes replacementPattern,\n        bytes staticExtradata)\n        view\n        public\n        returns (bool)\n    {\n        Order memory order = Order(addrs[0], addrs[1], addrs[2], uints[0], uints[1], uints[2], uints[3], addrs[3], feeMethod, side, saleKind, addrs[4], howToCall, calldata, replacementPattern, addrs[5], staticExtradata, ERC20(addrs[6]), uints[4], uints[5], uints[6], uints[7], uints[8]);\n        return validateOrderParameters(\n          order\n        );\n    }\n\n    /**\n     * @dev Call validateOrder - Solidity ABI encoding limitation workaround, hopefully temporary.\n     */\n    function validateOrder_ (\n        address[7] addrs,\n        uint[9] uints,\n        FeeMethod feeMethod,\n        SaleKindInterface.Side side,\n        SaleKindInterface.SaleKind saleKind,\n        AuthenticatedProxy.HowToCall howToCall,\n        bytes calldata,\n        bytes replacementPattern,\n        bytes staticExtradata,\n        uint8 v,\n        bytes32 r,\n        bytes32 s)\n        view\n        public\n        returns (bool)\n    {\n        Order memory order = Order(addrs[0], addrs[1], addrs[2], uints[0], uints[1], uints[2], uints[3], addrs[3], feeMethod, side, saleKind, addrs[4], howToCall, calldata, replacementPattern, addrs[5], staticExtradata, ERC20(addrs[6]), uints[4], uints[5], uints[6], uints[7], uints[8]);\n        return validateOrder(\n          hashToSign(order),\n          order,\n          Sig(v, r, s)\n        );\n    }\n\n    /**\n     * @dev Call approveOrder - Solidity ABI encoding limitation workaround, hopefully temporary.\n     */\n    function approveOrder_ (\n        address[7] addrs,\n        uint[9] uints,\n        FeeMethod feeMethod,\n        SaleKindInterface.Side side,\n        SaleKindInterface.SaleKind saleKind,\n        AuthenticatedProxy.HowToCall howToCall,\n        bytes calldata,\n        bytes replacementPattern,\n        bytes staticExtradata,\n        bool orderbookInclusionDesired) \n        public\n    {\n        Order memory order = Order(addrs[0], addrs[1], addrs[2], uints[0], uints[1], uints[2], uints[3], addrs[3], feeMethod, side, saleKind, addrs[4], howToCall, calldata, replacementPattern, addrs[5], staticExtradata, ERC20(addrs[6]), uints[4], uints[5], uints[6], uints[7], uints[8]);\n        return approveOrder(order, orderbookInclusionDesired);\n    }\n\n    /**\n     * @dev Call cancelOrder - Solidity ABI encoding limitation workaround, hopefully temporary.\n     */\n    function cancelOrder_(\n        address[7] addrs,\n        uint[9] uints,\n        FeeMethod feeMethod,\n        SaleKindInterface.Side side,\n        SaleKindInterface.SaleKind saleKind,\n        AuthenticatedProxy.HowToCall howToCall,\n        bytes calldata,\n        bytes replacementPattern,\n        bytes staticExtradata,\n        uint8 v,\n        bytes32 r,\n        bytes32 s)\n        public\n    {\n\n        return cancelOrder(\n          Order(addrs[0], addrs[1], addrs[2], uints[0], uints[1], uints[2], uints[3], addrs[3], feeMethod, side, saleKind, addrs[4], howToCall, calldata, replacementPattern, addrs[5], staticExtradata, ERC20(addrs[6]), uints[4], uints[5], uints[6], uints[7], uints[8]),\n          Sig(v, r, s)\n        );\n    }\n\n    /**\n     * @dev Call calculateCurrentPrice - Solidity ABI encoding limitation workaround, hopefully temporary.\n     */\n    function calculateCurrentPrice_(\n        address[7] addrs,\n        uint[9] uints,\n        FeeMethod feeMethod,\n        SaleKindInterface.Side side,\n        SaleKindInterface.SaleKind saleKind,\n        AuthenticatedProxy.HowToCall howToCall,\n        bytes calldata,\n        bytes replacementPattern,\n        bytes staticExtradata)\n        public\n        view\n        returns (uint)\n    {\n        return calculateCurrentPrice(\n          Order(addrs[0], addrs[1], addrs[2], uints[0], uints[1], uints[2], uints[3], addrs[3], feeMethod, side, saleKind, addrs[4], howToCall, calldata, replacementPattern, addrs[5], staticExtradata, ERC20(addrs[6]), uints[4], uints[5], uints[6], uints[7], uints[8])\n        );\n    }\n\n    /**\n     * @dev Call ordersCanMatch - Solidity ABI encoding limitation workaround, hopefully temporary.\n     */\n    function ordersCanMatch_(\n        address[14] addrs,\n        uint[18] uints,\n        uint8[8] feeMethodsSidesKindsHowToCalls,\n        bytes calldataBuy,\n        bytes calldataSell,\n        bytes replacementPatternBuy,\n        bytes replacementPatternSell,\n        bytes staticExtradataBuy,\n        bytes staticExtradataSell)\n        public\n        view\n        returns (bool)\n    {\n        Order memory buy = Order(addrs[0], addrs[1], addrs[2], uints[0], uints[1], uints[2], uints[3], addrs[3], FeeMethod(feeMethodsSidesKindsHowToCalls[0]), SaleKindInterface.Side(feeMethodsSidesKindsHowToCalls[1]), SaleKindInterface.SaleKind(feeMethodsSidesKindsHowToCalls[2]), addrs[4], AuthenticatedProxy.HowToCall(feeMethodsSidesKindsHowToCalls[3]), calldataBuy, replacementPatternBuy, addrs[5], staticExtradataBuy, ERC20(addrs[6]), uints[4], uints[5], uints[6], uints[7], uints[8]);\n        Order memory sell = Order(addrs[7], addrs[8], addrs[9], uints[9], uints[10], uints[11], uints[12], addrs[10], FeeMethod(feeMethodsSidesKindsHowToCalls[4]), SaleKindInterface.Side(feeMethodsSidesKindsHowToCalls[5]), SaleKindInterface.SaleKind(feeMethodsSidesKindsHowToCalls[6]), addrs[11], AuthenticatedProxy.HowToCall(feeMethodsSidesKindsHowToCalls[7]), calldataSell, replacementPatternSell, addrs[12], staticExtradataSell, ERC20(addrs[13]), uints[13], uints[14], uints[15], uints[16], uints[17]);\n        return ordersCanMatch(\n          buy,\n          sell\n        );\n    }\n\n    /**\n     * @dev Return whether or not two orders' calldata specifications can match\n     * @param buyCalldata Buy-side order calldata\n     * @param buyReplacementPattern Buy-side order calldata replacement mask\n     * @param sellCalldata Sell-side order calldata\n     * @param sellReplacementPattern Sell-side order calldata replacement mask\n     * @return Whether the orders' calldata can be matched\n     */\n    function orderCalldataCanMatch(bytes buyCalldata, bytes buyReplacementPattern, bytes sellCalldata, bytes sellReplacementPattern)\n        public\n        pure\n        returns (bool)\n    {\n        if (buyReplacementPattern.length > 0) {\n          ArrayUtils.guardedArrayReplace(buyCalldata, sellCalldata, buyReplacementPattern);\n        }\n        if (sellReplacementPattern.length > 0) {\n          ArrayUtils.guardedArrayReplace(sellCalldata, buyCalldata, sellReplacementPattern);\n        }\n        return ArrayUtils.arrayEq(buyCalldata, sellCalldata);\n    }\n\n    /**\n     * @dev Call calculateMatchPrice - Solidity ABI encoding limitation workaround, hopefully temporary.\n     */\n    function calculateMatchPrice_(\n        address[14] addrs,\n        uint[18] uints,\n        uint8[8] feeMethodsSidesKindsHowToCalls,\n        bytes calldataBuy,\n        bytes calldataSell,\n        bytes replacementPatternBuy,\n        bytes replacementPatternSell,\n        bytes staticExtradataBuy,\n        bytes staticExtradataSell)\n        public\n        view\n        returns (uint)\n    {\n        Order memory buy = Order(addrs[0], addrs[1], addrs[2], uints[0], uints[1], uints[2], uints[3], addrs[3], FeeMethod(feeMethodsSidesKindsHowToCalls[0]), SaleKindInterface.Side(feeMethodsSidesKindsHowToCalls[1]), SaleKindInterface.SaleKind(feeMethodsSidesKindsHowToCalls[2]), addrs[4], AuthenticatedProxy.HowToCall(feeMethodsSidesKindsHowToCalls[3]), calldataBuy, replacementPatternBuy, addrs[5], staticExtradataBuy, ERC20(addrs[6]), uints[4], uints[5], uints[6], uints[7], uints[8]);\n        Order memory sell = Order(addrs[7], addrs[8], addrs[9], uints[9], uints[10], uints[11], uints[12], addrs[10], FeeMethod(feeMethodsSidesKindsHowToCalls[4]), SaleKindInterface.Side(feeMethodsSidesKindsHowToCalls[5]), SaleKindInterface.SaleKind(feeMethodsSidesKindsHowToCalls[6]), addrs[11], AuthenticatedProxy.HowToCall(feeMethodsSidesKindsHowToCalls[7]), calldataSell, replacementPatternSell, addrs[12], staticExtradataSell, ERC20(addrs[13]), uints[13], uints[14], uints[15], uints[16], uints[17]);\n        return calculateMatchPrice(\n          buy,\n          sell\n        );\n    }\n\n    /**\n     * @dev Call atomicMatch - Solidity ABI encoding limitation workaround, hopefully temporary.\n     */\n    function atomicMatch_(\n        address[14] addrs,\n        uint[18] uints,\n        uint8[8] feeMethodsSidesKindsHowToCalls,\n        bytes calldataBuy,\n        bytes calldataSell,\n        bytes replacementPatternBuy,\n        bytes replacementPatternSell,\n        bytes staticExtradataBuy,\n        bytes staticExtradataSell,\n        uint8[2] vs,\n        bytes32[5] rssMetadata)\n        public\n        payable\n    {\n\n        return atomicMatch(\n          Order(addrs[0], addrs[1], addrs[2], uints[0], uints[1], uints[2], uints[3], addrs[3], FeeMethod(feeMethodsSidesKindsHowToCalls[0]), SaleKindInterface.Side(feeMethodsSidesKindsHowToCalls[1]), SaleKindInterface.SaleKind(feeMethodsSidesKindsHowToCalls[2]), addrs[4], AuthenticatedProxy.HowToCall(feeMethodsSidesKindsHowToCalls[3]), calldataBuy, replacementPatternBuy, addrs[5], staticExtradataBuy, ERC20(addrs[6]), uints[4], uints[5], uints[6], uints[7], uints[8]),\n          Sig(vs[0], rssMetadata[0], rssMetadata[1]),\n          Order(addrs[7], addrs[8], addrs[9], uints[9], uints[10], uints[11], uints[12], addrs[10], FeeMethod(feeMethodsSidesKindsHowToCalls[4]), SaleKindInterface.Side(feeMethodsSidesKindsHowToCalls[5]), SaleKindInterface.SaleKind(feeMethodsSidesKindsHowToCalls[6]), addrs[11], AuthenticatedProxy.HowToCall(feeMethodsSidesKindsHowToCalls[7]), calldataSell, replacementPatternSell, addrs[12], staticExtradataSell, ERC20(addrs[13]), uints[13], uints[14], uints[15], uints[16], uints[17]),\n          Sig(vs[1], rssMetadata[2], rssMetadata[3]),\n          rssMetadata[4]\n        );\n    }\n\n}\n",
  "sourcePath": "/Users/ronak/Developer/projects/tsgit/wyvern-js/src/wyvern-ethereum/contracts/exchange/Exchange.sol",
  "compiler": {
    "name": "solc",
    "version": "0.4.23+commit.124ca40d.Emscripten.clang"
  },
  "schemaVersion": "3.2.0",
  "updatedAt": "2021-08-18T09:52:32.379Z",
  "devdoc": {
    "author": "Project Wyvern Developers",
    "methods": {
      "approveOrder_(address[7],uint256[9],uint8,uint8,uint8,uint8,bytes,bytes,bytes,bool)": {
        "details": "Call approveOrder - Solidity ABI encoding limitation workaround, hopefully temporary."
      },
      "atomicMatch_(address[14],uint256[18],uint8[8],bytes,bytes,bytes,bytes,bytes,bytes,uint8[2],bytes32[5])": {
        "details": "Call atomicMatch - Solidity ABI encoding limitation workaround, hopefully temporary."
      },
      "calculateCurrentPrice_(address[7],uint256[9],uint8,uint8,uint8,uint8,bytes,bytes,bytes)": {
        "details": "Call calculateCurrentPrice - Solidity ABI encoding limitation workaround, hopefully temporary."
      },
      "calculateFinalPrice(uint8,uint8,uint256,uint256,uint256,uint256)": {
        "details": "Call calculateFinalPrice - library function exposed for testing."
      },
      "calculateMatchPrice_(address[14],uint256[18],uint8[8],bytes,bytes,bytes,bytes,bytes,bytes)": {
        "details": "Call calculateMatchPrice - Solidity ABI encoding limitation workaround, hopefully temporary."
      },
      "cancelOrder_(address[7],uint256[9],uint8,uint8,uint8,uint8,bytes,bytes,bytes,uint8,bytes32,bytes32)": {
        "details": "Call cancelOrder - Solidity ABI encoding limitation workaround, hopefully temporary."
      },
      "changeDevWalletAddress(address)": {
        "details": "Change the dev wallet (owner only)",
        "params": {
          "newDevWalletAddress": "New dev wallet address"
        }
      },
      "changeMinimumMakerProtocolFee(uint256)": {
        "details": "Change the minimum maker fee paid to the protocol (owner only)",
        "params": {
          "newMinimumMakerProtocolFee": "New fee to set in basis points"
        }
      },
      "changeMinimumTakerProtocolFee(uint256)": {
        "details": "Change the minimum taker fee paid to the protocol (owner only)",
        "params": {
          "newMinimumTakerProtocolFee": "New fee to set in basis points"
        }
      },
      "changeProtocolFeeRecipient(address)": {
        "details": "Change the protocol fee recipient (owner only)",
        "params": {
          "newProtocolFeeRecipient": "New protocol fee recipient address"
        }
      },
      "guardedArrayReplace(bytes,bytes,bytes)": {
        "details": "Call guardedArrayReplace - library function exposed for testing."
      },
      "hashOrder_(address[7],uint256[9],uint8,uint8,uint8,uint8,bytes,bytes,bytes)": {
        "details": "Call hashOrder - Solidity ABI encoding limitation workaround, hopefully temporary."
      },
      "hashToSign_(address[7],uint256[9],uint8,uint8,uint8,uint8,bytes,bytes,bytes)": {
        "details": "Call hashToSign - Solidity ABI encoding limitation workaround, hopefully temporary."
      },
      "orderCalldataCanMatch(bytes,bytes,bytes,bytes)": {
        "details": "Return whether or not two orders' calldata specifications can match",
        "params": {
          "buyCalldata": "Buy-side order calldata",
          "buyReplacementPattern": "Buy-side order calldata replacement mask",
          "sellCalldata": "Sell-side order calldata",
          "sellReplacementPattern": "Sell-side order calldata replacement mask"
        },
        "return": "Whether the orders' calldata can be matched"
      },
      "ordersCanMatch_(address[14],uint256[18],uint8[8],bytes,bytes,bytes,bytes,bytes,bytes)": {
        "details": "Call ordersCanMatch - Solidity ABI encoding limitation workaround, hopefully temporary."
      },
      "renounceOwnership()": {
        "details": "Allows the current owner to relinquish control of the contract."
      },
      "staticCall(address,bytes,bytes)": {
        "details": "Execute a STATICCALL (introduced with Ethereum Metropolis, non-state-modifying external call)",
        "params": {
          "calldata": "Calldata (appended to extradata)",
          "extradata": "Base data for STATICCALL (probably function selector and argument encoding)",
          "target": "Contract to call"
        },
        "return": "The result of the call (success or failure)"
      },
      "testCopy(bytes)": {
        "params": {
          "arrToCopy": "Array to copy"
        },
        "return": "byte array"
      },
      "testCopyAddress(address)": {
        "params": {
          "addr": "Address to write"
        },
        "return": "byte array"
      },
      "transferOwnership(address)": {
        "details": "Allows the current owner to transfer control of the contract to a newOwner.",
        "params": {
          "_newOwner": "The address to transfer ownership to."
        }
      },
      "validateOrderParameters_(address[7],uint256[9],uint8,uint8,uint8,uint8,bytes,bytes,bytes)": {
        "details": "Call validateOrderParameters - Solidity ABI encoding limitation workaround, hopefully temporary."
      },
      "validateOrder_(address[7],uint256[9],uint8,uint8,uint8,uint8,bytes,bytes,bytes,uint8,bytes32,bytes32)": {
        "details": "Call validateOrder - Solidity ABI encoding limitation workaround, hopefully temporary."
      }
    },
    "title": "Exchange"
  },
  "userdoc": {
    "methods": {
      "testCopy(bytes)": {
        "notice": "Test copy byte array"
      },
      "testCopyAddress(address)": {
        "notice": "Test write address to bytes"
      }
    }
  }
}