{
  "contractName": "Exchange",
  "abi": [
    {
      "anonymous": false,
      "inputs": [
        {
          "indexed": true,
          "internalType": "bytes32",
          "name": "hash",
          "type": "bytes32"
        },
        {
          "indexed": false,
          "internalType": "address",
          "name": "exchange",
          "type": "address"
        },
        {
          "indexed": true,
          "internalType": "address",
          "name": "maker",
          "type": "address"
        },
        {
          "indexed": false,
          "internalType": "address",
          "name": "taker",
          "type": "address"
        },
        {
          "indexed": false,
          "internalType": "uint256",
          "name": "makerRelayerFee",
          "type": "uint256"
        },
        {
          "indexed": false,
          "internalType": "uint256",
          "name": "takerRelayerFee",
          "type": "uint256"
        },
        {
          "indexed": false,
          "internalType": "uint256",
          "name": "makerProtocolFee",
          "type": "uint256"
        },
        {
          "indexed": false,
          "internalType": "uint256",
          "name": "takerProtocolFee",
          "type": "uint256"
        },
        {
          "indexed": true,
          "internalType": "address",
          "name": "feeRecipient",
          "type": "address"
        },
        {
          "indexed": false,
          "internalType": "enum ExchangeCore.FeeMethod",
          "name": "feeMethod",
          "type": "uint8"
        },
        {
          "indexed": false,
          "internalType": "enum SaleKindInterface.Side",
          "name": "side",
          "type": "uint8"
        },
        {
          "indexed": false,
          "internalType": "enum SaleKindInterface.SaleKind",
          "name": "saleKind",
          "type": "uint8"
        },
        {
          "indexed": false,
          "internalType": "address",
          "name": "target",
          "type": "address"
        }
      ],
      "name": "OrderApprovedPartOne",
      "type": "event"
    },
    {
      "anonymous": false,
      "inputs": [
        {
          "indexed": true,
          "internalType": "bytes32",
          "name": "hash",
          "type": "bytes32"
        },
        {
          "indexed": false,
          "internalType": "enum AuthenticatedProxy.HowToCall",
          "name": "howToCall",
          "type": "uint8"
        },
        {
          "indexed": false,
          "internalType": "bytes",
          "name": "calldatas",
          "type": "bytes"
        },
        {
          "indexed": false,
          "internalType": "bytes",
          "name": "replacementPattern",
          "type": "bytes"
        },
        {
          "indexed": false,
          "internalType": "address",
          "name": "staticTarget",
          "type": "address"
        },
        {
          "indexed": false,
          "internalType": "bytes",
          "name": "staticExtradata",
          "type": "bytes"
        },
        {
          "indexed": false,
          "internalType": "address",
          "name": "paymentToken",
          "type": "address"
        },
        {
          "indexed": false,
          "internalType": "uint256",
          "name": "basePrice",
          "type": "uint256"
        },
        {
          "indexed": false,
          "internalType": "uint256",
          "name": "extra",
          "type": "uint256"
        },
        {
          "indexed": false,
          "internalType": "uint256",
          "name": "listingTime",
          "type": "uint256"
        },
        {
          "indexed": false,
          "internalType": "uint256",
          "name": "expirationTime",
          "type": "uint256"
        },
        {
          "indexed": false,
          "internalType": "uint256",
          "name": "salt",
          "type": "uint256"
        },
        {
          "indexed": false,
          "internalType": "bool",
          "name": "orderbookInclusionDesired",
          "type": "bool"
        }
      ],
      "name": "OrderApprovedPartTwo",
      "type": "event"
    },
    {
      "anonymous": false,
      "inputs": [
        {
          "indexed": true,
          "internalType": "bytes32",
          "name": "hash",
          "type": "bytes32"
        }
      ],
      "name": "OrderCancelled",
      "type": "event"
    },
    {
      "anonymous": false,
      "inputs": [
        {
          "indexed": false,
          "internalType": "bytes32",
          "name": "buyHash",
          "type": "bytes32"
        },
        {
          "indexed": false,
          "internalType": "bytes32",
          "name": "sellHash",
          "type": "bytes32"
        },
        {
          "indexed": true,
          "internalType": "address",
          "name": "maker",
          "type": "address"
        },
        {
          "indexed": true,
          "internalType": "address",
          "name": "taker",
          "type": "address"
        },
        {
          "indexed": false,
          "internalType": "uint256",
          "name": "price",
          "type": "uint256"
        },
        {
          "indexed": true,
          "internalType": "bytes32",
          "name": "metadata",
          "type": "bytes32"
        }
      ],
      "name": "OrdersMatched",
      "type": "event"
    },
    {
      "anonymous": false,
      "inputs": [
        {
          "indexed": true,
          "internalType": "address",
          "name": "previousOwner",
          "type": "address"
        },
        {
          "indexed": true,
          "internalType": "address",
          "name": "newOwner",
          "type": "address"
        }
      ],
      "name": "OwnershipTransferred",
      "type": "event"
    },
    {
      "inputs": [],
      "name": "INVERSE_BASIS_POINT",
      "outputs": [
        {
          "internalType": "uint256",
          "name": "",
          "type": "uint256"
        }
      ],
      "stateMutability": "view",
      "type": "function"
    },
    {
      "inputs": [
        {
          "internalType": "bytes32",
          "name": "",
          "type": "bytes32"
        }
      ],
      "name": "approvedOrders",
      "outputs": [
        {
          "internalType": "bool",
          "name": "",
          "type": "bool"
        }
      ],
      "stateMutability": "view",
      "type": "function"
    },
    {
      "inputs": [
        {
          "internalType": "bytes32",
          "name": "",
          "type": "bytes32"
        }
      ],
      "name": "cancelledOrFinalized",
      "outputs": [
        {
          "internalType": "bool",
          "name": "",
          "type": "bool"
        }
      ],
      "stateMutability": "view",
      "type": "function"
    },
    {
      "inputs": [
        {
          "internalType": "address",
          "name": "newDevWalletAddress",
          "type": "address"
        }
      ],
      "name": "changeDevWalletAddress",
      "outputs": [],
      "stateMutability": "nonpayable",
      "type": "function"
    },
    {
      "inputs": [
        {
          "internalType": "uint256",
          "name": "newMinimumMakerProtocolFee",
          "type": "uint256"
        }
      ],
      "name": "changeMinimumMakerProtocolFee",
      "outputs": [],
      "stateMutability": "nonpayable",
      "type": "function"
    },
    {
      "inputs": [
        {
          "internalType": "uint256",
          "name": "newMinimumTakerProtocolFee",
          "type": "uint256"
        }
      ],
      "name": "changeMinimumTakerProtocolFee",
      "outputs": [],
      "stateMutability": "nonpayable",
      "type": "function"
    },
    {
      "inputs": [
        {
          "internalType": "address",
          "name": "newProtocolFeeRecipient",
          "type": "address"
        }
      ],
      "name": "changeProtocolFeeRecipient",
      "outputs": [],
      "stateMutability": "nonpayable",
      "type": "function"
    },
    {
      "inputs": [],
      "name": "devWallet",
      "outputs": [
        {
          "internalType": "address",
          "name": "",
          "type": "address"
        }
      ],
      "stateMutability": "view",
      "type": "function"
    },
    {
      "inputs": [],
      "name": "exchangeToken",
      "outputs": [
        {
          "internalType": "contract ERC20Upgradeable",
          "name": "",
          "type": "address"
        }
      ],
      "stateMutability": "view",
      "type": "function"
    },
    {
      "inputs": [],
      "name": "minimumMakerProtocolFee",
      "outputs": [
        {
          "internalType": "uint256",
          "name": "",
          "type": "uint256"
        }
      ],
      "stateMutability": "view",
      "type": "function"
    },
    {
      "inputs": [],
      "name": "minimumTakerProtocolFee",
      "outputs": [
        {
          "internalType": "uint256",
          "name": "",
          "type": "uint256"
        }
      ],
      "stateMutability": "view",
      "type": "function"
    },
    {
      "inputs": [],
      "name": "owner",
      "outputs": [
        {
          "internalType": "address",
          "name": "",
          "type": "address"
        }
      ],
      "stateMutability": "view",
      "type": "function"
    },
    {
      "inputs": [],
      "name": "protocolFeeRecipient",
      "outputs": [
        {
          "internalType": "address",
          "name": "",
          "type": "address"
        }
      ],
      "stateMutability": "view",
      "type": "function"
    },
    {
      "inputs": [],
      "name": "registry",
      "outputs": [
        {
          "internalType": "contract ProxyRegistry",
          "name": "",
          "type": "address"
        }
      ],
      "stateMutability": "view",
      "type": "function"
    },
    {
      "inputs": [],
      "name": "renounceOwnership",
      "outputs": [],
      "stateMutability": "nonpayable",
      "type": "function"
    },
    {
      "inputs": [
        {
          "internalType": "address",
          "name": "target",
          "type": "address"
        },
        {
          "internalType": "bytes",
          "name": "calldatas",
          "type": "bytes"
        },
        {
          "internalType": "bytes",
          "name": "extradata",
          "type": "bytes"
        }
      ],
      "name": "staticCall",
      "outputs": [
        {
          "internalType": "bool",
          "name": "result",
          "type": "bool"
        }
      ],
      "stateMutability": "view",
      "type": "function"
    },
    {
      "inputs": [],
      "name": "tokenTransferProxy",
      "outputs": [
        {
          "internalType": "contract TokenTransferProxy",
          "name": "",
          "type": "address"
        }
      ],
      "stateMutability": "view",
      "type": "function"
    },
    {
      "inputs": [
        {
          "internalType": "address",
          "name": "newOwner",
          "type": "address"
        }
      ],
      "name": "transferOwnership",
      "outputs": [],
      "stateMutability": "nonpayable",
      "type": "function"
    },
    {
      "inputs": [
        {
          "internalType": "bytes",
          "name": "array",
          "type": "bytes"
        },
        {
          "internalType": "bytes",
          "name": "desired",
          "type": "bytes"
        },
        {
          "internalType": "bytes",
          "name": "mask",
          "type": "bytes"
        }
      ],
      "name": "guardedArrayReplace",
      "outputs": [
        {
          "internalType": "bytes",
          "name": "",
          "type": "bytes"
        }
      ],
      "stateMutability": "pure",
      "type": "function"
    },
    {
      "inputs": [
        {
          "internalType": "bytes",
          "name": "arrToCopy",
          "type": "bytes"
        }
      ],
      "name": "testCopy",
      "outputs": [
        {
          "internalType": "bytes",
          "name": "",
          "type": "bytes"
        }
      ],
      "stateMutability": "pure",
      "type": "function"
    },
    {
      "inputs": [
        {
          "internalType": "address",
          "name": "addr",
          "type": "address"
        }
      ],
      "name": "testCopyAddress",
      "outputs": [
        {
          "internalType": "bytes",
          "name": "",
          "type": "bytes"
        }
      ],
      "stateMutability": "pure",
      "type": "function"
    },
    {
      "inputs": [
        {
          "internalType": "enum SaleKindInterface.Side",
          "name": "side",
          "type": "uint8"
        },
        {
          "internalType": "enum SaleKindInterface.SaleKind",
          "name": "saleKind",
          "type": "uint8"
        },
        {
          "internalType": "uint256",
          "name": "basePrice",
          "type": "uint256"
        },
        {
          "internalType": "uint256",
          "name": "extra",
          "type": "uint256"
        },
        {
          "internalType": "uint256",
          "name": "listingTime",
          "type": "uint256"
        },
        {
          "internalType": "uint256",
          "name": "expirationTime",
          "type": "uint256"
        }
      ],
      "name": "calculateFinalPrice",
      "outputs": [
        {
          "internalType": "uint256",
          "name": "",
          "type": "uint256"
        }
      ],
      "stateMutability": "view",
      "type": "function"
    },
    {
      "inputs": [
        {
          "internalType": "address[7]",
          "name": "addrs",
          "type": "address[7]"
        },
        {
          "internalType": "uint256[9]",
          "name": "uints",
          "type": "uint256[9]"
        },
        {
          "internalType": "enum ExchangeCore.FeeMethod",
          "name": "feeMethod",
          "type": "uint8"
        },
        {
          "internalType": "enum SaleKindInterface.Side",
          "name": "side",
          "type": "uint8"
        },
        {
          "internalType": "enum SaleKindInterface.SaleKind",
          "name": "saleKind",
          "type": "uint8"
        },
        {
          "internalType": "enum AuthenticatedProxy.HowToCall",
          "name": "howToCall",
          "type": "uint8"
        },
        {
          "internalType": "bytes",
          "name": "calldatas",
          "type": "bytes"
        },
        {
          "internalType": "bytes",
          "name": "replacementPattern",
          "type": "bytes"
        },
        {
          "internalType": "bytes",
          "name": "staticExtradata",
          "type": "bytes"
        }
      ],
      "name": "hashOrder_",
      "outputs": [
        {
          "internalType": "bytes32",
          "name": "",
          "type": "bytes32"
        }
      ],
      "stateMutability": "pure",
      "type": "function"
    },
    {
      "inputs": [
        {
          "internalType": "address[7]",
          "name": "addrs",
          "type": "address[7]"
        },
        {
          "internalType": "uint256[9]",
          "name": "uints",
          "type": "uint256[9]"
        },
        {
          "internalType": "enum ExchangeCore.FeeMethod",
          "name": "feeMethod",
          "type": "uint8"
        },
        {
          "internalType": "enum SaleKindInterface.Side",
          "name": "side",
          "type": "uint8"
        },
        {
          "internalType": "enum SaleKindInterface.SaleKind",
          "name": "saleKind",
          "type": "uint8"
        },
        {
          "internalType": "enum AuthenticatedProxy.HowToCall",
          "name": "howToCall",
          "type": "uint8"
        },
        {
          "internalType": "bytes",
          "name": "calldatas",
          "type": "bytes"
        },
        {
          "internalType": "bytes",
          "name": "replacementPattern",
          "type": "bytes"
        },
        {
          "internalType": "bytes",
          "name": "staticExtradata",
          "type": "bytes"
        }
      ],
      "name": "hashToSign_",
      "outputs": [
        {
          "internalType": "bytes32",
          "name": "",
          "type": "bytes32"
        }
      ],
      "stateMutability": "pure",
      "type": "function"
    },
    {
      "inputs": [
        {
          "internalType": "address[7]",
          "name": "addrs",
          "type": "address[7]"
        },
        {
          "internalType": "uint256[9]",
          "name": "uints",
          "type": "uint256[9]"
        },
        {
          "internalType": "enum ExchangeCore.FeeMethod",
          "name": "feeMethod",
          "type": "uint8"
        },
        {
          "internalType": "enum SaleKindInterface.Side",
          "name": "side",
          "type": "uint8"
        },
        {
          "internalType": "enum SaleKindInterface.SaleKind",
          "name": "saleKind",
          "type": "uint8"
        },
        {
          "internalType": "enum AuthenticatedProxy.HowToCall",
          "name": "howToCall",
          "type": "uint8"
        },
        {
          "internalType": "bytes",
          "name": "calldatas",
          "type": "bytes"
        },
        {
          "internalType": "bytes",
          "name": "replacementPattern",
          "type": "bytes"
        },
        {
          "internalType": "bytes",
          "name": "staticExtradata",
          "type": "bytes"
        }
      ],
      "name": "validateOrderParameters_",
      "outputs": [
        {
          "internalType": "bool",
          "name": "",
          "type": "bool"
        }
      ],
      "stateMutability": "view",
      "type": "function"
    },
    {
      "inputs": [
        {
          "internalType": "address[7]",
          "name": "addrs",
          "type": "address[7]"
        },
        {
          "internalType": "uint256[9]",
          "name": "uints",
          "type": "uint256[9]"
        },
        {
          "internalType": "enum ExchangeCore.FeeMethod",
          "name": "feeMethod",
          "type": "uint8"
        },
        {
          "internalType": "enum SaleKindInterface.Side",
          "name": "side",
          "type": "uint8"
        },
        {
          "internalType": "enum SaleKindInterface.SaleKind",
          "name": "saleKind",
          "type": "uint8"
        },
        {
          "internalType": "enum AuthenticatedProxy.HowToCall",
          "name": "howToCall",
          "type": "uint8"
        },
        {
          "internalType": "bytes",
          "name": "calldatas",
          "type": "bytes"
        },
        {
          "internalType": "bytes",
          "name": "replacementPattern",
          "type": "bytes"
        },
        {
          "internalType": "bytes",
          "name": "staticExtradata",
          "type": "bytes"
        },
        {
          "internalType": "uint8",
          "name": "v",
          "type": "uint8"
        },
        {
          "internalType": "bytes32",
          "name": "r",
          "type": "bytes32"
        },
        {
          "internalType": "bytes32",
          "name": "s",
          "type": "bytes32"
        }
      ],
      "name": "validateOrder_",
      "outputs": [
        {
          "internalType": "bool",
          "name": "",
          "type": "bool"
        }
      ],
      "stateMutability": "view",
      "type": "function"
    },
    {
      "inputs": [
        {
          "internalType": "address[7]",
          "name": "addrs",
          "type": "address[7]"
        },
        {
          "internalType": "uint256[9]",
          "name": "uints",
          "type": "uint256[9]"
        },
        {
          "internalType": "enum ExchangeCore.FeeMethod",
          "name": "feeMethod",
          "type": "uint8"
        },
        {
          "internalType": "enum SaleKindInterface.Side",
          "name": "side",
          "type": "uint8"
        },
        {
          "internalType": "enum SaleKindInterface.SaleKind",
          "name": "saleKind",
          "type": "uint8"
        },
        {
          "internalType": "enum AuthenticatedProxy.HowToCall",
          "name": "howToCall",
          "type": "uint8"
        },
        {
          "internalType": "bytes",
          "name": "calldatas",
          "type": "bytes"
        },
        {
          "internalType": "bytes",
          "name": "replacementPattern",
          "type": "bytes"
        },
        {
          "internalType": "bytes",
          "name": "staticExtradata",
          "type": "bytes"
        },
        {
          "internalType": "bool",
          "name": "orderbookInclusionDesired",
          "type": "bool"
        }
      ],
      "name": "approveOrder_",
      "outputs": [],
      "stateMutability": "nonpayable",
      "type": "function"
    },
    {
      "inputs": [
        {
          "internalType": "address[7]",
          "name": "addrs",
          "type": "address[7]"
        },
        {
          "internalType": "uint256[9]",
          "name": "uints",
          "type": "uint256[9]"
        },
        {
          "internalType": "enum ExchangeCore.FeeMethod",
          "name": "feeMethod",
          "type": "uint8"
        },
        {
          "internalType": "enum SaleKindInterface.Side",
          "name": "side",
          "type": "uint8"
        },
        {
          "internalType": "enum SaleKindInterface.SaleKind",
          "name": "saleKind",
          "type": "uint8"
        },
        {
          "internalType": "enum AuthenticatedProxy.HowToCall",
          "name": "howToCall",
          "type": "uint8"
        },
        {
          "internalType": "bytes",
          "name": "calldatas",
          "type": "bytes"
        },
        {
          "internalType": "bytes",
          "name": "replacementPattern",
          "type": "bytes"
        },
        {
          "internalType": "bytes",
          "name": "staticExtradata",
          "type": "bytes"
        },
        {
          "internalType": "uint8",
          "name": "v",
          "type": "uint8"
        },
        {
          "internalType": "bytes32",
          "name": "r",
          "type": "bytes32"
        },
        {
          "internalType": "bytes32",
          "name": "s",
          "type": "bytes32"
        }
      ],
      "name": "cancelOrder_",
      "outputs": [],
      "stateMutability": "nonpayable",
      "type": "function"
    },
    {
      "inputs": [
        {
          "internalType": "address[7]",
          "name": "addrs",
          "type": "address[7]"
        },
        {
          "internalType": "uint256[9]",
          "name": "uints",
          "type": "uint256[9]"
        },
        {
          "internalType": "enum ExchangeCore.FeeMethod",
          "name": "feeMethod",
          "type": "uint8"
        },
        {
          "internalType": "enum SaleKindInterface.Side",
          "name": "side",
          "type": "uint8"
        },
        {
          "internalType": "enum SaleKindInterface.SaleKind",
          "name": "saleKind",
          "type": "uint8"
        },
        {
          "internalType": "enum AuthenticatedProxy.HowToCall",
          "name": "howToCall",
          "type": "uint8"
        },
        {
          "internalType": "bytes",
          "name": "calldatas",
          "type": "bytes"
        },
        {
          "internalType": "bytes",
          "name": "replacementPattern",
          "type": "bytes"
        },
        {
          "internalType": "bytes",
          "name": "staticExtradata",
          "type": "bytes"
        }
      ],
      "name": "calculateCurrentPrice_",
      "outputs": [
        {
          "internalType": "uint256",
          "name": "",
          "type": "uint256"
        }
      ],
      "stateMutability": "view",
      "type": "function"
    },
    {
      "inputs": [
        {
          "internalType": "address[14]",
          "name": "addrs",
          "type": "address[14]"
        },
        {
          "internalType": "uint256[18]",
          "name": "uints",
          "type": "uint256[18]"
        },
        {
          "internalType": "uint8[8]",
          "name": "feeMethodsSidesKindsHowToCalls",
          "type": "uint8[8]"
        },
        {
          "internalType": "bytes",
          "name": "calldataBuy",
          "type": "bytes"
        },
        {
          "internalType": "bytes",
          "name": "calldataSell",
          "type": "bytes"
        },
        {
          "internalType": "bytes",
          "name": "replacementPatternBuy",
          "type": "bytes"
        },
        {
          "internalType": "bytes",
          "name": "replacementPatternSell",
          "type": "bytes"
        },
        {
          "internalType": "bytes",
          "name": "staticExtradataBuy",
          "type": "bytes"
        },
        {
          "internalType": "bytes",
          "name": "staticExtradataSell",
          "type": "bytes"
        }
      ],
      "name": "ordersCanMatch_",
      "outputs": [
        {
          "internalType": "bool",
          "name": "",
          "type": "bool"
        }
      ],
      "stateMutability": "view",
      "type": "function"
    },
    {
      "inputs": [
        {
          "internalType": "bytes",
          "name": "buyCalldata",
          "type": "bytes"
        },
        {
          "internalType": "bytes",
          "name": "buyReplacementPattern",
          "type": "bytes"
        },
        {
          "internalType": "bytes",
          "name": "sellCalldata",
          "type": "bytes"
        },
        {
          "internalType": "bytes",
          "name": "sellReplacementPattern",
          "type": "bytes"
        }
      ],
      "name": "orderCalldataCanMatch",
      "outputs": [
        {
          "internalType": "bool",
          "name": "",
          "type": "bool"
        }
      ],
      "stateMutability": "pure",
      "type": "function"
    },
    {
      "inputs": [
        {
          "internalType": "address[14]",
          "name": "addrs",
          "type": "address[14]"
        },
        {
          "internalType": "uint256[18]",
          "name": "uints",
          "type": "uint256[18]"
        },
        {
          "internalType": "uint8[8]",
          "name": "feeMethodsSidesKindsHowToCalls",
          "type": "uint8[8]"
        },
        {
          "internalType": "bytes",
          "name": "calldataBuy",
          "type": "bytes"
        },
        {
          "internalType": "bytes",
          "name": "calldataSell",
          "type": "bytes"
        },
        {
          "internalType": "bytes",
          "name": "replacementPatternBuy",
          "type": "bytes"
        },
        {
          "internalType": "bytes",
          "name": "replacementPatternSell",
          "type": "bytes"
        },
        {
          "internalType": "bytes",
          "name": "staticExtradataBuy",
          "type": "bytes"
        },
        {
          "internalType": "bytes",
          "name": "staticExtradataSell",
          "type": "bytes"
        }
      ],
      "name": "calculateMatchPrice_",
      "outputs": [
        {
          "internalType": "uint256",
          "name": "",
          "type": "uint256"
        }
      ],
      "stateMutability": "view",
      "type": "function"
    },
    {
      "inputs": [
        {
          "internalType": "address[14]",
          "name": "addrs",
          "type": "address[14]"
        },
        {
          "internalType": "uint256[18]",
          "name": "uints",
          "type": "uint256[18]"
        },
        {
          "internalType": "uint8[8]",
          "name": "feeMethodsSidesKindsHowToCalls",
          "type": "uint8[8]"
        },
        {
          "internalType": "bytes",
          "name": "calldataBuy",
          "type": "bytes"
        },
        {
          "internalType": "bytes",
          "name": "calldataSell",
          "type": "bytes"
        },
        {
          "internalType": "bytes",
          "name": "replacementPatternBuy",
          "type": "bytes"
        },
        {
          "internalType": "bytes",
          "name": "replacementPatternSell",
          "type": "bytes"
        },
        {
          "internalType": "bytes",
          "name": "staticExtradataBuy",
          "type": "bytes"
        },
        {
          "internalType": "bytes",
          "name": "staticExtradataSell",
          "type": "bytes"
        },
        {
          "internalType": "uint8[2]",
          "name": "vs",
          "type": "uint8[2]"
        },
        {
          "internalType": "bytes32[5]",
          "name": "rssMetadata",
          "type": "bytes32[5]"
        }
      ],
      "name": "atomicMatch_",
      "outputs": [],
      "stateMutability": "payable",
      "type": "function"
    }
  ],
  "bytecode": "0x60806040526000609c556000609d5534801561001a57600080fd5b506155b6806200002b6000396000f3fe6080604052600436106101ee5760003560e01c806371d02b381161010d5780638ea5220f116100a0578063ca595b9a1161006f578063ca595b9a1461059f578063cae6047f146105bf578063d537e131146105d5578063e57d4adb146105f5578063f2fde38b1461062557600080fd5b80638ea5220f1461052c578063a25eb5d91461054c578063a8a41c701461056c578063ab834bab1461058c57600080fd5b80637ccefc52116100dc5780637ccefc52146104a85780637d766981146104be5780638076f005146104de5780638da5cb5b1461050e57600080fd5b806371d02b381461042857806372593b4c1461044857806379666868146104685780637b1039991461048857600080fd5b80633f67ee0d1161018557806360bef33a1161015457806360bef33a146103b357806363d36c0b146103d357806364df049e146103f3578063715018a61461041357600080fd5b80633f67ee0d146103335780633fcaeb7414610353578063514f033014610373578063562b2ebc1461039357600080fd5b8063239e83df116101c1578063239e83df146102a257806328a8ee68146102cf5780633464af6a146102f35780633e1e292a1461031357600080fd5b80630eefdbad146101f357806310796a471461023057806314350c24146102605780631a6b13e214610282575b600080fd5b3480156101ff57600080fd5b50609954610213906001600160a01b031681565b6040516001600160a01b0390911681526020015b60405180910390f35b34801561023c57600080fd5b5061025061024b366004614a7e565b610645565b6040519015158152602001610227565b34801561026c57600080fd5b5061028061027b3660046150b1565b6106cf565b005b34801561028e57600080fd5b5061028061029d3660046150b1565b610707565b3480156102ae57600080fd5b506102c26102bd366004615106565b610736565b6040516102279190615355565b3480156102db57600080fd5b506102e5609d5481565b604051908152602001610227565b3480156102ff57600080fd5b506102c261030e366004614a44565b61074b565b34801561031f57600080fd5b506102c261032e3660046150ca565b610787565b34801561033f57600080fd5b506102e561034e366004614d8a565b6107df565b34801561035f57600080fd5b5061028061036e366004614a44565b610a49565b34801561037f57600080fd5b5061028061038e366004614a44565b610a95565b34801561039f57600080fd5b506102506103ae366004615154565b610ae1565b3480156103bf57600080fd5b506102506103ce366004614f67565b610b1b565b3480156103df57600080fd5b506102e56103ee366004615200565b610dca565b3480156103ff57600080fd5b50609e54610213906001600160a01b031681565b34801561041f57600080fd5b50610280610de7565b34801561043457600080fd5b506102e5610443366004614d8a565b610e1d565b34801561045457600080fd5b50610250610463366004614af3565b611079565b34801561047457600080fd5b50610280610483366004614e61565b611624565b34801561049457600080fd5b50609854610213906001600160a01b031681565b3480156104b457600080fd5b506102e5609c5481565b3480156104ca57600080fd5b506102e56104d9366004614d8a565b611891565b3480156104ea57600080fd5b506102506104f93660046150b1565b609a6020526000908152604090205460ff1681565b34801561051a57600080fd5b506065546001600160a01b0316610213565b34801561053857600080fd5b50609f54610213906001600160a01b031681565b34801561055857600080fd5b50609754610213906001600160a01b031681565b34801561057857600080fd5b50610280610587366004614f67565b611aed565b61028061059a366004614c25565b611d87565b3480156105ab57600080fd5b506102506105ba366004614d8a565b6123c6565b3480156105cb57600080fd5b506102e561271081565b3480156105e157600080fd5b506102e56105f0366004614af3565b612635565b34801561060157600080fd5b506102506106103660046150b1565b609b6020526000908152604090205460ff1681565b34801561063157600080fd5b50610280610640366004614a44565b612bd0565b600080825184516106569190615439565b6001600160401b0381111561066d5761066d61551c565b6040519080825280601f01601f191660200182016040528015610697576020820181803683370190505b509050602081016106a88185612c6b565b90506106b48186612c6b565b506000604051835160208501895afa925050505b9392505050565b6065546001600160a01b031633146107025760405162461bcd60e51b81526004016106f990615404565b60405180910390fd5b609c55565b6065546001600160a01b031633146107315760405162461bcd60e51b81526004016106f990615404565b609d55565b6060610743848484612cae565b509192915050565b604080516014808252818301909252606091600091906020820181803683370190505090506020810161077e8185612e3a565b50909392505050565b6060600082516001600160401b038111156107a4576107a461551c565b6040519080825280601f01601f1916602001820160405280156107ce576020820181803683370190505b5090506020810161077e8185612c6b565b6000610a3b604051806102e001604052808c60006007811061080357610803615506565b60200201516001600160a01b031681526020018c60016007811061082957610829615506565b60200201516001600160a01b031681526020018c60026007811061084f5761084f615506565b60200201516001600160a01b031681526020018b60006009811061087557610875615506565b602002015181526020018b60016009811061089257610892615506565b602002015181526020018b6002600981106108af576108af615506565b602002015181526020018b6003600981106108cc576108cc615506565b602002015181526020018c6003600781106108e9576108e9615506565b60200201516001600160a01b031681526020018a600181111561090e5761090e6154f0565b8152602001896001811115610925576109256154f0565b815260200188600181111561093c5761093c6154f0565b815260808d01516001600160a01b03166020820152604001876001811115610966576109666154f0565b8152602081018790526040810186905260a0808e01516001600160a01b0316606083015260808201869052018c600660200201516001600160a01b031681526020018b6004600981106109bb576109bb615506565b602002015181526020018b6005600981106109d8576109d8615506565b602002015181526020018b6006600981106109f5576109f5615506565b602002015181526020018b600760098110610a1257610a12615506565b602002015181526020018b600860098110610a2f57610a2f615506565b60200201519052612e54565b9a9950505050505050505050565b6065546001600160a01b03163314610a735760405162461bcd60e51b81526004016106f990615404565b609f80546001600160a01b0319166001600160a01b0392909216919091179055565b6065546001600160a01b03163314610abf5760405162461bcd60e51b81526004016106f990615404565b609e80546001600160a01b0319166001600160a01b0392909216919091179055565b825160009015610af657610af6858486612cae565b815115610b0857610b08838684612cae565b610b128584612e88565b95945050505050565b600080604051806102e001604052808f600060078110610b3d57610b3d615506565b60200201516001600160a01b031681526020018f600160078110610b6357610b63615506565b60200201516001600160a01b031681526020018f600260078110610b8957610b89615506565b60200201516001600160a01b031681526020018e600060098110610baf57610baf615506565b602002015181526020018e600160098110610bcc57610bcc615506565b602002015181526020018e600260098110610be957610be9615506565b602002015181526020018e600360098110610c0657610c06615506565b602002015181526020018f600360078110610c2357610c23615506565b60200201516001600160a01b031681526020018d6001811115610c4857610c486154f0565b81526020018c6001811115610c5f57610c5f6154f0565b81526020018b6001811115610c7657610c766154f0565b81526020018f600460200201516001600160a01b031681526020018a6001811115610ca357610ca36154f0565b8152602081018a9052604081018990526060018f600560200201516001600160a01b031681526020018781526020018f600660078110610ce557610ce5615506565b60200201516001600160a01b031681526020018e600460098110610d0b57610d0b615506565b602002015181526020018e600560098110610d2857610d28615506565b602002015181526020018e600660098110610d4557610d45615506565b602002015181526020018e600760098110610d6257610d62615506565b602002015181526020018e600860098110610d7f57610d7f615506565b602002015190529050610db8610d9482612eec565b8260405180606001604052808960ff16815260200188815260200187815250612f48565b9e9d5050505050505050505050505050565b6000610dda87878787878761302e565b90505b9695505050505050565b6065546001600160a01b03163314610e115760405162461bcd60e51b81526004016106f990615404565b610e1b60006130c9565b565b6000610a3b604051806102e001604052808c600060078110610e4157610e41615506565b60200201516001600160a01b031681526020018c600160078110610e6757610e67615506565b60200201516001600160a01b031681526020018c600260078110610e8d57610e8d615506565b60200201516001600160a01b031681526020018b600060098110610eb357610eb3615506565b602002015181526020018b600160098110610ed057610ed0615506565b602002015181526020018b600260098110610eed57610eed615506565b602002015181526020018b600360098110610f0a57610f0a615506565b602002015181526020018c600360078110610f2757610f27615506565b60200201516001600160a01b031681526020018a6001811115610f4c57610f4c6154f0565b8152602001896001811115610f6357610f636154f0565b8152602001886001811115610f7a57610f7a6154f0565b815260808d01516001600160a01b03166020820152604001876001811115610fa457610fa46154f0565b8152602081018790526040810186905260a0808e01516001600160a01b0316606083015260808201869052018c600660200201516001600160a01b031681526020018b600460098110610ff957610ff9615506565b602002015181526020018b60056009811061101657611016615506565b602002015181526020018b60066009811061103357611033615506565b602002015181526020018b60076009811061105057611050615506565b602002015181526020018b60086009811061106d5761106d615506565b6020020151905261311b565b600080604051806102e001604052808c6000600e811061109b5761109b615506565b60200201516001600160a01b031681526020018c6001600e81106110c1576110c1615506565b60200201516001600160a01b031681526020018c6002600e81106110e7576110e7615506565b60200201516001600160a01b031681526020018b60006012811061110d5761110d615506565b602002015181526020018b60016012811061112a5761112a615506565b602002015181526020018b60026012811061114757611147615506565b602002015181526020018b60036012811061116457611164615506565b602002015181526020018c6003600e811061118157611181615506565b60200201516001600160a01b031681526020018a6000600881106111a7576111a7615506565b602002015160ff1660018111156111c0576111c06154f0565b60018111156111d1576111d16154f0565b81526020018a6001602002015160ff1660018111156111f2576111f26154f0565b6001811115611203576112036154f0565b81526020018a6002602002015160ff166001811115611224576112246154f0565b6001811115611235576112356154f0565b815260808d01516001600160a01b031660208201526040018a6003602002015160ff166001811115611269576112696154f0565b600181111561127a5761127a6154f0565b8152602081018a90526040810188905260a0808e01516001600160a01b0316606083015260808201879052018c600660200201516001600160a01b031681526020018b6004601281106112cf576112cf615506565b602002015181526020018b6005601281106112ec576112ec615506565b602002015181526020018b60066012811061130957611309615506565b602002015181526020018b60076012811061132657611326615506565b602002015181526020018b60086012811061134357611343615506565b602002015181525090506000604051806102e001604052808d6007600e811061136e5761136e615506565b60200201516001600160a01b031681526020018d6008600e811061139457611394615506565b60200201516001600160a01b031681526020018d6009600e81106113ba576113ba615506565b60200201516001600160a01b031681526020018c6009601281106113e0576113e0615506565b602002015181526020018c600a601281106113fd576113fd615506565b602002015181526020018c600b6012811061141a5761141a615506565b602002015181526020018c600c6012811061143757611437615506565b602002015181526020018d600a600e811061145457611454615506565b60200201516001600160a01b031681526020018b60046008811061147a5761147a615506565b602002015160ff166001811115611493576114936154f0565b60018111156114a4576114a46154f0565b81526020018b6005602002015160ff1660018111156114c5576114c56154f0565b60018111156114d6576114d66154f0565b81526020018b6006602002015160ff1660018111156114f7576114f76154f0565b6001811115611508576115086154f0565b81526101608e01516001600160a01b031660208201526040018b6007602002015160ff16600181111561153d5761153d6154f0565b600181111561154e5761154e6154f0565b8152602081018a9052604081018890526101808e01516001600160a01b039081166060830152608082018790526101a08f01511660a082015260c0018c600d602002015181526020018c600e601281106115aa576115aa615506565b602002015181526020018c600f601281106115c7576115c7615506565b602002015181526020018c6010601281106115e4576115e4615506565b602002015181526020018c60116012811061160157611601615506565b6020020151905290506116148282613306565b9c9b505050505050505050505050565b6000604051806102e001604052808c60006007811061164557611645615506565b60200201516001600160a01b031681526020018c60016007811061166b5761166b615506565b60200201516001600160a01b031681526020018c60026007811061169157611691615506565b60200201516001600160a01b031681526020018b6000600981106116b7576116b7615506565b602002015181526020018b6001600981106116d4576116d4615506565b602002015181526020018b6002600981106116f1576116f1615506565b602002015181526020018b60036009811061170e5761170e615506565b602002015181526020018c60036007811061172b5761172b615506565b60200201516001600160a01b031681526020018a6001811115611750576117506154f0565b8152602001896001811115611767576117676154f0565b815260200188600181111561177e5761177e6154f0565b815260808d01516001600160a01b031660208201526040018760018111156117a8576117a86154f0565b8152602081018790526040810186905260a0808e01516001600160a01b0316606083015260808201869052018c600660200201516001600160a01b031681526020018b6004600981106117fd576117fd615506565b602002015181526020018b60056009811061181a5761181a615506565b602002015181526020018b60066009811061183757611837615506565b602002015181526020018b60076009811061185457611854615506565b602002015181526020018b60086009811061187157611871615506565b6020020151905290506118848183613504565b5050505050505050505050565b6000610a3b604051806102e001604052808c6000600781106118b5576118b5615506565b60200201516001600160a01b031681526020018c6001600781106118db576118db615506565b60200201516001600160a01b031681526020018c60026007811061190157611901615506565b60200201516001600160a01b031681526020018b60006009811061192757611927615506565b602002015181526020018b60016009811061194457611944615506565b602002015181526020018b60026009811061196157611961615506565b602002015181526020018b60036009811061197e5761197e615506565b602002015181526020018c60036007811061199b5761199b615506565b60200201516001600160a01b031681526020018a60018111156119c0576119c06154f0565b81526020018960018111156119d7576119d76154f0565b81526020018860018111156119ee576119ee6154f0565b815260808d01516001600160a01b03166020820152604001876001811115611a1857611a186154f0565b8152602081018790526040810186905260a0808e01516001600160a01b0316606083015260808201869052018c600660200201516001600160a01b031681526020018b600460098110611a6d57611a6d615506565b602002015181526020018b600560098110611a8a57611a8a615506565b602002015181526020018b600660098110611aa757611aa7615506565b602002015181526020018b600760098110611ac457611ac4615506565b602002015181526020018b600860098110611ae157611ae1615506565b60200201519052612eec565b611d79604051806102e001604052808e600060078110611b0f57611b0f615506565b60200201516001600160a01b031681526020018e600160078110611b3557611b35615506565b60200201516001600160a01b031681526020018e600260078110611b5b57611b5b615506565b60200201516001600160a01b031681526020018d600060098110611b8157611b81615506565b602002015181526020018d600160098110611b9e57611b9e615506565b602002015181526020018d600260098110611bbb57611bbb615506565b602002015181526020018d600360098110611bd857611bd8615506565b602002015181526020018e600360078110611bf557611bf5615506565b60200201516001600160a01b031681526020018c6001811115611c1a57611c1a6154f0565b81526020018b6001811115611c3157611c316154f0565b81526020018a6001811115611c4857611c486154f0565b815260808f01516001600160a01b03166020820152604001896001811115611c7257611c726154f0565b815260208101899052604081018890526060018e600560200201516001600160a01b031681526020018681526020018e600660078110611cb457611cb4615506565b60200201516001600160a01b031681526020018d600460098110611cda57611cda615506565b602002015181526020018d600560098110611cf757611cf7615506565b602002015181526020018d600660098110611d1457611d14615506565b602002015181526020018d600760098110611d3157611d31615506565b602002015181526020018d600860098110611d4e57611d4e615506565b602002015181525060405180606001604052808660ff16815260200185815260200184815250613698565b505050505050505050505050565b611884604051806102e001604052808d6000600e8110611da957611da9615506565b60200201516001600160a01b031681526020018d6001600e8110611dcf57611dcf615506565b60200201516001600160a01b031681526020018d6002600e8110611df557611df5615506565b60200201516001600160a01b031681526020018c600060128110611e1b57611e1b615506565b602002015181526020018c600160128110611e3857611e38615506565b602002015181526020018c600260128110611e5557611e55615506565b602002015181526020018c600360128110611e7257611e72615506565b602002015181526020018d6003600e8110611e8f57611e8f615506565b60200201516001600160a01b031681526020018b600060088110611eb557611eb5615506565b602002015160ff166001811115611ece57611ece6154f0565b6001811115611edf57611edf6154f0565b81526020018b6001602002015160ff166001811115611f0057611f006154f0565b6001811115611f1157611f116154f0565b81526020018b6002602002015160ff166001811115611f3257611f326154f0565b6001811115611f4357611f436154f0565b815260808e01516001600160a01b031660208201526040018b6003602002015160ff166001811115611f7757611f776154f0565b6001811115611f8857611f886154f0565b8152602081018b90526040810189905260a0808f01516001600160a01b0316606083015260808201889052018d600660200201516001600160a01b031681526020018c600460128110611fdd57611fdd615506565b602002015181526020018c600560128110611ffa57611ffa615506565b602002015181526020018c60066012811061201757612017615506565b602002015181526020018c60076012811061203457612034615506565b602002015181526020018c60086012811061205157612051615506565b6020908102919091015190915260408051606081018252865160ff168152855192810192909252810184600160200201519052604080516102e08101909152808f600760200201516001600160a01b031681526020018f6008600e81106120ba576120ba615506565b60200201516001600160a01b031681526020018f6009600e81106120e0576120e0615506565b60200201516001600160a01b031681526020018e60096012811061210657612106615506565b602002015181526020018e600a6012811061212357612123615506565b602002015181526020018e600b6012811061214057612140615506565b602002015181526020018e600c6012811061215d5761215d615506565b602002015181526020018f600a600e811061217a5761217a615506565b60200201516001600160a01b031681526020018d6004600881106121a0576121a0615506565b602002015160ff1660018111156121b9576121b96154f0565b60018111156121ca576121ca6154f0565b81526020018d6005602002015160ff1660018111156121eb576121eb6154f0565b60018111156121fc576121fc6154f0565b81526020018d6006602002015160ff16600181111561221d5761221d6154f0565b600181111561222e5761222e6154f0565b81526020018f600b60200201516001600160a01b031681526020018d60076008811061225c5761225c615506565b602002015160ff166001811115612275576122756154f0565b6001811115612286576122866154f0565b8152602081018c9052604081018a90526060018f600c60200201516001600160a01b031681526020018781526020018f600d600e81106122c8576122c8615506565b60200201516001600160a01b031681526020018e600d601281106122ee576122ee615506565b602002015181526020018e600e6012811061230b5761230b615506565b602002015181526020018e600f6012811061232857612328615506565b602002015181526020018e60106012811061234557612345615506565b602002015181526020018e60116012811061236257612362615506565b60200201519052604080516060810190915280876001602002015160ff1681526020018660026005811061239857612398615506565b60200201518152602001866003600581106123b5576123b5615506565b60200201519052608086015161370d565b600080604051806102e001604052808c6000600781106123e8576123e8615506565b60200201516001600160a01b031681526020018c60016007811061240e5761240e615506565b60200201516001600160a01b031681526020018c60026007811061243457612434615506565b60200201516001600160a01b031681526020018b60006009811061245a5761245a615506565b602002015181526020018b60016009811061247757612477615506565b602002015181526020018b60026009811061249457612494615506565b602002015181526020018b6003600981106124b1576124b1615506565b602002015181526020018c6003600781106124ce576124ce615506565b60200201516001600160a01b031681526020018a60018111156124f3576124f36154f0565b815260200189600181111561250a5761250a6154f0565b8152602001886001811115612521576125216154f0565b815260808d01516001600160a01b0316602082015260400187600181111561254b5761254b6154f0565b8152602081018790526040810186905260a0808e01516001600160a01b0316606083015260808201869052018c600660200201516001600160a01b031681526020018b6004600981106125a0576125a0615506565b602002015181526020018b6005600981106125bd576125bd615506565b602002015181526020018b6006600981106125da576125da615506565b602002015181526020018b6007600981106125f7576125f7615506565b602002015181526020018b60086009811061261457612614615506565b60200201519052905061262681613c41565b9b9a5050505050505050505050565b600080604051806102e001604052808c6000600e811061265757612657615506565b60200201516001600160a01b031681526020018c6001600e811061267d5761267d615506565b60200201516001600160a01b031681526020018c6002600e81106126a3576126a3615506565b60200201516001600160a01b031681526020018b6000601281106126c9576126c9615506565b602002015181526020018b6001601281106126e6576126e6615506565b602002015181526020018b60026012811061270357612703615506565b602002015181526020018b60036012811061272057612720615506565b602002015181526020018c6003600e811061273d5761273d615506565b60200201516001600160a01b031681526020018a60006008811061276357612763615506565b602002015160ff16600181111561277c5761277c6154f0565b600181111561278d5761278d6154f0565b81526020018a6001602002015160ff1660018111156127ae576127ae6154f0565b60018111156127bf576127bf6154f0565b81526020018a6002602002015160ff1660018111156127e0576127e06154f0565b60018111156127f1576127f16154f0565b815260808d01516001600160a01b031660208201526040018a6003602002015160ff166001811115612825576128256154f0565b6001811115612836576128366154f0565b8152602081018a90526040810188905260a0808e01516001600160a01b0316606083015260808201879052018c600660200201516001600160a01b031681526020018b60046012811061288b5761288b615506565b602002015181526020018b6005601281106128a8576128a8615506565b602002015181526020018b6006601281106128c5576128c5615506565b602002015181526020018b6007601281106128e2576128e2615506565b602002015181526020018b6008601281106128ff576128ff615506565b602002015181525090506000604051806102e001604052808d6007600e811061292a5761292a615506565b60200201516001600160a01b031681526020018d6008600e811061295057612950615506565b60200201516001600160a01b031681526020018d6009600e811061297657612976615506565b60200201516001600160a01b031681526020018c60096012811061299c5761299c615506565b602002015181526020018c600a601281106129b9576129b9615506565b602002015181526020018c600b601281106129d6576129d6615506565b602002015181526020018c600c601281106129f3576129f3615506565b602002015181526020018d600a600e8110612a1057612a10615506565b60200201516001600160a01b031681526020018b600460088110612a3657612a36615506565b602002015160ff166001811115612a4f57612a4f6154f0565b6001811115612a6057612a606154f0565b81526020018b6005602002015160ff166001811115612a8157612a816154f0565b6001811115612a9257612a926154f0565b81526020018b6006602002015160ff166001811115612ab357612ab36154f0565b6001811115612ac457612ac46154f0565b81526101608e01516001600160a01b031660208201526040018b6007602002015160ff166001811115612af957612af96154f0565b6001811115612b0a57612b0a6154f0565b8152602081018a9052604081018890526101808e01516001600160a01b039081166060830152608082018790526101a08f01511660a082015260c0018c600d602002015181526020018c600e60128110612b6657612b66615506565b602002015181526020018c600f60128110612b8357612b83615506565b602002015181526020018c601060128110612ba057612ba0615506565b602002015181526020018c601160128110612bbd57612bbd615506565b6020020151905290506116148282613ccc565b6065546001600160a01b03163314612bfa5760405162461bcd60e51b81526004016106f990615404565b6001600160a01b038116612c5f5760405162461bcd60e51b815260206004820152602660248201527f4f776e61626c653a206e6577206f776e657220697320746865207a65726f206160448201526564647265737360d01b60648201526084016106f9565b612c68816130c9565b50565b805160009015612ca757815180602001830160208401855b60018383101415612c9e578151815260209182019101612c83565b50505092909201915b5090919050565b8151835114612cbc57600080fd5b8051835114612cca57600080fd5b600060208451612cda9190615451565b90506000612ce9826020615473565b905081612cf7602083615451565b14612d0457612d046154c4565b60005b82811015612d4157806001016020028085015181870151811682890151821916178289015250508080612d39906154a9565b915050612d07565b8215612d6e5782905080600101602002808501518187015181168289015182191617828901525050612e32565b50805b8551811015612e3257848181518110612d8c57612d8c615506565b602001015160f81c60f81b848281518110612da957612da9615506565b602001015160f81c60f81b16868281518110612dc757612dc7615506565b602001015160f81c60f81b858381518110612de457612de4615506565b602001015160f81c60f81b60ff60f81b181617868281518110612e0957612e09615506565b60200101906001600160f81b031916908160001a90535080612e2a816154a9565b915050612d71565b505050505050565b60601b6bffffffffffffffffffffffff1916815260140190565b6000612e82826101200151836101400151846102400151856102600151866102800151876102a0015161302e565b92915050565b815181516000916001918114808314612ea45760009250612ee2565b600160208701838101602088015b600284838510011415612edd578051835114612ed15760009650600093505b60209283019201612eb2565b505050505b5090949350505050565b6000612ef78261311b565b6040517f19457468657265756d205369676e6564204d6573736167653a0a3332000000006020820152603c810191909152605c01604051602081830303815290604052805190602001209050919050565b6000612f5383613c41565b612f5f575060006106c8565b6000848152609a602052604090205460ff1615612f7e575060006106c8565b6000848152609b602052604090205460ff1615612f9d575060016106c8565b6020808401518351848301516040808701518151600081529586018083528a905260ff90931690850152606084015260808301526001600160a01b03169060019060a0016020604051602081039080840390855afa158015613003573d6000803e3d6000fd5b505050602060405103516001600160a01b03161415613024575060016106c8565b5060009392505050565b600080866001811115613043576130436154f0565b1415613050575083610ddd565b6001866001811115613064576130646154f0565b1415610ddd5760006130916130828661307d4288613d5a565b613d66565b61308c8587613d5a565b613d72565b905060018860018111156130a7576130a76154f0565b14156130bf576130b78682613d5a565b915050610ddd565b6130b78682613d7e565b606580546001600160a01b038381166001600160a01b0319831681179093556040519116919082907f8be0079c531659141344cd1fd0a4f28419497f9722a3daafe3b4186f6b6457e090600090a35050565b60008061312783613d8a565b90506000816001600160401b038111156131435761314361551c565b6040519080825280601f01601f19166020018201604052801561316d576020820181803683370190505b5084519091506020820190613183908290612e3a565b9050613193818660200151612e3a565b90506131a3818660400151612e3a565b6060868101518252608080880151602084015260a0880151604084015260c08801519183019190915260e0870151910191506131e0908290612e3a565b90506132028186610100015160018111156131fd576131fd6154f0565b613dc2565b905061321f8186610120015160018111156131fd576131fd6154f0565b905061323c8186610140015160018111156131fd576131fd6154f0565b905061324d81866101600151612e3a565b905061326a8186610180015160018111156131fd576131fd6154f0565b905061327b81866101a00151612c6b565b905061328c81866101c00151612c6b565b905061329d81866101e00151612e3a565b90506132ae81866102000151612c6b565b90506132bf81866102200151612e3a565b610240860151815261026086015160208083019190915261028087015160408301526102a087015160608301526102c0909601516080909101525090920191909120919050565b6000808361012001516001811115613320576133206154f0565b148015613343575060018261012001516001811115613341576133416154f0565b145b801561337a57508161010001516001811115613361576133616154f0565b8361010001516001811115613378576133786154f0565b145b80156133a157508161022001516001600160a01b03168361022001516001600160a01b0316145b80156133db575060408201516001600160a01b031615806133db575082602001516001600160a01b031682604001516001600160a01b0316145b8015613415575060408301516001600160a01b03161580613415575081602001516001600160a01b031683604001516001600160a01b0316145b8015613470575060e08201516001600160a01b0316158015613443575060e08301516001600160a01b031615155b80613470575060e08201516001600160a01b031615801590613470575060e08301516001600160a01b0316155b801561349757508161016001516001600160a01b03168361016001516001600160a01b0316145b80156134ce575081610180015160018111156134b5576134b56154f0565b83610180015160018111156134cc576134cc6154f0565b145b80156134e957506134e9836102800151846102a00151613dcf565b80156106c857506106c8826102800151836102a00151613dcf565b81602001516001600160a01b0316336001600160a01b03161461352657600080fd5b600061353183612eec565b6000818152609b602052604090205490915060ff161561355057600080fd5b6001609b600083815260200190815260200160002060006101000a81548160ff0219169083151502179055508260e001516001600160a01b031683602001516001600160a01b0316827f90c7f9f5b58c15f0f635bfb99f55d3d78fdbef3559e7d8abf5c81052a527662286600001518760400151886060015189608001518a60a001518b60c001518c61010001518d61012001518e61014001518f61016001516040516136069a999897969594939291906152a6565b60405180910390a4807fe55393c778364e440d958b39ac1debd99dcfae3775a8a04d1e79124adf6a2d08846101800151856101a00151866101c00151876101e001518861020001518961022001518a61024001518b61026001518c61028001518d6102a001518e6102c001518e60405161368b9c9b9a99989796959493929190615368565b60405180910390a2505050565b60006136a48383613deb565b905082602001516001600160a01b0316336001600160a01b0316146136c857600080fd5b6000818152609a6020526040808220805460ff191660011790555182917f5152abf959f6564662358c2e52b702259b78bac5ee7842a0f01937e670efcc7d91a2505050565b600260015414156137605760405162461bcd60e51b815260206004820152601f60248201527f5265656e7472616e637947756172643a207265656e7472616e742063616c6c0060448201526064016106f9565b600260015560208501516000906001600160a01b03163314156137945761378686613c41565b61378f57600080fd5b6137a1565b61379e8686613deb565b90505b60208401516000906001600160a01b03163314156137d0576137c285613c41565b6137cb57600080fd5b6137dd565b6137da8585613deb565b90505b6137e78786613306565b6137f057600080fd5b610160850151803b908161380357600080fd5b6101c0890151511561382957613829896101a00151886101a001518b6101c00151612cae565b6101c0870151511561384f5761384f876101a001518a6101a00151896101c00151612cae565b613863896101a00151886101a00151612e88565b61386c57600080fd5b609854602088015160405163c455279160e01b81526001600160a01b039182166004820152600092919091169063c45527919060240160206040518083038186803b1580156138ba57600080fd5b505afa1580156138ce573d6000803e3d6000fd5b505050506040513d601f19601f820116820180604052508101906138f29190614a61565b90506001600160a01b03811661390757600080fd5b609860009054906101000a90046001600160a01b03166001600160a01b03166397204d8e6040518163ffffffff1660e01b815260040160206040518083038186803b15801561395557600080fd5b505afa158015613969573d6000803e3d6000fd5b505050506040513d601f19601f8201168201806040525081019061398d9190614a61565b6001600160a01b0316816001600160a01b0316635c60da1b6040518163ffffffff1660e01b815260040160206040518083038186803b1580156139cf57600080fd5b505afa1580156139e3573d6000803e3d6000fd5b505050506040513d601f19601f82011682018060405250810190613a079190614a61565b6001600160a01b031614613a1a57600080fd5b60208a015181906001600160a01b03163314613a4a576000868152609a60205260409020805460ff191660011790555b88602001516001600160a01b0316336001600160a01b031614613a81576000858152609a60205260409020805460ff191660011790555b6000613a8d8c8b613e0d565b9050816001600160a01b0316631b0f7ba98b61016001518c61018001518d6101a001516040518463ffffffff1660e01b8152600401613ace93929190615324565b602060405180830381600087803b158015613ae857600080fd5b505af1158015613afc573d6000803e3d6000fd5b505050506040513d601f19601f82011682018060405250810190613b209190615094565b613b2957600080fd5b6101e08c01516001600160a01b031615613b6057613b578c6101e001518b6101a001518e6102000151610645565b613b6057600080fd5b6101e08a01516001600160a01b031615613b9757613b8e8a6101e001518b6101a001518c6102000151610645565b613b9757600080fd5b60e08a015188906001600160a01b0316613bb5578a60200151613bbb565b8c602001515b60e08c01516001600160a01b039182169116613bdb578d60200151613be1565b8b602001515b604080518b8152602081018b90529081018590526001600160a01b0391909116907fc4109843e0b7d514e4c093114b863f8e7d8d9a458c372cd51bfe526b588006c99060600160405180910390a450506001805550505050505050505050565b80516000906001600160a01b03163014613c5d57506000919050565b613c71826101400151836102a0015161448d565b613c7d57506000919050565b60018261010001516001811115613c9657613c966154f0565b148015613cb75750609c548260a001511080613cb75750609d548260c00151105b15613cc457506000919050565b506001919050565b600080613cfb836101200151846101400151856102400151866102600151876102800151886102a0015161302e565b90506000613d2b8561012001518661014001518761024001518861026001518961028001518a6102a0015161302e565b905081811015613d3a57600080fd5b60e08401516001600160a01b0316613d525780610b12565b509392505050565b60006106c88284615492565b60006106c88284615473565b60006106c88284615451565b60006106c88284615439565b600081610200015151826101c0015151836101a00151516101b0613dae9190615439565b613db89190615439565b612e829190615439565b6000818353505060010190565b600042831080156106c857508115806106c85750504210919050565b600080613df784612eec565b9050613e04818585612f48565b6106c857600080fd5b6102208101516000906001600160a01b031615613e2f573415613e2f57600080fd5b6000613e3b8484613ccc565b9050600081118015613e5a57506102208301516001600160a01b031615155b15613e7857613e7883610220015185602001518560200151846144b1565b60e0830151819081906001600160a01b0316156141ed57856080015185608001511115613ea457600080fd5b60018561010001516001811115613ebd57613ebd6154f0565b14156141bf578560c001518560c001511115613ed857600080fd5b606085015115613f7b576000613efd613ef5876060015186613d66565b612710613d72565b6102208701519091506001600160a01b0316613f6057613f1d8382613d5a565b60e08701516040519194506001600160a01b03169082156108fc029083906000818181858888f19350505050158015613f5a573d6000803e3d6000fd5b50613f79565b613f7986610220015187602001518860e00151846144b1565b505b608085015115614016576000613f98613ef5876080015186613d66565b6102208701519091506001600160a01b0316613ffb57613fb88282613d7e565b60e08701516040519193506001600160a01b03169082156108fc029083906000818181858888f19350505050158015613ff5573d6000803e3d6000fd5b50614014565b61401486610220015188602001518860e00151846144b1565b505b60a0850151156140e8576000614033613ef58760a0015186613d66565b6102208701519091506001600160a01b0316614094576140538382613d5a565b609e546040519194506001600160a01b03169082156108fc029083906000818181858888f1935050505015801561408e573d6000803e3d6000fd5b506140e6565b6097546102208701516001600160a01b03908116911614156140c3576140be86602001518261455c565b6140e6565b6102208601516020870151609e546140e69291906001600160a01b0316846144b1565b505b60c0850151156141ba576000614105613ef58760c0015186613d66565b6102208701519091506001600160a01b0316614166576141258282613d7e565b609e546040519193506001600160a01b03169082156108fc029083906000818181858888f19350505050158015614160573d6000803e3d6000fd5b506141b8565b6097546102208701516001600160a01b03908116911614156141955761419087602001518261455c565b6141b8565b6102208601516020880151609e546141b89291906001600160a01b0316846144b1565b505b6143d1565b6141d685602001518660e00151876060015161464a565b6141ba86602001518660e00151876080015161464a565b84608001518660800151111561420257600080fd5b6001856101000151600181111561421b5761421b6154f0565b14156143a3576102208501516001600160a01b031661423957600080fd5b8460c001518660c00151111561424e57600080fd5b60608601511561428857600061426b613ef5886060015186613d66565b905061428686610220015188602001518960e00151846144b1565b505b6080860151156142c25760006142a5613ef5886080015186613d66565b90506142c086610220015187602001518960e00151846144b1565b505b60a0860151156143365760006142df613ef58860a0015186613d66565b6097546102208801519192506001600160a01b03918216911614156143115761430c87602001518261455c565b614334565b6102208601516020880151609e546143349291906001600160a01b0316846144b1565b505b60c0860151156141ba576000614353613ef58860c0015186613d66565b6097546102208801519192506001600160a01b03918216911614156143805761419086602001518261455c565b6102208601516020870151609e546141b89291906001600160a01b0316846144b1565b6143ba86602001518760e00151886060015161464a565b6143d185602001518760e00151886080015161464a565b6102208501516001600160a01b0316612ee257803410156143f157600080fd5b84602001516001600160a01b03166108fc839081150290604051600060405180830381858888f1935050505015801561442e573d6000803e3d6000fd5b50600061443b3483613d5a565b905080156144825786602001516001600160a01b03166108fc829081150290604051600060405180830381858888f19350505050158015614480573d6000803e3d6000fd5b505b505090949350505050565b6000808360018111156144a2576144a26154f0565b14806106c85750501515919050565b801561455657609954604051630aed65f560e11b81526001600160a01b0386811660048301528581166024830152848116604483015260648201849052909116906315dacbea90608401602060405180830381600087803b15801561451557600080fd5b505af1158015614529573d6000803e3d6000fd5b505050506040513d601f19601f8201168201806040525081019061454d9190615094565b61455657600080fd5b50505050565b801561464657600061457961457283600a613d66565b6064613d72565b905080600061459161458b8584613d5a565b83613d5a565b609754609e549192506145b3916001600160a01b0391821691889116846144b1565b609754609f546145d2916001600160a01b0390811691889116866144b1565b60995460975460405163ec60bcf360e01b81526001600160a01b03918216600482015287821660248201526044810185905291169063ec60bcf390606401600060405180830381600087803b15801561462a57600080fd5b505af115801561463e573d6000803e3d6000fd5b505050505050505b5050565b609754614662906001600160a01b03168484846144b1565b505050565b600082601f83011261467857600080fd5b6040516101c08082018281106001600160401b038211171561469c5761469c61551c565b60405281848281018710156146b057600080fd5b600092505b600e8310156146de5780356146c981615550565b825260019290920191602091820191016146b5565b509195945050505050565b600082601f8301126146fa57600080fd5b60405160e081018181106001600160401b038211171561471c5761471c61551c565b604052808360e0810186101561473157600080fd5b60005b60078110156146de57813561474881615550565b83526020928301929190910190600101614734565b600082601f83011261476e57600080fd5b60405160a081018181106001600160401b03821117156147905761479061551c565b604052808360a081018610156147a557600080fd5b60005b60058110156146de5781358352602092830192909101906001016147a8565b600082601f8301126147d857600080fd5b6040516102408082018281106001600160401b03821117156147fc576147fc61551c565b604052818482810187101561481057600080fd5b600092505b60128310156146de57803582526001929092019160209182019101614815565b600082601f83011261484657600080fd5b6040516101208082018281106001600160401b038211171561486a5761486a61551c565b604052818482810187101561487e57600080fd5b600092505b60098310156146de57803582526001929092019160209182019101614883565b600082601f8301126148b457600080fd5b604051604081018181106001600160401b03821117156148d6576148d661551c565b80604052508083856040860111156148ed57600080fd5b60005b60028110156146de5761490282614a33565b835260209283019291909101906001016148f0565b600082601f83011261492857600080fd5b6040516101008082018281106001600160401b038211171561494c5761494c61551c565b604052818482810187101561496057600080fd5b600092505b60088310156146de5761497781614a33565b82526001929092019160209182019101614965565b803561499781615565565b919050565b600082601f8301126149ad57600080fd5b81356001600160401b03808211156149c7576149c761551c565b604051601f8301601f19908116603f011681019082821181831017156149ef576149ef61551c565b81604052838152866020858801011115614a0857600080fd5b836020870160208301376000602085830101528094505050505092915050565b803561499781615573565b803560ff8116811461499757600080fd5b600060208284031215614a5657600080fd5b81356106c881615550565b600060208284031215614a7357600080fd5b81516106c881615550565b600080600060608486031215614a9357600080fd5b8335614a9e81615550565b925060208401356001600160401b0380821115614aba57600080fd5b614ac68783880161499c565b93506040860135915080821115614adc57600080fd5b50614ae98682870161499c565b9150509250925092565b60008060008060008060008060006105c08a8c031215614b1257600080fd5b614b1c8b8b614667565b9850614b2c8b6101c08c016147c7565b9750614b3c8b6104008c01614917565b96506105008a01356001600160401b0380821115614b5957600080fd5b614b658d838e0161499c565b97506105208c0135915080821115614b7c57600080fd5b614b888d838e0161499c565b96506105408c0135915080821115614b9f57600080fd5b614bab8d838e0161499c565b95506105608c0135915080821115614bc257600080fd5b614bce8d838e0161499c565b94506105808c0135915080821115614be557600080fd5b614bf18d838e0161499c565b93506105a08c0135915080821115614c0857600080fd5b50614c158c828d0161499c565b9150509295985092959850929598565b60008060008060008060008060008060006106a08c8e031215614c4757600080fd5b614c518d8d614667565b9a50614c618d6101c08e016147c7565b9950614c718d6104008e01614917565b98506001600160401b03806105008e01351115614c8d57600080fd5b614c9e8e6105008f01358f0161499c565b9850806105208e01351115614cb257600080fd5b614cc38e6105208f01358f0161499c565b9750806105408e01351115614cd757600080fd5b614ce88e6105408f01358f0161499c565b9650806105608e01351115614cfc57600080fd5b614d0d8e6105608f01358f0161499c565b9550806105808e01351115614d2157600080fd5b614d328e6105808f01358f0161499c565b9450806105a08e01351115614d4657600080fd5b50614d588d6105a08e01358e0161499c565b9250614d688d6105c08e016148a3565b9150614d788d6106008e0161475d565b90509295989b509295989b9093969950565b60008060008060008060008060006102e08a8c031215614da957600080fd5b614db38b8b6146e9565b9850614dc28b60e08c01614835565b9750614dd16102008b01614a28565b9650614de06102208b01614a28565b9550614def6102408b01614a28565b9450614dfe6102608b01614a28565b93506102808a01356001600160401b0380821115614e1b57600080fd5b614e278d838e0161499c565b94506102a08c0135915080821115614e3e57600080fd5b614e4a8d838e0161499c565b93506102c08c0135915080821115614c0857600080fd5b6000806000806000806000806000806103008b8d031215614e8157600080fd5b614e8b8c8c6146e9565b9950614e9a8c60e08d01614835565b9850614ea96102008c01614a28565b9750614eb86102208c01614a28565b9650614ec76102408c01614a28565b9550614ed66102608c01614a28565b94506102808b01356001600160401b0380821115614ef357600080fd5b614eff8e838f0161499c565b95506102a08d0135915080821115614f1657600080fd5b614f228e838f0161499c565b94506102c08d0135915080821115614f3957600080fd5b50614f468d828e0161499c565b925050614f566102e08c0161498c565b90509295989b9194979a5092959850565b6000806000806000806000806000806000806103408d8f031215614f8a57600080fd5b614f948e8e6146e9565b9b50614fa38e60e08f01614835565b9a50614fb26102008e01614a28565b9950614fc16102208e01614a28565b9850614fd06102408e01614a28565b9750614fdf6102608e01614a28565b96506001600160401b036102808e01351115614ffa57600080fd5b61500b8e6102808f01358f0161499c565b95506001600160401b036102a08e0135111561502657600080fd5b6150378e6102a08f01358f0161499c565b94506001600160401b036102c08e0135111561505257600080fd5b6150638e6102c08f01358f0161499c565b93506150726102e08e01614a33565b92506103008d013591506103208d013590509295989b509295989b509295989b565b6000602082840312156150a657600080fd5b81516106c881615565565b6000602082840312156150c357600080fd5b5035919050565b6000602082840312156150dc57600080fd5b81356001600160401b038111156150f257600080fd5b6150fe8482850161499c565b949350505050565b60008060006060848603121561511b57600080fd5b83356001600160401b038082111561513257600080fd5b61513e8783880161499c565b94506020860135915080821115614aba57600080fd5b6000806000806080858703121561516a57600080fd5b84356001600160401b038082111561518157600080fd5b61518d8883890161499c565b955060208701359150808211156151a357600080fd5b6151af8883890161499c565b945060408701359150808211156151c557600080fd5b6151d18883890161499c565b935060608701359150808211156151e757600080fd5b506151f48782880161499c565b91505092959194509250565b60008060008060008060c0878903121561521957600080fd5b863561522481615573565b9550602087013561523481615573565b95989597505050506040840135936060810135936080820135935060a0909101359150565b6000815180845260005b8181101561527f57602081850181015186830182015201615263565b81811115615291576000602083870101525b50601f01601f19169290920160200192915050565b6001600160a01b038b811682528a81166020830152604082018a9052606082018990526080820188905260a082018790526101408201906152e687615532565b8660c08401526152f586615532565b8560e084015261530485615532565b84610100840152808416610120840152509b9a5050505050505050505050565b6001600160a01b038416815261533983615532565b826020820152606060408201526000610b126060830184615259565b6020815260006106c86020830184615259565b60006101806153768f615532565b8e835280602084015261538b8184018f615259565b9050828103604084015261539f818e615259565b6001600160a01b038d8116606086015284820360808601529091506153c4828d615259565b9a1660a0840152505060c081019690965260e086019490945261010085019290925261012084015261014083015215156101609091015295945050505050565b6020808252818101527f4f776e61626c653a2063616c6c6572206973206e6f7420746865206f776e6572604082015260600190565b6000821982111561544c5761544c6154da565b500190565b60008261546e57634e487b7160e01b600052601260045260246000fd5b500490565b600081600019048311821515161561548d5761548d6154da565b500290565b6000828210156154a4576154a46154da565b500390565b60006000198214156154bd576154bd6154da565b5060010190565b634e487b7160e01b600052600160045260246000fd5b634e487b7160e01b600052601160045260246000fd5b634e487b7160e01b600052602160045260246000fd5b634e487b7160e01b600052603260045260246000fd5b634e487b7160e01b600052604160045260246000fd5b60028110612c6857634e487b7160e01b600052602160045260246000fd5b6001600160a01b0381168114612c6857600080fd5b8015158114612c6857600080fd5b60028110612c6857600080fdfea2646970667358221220aaf353522bc1f440b2b58fe319d9515f82abdfe8d404a4187858e9e41bb6071964736f6c63430008070033",
  "immutableReferences": {},
  "source": "/*\n  \n  Exchange contract. This is an outer contract with public or convenience functions and includes no state-modifying functions.\n \n*/\n\n// SPDX-License-Identifier: MIT\n\npragma solidity 0.8.7;\n\nimport \"@openzeppelin/contracts-upgradeable/proxy/utils/Initializable.sol\";\nimport \"./ExchangeCore.sol\";\n\n/**\n * @title Exchange\n * @author Project Wyvern Developers\n */\ncontract Exchange is ExchangeCore {\n\n    function __Exchange_init(\n    )\n      internal\n      onlyInitializing\n    {\n        __ExchangeCore_init();\n        __Exchange_init_unchained();\n    }\n\n    function __Exchange_init_unchained()\n        internal\n        onlyInitializing\n    {\n    }\n    /**\n     * @dev Call guardedArrayReplace - library function exposed for testing.\n     */\n    function guardedArrayReplace(bytes memory array, bytes memory desired, bytes memory mask)\n        public\n        pure\n        returns (bytes memory)\n    {\n        ArrayUtils.guardedArrayReplace(array, desired, mask);\n        return array;\n    }\n\n    /**\n     * Test copy byte array\n     *\n     * @param arrToCopy Array to copy\n     * @return byte array\n     */\n    function testCopy(bytes memory arrToCopy)\n        public\n        pure\n        returns (bytes memory)\n    {\n        bytes memory arr = new bytes(arrToCopy.length);\n        uint index;\n        assembly {\n            index := add(arr, 0x20)\n        }\n        ArrayUtils.unsafeWriteBytes(index, arrToCopy);\n        return arr;\n    }\n\n    /**\n     * Test write address to bytes\n     *\n     * @param addr Address to write\n     * @return byte array\n     */\n    function testCopyAddress(address addr)\n        public\n        pure\n        returns (bytes memory)\n    {\n        bytes memory arr = new bytes(0x14);\n        uint index;\n        assembly {\n            index := add(arr, 0x20)\n        }\n        ArrayUtils.unsafeWriteAddress(index, addr);\n        return arr;\n    }\n\n    /**\n     * @dev Call calculateFinalPrice - library function exposed for testing.\n     */\n    function calculateFinalPrice(SaleKindInterface.Side side, SaleKindInterface.SaleKind saleKind, uint basePrice, uint extra, uint listingTime, uint expirationTime)\n        public\n        view\n        returns (uint)\n    {\n        return SaleKindInterface.calculateFinalPrice(side, saleKind, basePrice, extra, listingTime, expirationTime);\n    }\n\n    /**\n     * @dev Call hashOrder - Solidity ABI encoding limitation workaround, hopefully temporary.\n     */\n    function hashOrder_(\n        address[7] memory addrs,\n        uint[9] memory uints,\n        FeeMethod feeMethod,\n        SaleKindInterface.Side side,\n        SaleKindInterface.SaleKind saleKind,\n        AuthenticatedProxy.HowToCall howToCall,\n        bytes memory calldatas,\n        bytes memory replacementPattern,\n        bytes memory staticExtradata)\n        public\n        pure\n        returns (bytes32)\n    {\n        return hashOrder(\n          Order(addrs[0], addrs[1], addrs[2], uints[0], uints[1], uints[2], uints[3], addrs[3], feeMethod, side, saleKind, addrs[4], howToCall, calldatas, replacementPattern, addrs[5], staticExtradata, addrs[6], uints[4], uints[5], uints[6], uints[7], uints[8])\n        );\n    }\n\n    /**\n     * @dev Call hashToSign - Solidity ABI encoding limitation workaround, hopefully temporary.\n     */\n    function hashToSign_(\n        address[7] memory addrs,\n        uint[9] memory uints,\n        FeeMethod feeMethod,\n        SaleKindInterface.Side side,\n        SaleKindInterface.SaleKind saleKind,\n        AuthenticatedProxy.HowToCall howToCall,\n        bytes memory calldatas,\n        bytes memory replacementPattern,\n        bytes memory staticExtradata)\n        public\n        pure\n        returns (bytes32)\n    { \n        return hashToSign(\n          Order(addrs[0], addrs[1], addrs[2], uints[0], uints[1], uints[2], uints[3], addrs[3], feeMethod, side, saleKind, addrs[4], howToCall, calldatas, replacementPattern, addrs[5], staticExtradata, addrs[6], uints[4], uints[5], uints[6], uints[7], uints[8])\n        );\n    }\n\n    /**\n     * @dev Call validateOrderParameters - Solidity ABI encoding limitation workaround, hopefully temporary.\n     */\n    function validateOrderParameters_ (\n        address[7] memory addrs,\n        uint[9] memory uints,\n        FeeMethod feeMethod,\n        SaleKindInterface.Side side,\n        SaleKindInterface.SaleKind saleKind,\n        AuthenticatedProxy.HowToCall howToCall,\n        bytes memory calldatas,\n        bytes memory replacementPattern,\n        bytes memory staticExtradata)\n        view\n        public\n        returns (bool)\n    {\n        Order memory order = Order(addrs[0], addrs[1], addrs[2], uints[0], uints[1], uints[2], uints[3], addrs[3], feeMethod, side, saleKind, addrs[4], howToCall, calldatas, replacementPattern, addrs[5], staticExtradata, addrs[6], uints[4], uints[5], uints[6], uints[7], uints[8]);\n        return validateOrderParameters(\n          order\n        );\n    }\n\n    /**\n     * @dev Call validateOrder - Solidity ABI encoding limitation workaround, hopefully temporary.\n     */\n    function validateOrder_ (\n        address[7] memory addrs,\n        uint[9] memory uints,\n        FeeMethod feeMethod,\n        SaleKindInterface.Side side,\n        SaleKindInterface.SaleKind saleKind,\n        AuthenticatedProxy.HowToCall howToCall,\n        bytes memory calldatas,\n        bytes memory replacementPattern,\n        bytes memory staticExtradata,\n        uint8 v,\n        bytes32 r,\n        bytes32 s)\n        view\n        public\n        returns (bool)\n    {\n        Order memory order = Order(addrs[0], addrs[1], addrs[2], uints[0], uints[1], uints[2], uints[3], addrs[3], feeMethod, side, saleKind, addrs[4], howToCall, calldatas, replacementPattern, addrs[5], staticExtradata, addrs[6], uints[4], uints[5], uints[6], uints[7], uints[8]);\n        return validateOrder(\n          hashToSign(order),\n          order,\n          Sig(v, r, s)\n        );\n    }\n\n    /**\n     * @dev Call approveOrder - Solidity ABI encoding limitation workaround, hopefully temporary.\n     */\n    function approveOrder_ (\n        address[7] memory addrs,\n        uint[9] memory uints,\n        FeeMethod feeMethod,\n        SaleKindInterface.Side side,\n        SaleKindInterface.SaleKind saleKind,\n        AuthenticatedProxy.HowToCall howToCall,\n        bytes memory calldatas,\n        bytes memory replacementPattern,\n        bytes memory staticExtradata,\n        bool orderbookInclusionDesired) \n        public\n    {\n        Order memory order = Order(addrs[0], addrs[1], addrs[2], uints[0], uints[1], uints[2], uints[3], addrs[3], feeMethod, side, saleKind, addrs[4], howToCall, calldatas, replacementPattern, addrs[5], staticExtradata, addrs[6], uints[4], uints[5], uints[6], uints[7], uints[8]);\n        return approveOrder(order, orderbookInclusionDesired);\n    }\n\n    /**\n     * @dev Call cancelOrder - Solidity ABI encoding limitation workaround, hopefully temporary.\n     */\n    function cancelOrder_(\n        address[7] memory addrs,\n        uint[9] memory uints,\n        FeeMethod feeMethod,\n        SaleKindInterface.Side side,\n        SaleKindInterface.SaleKind saleKind,\n        AuthenticatedProxy.HowToCall howToCall,\n        bytes memory calldatas,\n        bytes memory replacementPattern,\n        bytes memory staticExtradata,\n        uint8 v,\n        bytes32 r,\n        bytes32 s)\n        public\n    {\n\n        return cancelOrder(\n          Order(addrs[0], addrs[1], addrs[2], uints[0], uints[1], uints[2], uints[3], addrs[3], feeMethod, side, saleKind, addrs[4], howToCall, calldatas, replacementPattern, addrs[5], staticExtradata, addrs[6], uints[4], uints[5], uints[6], uints[7], uints[8]),\n          Sig(v, r, s)\n        );\n    }\n\n    /**\n     * @dev Call calculateCurrentPrice - Solidity ABI encoding limitation workaround, hopefully temporary.\n     */\n    function calculateCurrentPrice_(\n        address[7] memory addrs,\n        uint[9] memory uints,\n        FeeMethod feeMethod,\n        SaleKindInterface.Side side,\n        SaleKindInterface.SaleKind saleKind,\n        AuthenticatedProxy.HowToCall howToCall,\n        bytes memory calldatas,\n        bytes memory replacementPattern,\n        bytes memory staticExtradata)\n        public\n        view\n        returns (uint)\n    {\n        return calculateCurrentPrice(\n          Order(addrs[0], addrs[1], addrs[2], uints[0], uints[1], uints[2], uints[3], addrs[3], feeMethod, side, saleKind, addrs[4], howToCall, calldatas, replacementPattern, addrs[5], staticExtradata, addrs[6], uints[4], uints[5], uints[6], uints[7], uints[8])\n        );\n    }\n\n    /**\n     * @dev Call ordersCanMatch - Solidity ABI encoding limitation workaround, hopefully temporary.\n     */\n    function ordersCanMatch_(\n        address[14] memory addrs,\n        uint[18] memory uints,\n        uint8[8] memory feeMethodsSidesKindsHowToCalls,\n        bytes memory calldataBuy,\n        bytes memory calldataSell,\n        bytes memory replacementPatternBuy,\n        bytes memory replacementPatternSell,\n        bytes memory staticExtradataBuy,\n        bytes memory staticExtradataSell)\n        public\n        view\n        returns (bool)\n    {\n        Order memory buy = Order(addrs[0], addrs[1], addrs[2], uints[0], uints[1], uints[2], uints[3], addrs[3], FeeMethod(feeMethodsSidesKindsHowToCalls[0]), SaleKindInterface.Side(feeMethodsSidesKindsHowToCalls[1]), SaleKindInterface.SaleKind(feeMethodsSidesKindsHowToCalls[2]), addrs[4], AuthenticatedProxy.HowToCall(feeMethodsSidesKindsHowToCalls[3]), calldataBuy, replacementPatternBuy, addrs[5], staticExtradataBuy, addrs[6], uints[4], uints[5], uints[6], uints[7], uints[8]);\n        Order memory sell = Order(addrs[7], addrs[8], addrs[9], uints[9], uints[10], uints[11], uints[12], addrs[10], FeeMethod(feeMethodsSidesKindsHowToCalls[4]), SaleKindInterface.Side(feeMethodsSidesKindsHowToCalls[5]), SaleKindInterface.SaleKind(feeMethodsSidesKindsHowToCalls[6]), addrs[11], AuthenticatedProxy.HowToCall(feeMethodsSidesKindsHowToCalls[7]), calldataSell, replacementPatternSell, addrs[12], staticExtradataSell, addrs[13], uints[13], uints[14], uints[15], uints[16], uints[17]);\n        return ordersCanMatch(\n          buy,\n          sell\n        );\n    }\n\n    /**\n     * @dev Return whether or not two orders' calldatas specifications can match\n     * @param buyCalldata Buy-side order calldatas\n     * @param buyReplacementPattern Buy-side order calldatas replacement mask\n     * @param sellCalldata Sell-side order calldatas\n     * @param sellReplacementPattern Sell-side order calldatas replacement mask\n     * @return Whether the orders' calldatas can be matched\n     */\n    function orderCalldataCanMatch(bytes memory buyCalldata, bytes memory buyReplacementPattern, bytes memory sellCalldata, bytes memory sellReplacementPattern)\n        public\n        pure\n        returns (bool)\n    {\n        if (buyReplacementPattern.length > 0) {\n          ArrayUtils.guardedArrayReplace(buyCalldata, sellCalldata, buyReplacementPattern);\n        }\n        if (sellReplacementPattern.length > 0) {\n          ArrayUtils.guardedArrayReplace(sellCalldata, buyCalldata, sellReplacementPattern);\n        }\n        return ArrayUtils.arrayEq(buyCalldata, sellCalldata);\n    }\n\n    /**\n     * @dev Call calculateMatchPrice - Solidity ABI encoding limitation workaround, hopefully temporary.\n     */\n    function calculateMatchPrice_(\n        address[14] memory addrs,\n        uint[18] memory uints,\n        uint8[8] memory feeMethodsSidesKindsHowToCalls,\n        bytes memory calldataBuy,\n        bytes memory calldataSell,\n        bytes memory replacementPatternBuy,\n        bytes memory replacementPatternSell,\n        bytes memory staticExtradataBuy,\n        bytes memory staticExtradataSell)\n        public\n        view\n        returns (uint)\n    {\n        Order memory buy = Order(addrs[0], addrs[1], addrs[2], uints[0], uints[1], uints[2], uints[3], addrs[3], FeeMethod(feeMethodsSidesKindsHowToCalls[0]), SaleKindInterface.Side(feeMethodsSidesKindsHowToCalls[1]), SaleKindInterface.SaleKind(feeMethodsSidesKindsHowToCalls[2]), addrs[4], AuthenticatedProxy.HowToCall(feeMethodsSidesKindsHowToCalls[3]), calldataBuy, replacementPatternBuy, addrs[5], staticExtradataBuy, addrs[6], uints[4], uints[5], uints[6], uints[7], uints[8]);\n        Order memory sell = Order(addrs[7], addrs[8], addrs[9], uints[9], uints[10], uints[11], uints[12], addrs[10], FeeMethod(feeMethodsSidesKindsHowToCalls[4]), SaleKindInterface.Side(feeMethodsSidesKindsHowToCalls[5]), SaleKindInterface.SaleKind(feeMethodsSidesKindsHowToCalls[6]), addrs[11], AuthenticatedProxy.HowToCall(feeMethodsSidesKindsHowToCalls[7]), calldataSell, replacementPatternSell, addrs[12], staticExtradataSell, addrs[13], uints[13], uints[14], uints[15], uints[16], uints[17]);\n        return calculateMatchPrice(\n          buy,\n          sell\n        );\n    }\n\n    /**\n     * @dev Call atomicMatch - Solidity ABI encoding limitation workaround, hopefully temporary.\n     */\n    function atomicMatch_(\n        address[14] memory addrs,\n        uint[18] memory uints,\n        uint8[8] memory feeMethodsSidesKindsHowToCalls,\n        bytes memory calldataBuy,\n        bytes memory calldataSell,\n        bytes memory replacementPatternBuy,\n        bytes memory replacementPatternSell,\n        bytes memory staticExtradataBuy,\n        bytes memory staticExtradataSell,\n        uint8[2] memory vs,\n        bytes32[5] memory rssMetadata)\n        public\n        payable\n    {\n\n        return atomicMatch(\n          Order(addrs[0], addrs[1], addrs[2], uints[0], uints[1], uints[2], uints[3], addrs[3], FeeMethod(feeMethodsSidesKindsHowToCalls[0]), SaleKindInterface.Side(feeMethodsSidesKindsHowToCalls[1]), SaleKindInterface.SaleKind(feeMethodsSidesKindsHowToCalls[2]), addrs[4], AuthenticatedProxy.HowToCall(feeMethodsSidesKindsHowToCalls[3]), calldataBuy, replacementPatternBuy, addrs[5], staticExtradataBuy, addrs[6], uints[4], uints[5], uints[6], uints[7], uints[8]),\n          Sig(vs[0], rssMetadata[0], rssMetadata[1]),\n          Order(addrs[7], addrs[8], addrs[9], uints[9], uints[10], uints[11], uints[12], addrs[10], FeeMethod(feeMethodsSidesKindsHowToCalls[4]), SaleKindInterface.Side(feeMethodsSidesKindsHowToCalls[5]), SaleKindInterface.SaleKind(feeMethodsSidesKindsHowToCalls[6]), addrs[11], AuthenticatedProxy.HowToCall(feeMethodsSidesKindsHowToCalls[7]), calldataSell, replacementPatternSell, addrs[12], staticExtradataSell, addrs[13], uints[13], uints[14], uints[15], uints[16], uints[17]),\n          Sig(vs[1], rssMetadata[2], rssMetadata[3]),\n          rssMetadata[4]\n        );\n    }\n\n}\n",
  "sourcePath": "/Users/ronak/Developer/projects/tsgit/wyvern-js/src/wyvern-ethereum/contracts/exchange/Exchange.sol",
  "compiler": {
    "name": "solc",
    "version": "0.8.7+commit.e28d00a7.Emscripten.clang"
  },
  "schemaVersion": "3.2.0",
  "updatedAt": "2022-01-11T10:25:40.206Z",
  "devdoc": {
    "author": "Project Wyvern Developers",
    "kind": "dev",
    "methods": {
      "approveOrder_(address[7],uint256[9],uint8,uint8,uint8,uint8,bytes,bytes,bytes,bool)": {
        "details": "Call approveOrder - Solidity ABI encoding limitation workaround, hopefully temporary."
      },
      "atomicMatch_(address[14],uint256[18],uint8[8],bytes,bytes,bytes,bytes,bytes,bytes,uint8[2],bytes32[5])": {
        "details": "Call atomicMatch - Solidity ABI encoding limitation workaround, hopefully temporary."
      },
      "calculateCurrentPrice_(address[7],uint256[9],uint8,uint8,uint8,uint8,bytes,bytes,bytes)": {
        "details": "Call calculateCurrentPrice - Solidity ABI encoding limitation workaround, hopefully temporary."
      },
      "calculateFinalPrice(uint8,uint8,uint256,uint256,uint256,uint256)": {
        "details": "Call calculateFinalPrice - library function exposed for testing."
      },
      "calculateMatchPrice_(address[14],uint256[18],uint8[8],bytes,bytes,bytes,bytes,bytes,bytes)": {
        "details": "Call calculateMatchPrice - Solidity ABI encoding limitation workaround, hopefully temporary."
      },
      "cancelOrder_(address[7],uint256[9],uint8,uint8,uint8,uint8,bytes,bytes,bytes,uint8,bytes32,bytes32)": {
        "details": "Call cancelOrder - Solidity ABI encoding limitation workaround, hopefully temporary."
      },
      "changeDevWalletAddress(address)": {
        "details": "Change the dev wallet (owner only)",
        "params": {
          "newDevWalletAddress": "New dev wallet address"
        }
      },
      "changeMinimumMakerProtocolFee(uint256)": {
        "details": "Change the minimum maker fee paid to the protocol (owner only)",
        "params": {
          "newMinimumMakerProtocolFee": "New fee to set in basis points"
        }
      },
      "changeMinimumTakerProtocolFee(uint256)": {
        "details": "Change the minimum taker fee paid to the protocol (owner only)",
        "params": {
          "newMinimumTakerProtocolFee": "New fee to set in basis points"
        }
      },
      "changeProtocolFeeRecipient(address)": {
        "details": "Change the protocol fee recipient (owner only)",
        "params": {
          "newProtocolFeeRecipient": "New protocol fee recipient address"
        }
      },
      "guardedArrayReplace(bytes,bytes,bytes)": {
        "details": "Call guardedArrayReplace - library function exposed for testing."
      },
      "hashOrder_(address[7],uint256[9],uint8,uint8,uint8,uint8,bytes,bytes,bytes)": {
        "details": "Call hashOrder - Solidity ABI encoding limitation workaround, hopefully temporary."
      },
      "hashToSign_(address[7],uint256[9],uint8,uint8,uint8,uint8,bytes,bytes,bytes)": {
        "details": "Call hashToSign - Solidity ABI encoding limitation workaround, hopefully temporary."
      },
      "orderCalldataCanMatch(bytes,bytes,bytes,bytes)": {
        "details": "Return whether or not two orders' calldatas specifications can match",
        "params": {
          "buyCalldata": "Buy-side order calldatas",
          "buyReplacementPattern": "Buy-side order calldatas replacement mask",
          "sellCalldata": "Sell-side order calldatas",
          "sellReplacementPattern": "Sell-side order calldatas replacement mask"
        },
        "returns": {
          "_0": "Whether the orders' calldatas can be matched"
        }
      },
      "ordersCanMatch_(address[14],uint256[18],uint8[8],bytes,bytes,bytes,bytes,bytes,bytes)": {
        "details": "Call ordersCanMatch - Solidity ABI encoding limitation workaround, hopefully temporary."
      },
      "owner()": {
        "details": "Returns the address of the current owner."
      },
      "renounceOwnership()": {
        "details": "Leaves the contract without owner. It will not be possible to call `onlyOwner` functions anymore. Can only be called by the current owner. NOTE: Renouncing ownership will leave the contract without an owner, thereby removing any functionality that is only available to the owner."
      },
      "staticCall(address,bytes,bytes)": {
        "details": "Execute a STATICCALL (introduced with Ethereum Metropolis, non-state-modifying external call)",
        "params": {
          "calldatas": "Calldata (appended to extradata)",
          "extradata": "Base data for STATICCALL (probably function selector and argument encoding)",
          "target": "Contract to call"
        },
        "returns": {
          "result": "The result of the call (success or failure)"
        }
      },
      "testCopy(bytes)": {
        "params": {
          "arrToCopy": "Array to copy"
        },
        "returns": {
          "_0": "byte array"
        }
      },
      "testCopyAddress(address)": {
        "params": {
          "addr": "Address to write"
        },
        "returns": {
          "_0": "byte array"
        }
      },
      "transferOwnership(address)": {
        "details": "Transfers ownership of the contract to a new account (`newOwner`). Can only be called by the current owner."
      },
      "validateOrderParameters_(address[7],uint256[9],uint8,uint8,uint8,uint8,bytes,bytes,bytes)": {
        "details": "Call validateOrderParameters - Solidity ABI encoding limitation workaround, hopefully temporary."
      },
      "validateOrder_(address[7],uint256[9],uint8,uint8,uint8,uint8,bytes,bytes,bytes,uint8,bytes32,bytes32)": {
        "details": "Call validateOrder - Solidity ABI encoding limitation workaround, hopefully temporary."
      }
    },
    "title": "Exchange",
    "version": 1
  },
  "userdoc": {
    "kind": "user",
    "methods": {
      "testCopy(bytes)": {
        "notice": "Test copy byte array"
      },
      "testCopyAddress(address)": {
        "notice": "Test write address to bytes"
      }
    },
    "version": 1
  }
}