{
  "contractName": "OwnedUpgradeabilityProxy",
  "abi": [
    {
      "anonymous": false,
      "inputs": [
        {
          "indexed": false,
          "internalType": "address",
          "name": "previousOwner",
          "type": "address"
        },
        {
          "indexed": false,
          "internalType": "address",
          "name": "newOwner",
          "type": "address"
        }
      ],
      "name": "ProxyOwnershipTransferred",
      "type": "event"
    },
    {
      "anonymous": false,
      "inputs": [
        {
          "indexed": true,
          "internalType": "address",
          "name": "implementation",
          "type": "address"
        }
      ],
      "name": "Upgraded",
      "type": "event"
    },
    {
      "stateMutability": "payable",
      "type": "fallback"
    },
    {
      "inputs": [],
      "name": "upgradeabilityOwner",
      "outputs": [
        {
          "internalType": "address",
          "name": "",
          "type": "address"
        }
      ],
      "stateMutability": "view",
      "type": "function"
    },
    {
      "stateMutability": "payable",
      "type": "receive"
    },
    {
      "inputs": [],
      "name": "implementation",
      "outputs": [
        {
          "internalType": "address",
          "name": "",
          "type": "address"
        }
      ],
      "stateMutability": "view",
      "type": "function"
    },
    {
      "inputs": [],
      "name": "proxyType",
      "outputs": [
        {
          "internalType": "uint256",
          "name": "proxyTypeId",
          "type": "uint256"
        }
      ],
      "stateMutability": "pure",
      "type": "function"
    },
    {
      "inputs": [],
      "name": "proxyOwner",
      "outputs": [
        {
          "internalType": "address",
          "name": "",
          "type": "address"
        }
      ],
      "stateMutability": "view",
      "type": "function"
    },
    {
      "inputs": [
        {
          "internalType": "address",
          "name": "newOwner",
          "type": "address"
        }
      ],
      "name": "transferProxyOwnership",
      "outputs": [],
      "stateMutability": "nonpayable",
      "type": "function"
    },
    {
      "inputs": [
        {
          "internalType": "address",
          "name": "newImplementation",
          "type": "address"
        }
      ],
      "name": "upgradeTo",
      "outputs": [],
      "stateMutability": "nonpayable",
      "type": "function"
    },
    {
      "inputs": [
        {
          "internalType": "address",
          "name": "newImplementation",
          "type": "address"
        },
        {
          "internalType": "bytes",
          "name": "data",
          "type": "bytes"
        }
      ],
      "name": "upgradeToAndCall",
      "outputs": [],
      "stateMutability": "payable",
      "type": "function"
    }
  ],
  "bytecode": "0x608060405234801561001057600080fd5b50610674806100206000396000f3fe6080604052600436106100745760003560e01c80634f1ef2861161004e5780634f1ef286146101265780635c60da1b146101395780636fde820214610157578063f1739cae146101755761007b565b8063025313a2146100b65780633659cfe6146100e85780634555d5c91461010a5761007b565b3661007b57005b6000546001600160a01b03168061009157600080fd5b60405136600082376000803683855af43d806000843e8180156100b2578184f35b8184fd5b3480156100c257600080fd5b506100cb610195565b6040516001600160a01b0390911681526020015b60405180910390f35b3480156100f457600080fd5b506101086101033660046104c0565b6101ae565b005b34801561011657600080fd5b50604051600281526020016100df565b6101086101343660046104e2565b6101fb565b34801561014557600080fd5b506000546001600160a01b03166100cb565b34801561016357600080fd5b506001546001600160a01b03166100cb565b34801561018157600080fd5b506101086101903660046104c0565b6102ec565b60006101a96001546001600160a01b031690565b905090565b6101b6610195565b6001600160a01b0316336001600160a01b0316146101ef5760405162461bcd60e51b81526004016101e6906105df565b60405180910390fd5b6101f8816103ef565b50565b610203610195565b6001600160a01b0316336001600160a01b0316146102335760405162461bcd60e51b81526004016101e6906105df565b61023c826101ae565b6000306001600160a01b03168260405161025691906105a4565b600060405180830381855af49150503d8060008114610291576040519150601f19603f3d011682016040523d82523d6000602084013e610296565b606091505b50509050806102e75760405162461bcd60e51b815260206004820152601f60248201527f43616c6c206661696c65642061667465722070726f787920757067726164650060448201526064016101e6565b505050565b6102f4610195565b6001600160a01b0316336001600160a01b0316146103245760405162461bcd60e51b81526004016101e6906105df565b6001600160a01b0381166103865760405162461bcd60e51b8152602060048201526024808201527f4e6577206f776e65722063616e6e6f7420626520746865206e756c6c206164646044820152637265737360e01b60648201526084016101e6565b7f5a3e66efaa1e445ebd894728a69d6959842ea1e97bd79b892797106e270efcd96103af610195565b604080516001600160a01b03928316815291841660208301520160405180910390a1600180546001600160a01b0319166001600160a01b03831617905550565b6000546001600160a01b038281169116141561045c5760405162461bcd60e51b815260206004820152602660248201527f50726f787920616c72656164792075736573207468697320696d706c656d656e6044820152653a30ba34b7b760d11b60648201526084016101e6565b600080546001600160a01b0319166001600160a01b038316908117825560405190917fbc7cd75a20ee27fd9adebab32041f755214dbc6bffa90cc0225b39da2e5c2d3b91a250565b80356001600160a01b03811681146104bb57600080fd5b919050565b6000602082840312156104d257600080fd5b6104db826104a4565b9392505050565b600080604083850312156104f557600080fd5b6104fe836104a4565b9150602083013567ffffffffffffffff8082111561051b57600080fd5b818501915085601f83011261052f57600080fd5b81358181111561054157610541610628565b604051601f8201601f19908116603f0116810190838211818310171561056957610569610628565b8160405282815288602084870101111561058257600080fd5b8260208601602083013760006020848301015280955050505050509250929050565b6000825160005b818110156105c557602081860181015185830152016105ab565b818111156105d4576000828501525b509190910192915050565b60208082526029908201527f4f6e6c79207468652070726f7879206f776e65722063616e2063616c6c2074686040820152681a5cc81b595d1a1bd960ba1b606082015260800190565b634e487b7160e01b600052604160045260246000fdfea26469706673582212208ab42489032f4965daecdd692328a54fb0dda8a06591d12545fbd4dae8ad8e2264736f6c63430008070033",
  "immutableReferences": {},
  "source": "// SPDX-License-Identifier: MIT\n\npragma solidity 0.8.7;\n\nimport './Proxy.sol';\nimport './OwnedUpgradeabilityStorage.sol';\n\n/**\n * @title OwnedUpgradeabilityProxy\n * @dev This contract combines an upgradeability proxy with basic authorization control functionalities\n */\ncontract OwnedUpgradeabilityProxy is Proxy, OwnedUpgradeabilityStorage {\n  /**\n  * @dev Event to show ownership has been transferred\n  * @param previousOwner representing the address of the previous owner\n  * @param newOwner representing the address of the new owner\n  */\n  event ProxyOwnershipTransferred(address previousOwner, address newOwner);\n\n  /**\n  * @dev This event will be emitted every time the implementation gets upgraded\n  * @param implementation representing the address of the upgraded implementation\n  */\n  event Upgraded(address indexed implementation);\n\n  /**\n  * @dev Tells the address of the current implementation\n  * @return address of the current implementation\n  */\n  function implementation() override public view returns (address) {\n    return _implementation;\n  }\n\n  /**\n  * @dev Tells the proxy type (EIP 897)\n  * @return proxyTypeId Proxy type, 2 for forwarding proxy\n  */\n  function proxyType() override public pure returns (uint256 proxyTypeId) {\n    return 2;\n  }\n\n  /**\n  * @dev Upgrades the implementation address\n  * @param newImplementation representing the address of the new implementation to be set\n  */\n  function _upgradeTo(address newImplementation) internal {\n    require(_implementation != newImplementation, \"Proxy already uses this implementation\");\n    _implementation = newImplementation;\n    emit Upgraded(newImplementation);\n  }\n\n  /**\n  * @dev Throws if called by any account other than the owner.\n  */\n  modifier onlyProxyOwner() {\n    require(msg.sender == proxyOwner(), \"Only the proxy owner can call this method\");\n    _;\n  }\n\n  /**\n   * @dev Tells the address of the proxy owner\n   * @return the address of the proxy owner\n   */\n  function proxyOwner() public view returns (address) {\n    return upgradeabilityOwner();\n  }\n\n  /**\n   * @dev Allows the current owner to transfer control of the contract to a newOwner.\n   * @param newOwner The address to transfer ownership to.\n   */\n  function transferProxyOwnership(address newOwner) public onlyProxyOwner {\n    require(newOwner != address(0), \"New owner cannot be the null address\");\n    emit ProxyOwnershipTransferred(proxyOwner(), newOwner);\n    setUpgradeabilityOwner(newOwner);\n  }\n\n  /**\n   * @dev Allows the upgradeability owner to upgrade the current implementation of the proxy.\n   * @param newImplementation representing the address of the new implementation to be set.\n   */\n  function upgradeTo(address newImplementation) public onlyProxyOwner {\n    _upgradeTo(newImplementation);\n  }\n\n  /**\n   * @dev Allows the upgradeability owner to upgrade the current implementation of the proxy\n   * and delegatecall the new implementation for initialization.\n   * @param newImplementation representing the address of the new implementation to be set.\n   * @param data represents the msg.data to bet sent in the low level call. This parameter may include the function\n   * signature of the implementation to be called with the needed payload\n   */\n  function upgradeToAndCall(address newImplementation, bytes memory data) payable public onlyProxyOwner {\n    upgradeTo(newImplementation);\n    (bool success,) = address(this).delegatecall(data);\n    require(success, \"Call failed after proxy upgrade\");\n  }\n}\n",
  "sourcePath": "/Users/ronak/Developer/projects/tsgit/wyvern-js/src/wyvern-ethereum/contracts/registry/proxy/OwnedUpgradeabilityProxy.sol",
  "compiler": {
    "name": "solc",
    "version": "0.8.7+commit.e28d00a7.Emscripten.clang"
  },
  "schemaVersion": "3.2.0",
  "updatedAt": "2022-01-11T06:39:41.708Z",
  "devdoc": {
    "details": "This contract combines an upgradeability proxy with basic authorization control functionalities",
    "events": {
      "ProxyOwnershipTransferred(address,address)": {
        "details": "Event to show ownership has been transferred",
        "params": {
          "newOwner": "representing the address of the new owner",
          "previousOwner": "representing the address of the previous owner"
        }
      },
      "Upgraded(address)": {
        "details": "This event will be emitted every time the implementation gets upgraded",
        "params": {
          "implementation": "representing the address of the upgraded implementation"
        }
      }
    },
    "kind": "dev",
    "methods": {
      "implementation()": {
        "details": "Tells the address of the current implementation",
        "returns": {
          "_0": "address of the current implementation"
        }
      },
      "proxyOwner()": {
        "details": "Tells the address of the proxy owner",
        "returns": {
          "_0": "the address of the proxy owner"
        }
      },
      "proxyType()": {
        "details": "Tells the proxy type (EIP 897)",
        "returns": {
          "proxyTypeId": "Proxy type, 2 for forwarding proxy"
        }
      },
      "transferProxyOwnership(address)": {
        "details": "Allows the current owner to transfer control of the contract to a newOwner.",
        "params": {
          "newOwner": "The address to transfer ownership to."
        }
      },
      "upgradeTo(address)": {
        "details": "Allows the upgradeability owner to upgrade the current implementation of the proxy.",
        "params": {
          "newImplementation": "representing the address of the new implementation to be set."
        }
      },
      "upgradeToAndCall(address,bytes)": {
        "details": "Allows the upgradeability owner to upgrade the current implementation of the proxy and delegatecall the new implementation for initialization.",
        "params": {
          "data": "represents the msg.data to bet sent in the low level call. This parameter may include the function signature of the implementation to be called with the needed payload",
          "newImplementation": "representing the address of the new implementation to be set."
        }
      },
      "upgradeabilityOwner()": {
        "details": "Tells the address of the owner",
        "returns": {
          "_0": "the address of the owner"
        }
      }
    },
    "title": "OwnedUpgradeabilityProxy",
    "version": 1
  },
  "userdoc": {
    "kind": "user",
    "methods": {},
    "version": 1
  }
}