{
  "contractName": "ProxyRegistry",
  "abi": [
    {
      "anonymous": false,
      "inputs": [
        {
          "indexed": true,
          "internalType": "address",
          "name": "previousOwner",
          "type": "address"
        },
        {
          "indexed": true,
          "internalType": "address",
          "name": "newOwner",
          "type": "address"
        }
      ],
      "name": "OwnershipTransferred",
      "type": "event"
    },
    {
      "inputs": [],
      "name": "DELAY_PERIOD",
      "outputs": [
        {
          "internalType": "uint256",
          "name": "",
          "type": "uint256"
        }
      ],
      "stateMutability": "view",
      "type": "function"
    },
    {
      "inputs": [
        {
          "internalType": "address",
          "name": "",
          "type": "address"
        }
      ],
      "name": "contracts",
      "outputs": [
        {
          "internalType": "bool",
          "name": "",
          "type": "bool"
        }
      ],
      "stateMutability": "view",
      "type": "function"
    },
    {
      "inputs": [],
      "name": "delegateProxyImplementation",
      "outputs": [
        {
          "internalType": "address",
          "name": "",
          "type": "address"
        }
      ],
      "stateMutability": "view",
      "type": "function"
    },
    {
      "inputs": [],
      "name": "owner",
      "outputs": [
        {
          "internalType": "address",
          "name": "",
          "type": "address"
        }
      ],
      "stateMutability": "view",
      "type": "function"
    },
    {
      "inputs": [
        {
          "internalType": "address",
          "name": "",
          "type": "address"
        }
      ],
      "name": "pending",
      "outputs": [
        {
          "internalType": "uint256",
          "name": "",
          "type": "uint256"
        }
      ],
      "stateMutability": "view",
      "type": "function"
    },
    {
      "inputs": [
        {
          "internalType": "address",
          "name": "",
          "type": "address"
        }
      ],
      "name": "proxies",
      "outputs": [
        {
          "internalType": "contract OwnableDelegateProxy",
          "name": "",
          "type": "address"
        }
      ],
      "stateMutability": "view",
      "type": "function"
    },
    {
      "inputs": [],
      "name": "renounceOwnership",
      "outputs": [],
      "stateMutability": "nonpayable",
      "type": "function"
    },
    {
      "inputs": [
        {
          "internalType": "address",
          "name": "newOwner",
          "type": "address"
        }
      ],
      "name": "transferOwnership",
      "outputs": [],
      "stateMutability": "nonpayable",
      "type": "function"
    },
    {
      "inputs": [
        {
          "internalType": "address",
          "name": "addr",
          "type": "address"
        }
      ],
      "name": "startGrantAuthentication",
      "outputs": [],
      "stateMutability": "nonpayable",
      "type": "function"
    },
    {
      "inputs": [
        {
          "internalType": "address",
          "name": "addr",
          "type": "address"
        }
      ],
      "name": "endGrantAuthentication",
      "outputs": [],
      "stateMutability": "nonpayable",
      "type": "function"
    },
    {
      "inputs": [
        {
          "internalType": "address",
          "name": "addr",
          "type": "address"
        }
      ],
      "name": "revokeAuthentication",
      "outputs": [],
      "stateMutability": "nonpayable",
      "type": "function"
    },
    {
      "inputs": [],
      "name": "registerProxy",
      "outputs": [
        {
          "internalType": "contract OwnableDelegateProxy",
          "name": "proxy",
          "type": "address"
        }
      ],
      "stateMutability": "nonpayable",
      "type": "function"
    }
  ],
  "bytecode": "0x60806040526212750060055534801561001757600080fd5b5061002133610026565b610076565b600080546001600160a01b038381166001600160a01b0319831681178455604051919092169283917f8be0079c531659141344cd1fd0a4f28419497f9722a3daafe3b4186f6b6457e09190a35050565b61110e806100856000396000f3fe60806040523480156200001157600080fd5b5060043610620000c35760003560e01c806397204d8e116200007a57806397204d8e1462000195578063c455279114620001a9578063d4e8e06314620001d5578063ddd81f8214620001ec578063e71a02e114620001f6578063f2fde38b146200020057600080fd5b806338b6e40714620000c857806353376d1f14620000e15780635eebea2014620000f857806369dc9ff3146200012e578063715018a614620001655780638da5cb5b146200016f575b600080fd5b620000df620000d936600462000631565b62000217565b005b620000df620000f236600462000631565b620002fc565b6200011b6200010936600462000631565b60036020526000908152604090205481565b6040519081526020015b60405180910390f35b620001546200013f36600462000631565b60046020526000908152604090205460ff1681565b604051901515815260200162000125565b620000df6200034a565b6000546001600160a01b03165b6040516001600160a01b03909116815260200162000125565b6001546200017c906001600160a01b031681565b6200017c620001ba36600462000631565b6002602052600090815260409020546001600160a01b031681565b620000df620001e636600462000631565b62000385565b6200017c62000418565b6200011b60055481565b620000df6200021136600462000631565b62000531565b6000546001600160a01b031633146200024d5760405162461bcd60e51b81526004016200024490620006d7565b60405180910390fd5b6001600160a01b03811660009081526004602052604090205460ff161580156200028e57506001600160a01b03811660009081526003602052604090205415155b8015620002c157506005546001600160a01b0382166000908152600360205260409020544291620002bf916200070c565b105b620002cb57600080fd5b6001600160a01b0316600090815260036020908152604080832083905560049091529020805460ff19166001179055565b6000546001600160a01b03163314620003295760405162461bcd60e51b81526004016200024490620006d7565b6001600160a01b03166000908152600460205260409020805460ff19169055565b6000546001600160a01b03163314620003775760405162461bcd60e51b81526004016200024490620006d7565b620003836000620005d3565b565b6000546001600160a01b03163314620003b25760405162461bcd60e51b81526004016200024490620006d7565b6001600160a01b03811660009081526004602052604090205460ff16158015620003f257506001600160a01b038116600090815260036020526040902054155b620003fc57600080fd5b6001600160a01b03166000908152600360205260409020429055565b336000908152600260205260408120546001600160a01b031615620004805760405162461bcd60e51b815260206004820152601860248201527f5573657220616c72656164792068617320612070726f78790000000000000000604482015260640162000244565b6001546040513360248201819052306044830152916001600160a01b03169060640160408051601f198184030181529181526020820180516001600160e01b031663485cc95560e01b17905251620004d89062000623565b620004e69392919062000663565b604051809103906000f08015801562000503573d6000803e3d6000fd5b5033600090815260026020526040902080546001600160a01b0319166001600160a01b038316179055919050565b6000546001600160a01b031633146200055e5760405162461bcd60e51b81526004016200024490620006d7565b6001600160a01b038116620005c55760405162461bcd60e51b815260206004820152602660248201527f4f776e61626c653a206e6577206f776e657220697320746865207a65726f206160448201526564647265737360d01b606482015260840162000244565b620005d081620005d3565b50565b600080546001600160a01b038381166001600160a01b0319831681178455604051919092169283917f8be0079c531659141344cd1fd0a4f28419497f9722a3daafe3b4186f6b6457e09190a35050565b6109a5806200073483390190565b6000602082840312156200064457600080fd5b81356001600160a01b03811681146200065c57600080fd5b9392505050565b600060018060a01b038086168352602081861681850152606060408501528451915081606085015260005b82811015620006ac578581018201518582016080015281016200068e565b82811115620006bf576000608084870101525b5050601f01601f191691909101608001949350505050565b6020808252818101527f4f776e61626c653a2063616c6c6572206973206e6f7420746865206f776e6572604082015260600190565b600082198211156200072e57634e487b7160e01b600052601160045260246000fd5b50019056fe608060405234801561001057600080fd5b506040516109a53803806109a583398101604081905261002f916101f0565b600180546001600160a01b0319166001600160a01b0385161790556100538261011f565b6000826001600160a01b03168260405161006d91906102c0565b600060405180830381855af49150503d80600081146100a8576040519150601f19603f3d011682016040523d82523d6000602084013e6100ad565b606091505b50509050806101165760405162461bcd60e51b815260206004820152602a60248201527f4f776e61626c6544656c656761746550726f7879206661696c656420696d706c60448201526932b6b2b73a30ba34b7b760b11b60648201526084015b60405180910390fd5b50505050610322565b6000546001600160a01b038281169116141561018c5760405162461bcd60e51b815260206004820152602660248201527f50726f787920616c72656164792075736573207468697320696d706c656d656e6044820152653a30ba34b7b760d11b606482015260840161010d565b600080546001600160a01b0319166001600160a01b038316908117825560405190917fbc7cd75a20ee27fd9adebab32041f755214dbc6bffa90cc0225b39da2e5c2d3b91a250565b80516001600160a01b03811681146101eb57600080fd5b919050565b60008060006060848603121561020557600080fd5b61020e846101d4565b925061021c602085016101d4565b60408501519092506001600160401b038082111561023957600080fd5b818601915086601f83011261024d57600080fd5b81518181111561025f5761025f61030c565b604051601f8201601f19908116603f011681019083821181831017156102875761028761030c565b816040528281528960208487010111156102a057600080fd5b6102b18360208301602088016102dc565b80955050505050509250925092565b600082516102d28184602087016102dc565b9190910192915050565b60005b838110156102f75781810151838201526020016102df565b83811115610306576000848401525b50505050565b634e487b7160e01b600052604160045260246000fd5b610674806103316000396000f3fe6080604052600436106100745760003560e01c80634f1ef2861161004e5780634f1ef286146101265780635c60da1b146101395780636fde820214610157578063f1739cae146101755761007b565b8063025313a2146100b65780633659cfe6146100e85780634555d5c91461010a5761007b565b3661007b57005b6000546001600160a01b03168061009157600080fd5b60405136600082376000803683855af43d806000843e8180156100b2578184f35b8184fd5b3480156100c257600080fd5b506100cb610195565b6040516001600160a01b0390911681526020015b60405180910390f35b3480156100f457600080fd5b506101086101033660046104c0565b6101ae565b005b34801561011657600080fd5b50604051600281526020016100df565b6101086101343660046104e2565b6101fb565b34801561014557600080fd5b506000546001600160a01b03166100cb565b34801561016357600080fd5b506001546001600160a01b03166100cb565b34801561018157600080fd5b506101086101903660046104c0565b6102ec565b60006101a96001546001600160a01b031690565b905090565b6101b6610195565b6001600160a01b0316336001600160a01b0316146101ef5760405162461bcd60e51b81526004016101e6906105df565b60405180910390fd5b6101f8816103ef565b50565b610203610195565b6001600160a01b0316336001600160a01b0316146102335760405162461bcd60e51b81526004016101e6906105df565b61023c826101ae565b6000306001600160a01b03168260405161025691906105a4565b600060405180830381855af49150503d8060008114610291576040519150601f19603f3d011682016040523d82523d6000602084013e610296565b606091505b50509050806102e75760405162461bcd60e51b815260206004820152601f60248201527f43616c6c206661696c65642061667465722070726f787920757067726164650060448201526064016101e6565b505050565b6102f4610195565b6001600160a01b0316336001600160a01b0316146103245760405162461bcd60e51b81526004016101e6906105df565b6001600160a01b0381166103865760405162461bcd60e51b8152602060048201526024808201527f4e6577206f776e65722063616e6e6f7420626520746865206e756c6c206164646044820152637265737360e01b60648201526084016101e6565b7f5a3e66efaa1e445ebd894728a69d6959842ea1e97bd79b892797106e270efcd96103af610195565b604080516001600160a01b03928316815291841660208301520160405180910390a1600180546001600160a01b0319166001600160a01b03831617905550565b6000546001600160a01b038281169116141561045c5760405162461bcd60e51b815260206004820152602660248201527f50726f787920616c72656164792075736573207468697320696d706c656d656e6044820152653a30ba34b7b760d11b60648201526084016101e6565b600080546001600160a01b0319166001600160a01b038316908117825560405190917fbc7cd75a20ee27fd9adebab32041f755214dbc6bffa90cc0225b39da2e5c2d3b91a250565b80356001600160a01b03811681146104bb57600080fd5b919050565b6000602082840312156104d257600080fd5b6104db826104a4565b9392505050565b600080604083850312156104f557600080fd5b6104fe836104a4565b9150602083013567ffffffffffffffff8082111561051b57600080fd5b818501915085601f83011261052f57600080fd5b81358181111561054157610541610628565b604051601f8201601f19908116603f0116810190838211818310171561056957610569610628565b8160405282815288602084870101111561058257600080fd5b8260208601602083013760006020848301015280955050505050509250929050565b6000825160005b818110156105c557602081860181015185830152016105ab565b818111156105d4576000828501525b509190910192915050565b60208082526029908201527f4f6e6c79207468652070726f7879206f776e65722063616e2063616c6c2074686040820152681a5cc81b595d1a1bd960ba1b606082015260800190565b634e487b7160e01b600052604160045260246000fdfea26469706673582212206765beb4c37fa771daa8c50794cd3cf294f9cff44f94be8fce731cdba0460a1464736f6c63430008070033a2646970667358221220914f040af10a0d301535979f9e2185e09c0bdee9e877607637623e9fe972e51d64736f6c63430008070033",
  "immutableReferences": {},
  "source": "/*\n\n  Proxy registry; keeps a mapping of AuthenticatedProxy contracts and mapping of contracts authorized to access them.  \n  \n  Abstracted away from the Exchange (a) to reduce Exchange attack surface and (b) so that the Exchange contract can be upgraded without users needing to transfer assets to new proxies.\n\n*/\n\n// SPDX-License-Identifier: MIT\n\npragma solidity 0.8.7;\n\nimport \"openzeppelin-solidity/contracts/access/Ownable.sol\";\n\nimport \"./OwnableDelegateProxy.sol\";\n\ncontract ProxyRegistry is Ownable {\n\n    /* DelegateProxy implementation contract. Must be initialized. */\n    address public delegateProxyImplementation;\n\n    /* Authenticated proxies by user. */\n    mapping(address => OwnableDelegateProxy) public proxies;\n\n    /* Contracts pending access. */\n    mapping(address => uint) public pending;\n\n    /* Contracts allowed to call those proxies. */\n    mapping(address => bool) public contracts;\n\n    /* Delay period for adding an authenticated contract.\n       This mitigates a particular class of potential attack on the Wyvern DAO (which owns this registry) - if at any point the value of assets held by proxy contracts exceeded the value of half the WYV supply (votes in the DAO),\n       a malicious but rational attacker could buy half the Wyvern and grant themselves access to all the proxy contracts. A delay period renders this attack nonthreatening - given two weeks, if that happened, users would have\n       plenty of time to notice and transfer their assets.\n    */\n    uint public DELAY_PERIOD = 2 weeks;\n\n    /**\n     * Start the process to enable access for specified contract. Subject to delay period.\n     *\n     * @dev ProxyRegistry owner only\n     * @param addr Address to which to grant permissions\n     */\n    function startGrantAuthentication (address addr)\n        public\n        onlyOwner\n    {\n        require(!contracts[addr] && pending[addr] == 0);\n        pending[addr] = block.timestamp;\n    }\n\n    /**\n     * End the process to nable access for specified contract after delay period has passed.\n     *\n     * @dev ProxyRegistry owner only\n     * @param addr Address to which to grant permissions\n     */\n    function endGrantAuthentication (address addr)\n        public\n        onlyOwner\n    {\n        require(!contracts[addr] && pending[addr] != 0 && ((pending[addr] + DELAY_PERIOD) < block.timestamp));\n        pending[addr] = 0;\n        contracts[addr] = true;\n    }\n\n    /**\n     * Revoke access for specified contract. Can be done instantly.\n     *\n     * @dev ProxyRegistry owner only\n     * @param addr Address of which to revoke permissions\n     */    \n    function revokeAuthentication (address addr)\n        public\n        onlyOwner\n    {\n        contracts[addr] = false;\n    }\n\n    /**\n     * Register a proxy contract with this registry\n     *\n     * @dev Must be called by the user which the proxy is for, creates a new AuthenticatedProxy\n     * @return proxy New AuthenticatedProxy contract\n     */\n    function registerProxy()\n        public\n        returns (OwnableDelegateProxy proxy)\n    {\n        require(proxies[msg.sender] == OwnableDelegateProxy(payable(address(0))), \"User already has a proxy\");\n        proxy = new OwnableDelegateProxy(msg.sender, delegateProxyImplementation, abi.encodeWithSignature(\"initialize(address,address)\", msg.sender, address(this)));\n        proxies[msg.sender] = proxy;\n        return proxy;\n    }\n\n}\n",
  "sourcePath": "/Users/ronak/Developer/projects/tsgit/wyvern-js/src/wyvern-ethereum/contracts/registry/ProxyRegistry.sol",
  "compiler": {
    "name": "solc",
    "version": "0.8.7+commit.e28d00a7.Emscripten.clang"
  },
  "schemaVersion": "3.2.0",
  "updatedAt": "2022-01-11T06:39:41.699Z",
  "devdoc": {
    "kind": "dev",
    "methods": {
      "endGrantAuthentication(address)": {
        "details": "ProxyRegistry owner only",
        "params": {
          "addr": "Address to which to grant permissions"
        }
      },
      "owner()": {
        "details": "Returns the address of the current owner."
      },
      "registerProxy()": {
        "details": "Must be called by the user which the proxy is for, creates a new AuthenticatedProxy",
        "returns": {
          "proxy": "New AuthenticatedProxy contract"
        }
      },
      "renounceOwnership()": {
        "details": "Leaves the contract without owner. It will not be possible to call `onlyOwner` functions anymore. Can only be called by the current owner. NOTE: Renouncing ownership will leave the contract without an owner, thereby removing any functionality that is only available to the owner."
      },
      "revokeAuthentication(address)": {
        "details": "ProxyRegistry owner only",
        "params": {
          "addr": "Address of which to revoke permissions"
        }
      },
      "startGrantAuthentication(address)": {
        "details": "ProxyRegistry owner only",
        "params": {
          "addr": "Address to which to grant permissions"
        }
      },
      "transferOwnership(address)": {
        "details": "Transfers ownership of the contract to a new account (`newOwner`). Can only be called by the current owner."
      }
    },
    "version": 1
  },
  "userdoc": {
    "kind": "user",
    "methods": {
      "endGrantAuthentication(address)": {
        "notice": "End the process to nable access for specified contract after delay period has passed."
      },
      "registerProxy()": {
        "notice": "Register a proxy contract with this registry"
      },
      "revokeAuthentication(address)": {
        "notice": "Revoke access for specified contract. Can be done instantly."
      },
      "startGrantAuthentication(address)": {
        "notice": "Start the process to enable access for specified contract. Subject to delay period."
      }
    },
    "version": 1
  }
}