{
  "contractName": "TokenTransferProxy",
  "abi": [
    {
      "constant": true,
      "inputs": [],
      "name": "registry",
      "outputs": [
        {
          "name": "",
          "type": "address"
        }
      ],
      "payable": false,
      "stateMutability": "view",
      "type": "function"
    },
    {
      "constant": false,
      "inputs": [
        {
          "name": "token",
          "type": "address"
        },
        {
          "name": "from",
          "type": "address"
        },
        {
          "name": "to",
          "type": "address"
        },
        {
          "name": "amount",
          "type": "uint256"
        }
      ],
      "name": "transferFrom",
      "outputs": [
        {
          "name": "",
          "type": "bool"
        }
      ],
      "payable": false,
      "stateMutability": "nonpayable",
      "type": "function"
    },
    {
      "constant": false,
      "inputs": [
        {
          "name": "token",
          "type": "address"
        },
        {
          "name": "from",
          "type": "address"
        },
        {
          "name": "amount",
          "type": "uint256"
        }
      ],
      "name": "burnFrom",
      "outputs": [],
      "payable": false,
      "stateMutability": "nonpayable",
      "type": "function"
    }
  ],
  "bytecode": "0x608060405234801561001057600080fd5b506103ba806100206000396000f3006080604052600436106100565763ffffffff7c010000000000000000000000000000000000000000000000000000000060003504166315dacbea811461005b5780637b1039991461009f578063ec60bcf3146100d0575b600080fd5b34801561006757600080fd5b5061008b600160a060020a03600435811690602435811690604435166064356100fc565b604080519115158252519081900360200190f35b3480156100ab57600080fd5b506100b4610244565b60408051600160a060020a039092168252519081900360200190f35b3480156100dc57600080fd5b506100fa600160a060020a0360043581169060243516604435610253565b005b60008054604080517f69dc9ff3000000000000000000000000000000000000000000000000000000008152600160a060020a033381166004830152915191909216916369dc9ff391602480830192602092919082900301818787803b15801561016457600080fd5b505af1158015610178573d6000803e3d6000fd5b505050506040513d602081101561018e57600080fd5b5051151561019b57600080fd5b604080517f23b872dd000000000000000000000000000000000000000000000000000000008152600160a060020a0386811660048301528581166024830152604482018590529151918716916323b872dd916064808201926020929091908290030181600087803b15801561020f57600080fd5b505af1158015610223573d6000803e3d6000fd5b505050506040513d602081101561023957600080fd5b505195945050505050565b600054600160a060020a031681565b60008054604080517f69dc9ff3000000000000000000000000000000000000000000000000000000008152600160a060020a033381166004830152915191909216926369dc9ff392602480820193602093909283900390910190829087803b1580156102be57600080fd5b505af11580156102d2573d6000803e3d6000fd5b505050506040513d60208110156102e857600080fd5b505115156102f557600080fd5b82600160a060020a03166379cc679083836040518363ffffffff167c01000000000000000000000000000000000000000000000000000000000281526004018083600160a060020a0316600160a060020a0316815260200182815260200192505050600060405180830381600087803b15801561037157600080fd5b505af1158015610385573d6000803e3d6000fd5b505050505050505600a165627a7a7230582079a5256849fb52ad508ab79dd0aed3a654a3aec0f3ae2ef0472af94d2bcb28140029",
  "source": "/*\n\n  Token transfer proxy. Uses the authentication table of a ProxyRegistry contract to grant ERC20 `transferFrom` access.\n  This means that users only need to authorize the proxy contract once for all future protocol versions.\n\n*/\n\npragma solidity 0.4.23;\n\nimport \"openzeppelin-solidity/contracts/token/ERC20/ERC20.sol\";\n\nimport \"./ProxyRegistry.sol\";\nimport \"../common/IERC20Extended.sol\";\n\ncontract TokenTransferProxy {\n\n    /* Authentication registry. */\n    ProxyRegistry public registry;\n\n    /**\n     * Call ERC20 `transferFrom`\n     *\n     * @dev Authenticated contract only\n     * @param token ERC20 token address\n     * @param from From address\n     * @param to To address\n     * @param amount Transfer amount\n     */\n    function transferFrom(address token, address from, address to, uint amount)\n        public\n        returns (bool)\n    {\n        require(registry.contracts(msg.sender));\n        return ERC20(token).transferFrom(from, to, amount);\n    }\n\n    /**\n     * Call ERC20 `burnFrom`\n     *\n     * @dev Authenticated contract only\n     * @param token ERC20 token address\n     * @param from From address\n     * @param amount Burn amount\n     */\n    function burnFrom(address token, address from, uint amount)\n        public\n    {\n        require(registry.contracts(msg.sender));\n        IERC20Extended(token).burnFrom(from, amount);\n    }\n\n}\n",
  "sourcePath": "/Users/ronak/Developer/projects/tsgit/wyvern-js/src/wyvern-ethereum/contracts/registry/TokenTransferProxy.sol",
  "compiler": {
    "name": "solc",
    "version": "0.4.23+commit.124ca40d.Emscripten.clang"
  },
  "schemaVersion": "3.2.0",
  "updatedAt": "2021-08-18T09:52:32.463Z",
  "devdoc": {
    "methods": {
      "burnFrom(address,address,uint256)": {
        "details": "Authenticated contract only",
        "params": {
          "amount": "Burn amount",
          "from": "From address",
          "token": "ERC20 token address"
        }
      },
      "transferFrom(address,address,address,uint256)": {
        "details": "Authenticated contract only",
        "params": {
          "amount": "Transfer amount",
          "from": "From address",
          "to": "To address",
          "token": "ERC20 token address"
        }
      }
    }
  },
  "userdoc": {
    "methods": {
      "burnFrom(address,address,uint256)": {
        "notice": "Call ERC20 `burnFrom`"
      },
      "transferFrom(address,address,address,uint256)": {
        "notice": "Call ERC20 `transferFrom`"
      }
    }
  }
}