{
  "contractName": "TokenRecipient",
  "abi": [
    {
      "anonymous": false,
      "inputs": [
        {
          "indexed": true,
          "internalType": "address",
          "name": "sender",
          "type": "address"
        },
        {
          "indexed": false,
          "internalType": "uint256",
          "name": "amount",
          "type": "uint256"
        }
      ],
      "name": "ReceivedEther",
      "type": "event"
    },
    {
      "anonymous": false,
      "inputs": [
        {
          "indexed": true,
          "internalType": "address",
          "name": "from",
          "type": "address"
        },
        {
          "indexed": false,
          "internalType": "uint256",
          "name": "value",
          "type": "uint256"
        },
        {
          "indexed": true,
          "internalType": "address",
          "name": "token",
          "type": "address"
        },
        {
          "indexed": false,
          "internalType": "bytes",
          "name": "extraData",
          "type": "bytes"
        }
      ],
      "name": "ReceivedTokens",
      "type": "event"
    },
    {
      "stateMutability": "payable",
      "type": "receive"
    },
    {
      "inputs": [
        {
          "internalType": "address",
          "name": "from",
          "type": "address"
        },
        {
          "internalType": "uint256",
          "name": "value",
          "type": "uint256"
        },
        {
          "internalType": "address",
          "name": "token",
          "type": "address"
        },
        {
          "internalType": "bytes",
          "name": "extraData",
          "type": "bytes"
        }
      ],
      "name": "receiveApproval",
      "outputs": [],
      "stateMutability": "nonpayable",
      "type": "function"
    }
  ],
  "bytecode": "0x608060405234801561001057600080fd5b50610337806100206000396000f3fe6080604052600436106100225760003560e01c80638f4ffcb11461006357600080fd5b3661005e5760405134815233907fa419615bc8fda4c87663805ee2a3597a6d71c1d476911d9892f340d965bc7bf19060200160405180910390a2005b600080fd5b34801561006f57600080fd5b5061008361007e366004610189565b610085565b005b6040516323b872dd60e01b81526001600160a01b038581166004830152306024830152604482018590528391908216906323b872dd90606401602060405180830381600087803b1580156100d857600080fd5b505af11580156100ec573d6000803e3d6000fd5b505050506040513d601f19601f820116820180604052508101906101109190610265565b61011957600080fd5b826001600160a01b0316856001600160a01b03167fd65b48fd35864b3528d38e44760be5553248f89bf3ff6b06cca57817cc2650bf868560405161015e92919061028e565b60405180910390a35050505050565b80356001600160a01b038116811461018457600080fd5b919050565b6000806000806080858703121561019f57600080fd5b6101a88561016d565b9350602085013592506101bd6040860161016d565b9150606085013567ffffffffffffffff808211156101da57600080fd5b818701915087601f8301126101ee57600080fd5b813581811115610200576102006102eb565b604051601f8201601f19908116603f01168101908382118183101715610228576102286102eb565b816040528281528a602084870101111561024157600080fd5b82602086016020830137600060208483010152809550505050505092959194509250565b60006020828403121561027757600080fd5b8151801515811461028757600080fd5b9392505050565b82815260006020604081840152835180604085015260005b818110156102c2578581018301518582016060015282016102a6565b818111156102d4576000606083870101525b50601f01601f191692909201606001949350505050565b634e487b7160e01b600052604160045260246000fdfea2646970667358221220e0aee029dc1b6c491067f944cb14196dff44af9a2453d2bab5e56ae07cdb444564736f6c63430008070033",
  "immutableReferences": {},
  "source": "/*\n\n  Token recipient. Modified very slightly from the example on http://ethereum.org/dao (just to index log parameters).\n\n*/\n\n// SPDX-License-Identifier: MIT\n\npragma solidity 0.8.7;\n\nimport \"openzeppelin-solidity/contracts/token/ERC20/ERC20.sol\";\n\n/**\n * @title TokenRecipient\n * @author Project Wyvern Developers\n */\ncontract TokenRecipient {\n    event ReceivedEther(address indexed sender, uint amount);\n    event ReceivedTokens(address indexed from, uint256 value, address indexed token, bytes extraData);\n\n    /**\n     * @dev Receive tokens and generate a log event\n     * @param from Address from which to transfer tokens\n     * @param value Amount of tokens to transfer\n     * @param token Address of token\n     * @param extraData Additional data to log\n     */\n    function receiveApproval(address from, uint256 value, address token, bytes memory extraData) public {\n        ERC20 t = ERC20(token);\n        require(t.transferFrom(from, address(this), value));\n        emit ReceivedTokens(from, value, token, extraData);\n    }\n\n    /**\n     * @dev Receive Ether and generate a log event\n     */\n    receive () external payable {\n        emit ReceivedEther(msg.sender, msg.value);\n    }\n}\n",
  "sourcePath": "/Users/ronak/Developer/projects/tsgit/wyvern-js/src/wyvern-ethereum/contracts/common/TokenRecipient.sol",
  "compiler": {
    "name": "solc",
    "version": "0.8.7+commit.e28d00a7.Emscripten.clang"
  },
  "schemaVersion": "3.2.0",
  "updatedAt": "2022-01-11T06:39:41.546Z",
  "devdoc": {
    "author": "Project Wyvern Developers",
    "kind": "dev",
    "methods": {
      "receiveApproval(address,uint256,address,bytes)": {
        "details": "Receive tokens and generate a log event",
        "params": {
          "extraData": "Additional data to log",
          "from": "Address from which to transfer tokens",
          "token": "Address of token",
          "value": "Amount of tokens to transfer"
        }
      }
    },
    "title": "TokenRecipient",
    "version": 1
  },
  "userdoc": {
    "kind": "user",
    "methods": {},
    "version": 1
  }
}