{
  "contractName": "WyvernExchange",
  "abi": [
    {
      "constant": true,
      "inputs": [],
      "name": "name",
      "outputs": [
        {
          "name": "",
          "type": "string"
        }
      ],
      "payable": false,
      "stateMutability": "view",
      "type": "function"
    },
    {
      "constant": true,
      "inputs": [],
      "name": "tokenTransferProxy",
      "outputs": [
        {
          "name": "",
          "type": "address"
        }
      ],
      "payable": false,
      "stateMutability": "view",
      "type": "function"
    },
    {
      "constant": true,
      "inputs": [
        {
          "name": "target",
          "type": "address"
        },
        {
          "name": "calldata",
          "type": "bytes"
        },
        {
          "name": "extradata",
          "type": "bytes"
        }
      ],
      "name": "staticCall",
      "outputs": [
        {
          "name": "result",
          "type": "bool"
        }
      ],
      "payable": false,
      "stateMutability": "view",
      "type": "function"
    },
    {
      "constant": false,
      "inputs": [
        {
          "name": "newMinimumMakerProtocolFee",
          "type": "uint256"
        }
      ],
      "name": "changeMinimumMakerProtocolFee",
      "outputs": [],
      "payable": false,
      "stateMutability": "nonpayable",
      "type": "function"
    },
    {
      "constant": false,
      "inputs": [
        {
          "name": "newMinimumTakerProtocolFee",
          "type": "uint256"
        }
      ],
      "name": "changeMinimumTakerProtocolFee",
      "outputs": [],
      "payable": false,
      "stateMutability": "nonpayable",
      "type": "function"
    },
    {
      "constant": true,
      "inputs": [
        {
          "name": "array",
          "type": "bytes"
        },
        {
          "name": "desired",
          "type": "bytes"
        },
        {
          "name": "mask",
          "type": "bytes"
        }
      ],
      "name": "guardedArrayReplace",
      "outputs": [
        {
          "name": "",
          "type": "bytes"
        }
      ],
      "payable": false,
      "stateMutability": "pure",
      "type": "function"
    },
    {
      "constant": true,
      "inputs": [],
      "name": "minimumTakerProtocolFee",
      "outputs": [
        {
          "name": "",
          "type": "uint256"
        }
      ],
      "payable": false,
      "stateMutability": "view",
      "type": "function"
    },
    {
      "constant": true,
      "inputs": [],
      "name": "codename",
      "outputs": [
        {
          "name": "",
          "type": "string"
        }
      ],
      "payable": false,
      "stateMutability": "view",
      "type": "function"
    },
    {
      "constant": true,
      "inputs": [
        {
          "name": "addr",
          "type": "address"
        }
      ],
      "name": "testCopyAddress",
      "outputs": [
        {
          "name": "",
          "type": "bytes"
        }
      ],
      "payable": false,
      "stateMutability": "pure",
      "type": "function"
    },
    {
      "constant": true,
      "inputs": [
        {
          "name": "arrToCopy",
          "type": "bytes"
        }
      ],
      "name": "testCopy",
      "outputs": [
        {
          "name": "",
          "type": "bytes"
        }
      ],
      "payable": false,
      "stateMutability": "pure",
      "type": "function"
    },
    {
      "constant": true,
      "inputs": [
        {
          "name": "addrs",
          "type": "address[7]"
        },
        {
          "name": "uints",
          "type": "uint256[9]"
        },
        {
          "name": "feeMethod",
          "type": "uint8"
        },
        {
          "name": "side",
          "type": "uint8"
        },
        {
          "name": "saleKind",
          "type": "uint8"
        },
        {
          "name": "howToCall",
          "type": "uint8"
        },
        {
          "name": "calldata",
          "type": "bytes"
        },
        {
          "name": "replacementPattern",
          "type": "bytes"
        },
        {
          "name": "staticExtradata",
          "type": "bytes"
        }
      ],
      "name": "calculateCurrentPrice_",
      "outputs": [
        {
          "name": "",
          "type": "uint256"
        }
      ],
      "payable": false,
      "stateMutability": "view",
      "type": "function"
    },
    {
      "constant": false,
      "inputs": [
        {
          "name": "newDevWalletAddress",
          "type": "address"
        }
      ],
      "name": "changeDevWalletAddress",
      "outputs": [],
      "payable": false,
      "stateMutability": "nonpayable",
      "type": "function"
    },
    {
      "constant": false,
      "inputs": [
        {
          "name": "newProtocolFeeRecipient",
          "type": "address"
        }
      ],
      "name": "changeProtocolFeeRecipient",
      "outputs": [],
      "payable": false,
      "stateMutability": "nonpayable",
      "type": "function"
    },
    {
      "constant": true,
      "inputs": [],
      "name": "version",
      "outputs": [
        {
          "name": "",
          "type": "string"
        }
      ],
      "payable": false,
      "stateMutability": "view",
      "type": "function"
    },
    {
      "constant": true,
      "inputs": [
        {
          "name": "buyCalldata",
          "type": "bytes"
        },
        {
          "name": "buyReplacementPattern",
          "type": "bytes"
        },
        {
          "name": "sellCalldata",
          "type": "bytes"
        },
        {
          "name": "sellReplacementPattern",
          "type": "bytes"
        }
      ],
      "name": "orderCalldataCanMatch",
      "outputs": [
        {
          "name": "",
          "type": "bool"
        }
      ],
      "payable": false,
      "stateMutability": "pure",
      "type": "function"
    },
    {
      "constant": true,
      "inputs": [
        {
          "name": "addrs",
          "type": "address[7]"
        },
        {
          "name": "uints",
          "type": "uint256[9]"
        },
        {
          "name": "feeMethod",
          "type": "uint8"
        },
        {
          "name": "side",
          "type": "uint8"
        },
        {
          "name": "saleKind",
          "type": "uint8"
        },
        {
          "name": "howToCall",
          "type": "uint8"
        },
        {
          "name": "calldata",
          "type": "bytes"
        },
        {
          "name": "replacementPattern",
          "type": "bytes"
        },
        {
          "name": "staticExtradata",
          "type": "bytes"
        },
        {
          "name": "v",
          "type": "uint8"
        },
        {
          "name": "r",
          "type": "bytes32"
        },
        {
          "name": "s",
          "type": "bytes32"
        }
      ],
      "name": "validateOrder_",
      "outputs": [
        {
          "name": "",
          "type": "bool"
        }
      ],
      "payable": false,
      "stateMutability": "view",
      "type": "function"
    },
    {
      "constant": true,
      "inputs": [
        {
          "name": "side",
          "type": "uint8"
        },
        {
          "name": "saleKind",
          "type": "uint8"
        },
        {
          "name": "basePrice",
          "type": "uint256"
        },
        {
          "name": "extra",
          "type": "uint256"
        },
        {
          "name": "listingTime",
          "type": "uint256"
        },
        {
          "name": "expirationTime",
          "type": "uint256"
        }
      ],
      "name": "calculateFinalPrice",
      "outputs": [
        {
          "name": "",
          "type": "uint256"
        }
      ],
      "payable": false,
      "stateMutability": "view",
      "type": "function"
    },
    {
      "constant": true,
      "inputs": [],
      "name": "protocolFeeRecipient",
      "outputs": [
        {
          "name": "",
          "type": "address"
        }
      ],
      "payable": false,
      "stateMutability": "view",
      "type": "function"
    },
    {
      "constant": false,
      "inputs": [],
      "name": "renounceOwnership",
      "outputs": [],
      "payable": false,
      "stateMutability": "nonpayable",
      "type": "function"
    },
    {
      "constant": true,
      "inputs": [
        {
          "name": "addrs",
          "type": "address[7]"
        },
        {
          "name": "uints",
          "type": "uint256[9]"
        },
        {
          "name": "feeMethod",
          "type": "uint8"
        },
        {
          "name": "side",
          "type": "uint8"
        },
        {
          "name": "saleKind",
          "type": "uint8"
        },
        {
          "name": "howToCall",
          "type": "uint8"
        },
        {
          "name": "calldata",
          "type": "bytes"
        },
        {
          "name": "replacementPattern",
          "type": "bytes"
        },
        {
          "name": "staticExtradata",
          "type": "bytes"
        }
      ],
      "name": "hashOrder_",
      "outputs": [
        {
          "name": "",
          "type": "bytes32"
        }
      ],
      "payable": false,
      "stateMutability": "pure",
      "type": "function"
    },
    {
      "constant": true,
      "inputs": [
        {
          "name": "addrs",
          "type": "address[14]"
        },
        {
          "name": "uints",
          "type": "uint256[18]"
        },
        {
          "name": "feeMethodsSidesKindsHowToCalls",
          "type": "uint8[8]"
        },
        {
          "name": "calldataBuy",
          "type": "bytes"
        },
        {
          "name": "calldataSell",
          "type": "bytes"
        },
        {
          "name": "replacementPatternBuy",
          "type": "bytes"
        },
        {
          "name": "replacementPatternSell",
          "type": "bytes"
        },
        {
          "name": "staticExtradataBuy",
          "type": "bytes"
        },
        {
          "name": "staticExtradataSell",
          "type": "bytes"
        }
      ],
      "name": "ordersCanMatch_",
      "outputs": [
        {
          "name": "",
          "type": "bool"
        }
      ],
      "payable": false,
      "stateMutability": "view",
      "type": "function"
    },
    {
      "constant": false,
      "inputs": [
        {
          "name": "addrs",
          "type": "address[7]"
        },
        {
          "name": "uints",
          "type": "uint256[9]"
        },
        {
          "name": "feeMethod",
          "type": "uint8"
        },
        {
          "name": "side",
          "type": "uint8"
        },
        {
          "name": "saleKind",
          "type": "uint8"
        },
        {
          "name": "howToCall",
          "type": "uint8"
        },
        {
          "name": "calldata",
          "type": "bytes"
        },
        {
          "name": "replacementPattern",
          "type": "bytes"
        },
        {
          "name": "staticExtradata",
          "type": "bytes"
        },
        {
          "name": "orderbookInclusionDesired",
          "type": "bool"
        }
      ],
      "name": "approveOrder_",
      "outputs": [],
      "payable": false,
      "stateMutability": "nonpayable",
      "type": "function"
    },
    {
      "constant": true,
      "inputs": [],
      "name": "registry",
      "outputs": [
        {
          "name": "",
          "type": "address"
        }
      ],
      "payable": false,
      "stateMutability": "view",
      "type": "function"
    },
    {
      "constant": true,
      "inputs": [],
      "name": "minimumMakerProtocolFee",
      "outputs": [
        {
          "name": "",
          "type": "uint256"
        }
      ],
      "payable": false,
      "stateMutability": "view",
      "type": "function"
    },
    {
      "constant": true,
      "inputs": [
        {
          "name": "addrs",
          "type": "address[7]"
        },
        {
          "name": "uints",
          "type": "uint256[9]"
        },
        {
          "name": "feeMethod",
          "type": "uint8"
        },
        {
          "name": "side",
          "type": "uint8"
        },
        {
          "name": "saleKind",
          "type": "uint8"
        },
        {
          "name": "howToCall",
          "type": "uint8"
        },
        {
          "name": "calldata",
          "type": "bytes"
        },
        {
          "name": "replacementPattern",
          "type": "bytes"
        },
        {
          "name": "staticExtradata",
          "type": "bytes"
        }
      ],
      "name": "hashToSign_",
      "outputs": [
        {
          "name": "",
          "type": "bytes32"
        }
      ],
      "payable": false,
      "stateMutability": "pure",
      "type": "function"
    },
    {
      "constant": true,
      "inputs": [
        {
          "name": "",
          "type": "bytes32"
        }
      ],
      "name": "cancelledOrFinalized",
      "outputs": [
        {
          "name": "",
          "type": "bool"
        }
      ],
      "payable": false,
      "stateMutability": "view",
      "type": "function"
    },
    {
      "constant": true,
      "inputs": [],
      "name": "owner",
      "outputs": [
        {
          "name": "",
          "type": "address"
        }
      ],
      "payable": false,
      "stateMutability": "view",
      "type": "function"
    },
    {
      "constant": true,
      "inputs": [],
      "name": "devWallet",
      "outputs": [
        {
          "name": "",
          "type": "address"
        }
      ],
      "payable": false,
      "stateMutability": "view",
      "type": "function"
    },
    {
      "constant": true,
      "inputs": [],
      "name": "exchangeToken",
      "outputs": [
        {
          "name": "",
          "type": "address"
        }
      ],
      "payable": false,
      "stateMutability": "view",
      "type": "function"
    },
    {
      "constant": false,
      "inputs": [
        {
          "name": "addrs",
          "type": "address[7]"
        },
        {
          "name": "uints",
          "type": "uint256[9]"
        },
        {
          "name": "feeMethod",
          "type": "uint8"
        },
        {
          "name": "side",
          "type": "uint8"
        },
        {
          "name": "saleKind",
          "type": "uint8"
        },
        {
          "name": "howToCall",
          "type": "uint8"
        },
        {
          "name": "calldata",
          "type": "bytes"
        },
        {
          "name": "replacementPattern",
          "type": "bytes"
        },
        {
          "name": "staticExtradata",
          "type": "bytes"
        },
        {
          "name": "v",
          "type": "uint8"
        },
        {
          "name": "r",
          "type": "bytes32"
        },
        {
          "name": "s",
          "type": "bytes32"
        }
      ],
      "name": "cancelOrder_",
      "outputs": [],
      "payable": false,
      "stateMutability": "nonpayable",
      "type": "function"
    },
    {
      "constant": false,
      "inputs": [
        {
          "name": "addrs",
          "type": "address[14]"
        },
        {
          "name": "uints",
          "type": "uint256[18]"
        },
        {
          "name": "feeMethodsSidesKindsHowToCalls",
          "type": "uint8[8]"
        },
        {
          "name": "calldataBuy",
          "type": "bytes"
        },
        {
          "name": "calldataSell",
          "type": "bytes"
        },
        {
          "name": "replacementPatternBuy",
          "type": "bytes"
        },
        {
          "name": "replacementPatternSell",
          "type": "bytes"
        },
        {
          "name": "staticExtradataBuy",
          "type": "bytes"
        },
        {
          "name": "staticExtradataSell",
          "type": "bytes"
        },
        {
          "name": "vs",
          "type": "uint8[2]"
        },
        {
          "name": "rssMetadata",
          "type": "bytes32[5]"
        }
      ],
      "name": "atomicMatch_",
      "outputs": [],
      "payable": true,
      "stateMutability": "payable",
      "type": "function"
    },
    {
      "constant": true,
      "inputs": [
        {
          "name": "addrs",
          "type": "address[7]"
        },
        {
          "name": "uints",
          "type": "uint256[9]"
        },
        {
          "name": "feeMethod",
          "type": "uint8"
        },
        {
          "name": "side",
          "type": "uint8"
        },
        {
          "name": "saleKind",
          "type": "uint8"
        },
        {
          "name": "howToCall",
          "type": "uint8"
        },
        {
          "name": "calldata",
          "type": "bytes"
        },
        {
          "name": "replacementPattern",
          "type": "bytes"
        },
        {
          "name": "staticExtradata",
          "type": "bytes"
        }
      ],
      "name": "validateOrderParameters_",
      "outputs": [
        {
          "name": "",
          "type": "bool"
        }
      ],
      "payable": false,
      "stateMutability": "view",
      "type": "function"
    },
    {
      "constant": true,
      "inputs": [],
      "name": "INVERSE_BASIS_POINT",
      "outputs": [
        {
          "name": "",
          "type": "uint256"
        }
      ],
      "payable": false,
      "stateMutability": "view",
      "type": "function"
    },
    {
      "constant": true,
      "inputs": [
        {
          "name": "addrs",
          "type": "address[14]"
        },
        {
          "name": "uints",
          "type": "uint256[18]"
        },
        {
          "name": "feeMethodsSidesKindsHowToCalls",
          "type": "uint8[8]"
        },
        {
          "name": "calldataBuy",
          "type": "bytes"
        },
        {
          "name": "calldataSell",
          "type": "bytes"
        },
        {
          "name": "replacementPatternBuy",
          "type": "bytes"
        },
        {
          "name": "replacementPatternSell",
          "type": "bytes"
        },
        {
          "name": "staticExtradataBuy",
          "type": "bytes"
        },
        {
          "name": "staticExtradataSell",
          "type": "bytes"
        }
      ],
      "name": "calculateMatchPrice_",
      "outputs": [
        {
          "name": "",
          "type": "uint256"
        }
      ],
      "payable": false,
      "stateMutability": "view",
      "type": "function"
    },
    {
      "constant": true,
      "inputs": [
        {
          "name": "",
          "type": "bytes32"
        }
      ],
      "name": "approvedOrders",
      "outputs": [
        {
          "name": "",
          "type": "bool"
        }
      ],
      "payable": false,
      "stateMutability": "view",
      "type": "function"
    },
    {
      "constant": false,
      "inputs": [
        {
          "name": "_newOwner",
          "type": "address"
        }
      ],
      "name": "transferOwnership",
      "outputs": [],
      "payable": false,
      "stateMutability": "nonpayable",
      "type": "function"
    },
    {
      "inputs": [
        {
          "name": "registryAddress",
          "type": "address"
        },
        {
          "name": "tokenTransferProxyAddress",
          "type": "address"
        },
        {
          "name": "tokenAddress",
          "type": "address"
        },
        {
          "name": "protocolFeeAddress",
          "type": "address"
        },
        {
          "name": "devWalletAddress",
          "type": "address"
        }
      ],
      "payable": false,
      "stateMutability": "nonpayable",
      "type": "constructor"
    },
    {
      "anonymous": false,
      "inputs": [
        {
          "indexed": true,
          "name": "hash",
          "type": "bytes32"
        },
        {
          "indexed": false,
          "name": "exchange",
          "type": "address"
        },
        {
          "indexed": true,
          "name": "maker",
          "type": "address"
        },
        {
          "indexed": false,
          "name": "taker",
          "type": "address"
        },
        {
          "indexed": false,
          "name": "makerRelayerFee",
          "type": "uint256"
        },
        {
          "indexed": false,
          "name": "takerRelayerFee",
          "type": "uint256"
        },
        {
          "indexed": false,
          "name": "makerProtocolFee",
          "type": "uint256"
        },
        {
          "indexed": false,
          "name": "takerProtocolFee",
          "type": "uint256"
        },
        {
          "indexed": true,
          "name": "feeRecipient",
          "type": "address"
        },
        {
          "indexed": false,
          "name": "feeMethod",
          "type": "uint8"
        },
        {
          "indexed": false,
          "name": "side",
          "type": "uint8"
        },
        {
          "indexed": false,
          "name": "saleKind",
          "type": "uint8"
        },
        {
          "indexed": false,
          "name": "target",
          "type": "address"
        }
      ],
      "name": "OrderApprovedPartOne",
      "type": "event"
    },
    {
      "anonymous": false,
      "inputs": [
        {
          "indexed": true,
          "name": "hash",
          "type": "bytes32"
        },
        {
          "indexed": false,
          "name": "howToCall",
          "type": "uint8"
        },
        {
          "indexed": false,
          "name": "calldata",
          "type": "bytes"
        },
        {
          "indexed": false,
          "name": "replacementPattern",
          "type": "bytes"
        },
        {
          "indexed": false,
          "name": "staticTarget",
          "type": "address"
        },
        {
          "indexed": false,
          "name": "staticExtradata",
          "type": "bytes"
        },
        {
          "indexed": false,
          "name": "paymentToken",
          "type": "address"
        },
        {
          "indexed": false,
          "name": "basePrice",
          "type": "uint256"
        },
        {
          "indexed": false,
          "name": "extra",
          "type": "uint256"
        },
        {
          "indexed": false,
          "name": "listingTime",
          "type": "uint256"
        },
        {
          "indexed": false,
          "name": "expirationTime",
          "type": "uint256"
        },
        {
          "indexed": false,
          "name": "salt",
          "type": "uint256"
        },
        {
          "indexed": false,
          "name": "orderbookInclusionDesired",
          "type": "bool"
        }
      ],
      "name": "OrderApprovedPartTwo",
      "type": "event"
    },
    {
      "anonymous": false,
      "inputs": [
        {
          "indexed": true,
          "name": "hash",
          "type": "bytes32"
        }
      ],
      "name": "OrderCancelled",
      "type": "event"
    },
    {
      "anonymous": false,
      "inputs": [
        {
          "indexed": false,
          "name": "buyHash",
          "type": "bytes32"
        },
        {
          "indexed": false,
          "name": "sellHash",
          "type": "bytes32"
        },
        {
          "indexed": true,
          "name": "maker",
          "type": "address"
        },
        {
          "indexed": true,
          "name": "taker",
          "type": "address"
        },
        {
          "indexed": false,
          "name": "price",
          "type": "uint256"
        },
        {
          "indexed": true,
          "name": "metadata",
          "type": "bytes32"
        }
      ],
      "name": "OrdersMatched",
      "type": "event"
    },
    {
      "anonymous": false,
      "inputs": [
        {
          "indexed": true,
          "name": "previousOwner",
          "type": "address"
        }
      ],
      "name": "OwnershipRenounced",
      "type": "event"
    },
    {
      "anonymous": false,
      "inputs": [
        {
          "indexed": true,
          "name": "previousOwner",
          "type": "address"
        },
        {
          "indexed": true,
          "name": "newOwner",
          "type": "address"
        }
      ],
      "name": "OwnershipTransferred",
      "type": "event"
    }
  ],
  "bytecode": "0x60806040526000805460ff19168155600681905560075534801561002257600080fd5b5060405160a080615055833981016040908152815160208301519183015160608401516080909401516000805460028054600160a060020a03968716600160a060020a03199182161790915560038054978716978216979097179096556001805494861694871694909417909355600880549685169686169690961790955560098054918416919094161790925533166101000261010060a860020a03199182168117909116179055614f7b806100da6000396000f3006080604052600436106101a85763ffffffff60e060020a60003504166306fdde0381146101ad5780630eefdbad1461023757806310796a471461026857806314350c24146103215780631a6b13e21461033b578063239e83df1461035357806328a8ee681461042857806331e631991461044f5780633464af6a146104645780633e1e292a146104855780633f67ee0d146104de5780633fcaeb7414610623578063514f03301461064457806354fd4d5014610665578063562b2ebc1461067a57806360bef33a1461078d57806363d36c0b146108e157806364df049e1461090e578063715018a61461092357806371d02b381461093857806372593b4c14610a7d5780637966686814610c845780637b10399914610dcd5780637ccefc5214610de25780637d76698114610df75780638076f00514610f3c5780638da5cb5b14610f545780638ea5220f14610f69578063a25eb5d914610f7e578063a8a41c7014610f93578063ab834bab146110e7578063ca595b9a1461132a578063cae6047f1461146f578063d537e13114611484578063e57d4adb1461168b578063f2fde38b146116a3575b600080fd5b3480156101b957600080fd5b506101c26116c4565b6040805160208082528351818301528351919283929083019185019080838360005b838110156101fc5781810151838201526020016101e4565b50505050905090810190601f1680156102295780820380516001836020036101000a031916815260200191505b509250505060405180910390f35b34801561024357600080fd5b5061024c6116fb565b60408051600160a060020a039092168252519081900360200190f35b34801561027457600080fd5b5060408051602060046024803582810135601f810185900485028601850190965285855261030d958335600160a060020a031695369560449491939091019190819084018382808284375050604080516020601f89358b018035918201839004830284018301909452808352979a99988101979196509182019450925082915084018382808284375094975061170a9650505050505050565b604080519115158252519081900360200190f35b34801561032d57600080fd5b50610339600435611779565b005b34801561034757600080fd5b5061033960043561179e565b34801561035f57600080fd5b506040805160206004803580820135601f81018490048402850184019095528484526101c294369492936024939284019190819084018382808284375050604080516020601f89358b018035918201839004830284018301909452808352979a99988101979196509182019450925082915084018382808284375050604080516020601f89358b018035918201839004830284018301909452808352979a9998810197919650918201945092508291508401838280828437509497506117c39650505050505050565b34801561043457600080fd5b5061043d6117da565b60408051918252519081900360200190f35b34801561045b57600080fd5b506101c26117e0565b34801561047057600080fd5b506101c2600160a060020a0360043516611817565b34801561049157600080fd5b506040805160206004803580820135601f81018490048402850184019095528484526101c29436949293602493928401919081908401838280828437509497506118579650505050505050565b3480156104ea57600080fd5b506040805160e081810190925261043d91369160049160e49190839060079083908390808284375050604080516101208181019092529497969581810195945092506009915083908390808284375050604080516020601f60808901358a0180359182018390048302840183018552818452979a60ff8a3581169b848c013582169b9687013582169a6060880135909216995091975090955060a090940193820191819084018382808284375050604080516020601f89358b018035918201839004830284018301909452808352979a99988101979196509182019450925082915084018382808284375050604080516020601f89358b018035918201839004830284018301909452808352979a99988101979196509182019450925082915084018382808284375094975061189d9650505050505050565b34801561062f57600080fd5b50610339600160a060020a03600435166119eb565b34801561065057600080fd5b50610339600160a060020a0360043516611a3a565b34801561067157600080fd5b506101c2611a89565b34801561068657600080fd5b506040805160206004803580820135601f810184900484028501840190955284845261030d94369492936024939284019190819084018382808284375050604080516020601f89358b018035918201839004830284018301909452808352979a99988101979196509182019450925082915084018382808284375050604080516020601f89358b018035918201839004830284018301909452808352979a99988101979196509182019450925082915084018382808284375050604080516020601f89358b018035918201839004830284018301909452808352979a999881019791965091820194509250829150840183828082843750949750611ac09650505050505050565b34801561079957600080fd5b506040805160e081810190925261030d91369160049160e49190839060079083908390808284375050604080516101208181019092529497969581810195945092506009915083908390808284375050604080516020601f60808901358a0180359182018390048302840183018552818452979a60ff8a3581169b848c013582169b9687013582169a6060880135909216995091975090955060a090940193820191819084018382808284375050604080516020601f89358b018035918201839004830284018301909452808352979a99988101979196509182019450925082915084018382808284375050604080516020601f89358b018035918201839004830284018301909452808352979a9998810197919650918201945092508291508401838280828437509497505050833560ff1694505050602082013591604001359050611afe565b3480156108ed57600080fd5b5061043d60ff6004358116906024351660443560643560843560a435611ced565b34801561091a57600080fd5b5061024c611d08565b34801561092f57600080fd5b50610339611d17565b34801561094457600080fd5b506040805160e081810190925261043d91369160049160e49190839060079083908390808284375050604080516101208181019092529497969581810195945092506009915083908390808284375050604080516020601f60808901358a0180359182018390048302840183018552818452979a60ff8a3581169b848c013582169b9687013582169a6060880135909216995091975090955060a090940193820191819084018382808284375050604080516020601f89358b018035918201839004830284018301909452808352979a99988101979196509182019450925082915084018382808284375050604080516020601f89358b018035918201839004830284018301909452808352979a999881019791965091820194509250829150840183828082843750949750611d919650505050505050565b348015610a8957600080fd5b50604080516101c081810190925261030d9136916004916101c491908390600e9083908390808284375050604080516102408181019092529497969581810195945092506012915083908390808284375050604080516101008181019092529497969581810195945092506008915083908390808284375050604080516020601f88358a0180359182018390048302840183019094528083529699989781019691955091820193509150819084018382808284375050604080516020601f89358b018035918201839004830284018301909452808352979a99988101979196509182019450925082915084018382808284375050604080516020601f89358b018035918201839004830284018301909452808352979a99988101979196509182019450925082915084018382808284375050604080516020601f89358b018035918201839004830284018301909452808352979a99988101979196509182019450925082915084018382808284375050604080516020601f89358b018035918201839004830284018301909452808352979a99988101979196509182019450925082915084018382808284375050604080516020601f89358b018035918201839004830284018301909452808352979a999881019791965091820194509250829150840183828082843750949750611ed19650505050505050565b348015610c9057600080fd5b506040805160e081810190925261033991369160049160e49190839060079083908390808284375050604080516101208181019092529497969581810195945092506009915083908390808284375050604080516020601f60808901358a0180359182018390048302840183018552818452979a60ff8a3581169b848c013582169b9687013582169a6060880135909216995091975090955060a090940193820191819084018382808284375050604080516020601f89358b018035918201839004830284018301909452808352979a99988101979196509182019450925082915084018382808284375050604080516020601f89358b018035918201839004830284018301909452808352979a9998810197919650918201945092508291508401838280828437509497505050509135151592506122bd915050565b348015610dd957600080fd5b5061024c612412565b348015610dee57600080fd5b5061043d612421565b348015610e0357600080fd5b506040805160e081810190925261043d91369160049160e49190839060079083908390808284375050604080516101208181019092529497969581810195945092506009915083908390808284375050604080516020601f60808901358a0180359182018390048302840183018552818452979a60ff8a3581169b848c013582169b9687013582169a6060880135909216995091975090955060a090940193820191819084018382808284375050604080516020601f89358b018035918201839004830284018301909452808352979a99988101979196509182019450925082915084018382808284375050604080516020601f89358b018035918201839004830284018301909452808352979a9998810197919650918201945092508291508401838280828437509497506124279650505050505050565b348015610f4857600080fd5b5061030d600435612567565b348015610f6057600080fd5b5061024c61257c565b348015610f7557600080fd5b5061024c612590565b348015610f8a57600080fd5b5061024c61259f565b348015610f9f57600080fd5b506040805160e081810190925261033991369160049160e49190839060079083908390808284375050604080516101208181019092529497969581810195945092506009915083908390808284375050604080516020601f60808901358a0180359182018390048302840183018552818452979a60ff8a3581169b848c013582169b9687013582169a6060880135909216995091975090955060a090940193820191819084018382808284375050604080516020601f89358b018035918201839004830284018301909452808352979a99988101979196509182019450925082915084018382808284375050604080516020601f89358b018035918201839004830284018301909452808352979a9998810197919650918201945092508291508401838280828437509497505050833560ff16945050506020820135916040013590506125ae565b604080516101c08181019092526103399136916004916101c491908390600e9083908390808284375050604080516102408181019092529497969581810195945092506012915083908390808284375050604080516101008181019092529497969581810195945092506008915083908390808284375050604080516020601f88358a0180359182018390048302840183019094528083529699989781019691955091820193509150819084018382808284375050604080516020601f89358b018035918201839004830284018301909452808352979a99988101979196509182019450925082915084018382808284375050604080516020601f89358b018035918201839004830284018301909452808352979a99988101979196509182019450925082915084018382808284375050604080516020601f89358b018035918201839004830284018301909452808352979a99988101979196509182019450925082915084018382808284375050604080516020601f89358b018035918201839004830284018301909452808352979a99988101979196509182019450925082915084018382808284375050604080516020601f89358b018035918201839004830284018301909452808352979a999881019791965091820194509250829150840183828082843750506040805180820182529598979681810196955093506002925084915083908082843750506040805160a08181019092529497969581810195945092506005915083908390808284375093965061278495505050505050565b34801561133657600080fd5b506040805160e081810190925261030d91369160049160e49190839060079083908390808284375050604080516101208181019092529497969581810195945092506009915083908390808284375050604080516020601f60808901358a0180359182018390048302840183018552818452979a60ff8a3581169b848c013582169b9687013582169a6060880135909216995091975090955060a090940193820191819084018382808284375050604080516020601f89358b018035918201839004830284018301909452808352979a99988101979196509182019450925082915084018382808284375050604080516020601f89358b018035918201839004830284018301909452808352979a999881019791965091820194509250829150840183828082843750949750612b9a9650505050505050565b34801561147b57600080fd5b5061043d612cf2565b34801561149057600080fd5b50604080516101c081810190925261043d9136916004916101c491908390600e9083908390808284375050604080516102408181019092529497969581810195945092506012915083908390808284375050604080516101008181019092529497969581810195945092506008915083908390808284375050604080516020601f88358a0180359182018390048302840183019094528083529699989781019691955091820193509150819084018382808284375050604080516020601f89358b018035918201839004830284018301909452808352979a99988101979196509182019450925082915084018382808284375050604080516020601f89358b018035918201839004830284018301909452808352979a99988101979196509182019450925082915084018382808284375050604080516020601f89358b018035918201839004830284018301909452808352979a99988101979196509182019450925082915084018382808284375050604080516020601f89358b018035918201839004830284018301909452808352979a99988101979196509182019450925082915084018382808284375050604080516020601f89358b018035918201839004830284018301909452808352979a999881019791965091820194509250829150840183828082843750949750612cf89650505050505050565b34801561169757600080fd5b5061030d6004356130d4565b3480156116af57600080fd5b50610339600160a060020a03600435166130e9565b60408051808201909152601781527f50726f6a6563742057797665726e2045786368616e6765000000000000000000602082015281565b600354600160a060020a031681565b60006060600083518551016040519080825280601f01601f191660200182016040528015611742578160200160208202803883390190505b50915050602081016117548185613115565b90506117608186613115565b506000604051835160208501895afa9695505050505050565b60005433600160a060020a03908116610100909204161461179957600080fd5b600655565b60005433600160a060020a0390811661010090920416146117be57600080fd5b600755565b60606117d084848461315b565b50825b9392505050565b60075481565b60408051808201909152600c81527f4c616d62746f6e20576f726d0000000000000000000000000000000000000000602082015281565b60408051601480825281830190925260609182916000916020820161028080388339019050509150506020810161184e81856132e2565b50909392505050565b606080600083516040519080825280601f01601f19166020018201604052801561188b578160200160208202803883390190505b509150506020810161184e8185613115565b604080516102e0810182528a51600160a060020a0390811682526020808d01518216818401528c8401518216838501528b51606080850191909152908c01516080840152928b015160a08301528a83015160c0830152918b015190911660e08201526000906119dd9061010081018a600181111561191757fe5b815260200189600181111561192857fe5b815260200188600181111561193957fe5b815260808d0151600160a060020a0316602082015260400187600181111561195d57fe5b8152602081018790526040810186905260a0808e0151600160a060020a0316606083015260808201869052018c600660209081029190910151600160a060020a031682526080808e01519183019190915260a0808e0151604084015260c08e0151606084015260e08e0151918301919091526101008d0151910152613302565b9a9950505050505050505050565b60005433600160a060020a039081166101009092041614611a0b57600080fd5b6009805473ffffffffffffffffffffffffffffffffffffffff1916600160a060020a0392909216919091179055565b60005433600160a060020a039081166101009092041614611a5a57600080fd5b6008805473ffffffffffffffffffffffffffffffffffffffff1916600160a060020a0392909216919091179055565b60408051808201909152600381527f322e320000000000000000000000000000000000000000000000000000000000602082015281565b60008084511115611ad657611ad685848661315b565b600082511115611aeb57611aeb83868461315b565b611af58584613338565b95945050505050565b6000611b08614e8b565b604080516102e08101909152808f600060209081029190910151600160a060020a03168252018f600160209081029190910151600160a060020a03168252018f600260209081029190910151600160a060020a03168252018e6000602090810291909101518252018e6001602090810291909101518252018e6002602090810291909101518252018e6003602090810291909101518252018f60036020020151600160a060020a031681526020018d6001811115611bc257fe5b81526020018c6001811115611bd357fe5b81526020018b6001811115611be457fe5b81526020018f60046020020151600160a060020a031681526020018a6001811115611c0b57fe5b8152602081018a9052604081018990526060018f60056020020151600160a060020a031681526020018781526020018f6006600781101515611c4957fe5b60209081029190910151600160a060020a03168252018e6004602090810291909101518252018e6005602090810291909101518252018e6006602090810291909101518252018e6007602090810291909101518252018e6008602002015190529050611cdb611cb78261339c565b6040805160608101825260ff891681526020810188905290810186905283906133e7565b9e9d5050505050505050505050505050565b6000611cfd8787878787876134dc565b979650505050505050565b600854600160a060020a031681565b60005433600160a060020a039081166101009092041614611d3757600080fd5b60008054604051610100909104600160a060020a0316917ff8df31144d9c2f0f6b59d69b8b98abd5459d07f2742c4df920b25aae33c6482091a26000805474ffffffffffffffffffffffffffffffffffffffff0019169055565b604080516102e0810182528a51600160a060020a0390811682526020808d01518216818401528c8401518216838501528b51606080850191909152908c01516080840152928b015160a08301528a83015160c0830152918b015190911660e08201526000906119dd9061010081018a6001811115611e0b57fe5b8152602001896001811115611e1c57fe5b8152602001886001811115611e2d57fe5b815260808d0151600160a060020a03166020820152604001876001811115611e5157fe5b8152602081018790526040810186905260a0808e0151600160a060020a0316606083015260808201869052018c600660209081029190910151600160a060020a031682526080808e01519183019190915260a0808e0151604084015260c08e0151606084015260e08e0151918301919091526101008d015191015261356f565b6000611edb614e8b565b611ee3614e8b565b604080516102e08101909152808d600060209081029190910151600160a060020a03168252018d600160209081029190910151600160a060020a03168252018d600260209081029190910151600160a060020a03168252018c6000602090810291909101518252018c6001602090810291909101518252018c6002602090810291909101518252018c6003602090810291909101518252018d600360209081029190910151600160a060020a03168252018b6000602002015160ff166001811115611faa57fe5b6001811115611fb557fe5b81526020018b6001602002015160ff166001811115611fd057fe5b6001811115611fdb57fe5b81526020018b6002602002015160ff166001811115611ff657fe5b600181111561200157fe5b815260808e0151600160a060020a0316602082015260608c015160409091019060ff16600181111561202f57fe5b600181111561203a57fe5b8152602081018b90526040810189905260a0808f0151600160a060020a0316606083015260808201889052018d600660209081029190910151600160a060020a03168252018c6004602090810291909101518252018c6005602090810291909101518252018c6006602090810291909101518252018c6007602090810291909101518252018c600860200201519052604080516102e08101909152909250808d600760209081029190910151600160a060020a03168252018d600860209081029190910151600160a060020a03168252018d600960209081029190910151600160a060020a03168252018c6009602090810291909101518252018c600a602090810291909101518252018c600b602090810291909101518252018c600c602090810291909101518252018d600a60209081029190910151600160a060020a03168252018b6004602002015160ff16600181111561219357fe5b600181111561219e57fe5b81526020018b6005602002015160ff1660018111156121b957fe5b60018111156121c457fe5b81526020018b6006602002015160ff1660018111156121df57fe5b60018111156121ea57fe5b81526101608e0151600160a060020a0316602082015260e08c015160409091019060ff16600181111561221957fe5b600181111561222457fe5b8152602081018a9052604081018890526101808e0151600160a060020a031660608201526080810186905260a0018d600d60209081029190910151600160a060020a031682526101a08e0151908201526101c08d015160408201526101e08d015160608201526102008d015160808201526102208d015160a09091015290506122ad828261375e565b9c9b505050505050505050505050565b6122c5614e8b565b604080516102e0810182528c51600160a060020a0390811682526020808f01518216818401528e8401518216838501528d51606080850191909152908e01516080840152928d015160a08301528c83015160c0830152918d015190911660e082015261010081018a600181111561233857fe5b815260200189600181111561234957fe5b815260200188600181111561235a57fe5b815260808d0151600160a060020a0316602082015260400187600181111561237e57fe5b8152602081018790526040810186905260a0808e0151600160a060020a0316606083015260808201869052018c600660209081029190910151600160a060020a031682526080808e01519183019190915260a0808e0151604084015260c08e0151606084015260e08e0151918301919091526101008d015191015290506124058183613938565b5050505050505050505050565b600254600160a060020a031681565b60065481565b604080516102e0810182528a51600160a060020a0390811682526020808d01518216818401528c8401518216838501528b51606080850191909152908c01516080840152928b015160a08301528a83015160c0830152918b015190911660e08201526000906119dd9061010081018a60018111156124a157fe5b81526020018960018111156124b257fe5b81526020018860018111156124c357fe5b815260808d0151600160a060020a031660208201526040018760018111156124e757fe5b8152602081018790526040810186905260a0808e0151600160a060020a0316606083015260808201869052018c600660209081029190910151600160a060020a031682526080808e01519183019190915260a0808e0151604084015260c08e0151606084015260e08e0151918301919091526101008d015191015261339c565b60046020526000908152604090205460ff1681565b6000546101009004600160a060020a031681565b600954600160a060020a031681565b600154600160a060020a031681565b604080516102e0810190915261277690808e600060209081029190910151600160a060020a03168252018e600160209081029190910151600160a060020a03168252018e600260209081029190910151600160a060020a03168252018d6000602090810291909101518252018d6001602090810291909101518252018d6002602090810291909101518252018d6003602090810291909101518252018e60036020020151600160a060020a031681526020018c600181111561266c57fe5b81526020018b600181111561267d57fe5b81526020018a600181111561268e57fe5b815260808f0151600160a060020a031660208201526040018960018111156126b257fe5b815260208101899052604081018890526060018e60056020020151600160a060020a031681526020018681526020018e60066007811015156126f057fe5b60209081029190910151600160a060020a03168252018d6004602090810291909101518252018d6005602090810291909101518252018d6006602090810291909101518252018d6007602090810291909101518252018d6008602090810291909101519091526040805160608101825260ff881681529182018690528101849052613d06565b505050505050505050505050565b604080516102e0810182528c51600160a060020a0390811682526020808f01518216818401528e8401518216838501528d51606080850191909152908e01516080840152928d015160a08301528c83015160c0830152918d015190911660e08201528951612405919061010082019060ff16600181111561280157fe5b600181111561280c57fe5b81526020018b6001602002015160ff16600181111561282757fe5b600181111561283257fe5b81526020018b6002602002015160ff16600181111561284d57fe5b600181111561285857fe5b815260808e0151600160a060020a0316602082015260608c015160409091019060ff16600181111561288657fe5b600181111561289157fe5b8152602081018b90526040810189905260a0808f0151600160a060020a0316606083015260808201889052018d600660209081029190910151600160a060020a03168252018c6004602090810291909101518252018c6005602090810291909101518252018c6006602090810291909101518252018c6007602090810291909101518252018c6008602002015190526040805160608101909152808560006020908102919091015160ff168252018460006020908102919091015182520184600160200201519052604080516102e08101909152808f600760209081029190910151600160a060020a03168252018f600860209081029190910151600160a060020a03168252018f600960209081029190910151600160a060020a03168252018e6009602090810291909101518252018e600a602090810291909101518252018e600b602090810291909101518252018e600c602090810291909101518252018f600a60209081029190910151600160a060020a03168252018d6004602002015160ff166001811115612a2057fe5b6001811115612a2b57fe5b81526020018d6005602002015160ff166001811115612a4657fe5b6001811115612a5157fe5b81526020018d6006602002015160ff166001811115612a6c57fe5b6001811115612a7757fe5b81526020018f600b60209081029190910151600160a060020a03168252018d6007602002015160ff166001811115612aab57fe5b6001811115612ab657fe5b8152602081018c9052604081018a90526060018f600c6020020151600160a060020a031681526020018781526020018f600d600e81101515612af457fe5b60209081029190910151600160a060020a03168252018e600d602090810291909101518252018e600e602090810291909101518252018e600f602090810291909101518252018e6010602090810291909101518252018e6011602002015190526040805160608101909152808760016020908102919091015160ff1682520186600260209081029190910151825201866003602002015190528560046020020151613d7d565b6000612ba4614e8b565b604080516102e0810182528c51600160a060020a0390811682526020808f01518216818401528e8401518216838501528d51606080850191909152908e01516080840152928d015160a08301528c83015160c0830152918d015190911660e082015261010081018a6001811115612c1757fe5b8152602001896001811115612c2857fe5b8152602001886001811115612c3957fe5b815260808d0151600160a060020a03166020820152604001876001811115612c5d57fe5b8152602081018790526040810186905260a0808e0151600160a060020a0316606083015260808201869052018c600660209081029190910151600160a060020a031682526080808e01519183019190915260a0808e0151604084015260c08e0151606084015260e08e0151918301919091526101008d01519101529050612ce38161435d565b9b9a5050505050505050505050565b61271081565b6000612d02614e8b565b612d0a614e8b565b604080516102e08101909152808d600060209081029190910151600160a060020a03168252018d600160209081029190910151600160a060020a03168252018d600260209081029190910151600160a060020a03168252018c6000602090810291909101518252018c6001602090810291909101518252018c6002602090810291909101518252018c6003602090810291909101518252018d600360209081029190910151600160a060020a03168252018b6000602002015160ff166001811115612dd157fe5b6001811115612ddc57fe5b81526020018b6001602002015160ff166001811115612df757fe5b6001811115612e0257fe5b81526020018b6002602002015160ff166001811115612e1d57fe5b6001811115612e2857fe5b815260808e0151600160a060020a0316602082015260608c015160409091019060ff166001811115612e5657fe5b6001811115612e6157fe5b8152602081018b90526040810189905260a0808f0151600160a060020a0316606083015260808201889052018d600660209081029190910151600160a060020a03168252018c6004602090810291909101518252018c6005602090810291909101518252018c6006602090810291909101518252018c6007602090810291909101518252018c600860200201519052604080516102e08101909152909250808d600760209081029190910151600160a060020a03168252018d600860209081029190910151600160a060020a03168252018d600960209081029190910151600160a060020a03168252018c6009602090810291909101518252018c600a602090810291909101518252018c600b602090810291909101518252018c600c602090810291909101518252018d600a60209081029190910151600160a060020a03168252018b6004602002015160ff166001811115612fba57fe5b6001811115612fc557fe5b81526020018b6005602002015160ff166001811115612fe057fe5b6001811115612feb57fe5b81526020018b6006602002015160ff16600181111561300657fe5b600181111561301157fe5b81526101608e0151600160a060020a0316602082015260e08c015160409091019060ff16600181111561304057fe5b600181111561304b57fe5b8152602081018a9052604081018890526101808e0151600160a060020a031660608201526080810186905260a0018d600d60209081029190910151600160a060020a031682526101a08e0151908201526101c08d015160408201526101e08d015160608201526102008d015160808201526102208d015160a09091015290506122ad82826143f1565b60056020526000908152604090205460ff1681565b60005433600160a060020a03908116610100909204161461310957600080fd5b61311281614481565b50565b6000808251111561315257815180602001830160208401855b6001838310141561314957815181526020918201910161312e565b50505092909201915b50815b92915050565b60008060008451865114151561317057600080fd5b835186511461317e57600080fd5b855160209004925060208084029250839083041461319857fe5b5060005b828110156131c8576001016020810284810151868201519188018051928216911990921617905261319c565b60008311156131f857829050806001016020028085015181870151811682890151821916178289015250506132da565b50805b85518110156132da57848181518110151561321257fe5b90602001015160f860020a900460f860020a02848281518110151561323357fe5b90602001015160f860020a900460f860020a0216868281518110151561325557fe5b90602001015160f860020a900460f860020a02858381518110151561327657fe5b90602001015160f860020a900460f860020a0260ff60f860020a0218161786828151811015156132a257fe5b9060200101907effffffffffffffffffffffffffffffffffffffffffffffffffffffffffffff1916908160001a9053506001016131fb565b505050505050565b600160a060020a03166c0100000000000000000000000002815260140190565b6000613330826101200151836101400151846102400151856102600151866102800151876102a001516134dc565b90505b919050565b8151815160009160019181148083146133545760009250613392565b600160208701838101602088015b60028483851001141561338d5780518351146133815760009650600093505b60209283019201613362565b505050505b5090949350505050565b60006133a78261356f565b604080517f19457468657265756d205369676e6564204d6573736167653a0a3332000000008152601c8101929092525190819003603c0190209050919050565b60006133f28361435d565b1515613400575060006117d3565b60008481526004602052604090205460ff161561341f575060006117d3565b60008481526005602052604090205460ff161561343e575060016117d3565b602080840151835184830151604080870151815160008082528188018085528c905260ff909516818401526060810193909352608083015251600160a060020a039093169360019360a0808401949293601f19830193908390039091019190865af11580156134b1573d6000803e3d6000fd5b50505060206040510351600160a060020a031614156134d2575060016117d3565b5060009392505050565b600080808760018111156134ec57fe5b14156134fa57859150613564565b600187600181111561350857fe5b1415613564576135336135248661351f4288614509565b61451b565b61352e8587614509565b614544565b9050600188600181111561354357fe5b141561355a576135538682614509565b9150613564565b6135538682614559565b509695505050505050565b6000806060600061357f85614566565b9250826040519080825280601f01601f1916602001820160405280156135af578160200160208202803883390190505b5091506020820190506135c68186600001516132e2565b90506135d68186602001516132e2565b90506135e68186604001516132e2565b90506135f6818660600151614586565b9050613606818660800151614586565b9050613616818660a00151614586565b9050613626818660c00151614586565b9050613636818660e001516132e2565b905061365281866101000151600181111561364d57fe5b61458e565b905061366981866101200151600181111561364d57fe5b905061368081866101400151600181111561364d57fe5b9050613691818661016001516132e2565b90506136a881866101800151600181111561364d57fe5b90506136b981866101a00151613115565b90506136ca81866101c00151613115565b90506136db81866101e001516132e2565b90506136ec81866102000151613115565b90506136fd818661022001516132e2565b905061370e81866102400151614586565b905061371f81866102600151614586565b905061373081866102800151614586565b905061374181866102a00151614586565b905061375281866102c00151614586565b50506020012092915050565b600080836101200151600181111561377257fe5b14801561378f57506001826101200151600181111561378d57fe5b145b80156137ba575081610100015160018111156137a757fe5b83610100015160018111156137b857fe5b145b80156137e15750816102200151600160a060020a0316836102200151600160a060020a0316145b801561381b57506040820151600160a060020a0316158061381b57508260200151600160a060020a03168260400151600160a060020a0316145b801561385557506040830151600160a060020a0316158061385557508160200151600160a060020a03168360400151600160a060020a0316145b80156138b0575060e0820151600160a060020a0316158015613883575060e0830151600160a060020a031615155b806138b0575060e0820151600160a060020a0316158015906138b0575060e0830151600160a060020a0316155b80156138d75750816101600151600160a060020a0316836101600151600160a060020a0316145b8015613902575081610180015160018111156138ef57fe5b836101800151600181111561390057fe5b145b801561391d575061391d836102800151846102a0015161459b565b80156117d357506117d3826102800151836102a0015161459b565b60008260200151600160a060020a031633600160a060020a031614151561395e57600080fd5b6139678361339c565b60008181526005602052604090205490915060ff161561398657600080fd5b600160056000836000191660001916815260200190815260200160002060006101000a81548160ff0219169083151502179055508260e00151600160a060020a03168360200151600160a060020a031682600019167f90c7f9f5b58c15f0f635bfb99f55d3d78fdbef3559e7d8abf5c81052a527662286600001518760400151886060015189608001518a60a001518b60c001518c61010001518d61012001518e61014001518f6101600151604051808b600160a060020a0316600160a060020a031681526020018a600160a060020a0316600160a060020a03168152602001898152602001888152602001878152602001868152602001856001811115613a8a57fe5b60ff168152602001846001811115613a9e57fe5b60ff168152602001836001811115613ab257fe5b60ff168152600160a060020a039092166020830152506040805191829003019950975050505050505050a480600019167fe55393c778364e440d958b39ac1debd99dcfae3775a8a04d1e79124adf6a2d08846101800151856101a00151866101c00151876101e001518861020001518961022001518a61024001518b61026001518c61028001518d6102a001518e6102c001518e604051808d6001811115613b5657fe5b60ff16815260200180602001806020018c600160a060020a0316600160a060020a03168152602001806020018b600160a060020a0316600160a060020a031681526020018a81526020018981526020018881526020018781526020018681526020018515151515815260200184810384528f818151815260200191508051906020019080838360005b83811015613bf7578181015183820152602001613bdf565b50505050905090810190601f168015613c245780820380516001836020036101000a031916815260200191505b5084810383528e818151815260200191508051906020019080838360005b83811015613c5a578181015183820152602001613c42565b50505050905090810190601f168015613c875780820380516001836020036101000a031916815260200191505b5084810382528c5181528c516020918201918e019080838360005b83811015613cba578181015183820152602001613ca2565b50505050905090810190601f168015613ce75780820380516001836020036101000a031916815260200191505b509f5050505050505050505050505050505060405180910390a2505050565b6000613d1283836145b7565b90508260200151600160a060020a031633600160a060020a0316141515613d3857600080fd5b600081815260046020526040808220805460ff191660011790555182917f5152abf959f6564662358c2e52b702259b78bac5ee7842a0f01937e670efcc7d91a2505050565b6000805481908190819081908190819060ff1615613d9a57600080fd5b6000805460ff1916600117905560208c0151600160a060020a0390811633919091161415613ddb57613dcb8c61435d565b1515613dd657600080fd5b613de8565b613de58c8c6145b7565b96505b33600160a060020a03168a60200151600160a060020a03161415613e1f57613e0f8a61435d565b1515613e1a57600080fd5b613e2c565b613e298a8a6145b7565b95505b613e368c8b61375e565b1515613e4157600080fd5b6101608a0151803b9550935060008511613e5a57600080fd5b60008c6101c00151511115613e8357613e838c6101a001518b6101a001518e6101c0015161315b565b60008a6101c00151511115613eac57613eac8a6101a001518d6101a001518c6101c0015161315b565b613ec08c6101a001518b6101a00151613338565b1515613ecb57600080fd5b6002546020808c0151604080517fc4552791000000000000000000000000000000000000000000000000000000008152600160a060020a0392831660048201529051919093169263c45527919260248083019391928290030181600087803b158015613f3657600080fd5b505af1158015613f4a573d6000803e3d6000fd5b505050506040513d6020811015613f6057600080fd5b50519250600160a060020a0383161515613f7957600080fd5b600260009054906101000a9004600160a060020a0316600160a060020a03166397204d8e6040518163ffffffff1660e060020a028152600401602060405180830381600087803b158015613fcc57600080fd5b505af1158015613fe0573d6000803e3d6000fd5b505050506040513d6020811015613ff657600080fd5b5051604080517f5c60da1b0000000000000000000000000000000000000000000000000000000081529051600160a060020a0392831692861691635c60da1b9160048083019260209291908290030181600087803b15801561405757600080fd5b505af115801561406b573d6000803e3d6000fd5b505050506040513d602081101561408157600080fd5b5051600160a060020a03161461409657600080fd5b8291508b60200151600160a060020a031633600160a060020a03161415156140d2576000878152600460205260409020805460ff191660011790555b8960200151600160a060020a031633600160a060020a031614151561410b576000868152600460205260409020805460ff191660011790555b6141158c8b6145db565b905081600160a060020a0316631b0f7ba98b61016001518c61018001518d6101a001516040518463ffffffff1660e060020a0281526004018084600160a060020a0316600160a060020a0316815260200183600181111561417257fe5b60ff16815260200180602001828103825283818151815260200191508051906020019080838360005b838110156141b357818101518382015260200161419b565b50505050905090810190601f1680156141e05780820380516001836020036101000a031916815260200191505b50945050505050602060405180830381600087803b15801561420157600080fd5b505af1158015614215573d6000803e3d6000fd5b505050506040513d602081101561422b57600080fd5b5051151561423857600080fd5b6101e08c0151600160a060020a031615614271576142668c6101e001518b6101a001518e610200015161170a565b151561427157600080fd5b6101e08a0151600160a060020a0316156142aa5761429f8a6101e001518b6101a001518c610200015161170a565b15156142aa57600080fd5b60e08a01518890600160a060020a031615156142ca578a602001516142d0565b8c602001515b60e08c0151600160a060020a03918216911615156142f2578d602001516142f8565b8b602001515b604080518b8152602081018b90528082018690529051600160a060020a0392909216917fc4109843e0b7d514e4c093114b863f8e7d8d9a458c372cd51bfe526b588006c99181900360600190a450506000805460ff1916905550505050505050505050565b600030600160a060020a03168260000151600160a060020a031614151561438657506000613333565b61439a826101400151836102a00151614c76565b15156143a857506000613333565b600182610100015160018111156143bb57fe5b1480156143dc57506006548260a0015110806143dc57506007548260c00151105b156143e957506000613333565b506001919050565b6000806000614422846101200151856101400151866102400151876102600151886102800151896102a001516134dc565b91506144508561012001518661014001518761024001518861026001518961028001518a6102a001516134dc565b90508181101561445f57600080fd5b60e0840151600160a060020a031615156144795780611af5565b509392505050565b600160a060020a038116151561449657600080fd5b60008054604051600160a060020a038085169361010090930416917f8be0079c531659141344cd1fd0a4f28419497f9722a3daafe3b4186f6b6457e091a360008054600160a060020a039092166101000274ffffffffffffffffffffffffffffffffffffffff0019909216919091179055565b60008282111561451557fe5b50900390565b600082151561452c57506000613155565b5081810281838281151561453c57fe5b041461315557fe5b6000818381151561455157fe5b049392505050565b8181018281101561315557fe5b610200810151516101c0820151516101a08301515101016101b001919050565b815260200190565b6000818353505060010190565b600042831080156117d357508115806117d35750504210919050565b6000806145c38461339c565b90506145d08185856133e7565b15156117d357600080fd5b600080600080600080600080600080600160a060020a03168a6102200151600160a060020a031614151561461457341561461457600080fd5b61461e8b8b6143f1565b975060008811801561463d57506102208a0151600160a060020a031615155b1561465b5761465b8a61022001518c602001518c602001518b614c95565b60e08a0151889750879650600160a060020a0316156149d5576080808c0151908b0151111561468957600080fd5b60018a6101000151600181111561469c57fe5b14156149a25760c0808c0151908b015111156146b757600080fd5b60008a60600151111561475b576146dd6146d58b606001518a61451b565b612710614544565b6102208b0151909550600160a060020a03161515614742576146ff8786614509565b60e08b0151604051919850600160a060020a03169086156108fc029087906000818181858888f1935050505015801561473c573d6000803e3d6000fd5b5061475b565b61475b8a61022001518b602001518c60e0015188614c95565b60008a6080015111156147f7576147796146d58b608001518a61451b565b6102208b0151909450600160a060020a031615156147de5761479b8685614559565b60e08b0151604051919750600160a060020a03169085156108fc029086906000818181858888f193505050501580156147d8573d6000803e3d6000fd5b506147f7565b6147f78a61022001518c602001518c60e0015187614c95565b60008a60a0015111156148ca576148156146d58b60a001518a61451b565b6102208b0151909350600160a060020a03161515614878576148378784614509565b600854604051919850600160a060020a03169084156108fc029085906000818181858888f19350505050158015614872573d6000803e3d6000fd5b506148ca565b6001546102208b0151600160a060020a03908116911614156148a7576148a28a6020015184614d5a565b6148ca565b6102208a015160208b01516008546148ca929190600160a060020a031686614c95565b60008a60c00151111561499d576148e86146d58b60c001518a61451b565b6102208b0151909250600160a060020a0316151561494b5761490a8683614559565b600854604051919750600160a060020a03169083156108fc029084906000818181858888f19350505050158015614945573d6000803e3d6000fd5b5061499d565b6001546102208b0151600160a060020a039081169116141561497a576149758b6020015183614d5a565b61499d565b6102208a015160208c015160085461499d929190600160a060020a031685614c95565b6149d0565b6149b98a602001518b60e001518c60600151614e6e565b6149d08b602001518b60e001518c60800151614e6e565b614bb3565b6080808b0151908c015111156149ea57600080fd5b60018a610100015160018111156149fd57fe5b1415614b85576102208a0151600160a060020a03161515614a1d57600080fd5b60c0808b0151908c01511115614a3257600080fd5b60008b606001511115614a6b57614a506146d58c606001518a61451b565b9450614a6b8a61022001518c602001518d60e0015188614c95565b60008b608001511115614aa457614a896146d58c608001518a61451b565b9350614aa48a61022001518b602001518d60e0015187614c95565b60008b60a001511115614b1757614ac26146d58c60a001518a61451b565b6001546102208c0151919450600160a060020a0391821691161415614af457614aef8b6020015184614d5a565b614b17565b6102208a015160208c0151600854614b17929190600160a060020a031686614c95565b60008b60c0015111156149d057614b356146d58c60c001518a61451b565b6001546102208c0151919350600160a060020a0391821691161415614b625761499d8a6020015183614d5a565b6102208a015160208b01516008546149d0929190600160a060020a031685614c95565b614b9c8b602001518c60e001518d60600151614e6e565b614bb38a602001518c60e001518d60800151614e6e565b6102208a0151600160a060020a03161515614c675734861115614bd557600080fd5b8960200151600160a060020a03166108fc889081150290604051600060405180830381858888f19350505050158015614c12573d6000803e3d6000fd5b50614c1d3487614509565b90506000811115614c67578a60200151600160a060020a03166108fc829081150290604051600060405180830381858888f19350505050158015614c65573d6000803e3d6000fd5b505b50959998505050505050505050565b600080836001811115614c8557fe5b14806117d3575050600010919050565b6000811115614d5457600354604080517f15dacbea000000000000000000000000000000000000000000000000000000008152600160a060020a0387811660048301528681166024830152858116604483015260648201859052915191909216916315dacbea9160848083019260209291908290030181600087803b158015614d1d57600080fd5b505af1158015614d31573d6000803e3d6000fd5b505050506040513d6020811015614d4757600080fd5b50511515614d5457600080fd5b50505050565b600080600080841115614e6757614d7c614d7585600a61451b565b6064614544565b9250829150614d94614d8e8585614509565b83614509565b600154600854919250614db691600160a060020a039182169188911684614c95565b600154600954614dd591600160a060020a039081169188911686614c95565b600354600154604080517fec60bcf3000000000000000000000000000000000000000000000000000000008152600160a060020a0392831660048201528883166024820152604481018690529051919092169163ec60bcf391606480830192600092919082900301818387803b158015614e4e57600080fd5b505af1158015614e62573d6000803e3d6000fd5b505050505b5050505050565b600154614e8690600160a060020a0316848484614c95565b505050565b604080516102e081018252600080825260208201819052918101829052606081018290526080810182905260a0810182905260c0810182905260e081018290529061010082019081526020016000815260200160008152600060208201819052604090910190815260200160608152602001606081526020016000600160a060020a03168152602001606081526020016000600160a060020a03168152602001600081526020016000815260200160008152602001600081526020016000815250905600a165627a7a7230582060257befb75791184a510ac03b4d59f53adbd2058172741f43495b2ea50921110029",
  "source": "/*\n\n  << Project Wyvern Exchange >>\n\n*/\n\npragma solidity 0.4.23;\n\nimport \"./exchange/Exchange.sol\";\n\n/**\n * @title WyvernExchange\n * @author Project Wyvern Developers\n */\ncontract WyvernExchange is Exchange {\n\n    string public constant name = \"Project Wyvern Exchange\";\n\n    string public constant version = \"2.2\";\n\n    string public constant codename = \"Lambton Worm\";\n\n    /**\n     * @dev Initialize a WyvernExchange instance\n     * @param registryAddress Address of the registry instance which this Exchange instance will use\n     * @param tokenAddress Address of the token used for protocol fees\n     */\n    constructor (ProxyRegistry registryAddress, TokenTransferProxy tokenTransferProxyAddress, ERC20 tokenAddress, address protocolFeeAddress, address devWalletAddress) public {\n        registry = registryAddress;\n        tokenTransferProxy = tokenTransferProxyAddress;\n        exchangeToken = tokenAddress;\n        protocolFeeRecipient = protocolFeeAddress;\n        devWallet = devWalletAddress;\n        owner = msg.sender;\n    }\n\n}\n",
  "sourcePath": "/Users/ronak/Developer/projects/tsgit/wyvern-js/src/wyvern-ethereum/contracts/WyvernExchange.sol",
  "compiler": {
    "name": "solc",
    "version": "0.4.23+commit.124ca40d.Emscripten.clang"
  },
  "schemaVersion": "3.2.0",
  "updatedAt": "2021-10-06T05:43:30.675Z",
  "devdoc": {
    "author": "Project Wyvern Developers",
    "methods": {
      "approveOrder_(address[7],uint256[9],uint8,uint8,uint8,uint8,bytes,bytes,bytes,bool)": {
        "details": "Call approveOrder - Solidity ABI encoding limitation workaround, hopefully temporary."
      },
      "atomicMatch_(address[14],uint256[18],uint8[8],bytes,bytes,bytes,bytes,bytes,bytes,uint8[2],bytes32[5])": {
        "details": "Call atomicMatch - Solidity ABI encoding limitation workaround, hopefully temporary."
      },
      "calculateCurrentPrice_(address[7],uint256[9],uint8,uint8,uint8,uint8,bytes,bytes,bytes)": {
        "details": "Call calculateCurrentPrice - Solidity ABI encoding limitation workaround, hopefully temporary."
      },
      "calculateFinalPrice(uint8,uint8,uint256,uint256,uint256,uint256)": {
        "details": "Call calculateFinalPrice - library function exposed for testing."
      },
      "calculateMatchPrice_(address[14],uint256[18],uint8[8],bytes,bytes,bytes,bytes,bytes,bytes)": {
        "details": "Call calculateMatchPrice - Solidity ABI encoding limitation workaround, hopefully temporary."
      },
      "cancelOrder_(address[7],uint256[9],uint8,uint8,uint8,uint8,bytes,bytes,bytes,uint8,bytes32,bytes32)": {
        "details": "Call cancelOrder - Solidity ABI encoding limitation workaround, hopefully temporary."
      },
      "changeDevWalletAddress(address)": {
        "details": "Change the dev wallet (owner only)",
        "params": {
          "newDevWalletAddress": "New dev wallet address"
        }
      },
      "changeMinimumMakerProtocolFee(uint256)": {
        "details": "Change the minimum maker fee paid to the protocol (owner only)",
        "params": {
          "newMinimumMakerProtocolFee": "New fee to set in basis points"
        }
      },
      "changeMinimumTakerProtocolFee(uint256)": {
        "details": "Change the minimum taker fee paid to the protocol (owner only)",
        "params": {
          "newMinimumTakerProtocolFee": "New fee to set in basis points"
        }
      },
      "changeProtocolFeeRecipient(address)": {
        "details": "Change the protocol fee recipient (owner only)",
        "params": {
          "newProtocolFeeRecipient": "New protocol fee recipient address"
        }
      },
      "guardedArrayReplace(bytes,bytes,bytes)": {
        "details": "Call guardedArrayReplace - library function exposed for testing."
      },
      "hashOrder_(address[7],uint256[9],uint8,uint8,uint8,uint8,bytes,bytes,bytes)": {
        "details": "Call hashOrder - Solidity ABI encoding limitation workaround, hopefully temporary."
      },
      "hashToSign_(address[7],uint256[9],uint8,uint8,uint8,uint8,bytes,bytes,bytes)": {
        "details": "Call hashToSign - Solidity ABI encoding limitation workaround, hopefully temporary."
      },
      "orderCalldataCanMatch(bytes,bytes,bytes,bytes)": {
        "details": "Return whether or not two orders' calldata specifications can match",
        "params": {
          "buyCalldata": "Buy-side order calldata",
          "buyReplacementPattern": "Buy-side order calldata replacement mask",
          "sellCalldata": "Sell-side order calldata",
          "sellReplacementPattern": "Sell-side order calldata replacement mask"
        },
        "return": "Whether the orders' calldata can be matched"
      },
      "ordersCanMatch_(address[14],uint256[18],uint8[8],bytes,bytes,bytes,bytes,bytes,bytes)": {
        "details": "Call ordersCanMatch - Solidity ABI encoding limitation workaround, hopefully temporary."
      },
      "renounceOwnership()": {
        "details": "Allows the current owner to relinquish control of the contract."
      },
      "staticCall(address,bytes,bytes)": {
        "details": "Execute a STATICCALL (introduced with Ethereum Metropolis, non-state-modifying external call)",
        "params": {
          "calldata": "Calldata (appended to extradata)",
          "extradata": "Base data for STATICCALL (probably function selector and argument encoding)",
          "target": "Contract to call"
        },
        "return": "The result of the call (success or failure)"
      },
      "testCopy(bytes)": {
        "params": {
          "arrToCopy": "Array to copy"
        },
        "return": "byte array"
      },
      "testCopyAddress(address)": {
        "params": {
          "addr": "Address to write"
        },
        "return": "byte array"
      },
      "transferOwnership(address)": {
        "details": "Allows the current owner to transfer control of the contract to a newOwner.",
        "params": {
          "_newOwner": "The address to transfer ownership to."
        }
      },
      "validateOrderParameters_(address[7],uint256[9],uint8,uint8,uint8,uint8,bytes,bytes,bytes)": {
        "details": "Call validateOrderParameters - Solidity ABI encoding limitation workaround, hopefully temporary."
      },
      "validateOrder_(address[7],uint256[9],uint8,uint8,uint8,uint8,bytes,bytes,bytes,uint8,bytes32,bytes32)": {
        "details": "Call validateOrder - Solidity ABI encoding limitation workaround, hopefully temporary."
      }
    },
    "title": "WyvernExchange"
  },
  "userdoc": {
    "methods": {
      "testCopy(bytes)": {
        "notice": "Test copy byte array"
      },
      "testCopyAddress(address)": {
        "notice": "Test write address to bytes"
      }
    }
  }
}