{
  "contractName": "WyvernTokenTransferProxy",
  "abi": [
    {
      "inputs": [
        {
          "internalType": "contract ProxyRegistry",
          "name": "registryAddr",
          "type": "address"
        }
      ],
      "stateMutability": "nonpayable",
      "type": "constructor"
    },
    {
      "inputs": [
        {
          "internalType": "address",
          "name": "token",
          "type": "address"
        },
        {
          "internalType": "address",
          "name": "from",
          "type": "address"
        },
        {
          "internalType": "uint256",
          "name": "amount",
          "type": "uint256"
        }
      ],
      "name": "burnFrom",
      "outputs": [],
      "stateMutability": "nonpayable",
      "type": "function"
    },
    {
      "inputs": [],
      "name": "registry",
      "outputs": [
        {
          "internalType": "contract ProxyRegistry",
          "name": "",
          "type": "address"
        }
      ],
      "stateMutability": "view",
      "type": "function"
    },
    {
      "inputs": [
        {
          "internalType": "address",
          "name": "token",
          "type": "address"
        },
        {
          "internalType": "address",
          "name": "from",
          "type": "address"
        },
        {
          "internalType": "address",
          "name": "to",
          "type": "address"
        },
        {
          "internalType": "uint256",
          "name": "amount",
          "type": "uint256"
        }
      ],
      "name": "transferFrom",
      "outputs": [
        {
          "internalType": "bool",
          "name": "",
          "type": "bool"
        }
      ],
      "stateMutability": "nonpayable",
      "type": "function"
    }
  ],
  "bytecode": "0x608060405234801561001057600080fd5b5060405161044638038061044683398101604081905261002f91610054565b600080546001600160a01b0319166001600160a01b0392909216919091179055610084565b60006020828403121561006657600080fd5b81516001600160a01b038116811461007d57600080fd5b9392505050565b6103b3806100936000396000f3fe608060405234801561001057600080fd5b50600436106100415760003560e01c806315dacbea146100465780637b1039991461006e578063ec60bcf314610099575b600080fd5b6100596100543660046102cd565b6100ae565b60405190151581526020015b60405180910390f35b600054610081906001600160a01b031681565b6040516001600160a01b039091168152602001610065565b6100ac6100a7366004610318565b6101c6565b005b600080546040516369dc9ff360e01b81523360048201526001600160a01b03909116906369dc9ff39060240160206040518083038186803b1580156100f257600080fd5b505afa158015610106573d6000803e3d6000fd5b505050506040513d601f19601f8201168201806040525081019061012a9190610354565b61013357600080fd5b6040516323b872dd60e01b81526001600160a01b0385811660048301528481166024830152604482018490528616906323b872dd90606401602060405180830381600087803b15801561018557600080fd5b505af1158015610199573d6000803e3d6000fd5b505050506040513d601f19601f820116820180604052508101906101bd9190610354565b95945050505050565b6000546040516369dc9ff360e01b81523360048201526001600160a01b03909116906369dc9ff39060240160206040518083038186803b15801561020957600080fd5b505afa15801561021d573d6000803e3d6000fd5b505050506040513d601f19601f820116820180604052508101906102419190610354565b61024a57600080fd5b60405163079cc67960e41b81526001600160a01b038381166004830152602482018390528416906379cc679090604401600060405180830381600087803b15801561029457600080fd5b505af11580156102a8573d6000803e3d6000fd5b50505050505050565b80356001600160a01b03811681146102c857600080fd5b919050565b600080600080608085870312156102e357600080fd5b6102ec856102b1565b93506102fa602086016102b1565b9250610308604086016102b1565b9396929550929360600135925050565b60008060006060848603121561032d57600080fd5b610336846102b1565b9250610344602085016102b1565b9150604084013590509250925092565b60006020828403121561036657600080fd5b8151801515811461037657600080fd5b939250505056fea264697066735822122030d4752582bcbc137c887b5a77686f96397846a77e18b2d97c813443dc913a8464736f6c63430008070033",
  "immutableReferences": {},
  "source": "/*\n\n  << Project Wyvern Token Transfer Proxy >.\n\n*/\n\n// SPDX-License-Identifier: MIT\n\npragma solidity 0.8.7;\n\nimport \"./registry/TokenTransferProxy.sol\";\n\ncontract WyvernTokenTransferProxy is TokenTransferProxy {\n\n    constructor (ProxyRegistry registryAddr)\n    {\n        registry = registryAddr;\n    }\n\n}\n",
  "sourcePath": "/Users/ronak/Developer/projects/tsgit/wyvern-js/src/wyvern-ethereum/contracts/WyvernTokenTransferProxy.sol",
  "compiler": {
    "name": "solc",
    "version": "0.8.7+commit.e28d00a7.Emscripten.clang"
  },
  "schemaVersion": "3.2.0",
  "updatedAt": "2022-01-11T06:39:41.535Z",
  "devdoc": {
    "kind": "dev",
    "methods": {
      "burnFrom(address,address,uint256)": {
        "details": "Authenticated contract only",
        "params": {
          "amount": "Burn amount",
          "from": "From address",
          "token": "ERC20 token address"
        }
      },
      "transferFrom(address,address,address,uint256)": {
        "details": "Authenticated contract only",
        "params": {
          "amount": "Transfer amount",
          "from": "From address",
          "to": "To address",
          "token": "ERC20 token address"
        }
      }
    },
    "version": 1
  },
  "userdoc": {
    "kind": "user",
    "methods": {
      "burnFrom(address,address,uint256)": {
        "notice": "Call ERC20 `burnFrom`"
      },
      "transferFrom(address,address,address,uint256)": {
        "notice": "Call ERC20 `transferFrom`"
      }
    },
    "version": 1
  }
}