{
  "contractName": "WyvernExchange",
  "abi": [
    {
      "inputs": [
        {
          "internalType": "contract ProxyRegistry",
          "name": "registryAddress",
          "type": "address"
        },
        {
          "internalType": "contract TokenTransferProxy",
          "name": "tokenTransferProxyAddress",
          "type": "address"
        },
        {
          "internalType": "contract ERC20",
          "name": "tokenAddress",
          "type": "address"
        },
        {
          "internalType": "address",
          "name": "protocolFeeAddress",
          "type": "address"
        },
        {
          "internalType": "address",
          "name": "devWalletAddress",
          "type": "address"
        }
      ],
      "stateMutability": "nonpayable",
      "type": "constructor"
    },
    {
      "anonymous": false,
      "inputs": [
        {
          "indexed": true,
          "internalType": "bytes32",
          "name": "hash",
          "type": "bytes32"
        },
        {
          "indexed": false,
          "internalType": "address",
          "name": "exchange",
          "type": "address"
        },
        {
          "indexed": true,
          "internalType": "address",
          "name": "maker",
          "type": "address"
        },
        {
          "indexed": false,
          "internalType": "address",
          "name": "taker",
          "type": "address"
        },
        {
          "indexed": false,
          "internalType": "uint256",
          "name": "makerRelayerFee",
          "type": "uint256"
        },
        {
          "indexed": false,
          "internalType": "uint256",
          "name": "takerRelayerFee",
          "type": "uint256"
        },
        {
          "indexed": false,
          "internalType": "uint256",
          "name": "makerProtocolFee",
          "type": "uint256"
        },
        {
          "indexed": false,
          "internalType": "uint256",
          "name": "takerProtocolFee",
          "type": "uint256"
        },
        {
          "indexed": true,
          "internalType": "address",
          "name": "feeRecipient",
          "type": "address"
        },
        {
          "indexed": false,
          "internalType": "enum ExchangeCore.FeeMethod",
          "name": "feeMethod",
          "type": "uint8"
        },
        {
          "indexed": false,
          "internalType": "enum SaleKindInterface.Side",
          "name": "side",
          "type": "uint8"
        },
        {
          "indexed": false,
          "internalType": "enum SaleKindInterface.SaleKind",
          "name": "saleKind",
          "type": "uint8"
        },
        {
          "indexed": false,
          "internalType": "address",
          "name": "target",
          "type": "address"
        }
      ],
      "name": "OrderApprovedPartOne",
      "type": "event"
    },
    {
      "anonymous": false,
      "inputs": [
        {
          "indexed": true,
          "internalType": "bytes32",
          "name": "hash",
          "type": "bytes32"
        },
        {
          "indexed": false,
          "internalType": "enum AuthenticatedProxy.HowToCall",
          "name": "howToCall",
          "type": "uint8"
        },
        {
          "indexed": false,
          "internalType": "bytes",
          "name": "calldatas",
          "type": "bytes"
        },
        {
          "indexed": false,
          "internalType": "bytes",
          "name": "replacementPattern",
          "type": "bytes"
        },
        {
          "indexed": false,
          "internalType": "address",
          "name": "staticTarget",
          "type": "address"
        },
        {
          "indexed": false,
          "internalType": "bytes",
          "name": "staticExtradata",
          "type": "bytes"
        },
        {
          "indexed": false,
          "internalType": "address",
          "name": "paymentToken",
          "type": "address"
        },
        {
          "indexed": false,
          "internalType": "uint256",
          "name": "basePrice",
          "type": "uint256"
        },
        {
          "indexed": false,
          "internalType": "uint256",
          "name": "extra",
          "type": "uint256"
        },
        {
          "indexed": false,
          "internalType": "uint256",
          "name": "listingTime",
          "type": "uint256"
        },
        {
          "indexed": false,
          "internalType": "uint256",
          "name": "expirationTime",
          "type": "uint256"
        },
        {
          "indexed": false,
          "internalType": "uint256",
          "name": "salt",
          "type": "uint256"
        },
        {
          "indexed": false,
          "internalType": "bool",
          "name": "orderbookInclusionDesired",
          "type": "bool"
        }
      ],
      "name": "OrderApprovedPartTwo",
      "type": "event"
    },
    {
      "anonymous": false,
      "inputs": [
        {
          "indexed": true,
          "internalType": "bytes32",
          "name": "hash",
          "type": "bytes32"
        }
      ],
      "name": "OrderCancelled",
      "type": "event"
    },
    {
      "anonymous": false,
      "inputs": [
        {
          "indexed": false,
          "internalType": "bytes32",
          "name": "buyHash",
          "type": "bytes32"
        },
        {
          "indexed": false,
          "internalType": "bytes32",
          "name": "sellHash",
          "type": "bytes32"
        },
        {
          "indexed": true,
          "internalType": "address",
          "name": "maker",
          "type": "address"
        },
        {
          "indexed": true,
          "internalType": "address",
          "name": "taker",
          "type": "address"
        },
        {
          "indexed": false,
          "internalType": "uint256",
          "name": "price",
          "type": "uint256"
        },
        {
          "indexed": true,
          "internalType": "bytes32",
          "name": "metadata",
          "type": "bytes32"
        }
      ],
      "name": "OrdersMatched",
      "type": "event"
    },
    {
      "anonymous": false,
      "inputs": [
        {
          "indexed": true,
          "internalType": "address",
          "name": "previousOwner",
          "type": "address"
        },
        {
          "indexed": true,
          "internalType": "address",
          "name": "newOwner",
          "type": "address"
        }
      ],
      "name": "OwnershipTransferred",
      "type": "event"
    },
    {
      "inputs": [],
      "name": "INVERSE_BASIS_POINT",
      "outputs": [
        {
          "internalType": "uint256",
          "name": "",
          "type": "uint256"
        }
      ],
      "stateMutability": "view",
      "type": "function"
    },
    {
      "inputs": [
        {
          "internalType": "address[7]",
          "name": "addrs",
          "type": "address[7]"
        },
        {
          "internalType": "uint256[9]",
          "name": "uints",
          "type": "uint256[9]"
        },
        {
          "internalType": "enum ExchangeCore.FeeMethod",
          "name": "feeMethod",
          "type": "uint8"
        },
        {
          "internalType": "enum SaleKindInterface.Side",
          "name": "side",
          "type": "uint8"
        },
        {
          "internalType": "enum SaleKindInterface.SaleKind",
          "name": "saleKind",
          "type": "uint8"
        },
        {
          "internalType": "enum AuthenticatedProxy.HowToCall",
          "name": "howToCall",
          "type": "uint8"
        },
        {
          "internalType": "bytes",
          "name": "calldatas",
          "type": "bytes"
        },
        {
          "internalType": "bytes",
          "name": "replacementPattern",
          "type": "bytes"
        },
        {
          "internalType": "bytes",
          "name": "staticExtradata",
          "type": "bytes"
        },
        {
          "internalType": "bool",
          "name": "orderbookInclusionDesired",
          "type": "bool"
        }
      ],
      "name": "approveOrder_",
      "outputs": [],
      "stateMutability": "nonpayable",
      "type": "function"
    },
    {
      "inputs": [
        {
          "internalType": "bytes32",
          "name": "",
          "type": "bytes32"
        }
      ],
      "name": "approvedOrders",
      "outputs": [
        {
          "internalType": "bool",
          "name": "",
          "type": "bool"
        }
      ],
      "stateMutability": "view",
      "type": "function"
    },
    {
      "inputs": [
        {
          "internalType": "address[14]",
          "name": "addrs",
          "type": "address[14]"
        },
        {
          "internalType": "uint256[18]",
          "name": "uints",
          "type": "uint256[18]"
        },
        {
          "internalType": "uint8[8]",
          "name": "feeMethodsSidesKindsHowToCalls",
          "type": "uint8[8]"
        },
        {
          "internalType": "bytes",
          "name": "calldataBuy",
          "type": "bytes"
        },
        {
          "internalType": "bytes",
          "name": "calldataSell",
          "type": "bytes"
        },
        {
          "internalType": "bytes",
          "name": "replacementPatternBuy",
          "type": "bytes"
        },
        {
          "internalType": "bytes",
          "name": "replacementPatternSell",
          "type": "bytes"
        },
        {
          "internalType": "bytes",
          "name": "staticExtradataBuy",
          "type": "bytes"
        },
        {
          "internalType": "bytes",
          "name": "staticExtradataSell",
          "type": "bytes"
        },
        {
          "internalType": "uint8[2]",
          "name": "vs",
          "type": "uint8[2]"
        },
        {
          "internalType": "bytes32[5]",
          "name": "rssMetadata",
          "type": "bytes32[5]"
        }
      ],
      "name": "atomicMatch_",
      "outputs": [],
      "stateMutability": "payable",
      "type": "function"
    },
    {
      "inputs": [
        {
          "internalType": "address[7]",
          "name": "addrs",
          "type": "address[7]"
        },
        {
          "internalType": "uint256[9]",
          "name": "uints",
          "type": "uint256[9]"
        },
        {
          "internalType": "enum ExchangeCore.FeeMethod",
          "name": "feeMethod",
          "type": "uint8"
        },
        {
          "internalType": "enum SaleKindInterface.Side",
          "name": "side",
          "type": "uint8"
        },
        {
          "internalType": "enum SaleKindInterface.SaleKind",
          "name": "saleKind",
          "type": "uint8"
        },
        {
          "internalType": "enum AuthenticatedProxy.HowToCall",
          "name": "howToCall",
          "type": "uint8"
        },
        {
          "internalType": "bytes",
          "name": "calldatas",
          "type": "bytes"
        },
        {
          "internalType": "bytes",
          "name": "replacementPattern",
          "type": "bytes"
        },
        {
          "internalType": "bytes",
          "name": "staticExtradata",
          "type": "bytes"
        }
      ],
      "name": "calculateCurrentPrice_",
      "outputs": [
        {
          "internalType": "uint256",
          "name": "",
          "type": "uint256"
        }
      ],
      "stateMutability": "view",
      "type": "function"
    },
    {
      "inputs": [
        {
          "internalType": "enum SaleKindInterface.Side",
          "name": "side",
          "type": "uint8"
        },
        {
          "internalType": "enum SaleKindInterface.SaleKind",
          "name": "saleKind",
          "type": "uint8"
        },
        {
          "internalType": "uint256",
          "name": "basePrice",
          "type": "uint256"
        },
        {
          "internalType": "uint256",
          "name": "extra",
          "type": "uint256"
        },
        {
          "internalType": "uint256",
          "name": "listingTime",
          "type": "uint256"
        },
        {
          "internalType": "uint256",
          "name": "expirationTime",
          "type": "uint256"
        }
      ],
      "name": "calculateFinalPrice",
      "outputs": [
        {
          "internalType": "uint256",
          "name": "",
          "type": "uint256"
        }
      ],
      "stateMutability": "view",
      "type": "function"
    },
    {
      "inputs": [
        {
          "internalType": "address[14]",
          "name": "addrs",
          "type": "address[14]"
        },
        {
          "internalType": "uint256[18]",
          "name": "uints",
          "type": "uint256[18]"
        },
        {
          "internalType": "uint8[8]",
          "name": "feeMethodsSidesKindsHowToCalls",
          "type": "uint8[8]"
        },
        {
          "internalType": "bytes",
          "name": "calldataBuy",
          "type": "bytes"
        },
        {
          "internalType": "bytes",
          "name": "calldataSell",
          "type": "bytes"
        },
        {
          "internalType": "bytes",
          "name": "replacementPatternBuy",
          "type": "bytes"
        },
        {
          "internalType": "bytes",
          "name": "replacementPatternSell",
          "type": "bytes"
        },
        {
          "internalType": "bytes",
          "name": "staticExtradataBuy",
          "type": "bytes"
        },
        {
          "internalType": "bytes",
          "name": "staticExtradataSell",
          "type": "bytes"
        }
      ],
      "name": "calculateMatchPrice_",
      "outputs": [
        {
          "internalType": "uint256",
          "name": "",
          "type": "uint256"
        }
      ],
      "stateMutability": "view",
      "type": "function"
    },
    {
      "inputs": [
        {
          "internalType": "address[7]",
          "name": "addrs",
          "type": "address[7]"
        },
        {
          "internalType": "uint256[9]",
          "name": "uints",
          "type": "uint256[9]"
        },
        {
          "internalType": "enum ExchangeCore.FeeMethod",
          "name": "feeMethod",
          "type": "uint8"
        },
        {
          "internalType": "enum SaleKindInterface.Side",
          "name": "side",
          "type": "uint8"
        },
        {
          "internalType": "enum SaleKindInterface.SaleKind",
          "name": "saleKind",
          "type": "uint8"
        },
        {
          "internalType": "enum AuthenticatedProxy.HowToCall",
          "name": "howToCall",
          "type": "uint8"
        },
        {
          "internalType": "bytes",
          "name": "calldatas",
          "type": "bytes"
        },
        {
          "internalType": "bytes",
          "name": "replacementPattern",
          "type": "bytes"
        },
        {
          "internalType": "bytes",
          "name": "staticExtradata",
          "type": "bytes"
        },
        {
          "internalType": "uint8",
          "name": "v",
          "type": "uint8"
        },
        {
          "internalType": "bytes32",
          "name": "r",
          "type": "bytes32"
        },
        {
          "internalType": "bytes32",
          "name": "s",
          "type": "bytes32"
        }
      ],
      "name": "cancelOrder_",
      "outputs": [],
      "stateMutability": "nonpayable",
      "type": "function"
    },
    {
      "inputs": [
        {
          "internalType": "bytes32",
          "name": "",
          "type": "bytes32"
        }
      ],
      "name": "cancelledOrFinalized",
      "outputs": [
        {
          "internalType": "bool",
          "name": "",
          "type": "bool"
        }
      ],
      "stateMutability": "view",
      "type": "function"
    },
    {
      "inputs": [
        {
          "internalType": "address",
          "name": "newDevWalletAddress",
          "type": "address"
        }
      ],
      "name": "changeDevWalletAddress",
      "outputs": [],
      "stateMutability": "nonpayable",
      "type": "function"
    },
    {
      "inputs": [
        {
          "internalType": "uint256",
          "name": "newMinimumMakerProtocolFee",
          "type": "uint256"
        }
      ],
      "name": "changeMinimumMakerProtocolFee",
      "outputs": [],
      "stateMutability": "nonpayable",
      "type": "function"
    },
    {
      "inputs": [
        {
          "internalType": "uint256",
          "name": "newMinimumTakerProtocolFee",
          "type": "uint256"
        }
      ],
      "name": "changeMinimumTakerProtocolFee",
      "outputs": [],
      "stateMutability": "nonpayable",
      "type": "function"
    },
    {
      "inputs": [
        {
          "internalType": "address",
          "name": "newProtocolFeeRecipient",
          "type": "address"
        }
      ],
      "name": "changeProtocolFeeRecipient",
      "outputs": [],
      "stateMutability": "nonpayable",
      "type": "function"
    },
    {
      "inputs": [],
      "name": "codename",
      "outputs": [
        {
          "internalType": "string",
          "name": "",
          "type": "string"
        }
      ],
      "stateMutability": "view",
      "type": "function"
    },
    {
      "inputs": [],
      "name": "devWallet",
      "outputs": [
        {
          "internalType": "address",
          "name": "",
          "type": "address"
        }
      ],
      "stateMutability": "view",
      "type": "function"
    },
    {
      "inputs": [],
      "name": "exchangeToken",
      "outputs": [
        {
          "internalType": "contract ERC20",
          "name": "",
          "type": "address"
        }
      ],
      "stateMutability": "view",
      "type": "function"
    },
    {
      "inputs": [
        {
          "internalType": "bytes",
          "name": "array",
          "type": "bytes"
        },
        {
          "internalType": "bytes",
          "name": "desired",
          "type": "bytes"
        },
        {
          "internalType": "bytes",
          "name": "mask",
          "type": "bytes"
        }
      ],
      "name": "guardedArrayReplace",
      "outputs": [
        {
          "internalType": "bytes",
          "name": "",
          "type": "bytes"
        }
      ],
      "stateMutability": "pure",
      "type": "function"
    },
    {
      "inputs": [
        {
          "internalType": "address[7]",
          "name": "addrs",
          "type": "address[7]"
        },
        {
          "internalType": "uint256[9]",
          "name": "uints",
          "type": "uint256[9]"
        },
        {
          "internalType": "enum ExchangeCore.FeeMethod",
          "name": "feeMethod",
          "type": "uint8"
        },
        {
          "internalType": "enum SaleKindInterface.Side",
          "name": "side",
          "type": "uint8"
        },
        {
          "internalType": "enum SaleKindInterface.SaleKind",
          "name": "saleKind",
          "type": "uint8"
        },
        {
          "internalType": "enum AuthenticatedProxy.HowToCall",
          "name": "howToCall",
          "type": "uint8"
        },
        {
          "internalType": "bytes",
          "name": "calldatas",
          "type": "bytes"
        },
        {
          "internalType": "bytes",
          "name": "replacementPattern",
          "type": "bytes"
        },
        {
          "internalType": "bytes",
          "name": "staticExtradata",
          "type": "bytes"
        }
      ],
      "name": "hashOrder_",
      "outputs": [
        {
          "internalType": "bytes32",
          "name": "",
          "type": "bytes32"
        }
      ],
      "stateMutability": "pure",
      "type": "function"
    },
    {
      "inputs": [
        {
          "internalType": "address[7]",
          "name": "addrs",
          "type": "address[7]"
        },
        {
          "internalType": "uint256[9]",
          "name": "uints",
          "type": "uint256[9]"
        },
        {
          "internalType": "enum ExchangeCore.FeeMethod",
          "name": "feeMethod",
          "type": "uint8"
        },
        {
          "internalType": "enum SaleKindInterface.Side",
          "name": "side",
          "type": "uint8"
        },
        {
          "internalType": "enum SaleKindInterface.SaleKind",
          "name": "saleKind",
          "type": "uint8"
        },
        {
          "internalType": "enum AuthenticatedProxy.HowToCall",
          "name": "howToCall",
          "type": "uint8"
        },
        {
          "internalType": "bytes",
          "name": "calldatas",
          "type": "bytes"
        },
        {
          "internalType": "bytes",
          "name": "replacementPattern",
          "type": "bytes"
        },
        {
          "internalType": "bytes",
          "name": "staticExtradata",
          "type": "bytes"
        }
      ],
      "name": "hashToSign_",
      "outputs": [
        {
          "internalType": "bytes32",
          "name": "",
          "type": "bytes32"
        }
      ],
      "stateMutability": "pure",
      "type": "function"
    },
    {
      "inputs": [],
      "name": "minimumMakerProtocolFee",
      "outputs": [
        {
          "internalType": "uint256",
          "name": "",
          "type": "uint256"
        }
      ],
      "stateMutability": "view",
      "type": "function"
    },
    {
      "inputs": [],
      "name": "minimumTakerProtocolFee",
      "outputs": [
        {
          "internalType": "uint256",
          "name": "",
          "type": "uint256"
        }
      ],
      "stateMutability": "view",
      "type": "function"
    },
    {
      "inputs": [],
      "name": "name",
      "outputs": [
        {
          "internalType": "string",
          "name": "",
          "type": "string"
        }
      ],
      "stateMutability": "view",
      "type": "function"
    },
    {
      "inputs": [
        {
          "internalType": "bytes",
          "name": "buyCalldata",
          "type": "bytes"
        },
        {
          "internalType": "bytes",
          "name": "buyReplacementPattern",
          "type": "bytes"
        },
        {
          "internalType": "bytes",
          "name": "sellCalldata",
          "type": "bytes"
        },
        {
          "internalType": "bytes",
          "name": "sellReplacementPattern",
          "type": "bytes"
        }
      ],
      "name": "orderCalldataCanMatch",
      "outputs": [
        {
          "internalType": "bool",
          "name": "",
          "type": "bool"
        }
      ],
      "stateMutability": "pure",
      "type": "function"
    },
    {
      "inputs": [
        {
          "internalType": "address[14]",
          "name": "addrs",
          "type": "address[14]"
        },
        {
          "internalType": "uint256[18]",
          "name": "uints",
          "type": "uint256[18]"
        },
        {
          "internalType": "uint8[8]",
          "name": "feeMethodsSidesKindsHowToCalls",
          "type": "uint8[8]"
        },
        {
          "internalType": "bytes",
          "name": "calldataBuy",
          "type": "bytes"
        },
        {
          "internalType": "bytes",
          "name": "calldataSell",
          "type": "bytes"
        },
        {
          "internalType": "bytes",
          "name": "replacementPatternBuy",
          "type": "bytes"
        },
        {
          "internalType": "bytes",
          "name": "replacementPatternSell",
          "type": "bytes"
        },
        {
          "internalType": "bytes",
          "name": "staticExtradataBuy",
          "type": "bytes"
        },
        {
          "internalType": "bytes",
          "name": "staticExtradataSell",
          "type": "bytes"
        }
      ],
      "name": "ordersCanMatch_",
      "outputs": [
        {
          "internalType": "bool",
          "name": "",
          "type": "bool"
        }
      ],
      "stateMutability": "view",
      "type": "function"
    },
    {
      "inputs": [],
      "name": "owner",
      "outputs": [
        {
          "internalType": "address",
          "name": "",
          "type": "address"
        }
      ],
      "stateMutability": "view",
      "type": "function"
    },
    {
      "inputs": [],
      "name": "protocolFeeRecipient",
      "outputs": [
        {
          "internalType": "address",
          "name": "",
          "type": "address"
        }
      ],
      "stateMutability": "view",
      "type": "function"
    },
    {
      "inputs": [],
      "name": "registry",
      "outputs": [
        {
          "internalType": "contract ProxyRegistry",
          "name": "",
          "type": "address"
        }
      ],
      "stateMutability": "view",
      "type": "function"
    },
    {
      "inputs": [],
      "name": "renounceOwnership",
      "outputs": [],
      "stateMutability": "nonpayable",
      "type": "function"
    },
    {
      "inputs": [
        {
          "internalType": "address",
          "name": "target",
          "type": "address"
        },
        {
          "internalType": "bytes",
          "name": "calldatas",
          "type": "bytes"
        },
        {
          "internalType": "bytes",
          "name": "extradata",
          "type": "bytes"
        }
      ],
      "name": "staticCall",
      "outputs": [
        {
          "internalType": "bool",
          "name": "result",
          "type": "bool"
        }
      ],
      "stateMutability": "view",
      "type": "function"
    },
    {
      "inputs": [
        {
          "internalType": "bytes",
          "name": "arrToCopy",
          "type": "bytes"
        }
      ],
      "name": "testCopy",
      "outputs": [
        {
          "internalType": "bytes",
          "name": "",
          "type": "bytes"
        }
      ],
      "stateMutability": "pure",
      "type": "function"
    },
    {
      "inputs": [
        {
          "internalType": "address",
          "name": "addr",
          "type": "address"
        }
      ],
      "name": "testCopyAddress",
      "outputs": [
        {
          "internalType": "bytes",
          "name": "",
          "type": "bytes"
        }
      ],
      "stateMutability": "pure",
      "type": "function"
    },
    {
      "inputs": [],
      "name": "tokenTransferProxy",
      "outputs": [
        {
          "internalType": "contract TokenTransferProxy",
          "name": "",
          "type": "address"
        }
      ],
      "stateMutability": "view",
      "type": "function"
    },
    {
      "inputs": [
        {
          "internalType": "address",
          "name": "newOwner",
          "type": "address"
        }
      ],
      "name": "transferOwnership",
      "outputs": [],
      "stateMutability": "nonpayable",
      "type": "function"
    },
    {
      "inputs": [
        {
          "internalType": "address[7]",
          "name": "addrs",
          "type": "address[7]"
        },
        {
          "internalType": "uint256[9]",
          "name": "uints",
          "type": "uint256[9]"
        },
        {
          "internalType": "enum ExchangeCore.FeeMethod",
          "name": "feeMethod",
          "type": "uint8"
        },
        {
          "internalType": "enum SaleKindInterface.Side",
          "name": "side",
          "type": "uint8"
        },
        {
          "internalType": "enum SaleKindInterface.SaleKind",
          "name": "saleKind",
          "type": "uint8"
        },
        {
          "internalType": "enum AuthenticatedProxy.HowToCall",
          "name": "howToCall",
          "type": "uint8"
        },
        {
          "internalType": "bytes",
          "name": "calldatas",
          "type": "bytes"
        },
        {
          "internalType": "bytes",
          "name": "replacementPattern",
          "type": "bytes"
        },
        {
          "internalType": "bytes",
          "name": "staticExtradata",
          "type": "bytes"
        }
      ],
      "name": "validateOrderParameters_",
      "outputs": [
        {
          "internalType": "bool",
          "name": "",
          "type": "bool"
        }
      ],
      "stateMutability": "view",
      "type": "function"
    },
    {
      "inputs": [
        {
          "internalType": "address[7]",
          "name": "addrs",
          "type": "address[7]"
        },
        {
          "internalType": "uint256[9]",
          "name": "uints",
          "type": "uint256[9]"
        },
        {
          "internalType": "enum ExchangeCore.FeeMethod",
          "name": "feeMethod",
          "type": "uint8"
        },
        {
          "internalType": "enum SaleKindInterface.Side",
          "name": "side",
          "type": "uint8"
        },
        {
          "internalType": "enum SaleKindInterface.SaleKind",
          "name": "saleKind",
          "type": "uint8"
        },
        {
          "internalType": "enum AuthenticatedProxy.HowToCall",
          "name": "howToCall",
          "type": "uint8"
        },
        {
          "internalType": "bytes",
          "name": "calldatas",
          "type": "bytes"
        },
        {
          "internalType": "bytes",
          "name": "replacementPattern",
          "type": "bytes"
        },
        {
          "internalType": "bytes",
          "name": "staticExtradata",
          "type": "bytes"
        },
        {
          "internalType": "uint8",
          "name": "v",
          "type": "uint8"
        },
        {
          "internalType": "bytes32",
          "name": "r",
          "type": "bytes32"
        },
        {
          "internalType": "bytes32",
          "name": "s",
          "type": "bytes32"
        }
      ],
      "name": "validateOrder_",
      "outputs": [
        {
          "internalType": "bool",
          "name": "",
          "type": "bool"
        }
      ],
      "stateMutability": "view",
      "type": "function"
    },
    {
      "inputs": [],
      "name": "version",
      "outputs": [
        {
          "internalType": "string",
          "name": "",
          "type": "string"
        }
      ],
      "stateMutability": "view",
      "type": "function"
    }
  ],
  "bytecode": "0x60806040526000805460ff1916815560068190556007553480156200002357600080fd5b50604051620058393803806200583983398101604081905262000046916200010d565b6200005133620000b4565b600280546001600160a01b03199081166001600160a01b03978816179091556003805482169587169590951790945560018054851693861693909317909255600880548416918516919091179055600980549092169216919091179055620001a6565b600080546001600160a01b03838116610100818102610100600160a81b0319851617855560405193049190911692909183917f8be0079c531659141344cd1fd0a4f28419497f9722a3daafe3b4186f6b6457e091a35050565b600080600080600060a086880312156200012657600080fd5b855162000133816200018d565b602087015190955062000146816200018d565b604087015190945062000159816200018d565b60608701519093506200016c816200018d565b60808701519092506200017f816200018d565b809150509295509295909350565b6001600160a01b0381168114620001a357600080fd5b50565b61568380620001b66000396000f3fe60806040526004361061020f5760003560e01c8063715018a6116101185780638ea5220f116100a0578063ca595b9a1161006f578063ca595b9a14610679578063cae6047f14610699578063d537e131146106af578063e57d4adb146106cf578063f2fde38b146106ff57600080fd5b80638ea5220f14610606578063a25eb5d914610626578063a8a41c7014610646578063ab834bab1461066657600080fd5b80637b103999116100e75780637b1039991461055d5780637ccefc521461057d5780637d766981146105935780638076f005146105b35780638da5cb5b146105e357600080fd5b8063715018a6146104e857806371d02b38146104fd57806372593b4c1461051d578063796668681461053d57600080fd5b80633e1e292a1161019b57806354fd4d501161016a57806354fd4d5014610439578063562b2ebc1461046857806360bef33a1461048857806363d36c0b146104a857806364df049e146104c857600080fd5b80633e1e292a146103b95780633f67ee0d146103d95780633fcaeb74146103f9578063514f03301461041957600080fd5b80631a6b13e2116101e25780631a6b13e2146102fd578063239e83df1461031d57806328a8ee681461033d57806331e63199146103615780633464af6a1461039957600080fd5b806306fdde03146102145780630eefdbad1461027357806310796a47146102ab57806314350c24146102db575b600080fd5b34801561022057600080fd5b5061025d6040518060400160405280601781526020017f50726f6a6563742057797665726e2045786368616e676500000000000000000081525081565b60405161026a9190615422565b60405180910390f35b34801561027f57600080fd5b50600354610293906001600160a01b031681565b6040516001600160a01b03909116815260200161026a565b3480156102b757600080fd5b506102cb6102c6366004614b4b565b61071f565b604051901515815260200161026a565b3480156102e757600080fd5b506102fb6102f636600461517e565b6107a9565b005b34801561030957600080fd5b506102fb61031836600461517e565b6107e7565b34801561032957600080fd5b5061025d6103383660046151d3565b61081c565b34801561034957600080fd5b5061035360075481565b60405190815260200161026a565b34801561036d57600080fd5b5061025d6040518060400160405280600c81526020016b4c616d62746f6e20576f726d60a01b81525081565b3480156103a557600080fd5b5061025d6103b4366004614b11565b610831565b3480156103c557600080fd5b5061025d6103d4366004615197565b61086d565b3480156103e557600080fd5b506103536103f4366004614e57565b6108c5565b34801561040557600080fd5b506102fb610414366004614b11565b610b2f565b34801561042557600080fd5b506102fb610434366004614b11565b610b81565b34801561044557600080fd5b5061025d6040518060400160405280600381526020016219171960e91b81525081565b34801561047457600080fd5b506102cb610483366004615221565b610bd3565b34801561049457600080fd5b506102cb6104a3366004615034565b610c0d565b3480156104b457600080fd5b506103536104c33660046152cd565b610ebc565b3480156104d457600080fd5b50600854610293906001600160a01b031681565b3480156104f457600080fd5b506102fb610ed9565b34801561050957600080fd5b50610353610518366004614e57565b610f15565b34801561052957600080fd5b506102cb610538366004614bc0565b611171565b34801561054957600080fd5b506102fb610558366004614f2e565b61171c565b34801561056957600080fd5b50600254610293906001600160a01b031681565b34801561058957600080fd5b5061035360065481565b34801561059f57600080fd5b506103536105ae366004614e57565b611989565b3480156105bf57600080fd5b506102cb6105ce36600461517e565b60046020526000908152604090205460ff1681565b3480156105ef57600080fd5b5060005461010090046001600160a01b0316610293565b34801561061257600080fd5b50600954610293906001600160a01b031681565b34801561063257600080fd5b50600154610293906001600160a01b031681565b34801561065257600080fd5b506102fb610661366004615034565b611be5565b6102fb610674366004614cf2565b611e7f565b34801561068557600080fd5b506102cb610694366004614e57565b6124be565b3480156106a557600080fd5b5061035361271081565b3480156106bb57600080fd5b506103536106ca366004614bc0565b61272d565b3480156106db57600080fd5b506102cb6106ea36600461517e565b60056020526000908152604090205460ff1681565b34801561070b57600080fd5b506102fb61071a366004614b11565b612cc8565b600080825184516107309190615506565b6001600160401b03811115610747576107476155e9565b6040519080825280601f01601f191660200182016040528015610771576020820181803683370190505b509050602081016107828185612d69565b905061078e8186612d69565b506000604051835160208501895afa925050505b9392505050565b6000546001600160a01b036101009091041633146107e25760405162461bcd60e51b81526004016107d9906154d1565b60405180910390fd5b600655565b6000546001600160a01b036101009091041633146108175760405162461bcd60e51b81526004016107d9906154d1565b600755565b6060610829848484612dac565b509192915050565b60408051601480825281830190925260609160009190602082018180368337019050509050602081016108648185612f38565b50909392505050565b6060600082516001600160401b0381111561088a5761088a6155e9565b6040519080825280601f01601f1916602001820160405280156108b4576020820181803683370190505b509050602081016108648185612d69565b6000610b21604051806102e001604052808c6000600781106108e9576108e96155d3565b60200201516001600160a01b031681526020018c60016007811061090f5761090f6155d3565b60200201516001600160a01b031681526020018c600260078110610935576109356155d3565b60200201516001600160a01b031681526020018b60006009811061095b5761095b6155d3565b602002015181526020018b600160098110610978576109786155d3565b602002015181526020018b600260098110610995576109956155d3565b602002015181526020018b6003600981106109b2576109b26155d3565b602002015181526020018c6003600781106109cf576109cf6155d3565b60200201516001600160a01b031681526020018a60018111156109f4576109f46155bd565b8152602001896001811115610a0b57610a0b6155bd565b8152602001886001811115610a2257610a226155bd565b815260808d01516001600160a01b03166020820152604001876001811115610a4c57610a4c6155bd565b8152602081018790526040810186905260a0808e01516001600160a01b0316606083015260808201869052018c600660200201516001600160a01b031681526020018b600460098110610aa157610aa16155d3565b602002015181526020018b600560098110610abe57610abe6155d3565b602002015181526020018b600660098110610adb57610adb6155d3565b602002015181526020018b600760098110610af857610af86155d3565b602002015181526020018b600860098110610b1557610b156155d3565b60200201519052612f52565b9a9950505050505050505050565b6000546001600160a01b03610100909104163314610b5f5760405162461bcd60e51b81526004016107d9906154d1565b600980546001600160a01b0319166001600160a01b0392909216919091179055565b6000546001600160a01b03610100909104163314610bb15760405162461bcd60e51b81526004016107d9906154d1565b600880546001600160a01b0319166001600160a01b0392909216919091179055565b825160009015610be857610be8858486612dac565b815115610bfa57610bfa838684612dac565b610c048584612f86565b95945050505050565b600080604051806102e001604052808f600060078110610c2f57610c2f6155d3565b60200201516001600160a01b031681526020018f600160078110610c5557610c556155d3565b60200201516001600160a01b031681526020018f600260078110610c7b57610c7b6155d3565b60200201516001600160a01b031681526020018e600060098110610ca157610ca16155d3565b602002015181526020018e600160098110610cbe57610cbe6155d3565b602002015181526020018e600260098110610cdb57610cdb6155d3565b602002015181526020018e600360098110610cf857610cf86155d3565b602002015181526020018f600360078110610d1557610d156155d3565b60200201516001600160a01b031681526020018d6001811115610d3a57610d3a6155bd565b81526020018c6001811115610d5157610d516155bd565b81526020018b6001811115610d6857610d686155bd565b81526020018f600460200201516001600160a01b031681526020018a6001811115610d9557610d956155bd565b8152602081018a9052604081018990526060018f600560200201516001600160a01b031681526020018781526020018f600660078110610dd757610dd76155d3565b60200201516001600160a01b031681526020018e600460098110610dfd57610dfd6155d3565b602002015181526020018e600560098110610e1a57610e1a6155d3565b602002015181526020018e600660098110610e3757610e376155d3565b602002015181526020018e600760098110610e5457610e546155d3565b602002015181526020018e600860098110610e7157610e716155d3565b602002015190529050610eaa610e8682612fea565b8260405180606001604052808960ff16815260200188815260200187815250613046565b9e9d5050505050505050505050505050565b6000610ecc87878787878761312c565b90505b9695505050505050565b6000546001600160a01b03610100909104163314610f095760405162461bcd60e51b81526004016107d9906154d1565b610f1360006131c7565b565b6000610b21604051806102e001604052808c600060078110610f3957610f396155d3565b60200201516001600160a01b031681526020018c600160078110610f5f57610f5f6155d3565b60200201516001600160a01b031681526020018c600260078110610f8557610f856155d3565b60200201516001600160a01b031681526020018b600060098110610fab57610fab6155d3565b602002015181526020018b600160098110610fc857610fc86155d3565b602002015181526020018b600260098110610fe557610fe56155d3565b602002015181526020018b600360098110611002576110026155d3565b602002015181526020018c60036007811061101f5761101f6155d3565b60200201516001600160a01b031681526020018a6001811115611044576110446155bd565b815260200189600181111561105b5761105b6155bd565b8152602001886001811115611072576110726155bd565b815260808d01516001600160a01b0316602082015260400187600181111561109c5761109c6155bd565b8152602081018790526040810186905260a0808e01516001600160a01b0316606083015260808201869052018c600660200201516001600160a01b031681526020018b6004600981106110f1576110f16155d3565b602002015181526020018b60056009811061110e5761110e6155d3565b602002015181526020018b60066009811061112b5761112b6155d3565b602002015181526020018b600760098110611148576111486155d3565b602002015181526020018b600860098110611165576111656155d3565b60200201519052613220565b600080604051806102e001604052808c6000600e8110611193576111936155d3565b60200201516001600160a01b031681526020018c6001600e81106111b9576111b96155d3565b60200201516001600160a01b031681526020018c6002600e81106111df576111df6155d3565b60200201516001600160a01b031681526020018b600060128110611205576112056155d3565b602002015181526020018b600160128110611222576112226155d3565b602002015181526020018b60026012811061123f5761123f6155d3565b602002015181526020018b60036012811061125c5761125c6155d3565b602002015181526020018c6003600e8110611279576112796155d3565b60200201516001600160a01b031681526020018a60006008811061129f5761129f6155d3565b602002015160ff1660018111156112b8576112b86155bd565b60018111156112c9576112c96155bd565b81526020018a6001602002015160ff1660018111156112ea576112ea6155bd565b60018111156112fb576112fb6155bd565b81526020018a6002602002015160ff16600181111561131c5761131c6155bd565b600181111561132d5761132d6155bd565b815260808d01516001600160a01b031660208201526040018a6003602002015160ff166001811115611361576113616155bd565b6001811115611372576113726155bd565b8152602081018a90526040810188905260a0808e01516001600160a01b0316606083015260808201879052018c600660200201516001600160a01b031681526020018b6004601281106113c7576113c76155d3565b602002015181526020018b6005601281106113e4576113e46155d3565b602002015181526020018b600660128110611401576114016155d3565b602002015181526020018b60076012811061141e5761141e6155d3565b602002015181526020018b60086012811061143b5761143b6155d3565b602002015181525090506000604051806102e001604052808d6007600e8110611466576114666155d3565b60200201516001600160a01b031681526020018d6008600e811061148c5761148c6155d3565b60200201516001600160a01b031681526020018d6009600e81106114b2576114b26155d3565b60200201516001600160a01b031681526020018c6009601281106114d8576114d86155d3565b602002015181526020018c600a601281106114f5576114f56155d3565b602002015181526020018c600b60128110611512576115126155d3565b602002015181526020018c600c6012811061152f5761152f6155d3565b602002015181526020018d600a600e811061154c5761154c6155d3565b60200201516001600160a01b031681526020018b600460088110611572576115726155d3565b602002015160ff16600181111561158b5761158b6155bd565b600181111561159c5761159c6155bd565b81526020018b6005602002015160ff1660018111156115bd576115bd6155bd565b60018111156115ce576115ce6155bd565b81526020018b6006602002015160ff1660018111156115ef576115ef6155bd565b6001811115611600576116006155bd565b81526101608e01516001600160a01b031660208201526040018b6007602002015160ff166001811115611635576116356155bd565b6001811115611646576116466155bd565b8152602081018a9052604081018890526101808e01516001600160a01b039081166060830152608082018790526101a08f01511660a082015260c0018c600d602002015181526020018c600e601281106116a2576116a26155d3565b602002015181526020018c600f601281106116bf576116bf6155d3565b602002015181526020018c6010601281106116dc576116dc6155d3565b602002015181526020018c6011601281106116f9576116f96155d3565b60200201519052905061170c828261340b565b9c9b505050505050505050505050565b6000604051806102e001604052808c60006007811061173d5761173d6155d3565b60200201516001600160a01b031681526020018c600160078110611763576117636155d3565b60200201516001600160a01b031681526020018c600260078110611789576117896155d3565b60200201516001600160a01b031681526020018b6000600981106117af576117af6155d3565b602002015181526020018b6001600981106117cc576117cc6155d3565b602002015181526020018b6002600981106117e9576117e96155d3565b602002015181526020018b600360098110611806576118066155d3565b602002015181526020018c600360078110611823576118236155d3565b60200201516001600160a01b031681526020018a6001811115611848576118486155bd565b815260200189600181111561185f5761185f6155bd565b8152602001886001811115611876576118766155bd565b815260808d01516001600160a01b031660208201526040018760018111156118a0576118a06155bd565b8152602081018790526040810186905260a0808e01516001600160a01b0316606083015260808201869052018c600660200201516001600160a01b031681526020018b6004600981106118f5576118f56155d3565b602002015181526020018b600560098110611912576119126155d3565b602002015181526020018b60066009811061192f5761192f6155d3565b602002015181526020018b60076009811061194c5761194c6155d3565b602002015181526020018b600860098110611969576119696155d3565b60200201519052905061197c8183613609565b5050505050505050505050565b6000610b21604051806102e001604052808c6000600781106119ad576119ad6155d3565b60200201516001600160a01b031681526020018c6001600781106119d3576119d36155d3565b60200201516001600160a01b031681526020018c6002600781106119f9576119f96155d3565b60200201516001600160a01b031681526020018b600060098110611a1f57611a1f6155d3565b602002015181526020018b600160098110611a3c57611a3c6155d3565b602002015181526020018b600260098110611a5957611a596155d3565b602002015181526020018b600360098110611a7657611a766155d3565b602002015181526020018c600360078110611a9357611a936155d3565b60200201516001600160a01b031681526020018a6001811115611ab857611ab86155bd565b8152602001896001811115611acf57611acf6155bd565b8152602001886001811115611ae657611ae66155bd565b815260808d01516001600160a01b03166020820152604001876001811115611b1057611b106155bd565b8152602081018790526040810186905260a0808e01516001600160a01b0316606083015260808201869052018c600660200201516001600160a01b031681526020018b600460098110611b6557611b656155d3565b602002015181526020018b600560098110611b8257611b826155d3565b602002015181526020018b600660098110611b9f57611b9f6155d3565b602002015181526020018b600760098110611bbc57611bbc6155d3565b602002015181526020018b600860098110611bd957611bd96155d3565b60200201519052612fea565b611e71604051806102e001604052808e600060078110611c0757611c076155d3565b60200201516001600160a01b031681526020018e600160078110611c2d57611c2d6155d3565b60200201516001600160a01b031681526020018e600260078110611c5357611c536155d3565b60200201516001600160a01b031681526020018d600060098110611c7957611c796155d3565b602002015181526020018d600160098110611c9657611c966155d3565b602002015181526020018d600260098110611cb357611cb36155d3565b602002015181526020018d600360098110611cd057611cd06155d3565b602002015181526020018e600360078110611ced57611ced6155d3565b60200201516001600160a01b031681526020018c6001811115611d1257611d126155bd565b81526020018b6001811115611d2957611d296155bd565b81526020018a6001811115611d4057611d406155bd565b815260808f01516001600160a01b03166020820152604001896001811115611d6a57611d6a6155bd565b815260208101899052604081018890526060018e600560200201516001600160a01b031681526020018681526020018e600660078110611dac57611dac6155d3565b60200201516001600160a01b031681526020018d600460098110611dd257611dd26155d3565b602002015181526020018d600560098110611def57611def6155d3565b602002015181526020018d600660098110611e0c57611e0c6155d3565b602002015181526020018d600760098110611e2957611e296155d3565b602002015181526020018d600860098110611e4657611e466155d3565b602002015181525060405180606001604052808660ff1681526020018581526020018481525061379d565b505050505050505050505050565b61197c604051806102e001604052808d6000600e8110611ea157611ea16155d3565b60200201516001600160a01b031681526020018d6001600e8110611ec757611ec76155d3565b60200201516001600160a01b031681526020018d6002600e8110611eed57611eed6155d3565b60200201516001600160a01b031681526020018c600060128110611f1357611f136155d3565b602002015181526020018c600160128110611f3057611f306155d3565b602002015181526020018c600260128110611f4d57611f4d6155d3565b602002015181526020018c600360128110611f6a57611f6a6155d3565b602002015181526020018d6003600e8110611f8757611f876155d3565b60200201516001600160a01b031681526020018b600060088110611fad57611fad6155d3565b602002015160ff166001811115611fc657611fc66155bd565b6001811115611fd757611fd76155bd565b81526020018b6001602002015160ff166001811115611ff857611ff86155bd565b6001811115612009576120096155bd565b81526020018b6002602002015160ff16600181111561202a5761202a6155bd565b600181111561203b5761203b6155bd565b815260808e01516001600160a01b031660208201526040018b6003602002015160ff16600181111561206f5761206f6155bd565b6001811115612080576120806155bd565b8152602081018b90526040810189905260a0808f01516001600160a01b0316606083015260808201889052018d600660200201516001600160a01b031681526020018c6004601281106120d5576120d56155d3565b602002015181526020018c6005601281106120f2576120f26155d3565b602002015181526020018c60066012811061210f5761210f6155d3565b602002015181526020018c60076012811061212c5761212c6155d3565b602002015181526020018c600860128110612149576121496155d3565b6020908102919091015190915260408051606081018252865160ff168152855192810192909252810184600160200201519052604080516102e08101909152808f600760200201516001600160a01b031681526020018f6008600e81106121b2576121b26155d3565b60200201516001600160a01b031681526020018f6009600e81106121d8576121d86155d3565b60200201516001600160a01b031681526020018e6009601281106121fe576121fe6155d3565b602002015181526020018e600a6012811061221b5761221b6155d3565b602002015181526020018e600b60128110612238576122386155d3565b602002015181526020018e600c60128110612255576122556155d3565b602002015181526020018f600a600e8110612272576122726155d3565b60200201516001600160a01b031681526020018d600460088110612298576122986155d3565b602002015160ff1660018111156122b1576122b16155bd565b60018111156122c2576122c26155bd565b81526020018d6005602002015160ff1660018111156122e3576122e36155bd565b60018111156122f4576122f46155bd565b81526020018d6006602002015160ff166001811115612315576123156155bd565b6001811115612326576123266155bd565b81526020018f600b60200201516001600160a01b031681526020018d600760088110612354576123546155d3565b602002015160ff16600181111561236d5761236d6155bd565b600181111561237e5761237e6155bd565b8152602081018c9052604081018a90526060018f600c60200201516001600160a01b031681526020018781526020018f600d600e81106123c0576123c06155d3565b60200201516001600160a01b031681526020018e600d601281106123e6576123e66155d3565b602002015181526020018e600e60128110612403576124036155d3565b602002015181526020018e600f60128110612420576124206155d3565b602002015181526020018e60106012811061243d5761243d6155d3565b602002015181526020018e60116012811061245a5761245a6155d3565b60200201519052604080516060810190915280876001602002015160ff16815260200186600260058110612490576124906155d3565b60200201518152602001866003600581106124ad576124ad6155d3565b602002015190526080860151613812565b600080604051806102e001604052808c6000600781106124e0576124e06155d3565b60200201516001600160a01b031681526020018c600160078110612506576125066155d3565b60200201516001600160a01b031681526020018c60026007811061252c5761252c6155d3565b60200201516001600160a01b031681526020018b600060098110612552576125526155d3565b602002015181526020018b60016009811061256f5761256f6155d3565b602002015181526020018b60026009811061258c5761258c6155d3565b602002015181526020018b6003600981106125a9576125a96155d3565b602002015181526020018c6003600781106125c6576125c66155d3565b60200201516001600160a01b031681526020018a60018111156125eb576125eb6155bd565b8152602001896001811115612602576126026155bd565b8152602001886001811115612619576126196155bd565b815260808d01516001600160a01b03166020820152604001876001811115612643576126436155bd565b8152602081018790526040810186905260a0808e01516001600160a01b0316606083015260808201869052018c600660200201516001600160a01b031681526020018b600460098110612698576126986155d3565b602002015181526020018b6005600981106126b5576126b56155d3565b602002015181526020018b6006600981106126d2576126d26155d3565b602002015181526020018b6007600981106126ef576126ef6155d3565b602002015181526020018b60086009811061270c5761270c6155d3565b60200201519052905061271e81613d0e565b9b9a5050505050505050505050565b600080604051806102e001604052808c6000600e811061274f5761274f6155d3565b60200201516001600160a01b031681526020018c6001600e8110612775576127756155d3565b60200201516001600160a01b031681526020018c6002600e811061279b5761279b6155d3565b60200201516001600160a01b031681526020018b6000601281106127c1576127c16155d3565b602002015181526020018b6001601281106127de576127de6155d3565b602002015181526020018b6002601281106127fb576127fb6155d3565b602002015181526020018b600360128110612818576128186155d3565b602002015181526020018c6003600e8110612835576128356155d3565b60200201516001600160a01b031681526020018a60006008811061285b5761285b6155d3565b602002015160ff166001811115612874576128746155bd565b6001811115612885576128856155bd565b81526020018a6001602002015160ff1660018111156128a6576128a66155bd565b60018111156128b7576128b76155bd565b81526020018a6002602002015160ff1660018111156128d8576128d86155bd565b60018111156128e9576128e96155bd565b815260808d01516001600160a01b031660208201526040018a6003602002015160ff16600181111561291d5761291d6155bd565b600181111561292e5761292e6155bd565b8152602081018a90526040810188905260a0808e01516001600160a01b0316606083015260808201879052018c600660200201516001600160a01b031681526020018b600460128110612983576129836155d3565b602002015181526020018b6005601281106129a0576129a06155d3565b602002015181526020018b6006601281106129bd576129bd6155d3565b602002015181526020018b6007601281106129da576129da6155d3565b602002015181526020018b6008601281106129f7576129f76155d3565b602002015181525090506000604051806102e001604052808d6007600e8110612a2257612a226155d3565b60200201516001600160a01b031681526020018d6008600e8110612a4857612a486155d3565b60200201516001600160a01b031681526020018d6009600e8110612a6e57612a6e6155d3565b60200201516001600160a01b031681526020018c600960128110612a9457612a946155d3565b602002015181526020018c600a60128110612ab157612ab16155d3565b602002015181526020018c600b60128110612ace57612ace6155d3565b602002015181526020018c600c60128110612aeb57612aeb6155d3565b602002015181526020018d600a600e8110612b0857612b086155d3565b60200201516001600160a01b031681526020018b600460088110612b2e57612b2e6155d3565b602002015160ff166001811115612b4757612b476155bd565b6001811115612b5857612b586155bd565b81526020018b6005602002015160ff166001811115612b7957612b796155bd565b6001811115612b8a57612b8a6155bd565b81526020018b6006602002015160ff166001811115612bab57612bab6155bd565b6001811115612bbc57612bbc6155bd565b81526101608e01516001600160a01b031660208201526040018b6007602002015160ff166001811115612bf157612bf16155bd565b6001811115612c0257612c026155bd565b8152602081018a9052604081018890526101808e01516001600160a01b039081166060830152608082018790526101a08f01511660a082015260c0018c600d602002015181526020018c600e60128110612c5e57612c5e6155d3565b602002015181526020018c600f60128110612c7b57612c7b6155d3565b602002015181526020018c601060128110612c9857612c986155d3565b602002015181526020018c601160128110612cb557612cb56155d3565b60200201519052905061170c8282613d99565b6000546001600160a01b03610100909104163314612cf85760405162461bcd60e51b81526004016107d9906154d1565b6001600160a01b038116612d5d5760405162461bcd60e51b815260206004820152602660248201527f4f776e61626c653a206e6577206f776e657220697320746865207a65726f206160448201526564647265737360d01b60648201526084016107d9565b612d66816131c7565b50565b805160009015612da557815180602001830160208401855b60018383101415612d9c578151815260209182019101612d81565b50505092909201915b5090919050565b8151835114612dba57600080fd5b8051835114612dc857600080fd5b600060208451612dd8919061551e565b90506000612de7826020615540565b905081612df560208361551e565b14612e0257612e02615591565b60005b82811015612e3f57806001016020028085015181870151811682890151821916178289015250508080612e3790615576565b915050612e05565b8215612e6c5782905080600101602002808501518187015181168289015182191617828901525050612f30565b50805b8551811015612f3057848181518110612e8a57612e8a6155d3565b602001015160f81c60f81b848281518110612ea757612ea76155d3565b602001015160f81c60f81b16868281518110612ec557612ec56155d3565b602001015160f81c60f81b858381518110612ee257612ee26155d3565b602001015160f81c60f81b60ff60f81b181617868281518110612f0757612f076155d3565b60200101906001600160f81b031916908160001a90535080612f2881615576565b915050612e6f565b505050505050565b60601b6bffffffffffffffffffffffff1916815260140190565b6000612f80826101200151836101400151846102400151856102600151866102800151876102a0015161312c565b92915050565b815181516000916001918114808314612fa25760009250612fe0565b600160208701838101602088015b600284838510011415612fdb578051835114612fcf5760009650600093505b60209283019201612fb0565b505050505b5090949350505050565b6000612ff582613220565b6040517f19457468657265756d205369676e6564204d6573736167653a0a3332000000006020820152603c810191909152605c01604051602081830303815290604052805190602001209050919050565b600061305183613d0e565b61305d575060006107a2565b60008481526004602052604090205460ff161561307c575060006107a2565b60008481526005602052604090205460ff161561309b575060016107a2565b6020808401518351848301516040808701518151600081529586018083528a905260ff90931690850152606084015260808301526001600160a01b03169060019060a0016020604051602081039080840390855afa158015613101573d6000803e3d6000fd5b505050602060405103516001600160a01b03161415613122575060016107a2565b5060009392505050565b600080866001811115613141576131416155bd565b141561314e575083610ecf565b6001866001811115613162576131626155bd565b1415610ecf57600061318f6131808661317b4288613e27565b613e33565b61318a8587613e27565b613e3f565b905060018860018111156131a5576131a56155bd565b14156131bd576131b58682613e27565b915050610ecf565b6131b58682613e4b565b600080546001600160a01b03838116610100818102610100600160a81b0319851617855560405193049190911692909183917f8be0079c531659141344cd1fd0a4f28419497f9722a3daafe3b4186f6b6457e091a35050565b60008061322c83613e57565b90506000816001600160401b03811115613248576132486155e9565b6040519080825280601f01601f191660200182016040528015613272576020820181803683370190505b5084519091506020820190613288908290612f38565b9050613298818660200151612f38565b90506132a8818660400151612f38565b6060868101518252608080880151602084015260a0880151604084015260c08801519183019190915260e0870151910191506132e5908290612f38565b9050613307818661010001516001811115613302576133026155bd565b613e8f565b9050613324818661012001516001811115613302576133026155bd565b9050613341818661014001516001811115613302576133026155bd565b905061335281866101600151612f38565b905061336f818661018001516001811115613302576133026155bd565b905061338081866101a00151612d69565b905061339181866101c00151612d69565b90506133a281866101e00151612f38565b90506133b381866102000151612d69565b90506133c481866102200151612f38565b610240860151815261026086015160208083019190915261028087015160408301526102a087015160608301526102c0909601516080909101525090920191909120919050565b6000808361012001516001811115613425576134256155bd565b148015613448575060018261012001516001811115613446576134466155bd565b145b801561347f57508161010001516001811115613466576134666155bd565b836101000151600181111561347d5761347d6155bd565b145b80156134a657508161022001516001600160a01b03168361022001516001600160a01b0316145b80156134e0575060408201516001600160a01b031615806134e0575082602001516001600160a01b031682604001516001600160a01b0316145b801561351a575060408301516001600160a01b0316158061351a575081602001516001600160a01b031683604001516001600160a01b0316145b8015613575575060e08201516001600160a01b0316158015613548575060e08301516001600160a01b031615155b80613575575060e08201516001600160a01b031615801590613575575060e08301516001600160a01b0316155b801561359c57508161016001516001600160a01b03168361016001516001600160a01b0316145b80156135d3575081610180015160018111156135ba576135ba6155bd565b83610180015160018111156135d1576135d16155bd565b145b80156135ee57506135ee836102800151846102a00151613e9c565b80156107a257506107a2826102800151836102a00151613e9c565b81602001516001600160a01b0316336001600160a01b03161461362b57600080fd5b600061363683612fea565b60008181526005602052604090205490915060ff161561365557600080fd5b60016005600083815260200190815260200160002060006101000a81548160ff0219169083151502179055508260e001516001600160a01b031683602001516001600160a01b0316827f90c7f9f5b58c15f0f635bfb99f55d3d78fdbef3559e7d8abf5c81052a527662286600001518760400151886060015189608001518a60a001518b60c001518c61010001518d61012001518e61014001518f610160015160405161370b9a99989796959493929190615373565b60405180910390a4807fe55393c778364e440d958b39ac1debd99dcfae3775a8a04d1e79124adf6a2d08846101800151856101a00151866101c00151876101e001518861020001518961022001518a61024001518b61026001518c61028001518d6102a001518e6102c001518e6040516137909c9b9a99989796959493929190615435565b60405180910390a2505050565b60006137a98383613eb8565b905082602001516001600160a01b0316336001600160a01b0316146137cd57600080fd5b600081815260046020526040808220805460ff191660011790555182917f5152abf959f6564662358c2e52b702259b78bac5ee7842a0f01937e670efcc7d91a2505050565b60005460ff161561382257600080fd5b6000805460ff1916600117815560208601516001600160a01b031633141561385b5761384d86613d0e565b61385657600080fd5b613868565b6138658686613eb8565b90505b60208401516000906001600160a01b03163314156138975761388985613d0e565b61389257600080fd5b6138a4565b6138a18585613eb8565b90505b6138ae878661340b565b6138b757600080fd5b610160850151803b90816138ca57600080fd5b6101c089015151156138f0576138f0896101a00151886101a001518b6101c00151612dac565b6101c0870151511561391657613916876101a001518a6101a00151896101c00151612dac565b61392a896101a00151886101a00151612f86565b61393357600080fd5b600254602088015160405163c455279160e01b81526001600160a01b039182166004820152600092919091169063c45527919060240160206040518083038186803b15801561398157600080fd5b505afa158015613995573d6000803e3d6000fd5b505050506040513d601f19601f820116820180604052508101906139b99190614b2e565b90506001600160a01b0381166139ce57600080fd5b600260009054906101000a90046001600160a01b03166001600160a01b03166397204d8e6040518163ffffffff1660e01b815260040160206040518083038186803b158015613a1c57600080fd5b505afa158015613a30573d6000803e3d6000fd5b505050506040513d601f19601f82011682018060405250810190613a549190614b2e565b6001600160a01b0316816001600160a01b0316635c60da1b6040518163ffffffff1660e01b815260040160206040518083038186803b158015613a9657600080fd5b505afa158015613aaa573d6000803e3d6000fd5b505050506040513d601f19601f82011682018060405250810190613ace9190614b2e565b6001600160a01b031614613ae157600080fd5b60208a015181906001600160a01b03163314613b11576000868152600460205260409020805460ff191660011790555b88602001516001600160a01b0316336001600160a01b031614613b48576000858152600460205260409020805460ff191660011790555b6000613b548c8b613eda565b9050816001600160a01b0316631b0f7ba98b61016001518c61018001518d6101a001516040518463ffffffff1660e01b8152600401613b95939291906153f1565b602060405180830381600087803b158015613baf57600080fd5b505af1158015613bc3573d6000803e3d6000fd5b505050506040513d601f19601f82011682018060405250810190613be79190615161565b613bf057600080fd5b6101e08c01516001600160a01b031615613c2757613c1e8c6101e001518b6101a001518e610200015161071f565b613c2757600080fd5b6101e08a01516001600160a01b031615613c5e57613c558a6101e001518b6101a001518c610200015161071f565b613c5e57600080fd5b60e08a015188906001600160a01b0316613c7c578a60200151613c82565b8c602001515b60e08c01516001600160a01b039182169116613ca2578d60200151613ca8565b8b602001515b604080518b8152602081018b90529081018590526001600160a01b0391909116907fc4109843e0b7d514e4c093114b863f8e7d8d9a458c372cd51bfe526b588006c99060600160405180910390a450506000805460ff1916905550505050505050505050565b80516000906001600160a01b03163014613d2a57506000919050565b613d3e826101400151836102a0015161455a565b613d4a57506000919050565b60018261010001516001811115613d6357613d636155bd565b148015613d8457506006548260a001511080613d8457506007548260c00151105b15613d9157506000919050565b506001919050565b600080613dc8836101200151846101400151856102400151866102600151876102800151886102a0015161312c565b90506000613df88561012001518661014001518761024001518861026001518961028001518a6102a0015161312c565b905081811015613e0757600080fd5b60e08401516001600160a01b0316613e1f5780610c04565b509392505050565b60006107a2828461555f565b60006107a28284615540565b60006107a2828461551e565b60006107a28284615506565b600081610200015151826101c0015151836101a00151516101b0613e7b9190615506565b613e859190615506565b612f809190615506565b6000818353505060010190565b600042831080156107a257508115806107a25750504210919050565b600080613ec484612fea565b9050613ed1818585613046565b6107a257600080fd5b6102208101516000906001600160a01b031615613efc573415613efc57600080fd5b6000613f088484613d99565b9050600081118015613f2757506102208301516001600160a01b031615155b15613f4557613f45836102200151856020015185602001518461457e565b60e0830151819081906001600160a01b0316156142ba57856080015185608001511115613f7157600080fd5b60018561010001516001811115613f8a57613f8a6155bd565b141561428c578560c001518560c001511115613fa557600080fd5b606085015115614048576000613fca613fc2876060015186613e33565b612710613e3f565b6102208701519091506001600160a01b031661402d57613fea8382613e27565b60e08701516040519194506001600160a01b03169082156108fc029083906000818181858888f19350505050158015614027573d6000803e3d6000fd5b50614046565b61404686610220015187602001518860e001518461457e565b505b6080850151156140e3576000614065613fc2876080015186613e33565b6102208701519091506001600160a01b03166140c8576140858282613e4b565b60e08701516040519193506001600160a01b03169082156108fc029083906000818181858888f193505050501580156140c2573d6000803e3d6000fd5b506140e1565b6140e186610220015188602001518860e001518461457e565b505b60a0850151156141b5576000614100613fc28760a0015186613e33565b6102208701519091506001600160a01b0316614161576141208382613e27565b6008546040519194506001600160a01b03169082156108fc029083906000818181858888f1935050505015801561415b573d6000803e3d6000fd5b506141b3565b6001546102208701516001600160a01b03908116911614156141905761418b866020015182614629565b6141b3565b61022086015160208701516008546141b39291906001600160a01b03168461457e565b505b60c0850151156142875760006141d2613fc28760c0015186613e33565b6102208701519091506001600160a01b0316614233576141f28282613e4b565b6008546040519193506001600160a01b03169082156108fc029083906000818181858888f1935050505015801561422d573d6000803e3d6000fd5b50614285565b6001546102208701516001600160a01b03908116911614156142625761425d876020015182614629565b614285565b61022086015160208801516008546142859291906001600160a01b03168461457e565b505b61449e565b6142a385602001518660e001518760600151614717565b61428786602001518660e001518760800151614717565b8460800151866080015111156142cf57600080fd5b600185610100015160018111156142e8576142e86155bd565b1415614470576102208501516001600160a01b031661430657600080fd5b8460c001518660c00151111561431b57600080fd5b606086015115614355576000614338613fc2886060015186613e33565b905061435386610220015188602001518960e001518461457e565b505b60808601511561438f576000614372613fc2886080015186613e33565b905061438d86610220015187602001518960e001518461457e565b505b60a0860151156144035760006143ac613fc28860a0015186613e33565b6001546102208801519192506001600160a01b03918216911614156143de576143d9876020015182614629565b614401565b61022086015160208801516008546144019291906001600160a01b03168461457e565b505b60c086015115614287576000614420613fc28860c0015186613e33565b6001546102208801519192506001600160a01b039182169116141561444d5761425d866020015182614629565b61022086015160208701516008546142859291906001600160a01b03168461457e565b61448786602001518760e001518860600151614717565b61449e85602001518760e001518860800151614717565b6102208501516001600160a01b0316612fe057803410156144be57600080fd5b84602001516001600160a01b03166108fc839081150290604051600060405180830381858888f193505050501580156144fb573d6000803e3d6000fd5b5060006145083483613e27565b9050801561454f5786602001516001600160a01b03166108fc829081150290604051600060405180830381858888f1935050505015801561454d573d6000803e3d6000fd5b505b505090949350505050565b60008083600181111561456f5761456f6155bd565b14806107a25750501515919050565b801561462357600354604051630aed65f560e11b81526001600160a01b0386811660048301528581166024830152848116604483015260648201849052909116906315dacbea90608401602060405180830381600087803b1580156145e257600080fd5b505af11580156145f6573d6000803e3d6000fd5b505050506040513d601f19601f8201168201806040525081019061461a9190615161565b61462357600080fd5b50505050565b801561471357600061464661463f83600a613e33565b6064613e3f565b905080600061465e6146588584613e27565b83613e27565b600154600854919250614680916001600160a01b03918216918891168461457e565b60015460095461469f916001600160a01b03908116918891168661457e565b60035460015460405163ec60bcf360e01b81526001600160a01b03918216600482015287821660248201526044810185905291169063ec60bcf390606401600060405180830381600087803b1580156146f757600080fd5b505af115801561470b573d6000803e3d6000fd5b505050505050505b5050565b60015461472f906001600160a01b031684848461457e565b505050565b600082601f83011261474557600080fd5b6040516101c08082018281106001600160401b0382111715614769576147696155e9565b604052818482810187101561477d57600080fd5b600092505b600e8310156147ab5780356147968161561d565b82526001929092019160209182019101614782565b509195945050505050565b600082601f8301126147c757600080fd5b60405160e081018181106001600160401b03821117156147e9576147e96155e9565b604052808360e081018610156147fe57600080fd5b60005b60078110156147ab5781356148158161561d565b83526020928301929190910190600101614801565b600082601f83011261483b57600080fd5b60405160a081018181106001600160401b038211171561485d5761485d6155e9565b604052808360a0810186101561487257600080fd5b60005b60058110156147ab578135835260209283019290910190600101614875565b600082601f8301126148a557600080fd5b6040516102408082018281106001600160401b03821117156148c9576148c96155e9565b60405281848281018710156148dd57600080fd5b600092505b60128310156147ab578035825260019290920191602091820191016148e2565b600082601f83011261491357600080fd5b6040516101208082018281106001600160401b0382111715614937576149376155e9565b604052818482810187101561494b57600080fd5b600092505b60098310156147ab57803582526001929092019160209182019101614950565b600082601f83011261498157600080fd5b604051604081018181106001600160401b03821117156149a3576149a36155e9565b80604052508083856040860111156149ba57600080fd5b60005b60028110156147ab576149cf82614b00565b835260209283019291909101906001016149bd565b600082601f8301126149f557600080fd5b6040516101008082018281106001600160401b0382111715614a1957614a196155e9565b6040528184828101871015614a2d57600080fd5b600092505b60088310156147ab57614a4481614b00565b82526001929092019160209182019101614a32565b8035614a6481615632565b919050565b600082601f830112614a7a57600080fd5b81356001600160401b0380821115614a9457614a946155e9565b604051601f8301601f19908116603f01168101908282118183101715614abc57614abc6155e9565b81604052838152866020858801011115614ad557600080fd5b836020870160208301376000602085830101528094505050505092915050565b8035614a6481615640565b803560ff81168114614a6457600080fd5b600060208284031215614b2357600080fd5b81356107a28161561d565b600060208284031215614b4057600080fd5b81516107a28161561d565b600080600060608486031215614b6057600080fd5b8335614b6b8161561d565b925060208401356001600160401b0380821115614b8757600080fd5b614b9387838801614a69565b93506040860135915080821115614ba957600080fd5b50614bb686828701614a69565b9150509250925092565b60008060008060008060008060006105c08a8c031215614bdf57600080fd5b614be98b8b614734565b9850614bf98b6101c08c01614894565b9750614c098b6104008c016149e4565b96506105008a01356001600160401b0380821115614c2657600080fd5b614c328d838e01614a69565b97506105208c0135915080821115614c4957600080fd5b614c558d838e01614a69565b96506105408c0135915080821115614c6c57600080fd5b614c788d838e01614a69565b95506105608c0135915080821115614c8f57600080fd5b614c9b8d838e01614a69565b94506105808c0135915080821115614cb257600080fd5b614cbe8d838e01614a69565b93506105a08c0135915080821115614cd557600080fd5b50614ce28c828d01614a69565b9150509295985092959850929598565b60008060008060008060008060008060006106a08c8e031215614d1457600080fd5b614d1e8d8d614734565b9a50614d2e8d6101c08e01614894565b9950614d3e8d6104008e016149e4565b98506001600160401b03806105008e01351115614d5a57600080fd5b614d6b8e6105008f01358f01614a69565b9850806105208e01351115614d7f57600080fd5b614d908e6105208f01358f01614a69565b9750806105408e01351115614da457600080fd5b614db58e6105408f01358f01614a69565b9650806105608e01351115614dc957600080fd5b614dda8e6105608f01358f01614a69565b9550806105808e01351115614dee57600080fd5b614dff8e6105808f01358f01614a69565b9450806105a08e01351115614e1357600080fd5b50614e258d6105a08e01358e01614a69565b9250614e358d6105c08e01614970565b9150614e458d6106008e0161482a565b90509295989b509295989b9093969950565b60008060008060008060008060006102e08a8c031215614e7657600080fd5b614e808b8b6147b6565b9850614e8f8b60e08c01614902565b9750614e9e6102008b01614af5565b9650614ead6102208b01614af5565b9550614ebc6102408b01614af5565b9450614ecb6102608b01614af5565b93506102808a01356001600160401b0380821115614ee857600080fd5b614ef48d838e01614a69565b94506102a08c0135915080821115614f0b57600080fd5b614f178d838e01614a69565b93506102c08c0135915080821115614cd557600080fd5b6000806000806000806000806000806103008b8d031215614f4e57600080fd5b614f588c8c6147b6565b9950614f678c60e08d01614902565b9850614f766102008c01614af5565b9750614f856102208c01614af5565b9650614f946102408c01614af5565b9550614fa36102608c01614af5565b94506102808b01356001600160401b0380821115614fc057600080fd5b614fcc8e838f01614a69565b95506102a08d0135915080821115614fe357600080fd5b614fef8e838f01614a69565b94506102c08d013591508082111561500657600080fd5b506150138d828e01614a69565b9250506150236102e08c01614a59565b90509295989b9194979a5092959850565b6000806000806000806000806000806000806103408d8f03121561505757600080fd5b6150618e8e6147b6565b9b506150708e60e08f01614902565b9a5061507f6102008e01614af5565b995061508e6102208e01614af5565b985061509d6102408e01614af5565b97506150ac6102608e01614af5565b96506001600160401b036102808e013511156150c757600080fd5b6150d88e6102808f01358f01614a69565b95506001600160401b036102a08e013511156150f357600080fd5b6151048e6102a08f01358f01614a69565b94506001600160401b036102c08e0135111561511f57600080fd5b6151308e6102c08f01358f01614a69565b935061513f6102e08e01614b00565b92506103008d013591506103208d013590509295989b509295989b509295989b565b60006020828403121561517357600080fd5b81516107a281615632565b60006020828403121561519057600080fd5b5035919050565b6000602082840312156151a957600080fd5b81356001600160401b038111156151bf57600080fd5b6151cb84828501614a69565b949350505050565b6000806000606084860312156151e857600080fd5b83356001600160401b03808211156151ff57600080fd5b61520b87838801614a69565b94506020860135915080821115614b8757600080fd5b6000806000806080858703121561523757600080fd5b84356001600160401b038082111561524e57600080fd5b61525a88838901614a69565b9550602087013591508082111561527057600080fd5b61527c88838901614a69565b9450604087013591508082111561529257600080fd5b61529e88838901614a69565b935060608701359150808211156152b457600080fd5b506152c187828801614a69565b91505092959194509250565b60008060008060008060c087890312156152e657600080fd5b86356152f181615640565b9550602087013561530181615640565b95989597505050506040840135936060810135936080820135935060a0909101359150565b6000815180845260005b8181101561534c57602081850181015186830182015201615330565b8181111561535e576000602083870101525b50601f01601f19169290920160200192915050565b6001600160a01b038b811682528a81166020830152604082018a9052606082018990526080820188905260a082018790526101408201906153b3876155ff565b8660c08401526153c2866155ff565b8560e08401526153d1856155ff565b84610100840152808416610120840152509b9a5050505050505050505050565b6001600160a01b0384168152615406836155ff565b826020820152606060408201526000610c046060830184615326565b6020815260006107a26020830184615326565b60006101806154438f6155ff565b8e83528060208401526154588184018f615326565b9050828103604084015261546c818e615326565b6001600160a01b038d811660608601528482036080860152909150615491828d615326565b9a1660a0840152505060c081019690965260e086019490945261010085019290925261012084015261014083015215156101609091015295945050505050565b6020808252818101527f4f776e61626c653a2063616c6c6572206973206e6f7420746865206f776e6572604082015260600190565b60008219821115615519576155196155a7565b500190565b60008261553b57634e487b7160e01b600052601260045260246000fd5b500490565b600081600019048311821515161561555a5761555a6155a7565b500290565b600082821015615571576155716155a7565b500390565b600060001982141561558a5761558a6155a7565b5060010190565b634e487b7160e01b600052600160045260246000fd5b634e487b7160e01b600052601160045260246000fd5b634e487b7160e01b600052602160045260246000fd5b634e487b7160e01b600052603260045260246000fd5b634e487b7160e01b600052604160045260246000fd5b60028110612d6657634e487b7160e01b600052602160045260246000fd5b6001600160a01b0381168114612d6657600080fd5b8015158114612d6657600080fd5b60028110612d6657600080fdfea26469706673582212202b844d4a0e5e8be2b902704ac72e1a8367007900a8c03a6e40ea72be7c75e64c64736f6c63430008070033",
  "immutableReferences": {},
  "source": "/*\n\n  << Project Wyvern Exchange >>\n\n*/\n\n// SPDX-License-Identifier: MIT\n\npragma solidity 0.8.7;\n\nimport \"./exchange/Exchange.sol\";\n\n/**\n * @title WyvernExchange\n * @author Project Wyvern Developers\n */\ncontract WyvernExchange is Exchange {\n\n    string public constant name = \"Project Wyvern Exchange\";\n\n    string public constant version = \"2.2\";\n\n    string public constant codename = \"Lambton Worm\";\n\n    /**\n     * @dev Initialize a WyvernExchange instance\n     * @param registryAddress Address of the registry instance which this Exchange instance will use\n     * @param tokenAddress Address of the token used for protocol fees\n     */\n    constructor (ProxyRegistry registryAddress, TokenTransferProxy tokenTransferProxyAddress, ERC20 tokenAddress, address protocolFeeAddress, address devWalletAddress) {\n        registry = registryAddress;\n        tokenTransferProxy = tokenTransferProxyAddress;\n        exchangeToken = tokenAddress;\n        protocolFeeRecipient = protocolFeeAddress;\n        devWallet = devWalletAddress;\n    }\n\n}\n",
  "sourcePath": "/Users/ronak/Developer/projects/tsgit/wyvern-js/src/wyvern-ethereum/contracts/WyvernExchange.sol",
  "compiler": {
    "name": "solc",
    "version": "0.8.7+commit.e28d00a7.Emscripten.clang"
  },
  "schemaVersion": "3.2.0",
  "updatedAt": "2022-01-11T06:39:41.526Z",
  "devdoc": {
    "author": "Project Wyvern Developers",
    "kind": "dev",
    "methods": {
      "approveOrder_(address[7],uint256[9],uint8,uint8,uint8,uint8,bytes,bytes,bytes,bool)": {
        "details": "Call approveOrder - Solidity ABI encoding limitation workaround, hopefully temporary."
      },
      "atomicMatch_(address[14],uint256[18],uint8[8],bytes,bytes,bytes,bytes,bytes,bytes,uint8[2],bytes32[5])": {
        "details": "Call atomicMatch - Solidity ABI encoding limitation workaround, hopefully temporary."
      },
      "calculateCurrentPrice_(address[7],uint256[9],uint8,uint8,uint8,uint8,bytes,bytes,bytes)": {
        "details": "Call calculateCurrentPrice - Solidity ABI encoding limitation workaround, hopefully temporary."
      },
      "calculateFinalPrice(uint8,uint8,uint256,uint256,uint256,uint256)": {
        "details": "Call calculateFinalPrice - library function exposed for testing."
      },
      "calculateMatchPrice_(address[14],uint256[18],uint8[8],bytes,bytes,bytes,bytes,bytes,bytes)": {
        "details": "Call calculateMatchPrice - Solidity ABI encoding limitation workaround, hopefully temporary."
      },
      "cancelOrder_(address[7],uint256[9],uint8,uint8,uint8,uint8,bytes,bytes,bytes,uint8,bytes32,bytes32)": {
        "details": "Call cancelOrder - Solidity ABI encoding limitation workaround, hopefully temporary."
      },
      "changeDevWalletAddress(address)": {
        "details": "Change the dev wallet (owner only)",
        "params": {
          "newDevWalletAddress": "New dev wallet address"
        }
      },
      "changeMinimumMakerProtocolFee(uint256)": {
        "details": "Change the minimum maker fee paid to the protocol (owner only)",
        "params": {
          "newMinimumMakerProtocolFee": "New fee to set in basis points"
        }
      },
      "changeMinimumTakerProtocolFee(uint256)": {
        "details": "Change the minimum taker fee paid to the protocol (owner only)",
        "params": {
          "newMinimumTakerProtocolFee": "New fee to set in basis points"
        }
      },
      "changeProtocolFeeRecipient(address)": {
        "details": "Change the protocol fee recipient (owner only)",
        "params": {
          "newProtocolFeeRecipient": "New protocol fee recipient address"
        }
      },
      "constructor": {
        "details": "Initialize a WyvernExchange instance",
        "params": {
          "registryAddress": "Address of the registry instance which this Exchange instance will use",
          "tokenAddress": "Address of the token used for protocol fees"
        }
      },
      "guardedArrayReplace(bytes,bytes,bytes)": {
        "details": "Call guardedArrayReplace - library function exposed for testing."
      },
      "hashOrder_(address[7],uint256[9],uint8,uint8,uint8,uint8,bytes,bytes,bytes)": {
        "details": "Call hashOrder - Solidity ABI encoding limitation workaround, hopefully temporary."
      },
      "hashToSign_(address[7],uint256[9],uint8,uint8,uint8,uint8,bytes,bytes,bytes)": {
        "details": "Call hashToSign - Solidity ABI encoding limitation workaround, hopefully temporary."
      },
      "orderCalldataCanMatch(bytes,bytes,bytes,bytes)": {
        "details": "Return whether or not two orders' calldatas specifications can match",
        "params": {
          "buyCalldata": "Buy-side order calldatas",
          "buyReplacementPattern": "Buy-side order calldatas replacement mask",
          "sellCalldata": "Sell-side order calldatas",
          "sellReplacementPattern": "Sell-side order calldatas replacement mask"
        },
        "returns": {
          "_0": "Whether the orders' calldatas can be matched"
        }
      },
      "ordersCanMatch_(address[14],uint256[18],uint8[8],bytes,bytes,bytes,bytes,bytes,bytes)": {
        "details": "Call ordersCanMatch - Solidity ABI encoding limitation workaround, hopefully temporary."
      },
      "owner()": {
        "details": "Returns the address of the current owner."
      },
      "renounceOwnership()": {
        "details": "Leaves the contract without owner. It will not be possible to call `onlyOwner` functions anymore. Can only be called by the current owner. NOTE: Renouncing ownership will leave the contract without an owner, thereby removing any functionality that is only available to the owner."
      },
      "staticCall(address,bytes,bytes)": {
        "details": "Execute a STATICCALL (introduced with Ethereum Metropolis, non-state-modifying external call)",
        "params": {
          "calldatas": "Calldata (appended to extradata)",
          "extradata": "Base data for STATICCALL (probably function selector and argument encoding)",
          "target": "Contract to call"
        },
        "returns": {
          "result": "The result of the call (success or failure)"
        }
      },
      "testCopy(bytes)": {
        "params": {
          "arrToCopy": "Array to copy"
        },
        "returns": {
          "_0": "byte array"
        }
      },
      "testCopyAddress(address)": {
        "params": {
          "addr": "Address to write"
        },
        "returns": {
          "_0": "byte array"
        }
      },
      "transferOwnership(address)": {
        "details": "Transfers ownership of the contract to a new account (`newOwner`). Can only be called by the current owner."
      },
      "validateOrderParameters_(address[7],uint256[9],uint8,uint8,uint8,uint8,bytes,bytes,bytes)": {
        "details": "Call validateOrderParameters - Solidity ABI encoding limitation workaround, hopefully temporary."
      },
      "validateOrder_(address[7],uint256[9],uint8,uint8,uint8,uint8,bytes,bytes,bytes,uint8,bytes32,bytes32)": {
        "details": "Call validateOrder - Solidity ABI encoding limitation workaround, hopefully temporary."
      }
    },
    "title": "WyvernExchange",
    "version": 1
  },
  "userdoc": {
    "kind": "user",
    "methods": {
      "testCopy(bytes)": {
        "notice": "Test copy byte array"
      },
      "testCopyAddress(address)": {
        "notice": "Test write address to bytes"
      }
    },
    "version": 1
  }
}