{
  "_format": "hh-sol-artifact-1",
  "contractName": "WyvernExchange",
  "sourceName": "contracts/WyvernExchange.sol",
  "abi": [
    {
      "anonymous": false,
      "inputs": [
        {
          "indexed": true,
          "internalType": "bytes32",
          "name": "hash",
          "type": "bytes32"
        },
        {
          "indexed": false,
          "internalType": "address",
          "name": "exchange",
          "type": "address"
        },
        {
          "indexed": true,
          "internalType": "address",
          "name": "maker",
          "type": "address"
        },
        {
          "indexed": false,
          "internalType": "address",
          "name": "taker",
          "type": "address"
        },
        {
          "indexed": false,
          "internalType": "uint256",
          "name": "makerRelayerFee",
          "type": "uint256"
        },
        {
          "indexed": false,
          "internalType": "uint256",
          "name": "takerRelayerFee",
          "type": "uint256"
        },
        {
          "indexed": false,
          "internalType": "uint256",
          "name": "makerProtocolFee",
          "type": "uint256"
        },
        {
          "indexed": false,
          "internalType": "uint256",
          "name": "takerProtocolFee",
          "type": "uint256"
        },
        {
          "indexed": true,
          "internalType": "address",
          "name": "feeRecipient",
          "type": "address"
        },
        {
          "indexed": false,
          "internalType": "enum ExchangeCore.FeeMethod",
          "name": "feeMethod",
          "type": "uint8"
        },
        {
          "indexed": false,
          "internalType": "enum SaleKindInterface.Side",
          "name": "side",
          "type": "uint8"
        },
        {
          "indexed": false,
          "internalType": "enum SaleKindInterface.SaleKind",
          "name": "saleKind",
          "type": "uint8"
        },
        {
          "indexed": false,
          "internalType": "address",
          "name": "target",
          "type": "address"
        }
      ],
      "name": "OrderApprovedPartOne",
      "type": "event"
    },
    {
      "anonymous": false,
      "inputs": [
        {
          "indexed": true,
          "internalType": "bytes32",
          "name": "hash",
          "type": "bytes32"
        },
        {
          "indexed": false,
          "internalType": "enum AuthenticatedProxy.HowToCall",
          "name": "howToCall",
          "type": "uint8"
        },
        {
          "indexed": false,
          "internalType": "bytes",
          "name": "calldatas",
          "type": "bytes"
        },
        {
          "indexed": false,
          "internalType": "bytes",
          "name": "replacementPattern",
          "type": "bytes"
        },
        {
          "indexed": false,
          "internalType": "address",
          "name": "staticTarget",
          "type": "address"
        },
        {
          "indexed": false,
          "internalType": "bytes",
          "name": "staticExtradata",
          "type": "bytes"
        },
        {
          "indexed": false,
          "internalType": "address",
          "name": "paymentToken",
          "type": "address"
        },
        {
          "indexed": false,
          "internalType": "uint256",
          "name": "basePrice",
          "type": "uint256"
        },
        {
          "indexed": false,
          "internalType": "uint256",
          "name": "extra",
          "type": "uint256"
        },
        {
          "indexed": false,
          "internalType": "uint256",
          "name": "listingTime",
          "type": "uint256"
        },
        {
          "indexed": false,
          "internalType": "uint256",
          "name": "expirationTime",
          "type": "uint256"
        },
        {
          "indexed": false,
          "internalType": "uint256",
          "name": "salt",
          "type": "uint256"
        },
        {
          "indexed": false,
          "internalType": "bool",
          "name": "orderbookInclusionDesired",
          "type": "bool"
        }
      ],
      "name": "OrderApprovedPartTwo",
      "type": "event"
    },
    {
      "anonymous": false,
      "inputs": [
        {
          "indexed": true,
          "internalType": "bytes32",
          "name": "hash",
          "type": "bytes32"
        }
      ],
      "name": "OrderCancelled",
      "type": "event"
    },
    {
      "anonymous": false,
      "inputs": [
        {
          "indexed": false,
          "internalType": "bytes32",
          "name": "buyHash",
          "type": "bytes32"
        },
        {
          "indexed": false,
          "internalType": "bytes32",
          "name": "sellHash",
          "type": "bytes32"
        },
        {
          "indexed": true,
          "internalType": "address",
          "name": "maker",
          "type": "address"
        },
        {
          "indexed": true,
          "internalType": "address",
          "name": "taker",
          "type": "address"
        },
        {
          "indexed": false,
          "internalType": "uint256",
          "name": "price",
          "type": "uint256"
        },
        {
          "indexed": true,
          "internalType": "bytes32",
          "name": "metadata",
          "type": "bytes32"
        }
      ],
      "name": "OrdersMatched",
      "type": "event"
    },
    {
      "anonymous": false,
      "inputs": [
        {
          "indexed": true,
          "internalType": "address",
          "name": "previousOwner",
          "type": "address"
        },
        {
          "indexed": true,
          "internalType": "address",
          "name": "newOwner",
          "type": "address"
        }
      ],
      "name": "OwnershipTransferred",
      "type": "event"
    },
    {
      "constant": true,
      "inputs": [],
      "name": "INVERSE_BASIS_POINT",
      "outputs": [
        {
          "internalType": "uint256",
          "name": "",
          "type": "uint256"
        }
      ],
      "stateMutability": "view",
      "type": "function"
    },
    {
      "inputs": [
        {
          "components": [
            {
              "internalType": "address",
              "name": "exchange",
              "type": "address"
            },
            {
              "internalType": "address",
              "name": "maker",
              "type": "address"
            },
            {
              "internalType": "address",
              "name": "taker",
              "type": "address"
            },
            {
              "internalType": "uint256",
              "name": "makerRelayerFee",
              "type": "uint256"
            },
            {
              "internalType": "uint256",
              "name": "takerRelayerFee",
              "type": "uint256"
            },
            {
              "internalType": "uint256",
              "name": "makerProtocolFee",
              "type": "uint256"
            },
            {
              "internalType": "uint256",
              "name": "takerProtocolFee",
              "type": "uint256"
            },
            {
              "internalType": "address",
              "name": "feeRecipient",
              "type": "address"
            },
            {
              "internalType": "enum ExchangeCore.FeeMethod",
              "name": "feeMethod",
              "type": "uint8"
            },
            {
              "internalType": "enum SaleKindInterface.Side",
              "name": "side",
              "type": "uint8"
            },
            {
              "internalType": "enum SaleKindInterface.SaleKind",
              "name": "saleKind",
              "type": "uint8"
            },
            {
              "internalType": "address",
              "name": "target",
              "type": "address"
            },
            {
              "internalType": "enum AuthenticatedProxy.HowToCall",
              "name": "howToCall",
              "type": "uint8"
            },
            {
              "internalType": "bytes",
              "name": "calldatas",
              "type": "bytes"
            },
            {
              "internalType": "bytes",
              "name": "replacementPattern",
              "type": "bytes"
            },
            {
              "internalType": "address",
              "name": "staticTarget",
              "type": "address"
            },
            {
              "internalType": "bytes",
              "name": "staticExtradata",
              "type": "bytes"
            },
            {
              "internalType": "address",
              "name": "paymentToken",
              "type": "address"
            },
            {
              "internalType": "uint256",
              "name": "basePrice",
              "type": "uint256"
            },
            {
              "internalType": "uint256",
              "name": "extra",
              "type": "uint256"
            },
            {
              "internalType": "uint256",
              "name": "listingTime",
              "type": "uint256"
            },
            {
              "internalType": "uint256",
              "name": "expirationTime",
              "type": "uint256"
            },
            {
              "internalType": "uint256",
              "name": "salt",
              "type": "uint256"
            },
            {
              "internalType": "bytes4",
              "name": "dataType",
              "type": "bytes4"
            },
            {
              "internalType": "bytes",
              "name": "data",
              "type": "bytes"
            }
          ],
          "internalType": "struct ExchangeCore.Order",
          "name": "order",
          "type": "tuple"
        },
        {
          "internalType": "bool",
          "name": "orderbookInclusionDesired",
          "type": "bool"
        }
      ],
      "name": "approveOrder",
      "outputs": [],
      "stateMutability": "nonpayable",
      "type": "function"
    },
    {
      "constant": true,
      "inputs": [
        {
          "internalType": "bytes32",
          "name": "",
          "type": "bytes32"
        }
      ],
      "name": "approvedOrders",
      "outputs": [
        {
          "internalType": "bool",
          "name": "",
          "type": "bool"
        }
      ],
      "stateMutability": "view",
      "type": "function"
    },
    {
      "inputs": [
        {
          "components": [
            {
              "internalType": "address",
              "name": "exchange",
              "type": "address"
            },
            {
              "internalType": "address",
              "name": "maker",
              "type": "address"
            },
            {
              "internalType": "address",
              "name": "taker",
              "type": "address"
            },
            {
              "internalType": "uint256",
              "name": "makerRelayerFee",
              "type": "uint256"
            },
            {
              "internalType": "uint256",
              "name": "takerRelayerFee",
              "type": "uint256"
            },
            {
              "internalType": "uint256",
              "name": "makerProtocolFee",
              "type": "uint256"
            },
            {
              "internalType": "uint256",
              "name": "takerProtocolFee",
              "type": "uint256"
            },
            {
              "internalType": "address",
              "name": "feeRecipient",
              "type": "address"
            },
            {
              "internalType": "enum ExchangeCore.FeeMethod",
              "name": "feeMethod",
              "type": "uint8"
            },
            {
              "internalType": "enum SaleKindInterface.Side",
              "name": "side",
              "type": "uint8"
            },
            {
              "internalType": "enum SaleKindInterface.SaleKind",
              "name": "saleKind",
              "type": "uint8"
            },
            {
              "internalType": "address",
              "name": "target",
              "type": "address"
            },
            {
              "internalType": "enum AuthenticatedProxy.HowToCall",
              "name": "howToCall",
              "type": "uint8"
            },
            {
              "internalType": "bytes",
              "name": "calldatas",
              "type": "bytes"
            },
            {
              "internalType": "bytes",
              "name": "replacementPattern",
              "type": "bytes"
            },
            {
              "internalType": "address",
              "name": "staticTarget",
              "type": "address"
            },
            {
              "internalType": "bytes",
              "name": "staticExtradata",
              "type": "bytes"
            },
            {
              "internalType": "address",
              "name": "paymentToken",
              "type": "address"
            },
            {
              "internalType": "uint256",
              "name": "basePrice",
              "type": "uint256"
            },
            {
              "internalType": "uint256",
              "name": "extra",
              "type": "uint256"
            },
            {
              "internalType": "uint256",
              "name": "listingTime",
              "type": "uint256"
            },
            {
              "internalType": "uint256",
              "name": "expirationTime",
              "type": "uint256"
            },
            {
              "internalType": "uint256",
              "name": "salt",
              "type": "uint256"
            },
            {
              "internalType": "bytes4",
              "name": "dataType",
              "type": "bytes4"
            },
            {
              "internalType": "bytes",
              "name": "data",
              "type": "bytes"
            }
          ],
          "internalType": "struct ExchangeCore.Order",
          "name": "buy",
          "type": "tuple"
        },
        {
          "components": [
            {
              "internalType": "uint8",
              "name": "v",
              "type": "uint8"
            },
            {
              "internalType": "bytes32",
              "name": "r",
              "type": "bytes32"
            },
            {
              "internalType": "bytes32",
              "name": "s",
              "type": "bytes32"
            }
          ],
          "internalType": "struct ExchangeCore.Sig",
          "name": "buySig",
          "type": "tuple"
        },
        {
          "components": [
            {
              "internalType": "address",
              "name": "exchange",
              "type": "address"
            },
            {
              "internalType": "address",
              "name": "maker",
              "type": "address"
            },
            {
              "internalType": "address",
              "name": "taker",
              "type": "address"
            },
            {
              "internalType": "uint256",
              "name": "makerRelayerFee",
              "type": "uint256"
            },
            {
              "internalType": "uint256",
              "name": "takerRelayerFee",
              "type": "uint256"
            },
            {
              "internalType": "uint256",
              "name": "makerProtocolFee",
              "type": "uint256"
            },
            {
              "internalType": "uint256",
              "name": "takerProtocolFee",
              "type": "uint256"
            },
            {
              "internalType": "address",
              "name": "feeRecipient",
              "type": "address"
            },
            {
              "internalType": "enum ExchangeCore.FeeMethod",
              "name": "feeMethod",
              "type": "uint8"
            },
            {
              "internalType": "enum SaleKindInterface.Side",
              "name": "side",
              "type": "uint8"
            },
            {
              "internalType": "enum SaleKindInterface.SaleKind",
              "name": "saleKind",
              "type": "uint8"
            },
            {
              "internalType": "address",
              "name": "target",
              "type": "address"
            },
            {
              "internalType": "enum AuthenticatedProxy.HowToCall",
              "name": "howToCall",
              "type": "uint8"
            },
            {
              "internalType": "bytes",
              "name": "calldatas",
              "type": "bytes"
            },
            {
              "internalType": "bytes",
              "name": "replacementPattern",
              "type": "bytes"
            },
            {
              "internalType": "address",
              "name": "staticTarget",
              "type": "address"
            },
            {
              "internalType": "bytes",
              "name": "staticExtradata",
              "type": "bytes"
            },
            {
              "internalType": "address",
              "name": "paymentToken",
              "type": "address"
            },
            {
              "internalType": "uint256",
              "name": "basePrice",
              "type": "uint256"
            },
            {
              "internalType": "uint256",
              "name": "extra",
              "type": "uint256"
            },
            {
              "internalType": "uint256",
              "name": "listingTime",
              "type": "uint256"
            },
            {
              "internalType": "uint256",
              "name": "expirationTime",
              "type": "uint256"
            },
            {
              "internalType": "uint256",
              "name": "salt",
              "type": "uint256"
            },
            {
              "internalType": "bytes4",
              "name": "dataType",
              "type": "bytes4"
            },
            {
              "internalType": "bytes",
              "name": "data",
              "type": "bytes"
            }
          ],
          "internalType": "struct ExchangeCore.Order",
          "name": "sell",
          "type": "tuple"
        },
        {
          "components": [
            {
              "internalType": "uint8",
              "name": "v",
              "type": "uint8"
            },
            {
              "internalType": "bytes32",
              "name": "r",
              "type": "bytes32"
            },
            {
              "internalType": "bytes32",
              "name": "s",
              "type": "bytes32"
            }
          ],
          "internalType": "struct ExchangeCore.Sig",
          "name": "sellSig",
          "type": "tuple"
        },
        {
          "internalType": "bytes32",
          "name": "metadata",
          "type": "bytes32"
        }
      ],
      "name": "atomicMatch",
      "outputs": [],
      "stateMutability": "nonpayable",
      "type": "function"
    },
    {
      "constant": true,
      "inputs": [
        {
          "components": [
            {
              "internalType": "address",
              "name": "exchange",
              "type": "address"
            },
            {
              "internalType": "address",
              "name": "maker",
              "type": "address"
            },
            {
              "internalType": "address",
              "name": "taker",
              "type": "address"
            },
            {
              "internalType": "uint256",
              "name": "makerRelayerFee",
              "type": "uint256"
            },
            {
              "internalType": "uint256",
              "name": "takerRelayerFee",
              "type": "uint256"
            },
            {
              "internalType": "uint256",
              "name": "makerProtocolFee",
              "type": "uint256"
            },
            {
              "internalType": "uint256",
              "name": "takerProtocolFee",
              "type": "uint256"
            },
            {
              "internalType": "address",
              "name": "feeRecipient",
              "type": "address"
            },
            {
              "internalType": "enum ExchangeCore.FeeMethod",
              "name": "feeMethod",
              "type": "uint8"
            },
            {
              "internalType": "enum SaleKindInterface.Side",
              "name": "side",
              "type": "uint8"
            },
            {
              "internalType": "enum SaleKindInterface.SaleKind",
              "name": "saleKind",
              "type": "uint8"
            },
            {
              "internalType": "address",
              "name": "target",
              "type": "address"
            },
            {
              "internalType": "enum AuthenticatedProxy.HowToCall",
              "name": "howToCall",
              "type": "uint8"
            },
            {
              "internalType": "bytes",
              "name": "calldatas",
              "type": "bytes"
            },
            {
              "internalType": "bytes",
              "name": "replacementPattern",
              "type": "bytes"
            },
            {
              "internalType": "address",
              "name": "staticTarget",
              "type": "address"
            },
            {
              "internalType": "bytes",
              "name": "staticExtradata",
              "type": "bytes"
            },
            {
              "internalType": "address",
              "name": "paymentToken",
              "type": "address"
            },
            {
              "internalType": "uint256",
              "name": "basePrice",
              "type": "uint256"
            },
            {
              "internalType": "uint256",
              "name": "extra",
              "type": "uint256"
            },
            {
              "internalType": "uint256",
              "name": "listingTime",
              "type": "uint256"
            },
            {
              "internalType": "uint256",
              "name": "expirationTime",
              "type": "uint256"
            },
            {
              "internalType": "uint256",
              "name": "salt",
              "type": "uint256"
            },
            {
              "internalType": "bytes4",
              "name": "dataType",
              "type": "bytes4"
            },
            {
              "internalType": "bytes",
              "name": "data",
              "type": "bytes"
            }
          ],
          "internalType": "struct ExchangeCore.Order",
          "name": "order",
          "type": "tuple"
        }
      ],
      "name": "calculateCurrentPrice",
      "outputs": [
        {
          "internalType": "uint256",
          "name": "",
          "type": "uint256"
        }
      ],
      "stateMutability": "view",
      "type": "function"
    },
    {
      "constant": true,
      "inputs": [
        {
          "internalType": "enum SaleKindInterface.Side",
          "name": "side",
          "type": "uint8"
        },
        {
          "internalType": "enum SaleKindInterface.SaleKind",
          "name": "saleKind",
          "type": "uint8"
        },
        {
          "internalType": "uint256",
          "name": "basePrice",
          "type": "uint256"
        },
        {
          "internalType": "uint256",
          "name": "extra",
          "type": "uint256"
        },
        {
          "internalType": "uint256",
          "name": "listingTime",
          "type": "uint256"
        },
        {
          "internalType": "uint256",
          "name": "expirationTime",
          "type": "uint256"
        }
      ],
      "name": "calculateFinalPrice",
      "outputs": [
        {
          "internalType": "uint256",
          "name": "",
          "type": "uint256"
        }
      ],
      "stateMutability": "view",
      "type": "function"
    },
    {
      "constant": true,
      "inputs": [
        {
          "components": [
            {
              "internalType": "address",
              "name": "exchange",
              "type": "address"
            },
            {
              "internalType": "address",
              "name": "maker",
              "type": "address"
            },
            {
              "internalType": "address",
              "name": "taker",
              "type": "address"
            },
            {
              "internalType": "uint256",
              "name": "makerRelayerFee",
              "type": "uint256"
            },
            {
              "internalType": "uint256",
              "name": "takerRelayerFee",
              "type": "uint256"
            },
            {
              "internalType": "uint256",
              "name": "makerProtocolFee",
              "type": "uint256"
            },
            {
              "internalType": "uint256",
              "name": "takerProtocolFee",
              "type": "uint256"
            },
            {
              "internalType": "address",
              "name": "feeRecipient",
              "type": "address"
            },
            {
              "internalType": "enum ExchangeCore.FeeMethod",
              "name": "feeMethod",
              "type": "uint8"
            },
            {
              "internalType": "enum SaleKindInterface.Side",
              "name": "side",
              "type": "uint8"
            },
            {
              "internalType": "enum SaleKindInterface.SaleKind",
              "name": "saleKind",
              "type": "uint8"
            },
            {
              "internalType": "address",
              "name": "target",
              "type": "address"
            },
            {
              "internalType": "enum AuthenticatedProxy.HowToCall",
              "name": "howToCall",
              "type": "uint8"
            },
            {
              "internalType": "bytes",
              "name": "calldatas",
              "type": "bytes"
            },
            {
              "internalType": "bytes",
              "name": "replacementPattern",
              "type": "bytes"
            },
            {
              "internalType": "address",
              "name": "staticTarget",
              "type": "address"
            },
            {
              "internalType": "bytes",
              "name": "staticExtradata",
              "type": "bytes"
            },
            {
              "internalType": "address",
              "name": "paymentToken",
              "type": "address"
            },
            {
              "internalType": "uint256",
              "name": "basePrice",
              "type": "uint256"
            },
            {
              "internalType": "uint256",
              "name": "extra",
              "type": "uint256"
            },
            {
              "internalType": "uint256",
              "name": "listingTime",
              "type": "uint256"
            },
            {
              "internalType": "uint256",
              "name": "expirationTime",
              "type": "uint256"
            },
            {
              "internalType": "uint256",
              "name": "salt",
              "type": "uint256"
            },
            {
              "internalType": "bytes4",
              "name": "dataType",
              "type": "bytes4"
            },
            {
              "internalType": "bytes",
              "name": "data",
              "type": "bytes"
            }
          ],
          "internalType": "struct ExchangeCore.Order",
          "name": "buy",
          "type": "tuple"
        },
        {
          "components": [
            {
              "internalType": "address",
              "name": "exchange",
              "type": "address"
            },
            {
              "internalType": "address",
              "name": "maker",
              "type": "address"
            },
            {
              "internalType": "address",
              "name": "taker",
              "type": "address"
            },
            {
              "internalType": "uint256",
              "name": "makerRelayerFee",
              "type": "uint256"
            },
            {
              "internalType": "uint256",
              "name": "takerRelayerFee",
              "type": "uint256"
            },
            {
              "internalType": "uint256",
              "name": "makerProtocolFee",
              "type": "uint256"
            },
            {
              "internalType": "uint256",
              "name": "takerProtocolFee",
              "type": "uint256"
            },
            {
              "internalType": "address",
              "name": "feeRecipient",
              "type": "address"
            },
            {
              "internalType": "enum ExchangeCore.FeeMethod",
              "name": "feeMethod",
              "type": "uint8"
            },
            {
              "internalType": "enum SaleKindInterface.Side",
              "name": "side",
              "type": "uint8"
            },
            {
              "internalType": "enum SaleKindInterface.SaleKind",
              "name": "saleKind",
              "type": "uint8"
            },
            {
              "internalType": "address",
              "name": "target",
              "type": "address"
            },
            {
              "internalType": "enum AuthenticatedProxy.HowToCall",
              "name": "howToCall",
              "type": "uint8"
            },
            {
              "internalType": "bytes",
              "name": "calldatas",
              "type": "bytes"
            },
            {
              "internalType": "bytes",
              "name": "replacementPattern",
              "type": "bytes"
            },
            {
              "internalType": "address",
              "name": "staticTarget",
              "type": "address"
            },
            {
              "internalType": "bytes",
              "name": "staticExtradata",
              "type": "bytes"
            },
            {
              "internalType": "address",
              "name": "paymentToken",
              "type": "address"
            },
            {
              "internalType": "uint256",
              "name": "basePrice",
              "type": "uint256"
            },
            {
              "internalType": "uint256",
              "name": "extra",
              "type": "uint256"
            },
            {
              "internalType": "uint256",
              "name": "listingTime",
              "type": "uint256"
            },
            {
              "internalType": "uint256",
              "name": "expirationTime",
              "type": "uint256"
            },
            {
              "internalType": "uint256",
              "name": "salt",
              "type": "uint256"
            },
            {
              "internalType": "bytes4",
              "name": "dataType",
              "type": "bytes4"
            },
            {
              "internalType": "bytes",
              "name": "data",
              "type": "bytes"
            }
          ],
          "internalType": "struct ExchangeCore.Order",
          "name": "sell",
          "type": "tuple"
        }
      ],
      "name": "calculateMatchPrice",
      "outputs": [
        {
          "internalType": "uint256",
          "name": "",
          "type": "uint256"
        }
      ],
      "stateMutability": "view",
      "type": "function"
    },
    {
      "inputs": [
        {
          "components": [
            {
              "internalType": "address",
              "name": "exchange",
              "type": "address"
            },
            {
              "internalType": "address",
              "name": "maker",
              "type": "address"
            },
            {
              "internalType": "address",
              "name": "taker",
              "type": "address"
            },
            {
              "internalType": "uint256",
              "name": "makerRelayerFee",
              "type": "uint256"
            },
            {
              "internalType": "uint256",
              "name": "takerRelayerFee",
              "type": "uint256"
            },
            {
              "internalType": "uint256",
              "name": "makerProtocolFee",
              "type": "uint256"
            },
            {
              "internalType": "uint256",
              "name": "takerProtocolFee",
              "type": "uint256"
            },
            {
              "internalType": "address",
              "name": "feeRecipient",
              "type": "address"
            },
            {
              "internalType": "enum ExchangeCore.FeeMethod",
              "name": "feeMethod",
              "type": "uint8"
            },
            {
              "internalType": "enum SaleKindInterface.Side",
              "name": "side",
              "type": "uint8"
            },
            {
              "internalType": "enum SaleKindInterface.SaleKind",
              "name": "saleKind",
              "type": "uint8"
            },
            {
              "internalType": "address",
              "name": "target",
              "type": "address"
            },
            {
              "internalType": "enum AuthenticatedProxy.HowToCall",
              "name": "howToCall",
              "type": "uint8"
            },
            {
              "internalType": "bytes",
              "name": "calldatas",
              "type": "bytes"
            },
            {
              "internalType": "bytes",
              "name": "replacementPattern",
              "type": "bytes"
            },
            {
              "internalType": "address",
              "name": "staticTarget",
              "type": "address"
            },
            {
              "internalType": "bytes",
              "name": "staticExtradata",
              "type": "bytes"
            },
            {
              "internalType": "address",
              "name": "paymentToken",
              "type": "address"
            },
            {
              "internalType": "uint256",
              "name": "basePrice",
              "type": "uint256"
            },
            {
              "internalType": "uint256",
              "name": "extra",
              "type": "uint256"
            },
            {
              "internalType": "uint256",
              "name": "listingTime",
              "type": "uint256"
            },
            {
              "internalType": "uint256",
              "name": "expirationTime",
              "type": "uint256"
            },
            {
              "internalType": "uint256",
              "name": "salt",
              "type": "uint256"
            },
            {
              "internalType": "bytes4",
              "name": "dataType",
              "type": "bytes4"
            },
            {
              "internalType": "bytes",
              "name": "data",
              "type": "bytes"
            }
          ],
          "internalType": "struct ExchangeCore.Order",
          "name": "order",
          "type": "tuple"
        },
        {
          "components": [
            {
              "internalType": "uint8",
              "name": "v",
              "type": "uint8"
            },
            {
              "internalType": "bytes32",
              "name": "r",
              "type": "bytes32"
            },
            {
              "internalType": "bytes32",
              "name": "s",
              "type": "bytes32"
            }
          ],
          "internalType": "struct ExchangeCore.Sig",
          "name": "sig",
          "type": "tuple"
        }
      ],
      "name": "cancelOrder",
      "outputs": [],
      "stateMutability": "nonpayable",
      "type": "function"
    },
    {
      "constant": true,
      "inputs": [
        {
          "internalType": "bytes32",
          "name": "",
          "type": "bytes32"
        }
      ],
      "name": "cancelledOrFinalized",
      "outputs": [
        {
          "internalType": "bool",
          "name": "",
          "type": "bool"
        }
      ],
      "stateMutability": "view",
      "type": "function"
    },
    {
      "inputs": [
        {
          "internalType": "address",
          "name": "newDevWalletAddress",
          "type": "address"
        }
      ],
      "name": "changeDevWalletAddress",
      "outputs": [],
      "stateMutability": "nonpayable",
      "type": "function"
    },
    {
      "inputs": [
        {
          "internalType": "uint256",
          "name": "newMinimumMakerProtocolFee",
          "type": "uint256"
        }
      ],
      "name": "changeMinimumMakerProtocolFee",
      "outputs": [],
      "stateMutability": "nonpayable",
      "type": "function"
    },
    {
      "inputs": [
        {
          "internalType": "uint256",
          "name": "newMinimumTakerProtocolFee",
          "type": "uint256"
        }
      ],
      "name": "changeMinimumTakerProtocolFee",
      "outputs": [],
      "stateMutability": "nonpayable",
      "type": "function"
    },
    {
      "inputs": [
        {
          "internalType": "address",
          "name": "newProtocolFeeRecipient",
          "type": "address"
        }
      ],
      "name": "changeProtocolFeeRecipient",
      "outputs": [],
      "stateMutability": "nonpayable",
      "type": "function"
    },
    {
      "constant": true,
      "inputs": [],
      "name": "codename",
      "outputs": [
        {
          "internalType": "string",
          "name": "",
          "type": "string"
        }
      ],
      "stateMutability": "view",
      "type": "function"
    },
    {
      "constant": true,
      "inputs": [],
      "name": "devWallet",
      "outputs": [
        {
          "internalType": "address",
          "name": "",
          "type": "address"
        }
      ],
      "stateMutability": "view",
      "type": "function"
    },
    {
      "constant": true,
      "inputs": [],
      "name": "exchangeToken",
      "outputs": [
        {
          "internalType": "contract ERC20Upgradeable",
          "name": "",
          "type": "address"
        }
      ],
      "stateMutability": "view",
      "type": "function"
    },
    {
      "constant": true,
      "inputs": [
        {
          "internalType": "bytes",
          "name": "array",
          "type": "bytes"
        },
        {
          "internalType": "bytes",
          "name": "desired",
          "type": "bytes"
        },
        {
          "internalType": "bytes",
          "name": "mask",
          "type": "bytes"
        }
      ],
      "name": "guardedArrayReplace",
      "outputs": [
        {
          "internalType": "bytes",
          "name": "",
          "type": "bytes"
        }
      ],
      "stateMutability": "pure",
      "type": "function"
    },
    {
      "constant": true,
      "inputs": [
        {
          "components": [
            {
              "internalType": "address",
              "name": "exchange",
              "type": "address"
            },
            {
              "internalType": "address",
              "name": "maker",
              "type": "address"
            },
            {
              "internalType": "address",
              "name": "taker",
              "type": "address"
            },
            {
              "internalType": "uint256",
              "name": "makerRelayerFee",
              "type": "uint256"
            },
            {
              "internalType": "uint256",
              "name": "takerRelayerFee",
              "type": "uint256"
            },
            {
              "internalType": "uint256",
              "name": "makerProtocolFee",
              "type": "uint256"
            },
            {
              "internalType": "uint256",
              "name": "takerProtocolFee",
              "type": "uint256"
            },
            {
              "internalType": "address",
              "name": "feeRecipient",
              "type": "address"
            },
            {
              "internalType": "enum ExchangeCore.FeeMethod",
              "name": "feeMethod",
              "type": "uint8"
            },
            {
              "internalType": "enum SaleKindInterface.Side",
              "name": "side",
              "type": "uint8"
            },
            {
              "internalType": "enum SaleKindInterface.SaleKind",
              "name": "saleKind",
              "type": "uint8"
            },
            {
              "internalType": "address",
              "name": "target",
              "type": "address"
            },
            {
              "internalType": "enum AuthenticatedProxy.HowToCall",
              "name": "howToCall",
              "type": "uint8"
            },
            {
              "internalType": "bytes",
              "name": "calldatas",
              "type": "bytes"
            },
            {
              "internalType": "bytes",
              "name": "replacementPattern",
              "type": "bytes"
            },
            {
              "internalType": "address",
              "name": "staticTarget",
              "type": "address"
            },
            {
              "internalType": "bytes",
              "name": "staticExtradata",
              "type": "bytes"
            },
            {
              "internalType": "address",
              "name": "paymentToken",
              "type": "address"
            },
            {
              "internalType": "uint256",
              "name": "basePrice",
              "type": "uint256"
            },
            {
              "internalType": "uint256",
              "name": "extra",
              "type": "uint256"
            },
            {
              "internalType": "uint256",
              "name": "listingTime",
              "type": "uint256"
            },
            {
              "internalType": "uint256",
              "name": "expirationTime",
              "type": "uint256"
            },
            {
              "internalType": "uint256",
              "name": "salt",
              "type": "uint256"
            },
            {
              "internalType": "bytes4",
              "name": "dataType",
              "type": "bytes4"
            },
            {
              "internalType": "bytes",
              "name": "data",
              "type": "bytes"
            }
          ],
          "internalType": "struct ExchangeCore.Order",
          "name": "order",
          "type": "tuple"
        }
      ],
      "name": "hashOrder",
      "outputs": [
        {
          "internalType": "bytes32",
          "name": "hash",
          "type": "bytes32"
        }
      ],
      "stateMutability": "pure",
      "type": "function"
    },
    {
      "inputs": [
        {
          "components": [
            {
              "internalType": "address",
              "name": "exchange",
              "type": "address"
            },
            {
              "internalType": "address",
              "name": "maker",
              "type": "address"
            },
            {
              "internalType": "address",
              "name": "taker",
              "type": "address"
            },
            {
              "internalType": "uint256",
              "name": "makerRelayerFee",
              "type": "uint256"
            },
            {
              "internalType": "uint256",
              "name": "takerRelayerFee",
              "type": "uint256"
            },
            {
              "internalType": "uint256",
              "name": "makerProtocolFee",
              "type": "uint256"
            },
            {
              "internalType": "uint256",
              "name": "takerProtocolFee",
              "type": "uint256"
            },
            {
              "internalType": "address",
              "name": "feeRecipient",
              "type": "address"
            },
            {
              "internalType": "enum ExchangeCore.FeeMethod",
              "name": "feeMethod",
              "type": "uint8"
            },
            {
              "internalType": "enum SaleKindInterface.Side",
              "name": "side",
              "type": "uint8"
            },
            {
              "internalType": "enum SaleKindInterface.SaleKind",
              "name": "saleKind",
              "type": "uint8"
            },
            {
              "internalType": "address",
              "name": "target",
              "type": "address"
            },
            {
              "internalType": "enum AuthenticatedProxy.HowToCall",
              "name": "howToCall",
              "type": "uint8"
            },
            {
              "internalType": "bytes",
              "name": "calldatas",
              "type": "bytes"
            },
            {
              "internalType": "bytes",
              "name": "replacementPattern",
              "type": "bytes"
            },
            {
              "internalType": "address",
              "name": "staticTarget",
              "type": "address"
            },
            {
              "internalType": "bytes",
              "name": "staticExtradata",
              "type": "bytes"
            },
            {
              "internalType": "address",
              "name": "paymentToken",
              "type": "address"
            },
            {
              "internalType": "uint256",
              "name": "basePrice",
              "type": "uint256"
            },
            {
              "internalType": "uint256",
              "name": "extra",
              "type": "uint256"
            },
            {
              "internalType": "uint256",
              "name": "listingTime",
              "type": "uint256"
            },
            {
              "internalType": "uint256",
              "name": "expirationTime",
              "type": "uint256"
            },
            {
              "internalType": "uint256",
              "name": "salt",
              "type": "uint256"
            },
            {
              "internalType": "bytes4",
              "name": "dataType",
              "type": "bytes4"
            },
            {
              "internalType": "bytes",
              "name": "data",
              "type": "bytes"
            }
          ],
          "internalType": "struct ExchangeCore.Order",
          "name": "order",
          "type": "tuple"
        }
      ],
      "name": "hashToSign",
      "outputs": [
        {
          "internalType": "bytes32",
          "name": "",
          "type": "bytes32"
        }
      ],
      "stateMutability": "pure",
      "type": "function"
    },
    {
      "inputs": [
        {
          "internalType": "contract ProxyRegistry",
          "name": "registryAddress",
          "type": "address"
        },
        {
          "internalType": "contract TokenTransferProxy",
          "name": "tokenTransferProxyAddress",
          "type": "address"
        },
        {
          "internalType": "contract ERC20Upgradeable",
          "name": "tokenAddress",
          "type": "address"
        },
        {
          "internalType": "address",
          "name": "protocolFeeAddress",
          "type": "address"
        },
        {
          "internalType": "address",
          "name": "devWalletAddress",
          "type": "address"
        }
      ],
      "name": "initialize",
      "outputs": [],
      "stateMutability": "nonpayable",
      "type": "function"
    },
    {
      "constant": true,
      "inputs": [],
      "name": "minimumMakerProtocolFee",
      "outputs": [
        {
          "internalType": "uint256",
          "name": "",
          "type": "uint256"
        }
      ],
      "stateMutability": "view",
      "type": "function"
    },
    {
      "constant": true,
      "inputs": [],
      "name": "minimumTakerProtocolFee",
      "outputs": [
        {
          "internalType": "uint256",
          "name": "",
          "type": "uint256"
        }
      ],
      "stateMutability": "view",
      "type": "function"
    },
    {
      "constant": true,
      "inputs": [],
      "name": "name",
      "outputs": [
        {
          "internalType": "string",
          "name": "",
          "type": "string"
        }
      ],
      "stateMutability": "view",
      "type": "function"
    },
    {
      "constant": true,
      "inputs": [
        {
          "internalType": "bytes",
          "name": "buyCalldata",
          "type": "bytes"
        },
        {
          "internalType": "bytes",
          "name": "buyReplacementPattern",
          "type": "bytes"
        },
        {
          "internalType": "bytes",
          "name": "sellCalldata",
          "type": "bytes"
        },
        {
          "internalType": "bytes",
          "name": "sellReplacementPattern",
          "type": "bytes"
        }
      ],
      "name": "orderCalldataCanMatch",
      "outputs": [
        {
          "internalType": "bool",
          "name": "",
          "type": "bool"
        }
      ],
      "stateMutability": "pure",
      "type": "function"
    },
    {
      "constant": true,
      "inputs": [
        {
          "components": [
            {
              "internalType": "address",
              "name": "exchange",
              "type": "address"
            },
            {
              "internalType": "address",
              "name": "maker",
              "type": "address"
            },
            {
              "internalType": "address",
              "name": "taker",
              "type": "address"
            },
            {
              "internalType": "uint256",
              "name": "makerRelayerFee",
              "type": "uint256"
            },
            {
              "internalType": "uint256",
              "name": "takerRelayerFee",
              "type": "uint256"
            },
            {
              "internalType": "uint256",
              "name": "makerProtocolFee",
              "type": "uint256"
            },
            {
              "internalType": "uint256",
              "name": "takerProtocolFee",
              "type": "uint256"
            },
            {
              "internalType": "address",
              "name": "feeRecipient",
              "type": "address"
            },
            {
              "internalType": "enum ExchangeCore.FeeMethod",
              "name": "feeMethod",
              "type": "uint8"
            },
            {
              "internalType": "enum SaleKindInterface.Side",
              "name": "side",
              "type": "uint8"
            },
            {
              "internalType": "enum SaleKindInterface.SaleKind",
              "name": "saleKind",
              "type": "uint8"
            },
            {
              "internalType": "address",
              "name": "target",
              "type": "address"
            },
            {
              "internalType": "enum AuthenticatedProxy.HowToCall",
              "name": "howToCall",
              "type": "uint8"
            },
            {
              "internalType": "bytes",
              "name": "calldatas",
              "type": "bytes"
            },
            {
              "internalType": "bytes",
              "name": "replacementPattern",
              "type": "bytes"
            },
            {
              "internalType": "address",
              "name": "staticTarget",
              "type": "address"
            },
            {
              "internalType": "bytes",
              "name": "staticExtradata",
              "type": "bytes"
            },
            {
              "internalType": "address",
              "name": "paymentToken",
              "type": "address"
            },
            {
              "internalType": "uint256",
              "name": "basePrice",
              "type": "uint256"
            },
            {
              "internalType": "uint256",
              "name": "extra",
              "type": "uint256"
            },
            {
              "internalType": "uint256",
              "name": "listingTime",
              "type": "uint256"
            },
            {
              "internalType": "uint256",
              "name": "expirationTime",
              "type": "uint256"
            },
            {
              "internalType": "uint256",
              "name": "salt",
              "type": "uint256"
            },
            {
              "internalType": "bytes4",
              "name": "dataType",
              "type": "bytes4"
            },
            {
              "internalType": "bytes",
              "name": "data",
              "type": "bytes"
            }
          ],
          "internalType": "struct ExchangeCore.Order",
          "name": "buy",
          "type": "tuple"
        },
        {
          "components": [
            {
              "internalType": "address",
              "name": "exchange",
              "type": "address"
            },
            {
              "internalType": "address",
              "name": "maker",
              "type": "address"
            },
            {
              "internalType": "address",
              "name": "taker",
              "type": "address"
            },
            {
              "internalType": "uint256",
              "name": "makerRelayerFee",
              "type": "uint256"
            },
            {
              "internalType": "uint256",
              "name": "takerRelayerFee",
              "type": "uint256"
            },
            {
              "internalType": "uint256",
              "name": "makerProtocolFee",
              "type": "uint256"
            },
            {
              "internalType": "uint256",
              "name": "takerProtocolFee",
              "type": "uint256"
            },
            {
              "internalType": "address",
              "name": "feeRecipient",
              "type": "address"
            },
            {
              "internalType": "enum ExchangeCore.FeeMethod",
              "name": "feeMethod",
              "type": "uint8"
            },
            {
              "internalType": "enum SaleKindInterface.Side",
              "name": "side",
              "type": "uint8"
            },
            {
              "internalType": "enum SaleKindInterface.SaleKind",
              "name": "saleKind",
              "type": "uint8"
            },
            {
              "internalType": "address",
              "name": "target",
              "type": "address"
            },
            {
              "internalType": "enum AuthenticatedProxy.HowToCall",
              "name": "howToCall",
              "type": "uint8"
            },
            {
              "internalType": "bytes",
              "name": "calldatas",
              "type": "bytes"
            },
            {
              "internalType": "bytes",
              "name": "replacementPattern",
              "type": "bytes"
            },
            {
              "internalType": "address",
              "name": "staticTarget",
              "type": "address"
            },
            {
              "internalType": "bytes",
              "name": "staticExtradata",
              "type": "bytes"
            },
            {
              "internalType": "address",
              "name": "paymentToken",
              "type": "address"
            },
            {
              "internalType": "uint256",
              "name": "basePrice",
              "type": "uint256"
            },
            {
              "internalType": "uint256",
              "name": "extra",
              "type": "uint256"
            },
            {
              "internalType": "uint256",
              "name": "listingTime",
              "type": "uint256"
            },
            {
              "internalType": "uint256",
              "name": "expirationTime",
              "type": "uint256"
            },
            {
              "internalType": "uint256",
              "name": "salt",
              "type": "uint256"
            },
            {
              "internalType": "bytes4",
              "name": "dataType",
              "type": "bytes4"
            },
            {
              "internalType": "bytes",
              "name": "data",
              "type": "bytes"
            }
          ],
          "internalType": "struct ExchangeCore.Order",
          "name": "sell",
          "type": "tuple"
        }
      ],
      "name": "ordersCanMatch",
      "outputs": [
        {
          "internalType": "bool",
          "name": "",
          "type": "bool"
        }
      ],
      "stateMutability": "view",
      "type": "function"
    },
    {
      "constant": true,
      "inputs": [],
      "name": "owner",
      "outputs": [
        {
          "internalType": "address",
          "name": "",
          "type": "address"
        }
      ],
      "stateMutability": "view",
      "type": "function"
    },
    {
      "constant": true,
      "inputs": [],
      "name": "protocolFeeRecipient",
      "outputs": [
        {
          "internalType": "address",
          "name": "",
          "type": "address"
        }
      ],
      "stateMutability": "view",
      "type": "function"
    },
    {
      "constant": true,
      "inputs": [],
      "name": "registry",
      "outputs": [
        {
          "internalType": "contract ProxyRegistry",
          "name": "",
          "type": "address"
        }
      ],
      "stateMutability": "view",
      "type": "function"
    },
    {
      "inputs": [],
      "name": "renounceOwnership",
      "outputs": [],
      "stateMutability": "nonpayable",
      "type": "function"
    },
    {
      "constant": true,
      "inputs": [
        {
          "internalType": "address",
          "name": "target",
          "type": "address"
        },
        {
          "internalType": "bytes",
          "name": "calldatas",
          "type": "bytes"
        },
        {
          "internalType": "bytes",
          "name": "extradata",
          "type": "bytes"
        }
      ],
      "name": "staticCall",
      "outputs": [
        {
          "internalType": "bool",
          "name": "result",
          "type": "bool"
        }
      ],
      "stateMutability": "view",
      "type": "function"
    },
    {
      "constant": true,
      "inputs": [
        {
          "internalType": "bytes",
          "name": "arrToCopy",
          "type": "bytes"
        }
      ],
      "name": "testCopy",
      "outputs": [
        {
          "internalType": "bytes",
          "name": "",
          "type": "bytes"
        }
      ],
      "stateMutability": "pure",
      "type": "function"
    },
    {
      "constant": true,
      "inputs": [
        {
          "internalType": "address",
          "name": "addr",
          "type": "address"
        }
      ],
      "name": "testCopyAddress",
      "outputs": [
        {
          "internalType": "bytes",
          "name": "",
          "type": "bytes"
        }
      ],
      "stateMutability": "pure",
      "type": "function"
    },
    {
      "constant": true,
      "inputs": [],
      "name": "tokenTransferProxy",
      "outputs": [
        {
          "internalType": "contract TokenTransferProxy",
          "name": "",
          "type": "address"
        }
      ],
      "stateMutability": "view",
      "type": "function"
    },
    {
      "inputs": [
        {
          "internalType": "address",
          "name": "newOwner",
          "type": "address"
        }
      ],
      "name": "transferOwnership",
      "outputs": [],
      "stateMutability": "nonpayable",
      "type": "function"
    },
    {
      "constant": true,
      "inputs": [
        {
          "internalType": "bytes32",
          "name": "hash",
          "type": "bytes32"
        },
        {
          "components": [
            {
              "internalType": "address",
              "name": "exchange",
              "type": "address"
            },
            {
              "internalType": "address",
              "name": "maker",
              "type": "address"
            },
            {
              "internalType": "address",
              "name": "taker",
              "type": "address"
            },
            {
              "internalType": "uint256",
              "name": "makerRelayerFee",
              "type": "uint256"
            },
            {
              "internalType": "uint256",
              "name": "takerRelayerFee",
              "type": "uint256"
            },
            {
              "internalType": "uint256",
              "name": "makerProtocolFee",
              "type": "uint256"
            },
            {
              "internalType": "uint256",
              "name": "takerProtocolFee",
              "type": "uint256"
            },
            {
              "internalType": "address",
              "name": "feeRecipient",
              "type": "address"
            },
            {
              "internalType": "enum ExchangeCore.FeeMethod",
              "name": "feeMethod",
              "type": "uint8"
            },
            {
              "internalType": "enum SaleKindInterface.Side",
              "name": "side",
              "type": "uint8"
            },
            {
              "internalType": "enum SaleKindInterface.SaleKind",
              "name": "saleKind",
              "type": "uint8"
            },
            {
              "internalType": "address",
              "name": "target",
              "type": "address"
            },
            {
              "internalType": "enum AuthenticatedProxy.HowToCall",
              "name": "howToCall",
              "type": "uint8"
            },
            {
              "internalType": "bytes",
              "name": "calldatas",
              "type": "bytes"
            },
            {
              "internalType": "bytes",
              "name": "replacementPattern",
              "type": "bytes"
            },
            {
              "internalType": "address",
              "name": "staticTarget",
              "type": "address"
            },
            {
              "internalType": "bytes",
              "name": "staticExtradata",
              "type": "bytes"
            },
            {
              "internalType": "address",
              "name": "paymentToken",
              "type": "address"
            },
            {
              "internalType": "uint256",
              "name": "basePrice",
              "type": "uint256"
            },
            {
              "internalType": "uint256",
              "name": "extra",
              "type": "uint256"
            },
            {
              "internalType": "uint256",
              "name": "listingTime",
              "type": "uint256"
            },
            {
              "internalType": "uint256",
              "name": "expirationTime",
              "type": "uint256"
            },
            {
              "internalType": "uint256",
              "name": "salt",
              "type": "uint256"
            },
            {
              "internalType": "bytes4",
              "name": "dataType",
              "type": "bytes4"
            },
            {
              "internalType": "bytes",
              "name": "data",
              "type": "bytes"
            }
          ],
          "internalType": "struct ExchangeCore.Order",
          "name": "order",
          "type": "tuple"
        },
        {
          "components": [
            {
              "internalType": "uint8",
              "name": "v",
              "type": "uint8"
            },
            {
              "internalType": "bytes32",
              "name": "r",
              "type": "bytes32"
            },
            {
              "internalType": "bytes32",
              "name": "s",
              "type": "bytes32"
            }
          ],
          "internalType": "struct ExchangeCore.Sig",
          "name": "sig",
          "type": "tuple"
        }
      ],
      "name": "validateOrder",
      "outputs": [
        {
          "internalType": "bool",
          "name": "",
          "type": "bool"
        }
      ],
      "stateMutability": "view",
      "type": "function"
    },
    {
      "constant": true,
      "inputs": [
        {
          "components": [
            {
              "internalType": "address",
              "name": "exchange",
              "type": "address"
            },
            {
              "internalType": "address",
              "name": "maker",
              "type": "address"
            },
            {
              "internalType": "address",
              "name": "taker",
              "type": "address"
            },
            {
              "internalType": "uint256",
              "name": "makerRelayerFee",
              "type": "uint256"
            },
            {
              "internalType": "uint256",
              "name": "takerRelayerFee",
              "type": "uint256"
            },
            {
              "internalType": "uint256",
              "name": "makerProtocolFee",
              "type": "uint256"
            },
            {
              "internalType": "uint256",
              "name": "takerProtocolFee",
              "type": "uint256"
            },
            {
              "internalType": "address",
              "name": "feeRecipient",
              "type": "address"
            },
            {
              "internalType": "enum ExchangeCore.FeeMethod",
              "name": "feeMethod",
              "type": "uint8"
            },
            {
              "internalType": "enum SaleKindInterface.Side",
              "name": "side",
              "type": "uint8"
            },
            {
              "internalType": "enum SaleKindInterface.SaleKind",
              "name": "saleKind",
              "type": "uint8"
            },
            {
              "internalType": "address",
              "name": "target",
              "type": "address"
            },
            {
              "internalType": "enum AuthenticatedProxy.HowToCall",
              "name": "howToCall",
              "type": "uint8"
            },
            {
              "internalType": "bytes",
              "name": "calldatas",
              "type": "bytes"
            },
            {
              "internalType": "bytes",
              "name": "replacementPattern",
              "type": "bytes"
            },
            {
              "internalType": "address",
              "name": "staticTarget",
              "type": "address"
            },
            {
              "internalType": "bytes",
              "name": "staticExtradata",
              "type": "bytes"
            },
            {
              "internalType": "address",
              "name": "paymentToken",
              "type": "address"
            },
            {
              "internalType": "uint256",
              "name": "basePrice",
              "type": "uint256"
            },
            {
              "internalType": "uint256",
              "name": "extra",
              "type": "uint256"
            },
            {
              "internalType": "uint256",
              "name": "listingTime",
              "type": "uint256"
            },
            {
              "internalType": "uint256",
              "name": "expirationTime",
              "type": "uint256"
            },
            {
              "internalType": "uint256",
              "name": "salt",
              "type": "uint256"
            },
            {
              "internalType": "bytes4",
              "name": "dataType",
              "type": "bytes4"
            },
            {
              "internalType": "bytes",
              "name": "data",
              "type": "bytes"
            }
          ],
          "internalType": "struct ExchangeCore.Order",
          "name": "order",
          "type": "tuple"
        }
      ],
      "name": "validateOrderParameters",
      "outputs": [
        {
          "internalType": "bool",
          "name": "",
          "type": "bool"
        }
      ],
      "stateMutability": "view",
      "type": "function"
    },
    {
      "constant": true,
      "inputs": [],
      "name": "version",
      "outputs": [
        {
          "internalType": "string",
          "name": "",
          "type": "string"
        }
      ],
      "stateMutability": "view",
      "type": "function"
    }
  ],
  "bytecode": "0x608060405234801561001057600080fd5b506131c0806100206000396000f3fe608060405234801561001057600080fd5b50600436106102265760003560e01c8063562b2ebc116101305780638ea5220f116100b8578063d57aa3201161007c578063d57aa3201461050e578063e57d4adb14610521578063ed08f9cb14610544578063f2fde38b14610557578063f3ec13681461056a57600080fd5b80638ea5220f146104b9578063a0958750146104cc578063a25eb5d9146104df578063b8a324b9146104f2578063cae6047f1461050557600080fd5b80637b103999116100ff5780637b103999146104565780637ccefc52146104695780638076f005146104725780638da5cb5b146104955780638e39248d146104a657600080fd5b8063562b2ebc1461041557806363d36c0b1461042857806364df049e1461043b578063715018a61461044e57600080fd5b806328a8ee68116101b35780633e1e292a116101825780633e1e292a146103a75780633fcaeb74146103ba578063514f0330146103cd5780635395b715146103e057806354fd4d50146103f357600080fd5b806328a8ee681461033f57806331e63199146103565780633342f127146103815780633464af6a1461039457600080fd5b806310796a47116101fa57806310796a47146102e057806314350c24146102f35780631459457a146103065780631a6b13e214610319578063239e83df1461032c57600080fd5b8062693f921461022b57806306fdde0314610240578063094f5f8e146102925780630eefdbad146102b5575b600080fd5b61023e610239366004612d11565b61057d565b005b61027c6040518060400160405280601781526020017f50726f6a6563742057797665726e2045786368616e676500000000000000000081525081565b6040516102899190612eeb565b60405180910390f35b6102a56102a03660046129d2565b6105f2565b6040519015158152602001610289565b6099546102c8906001600160a01b031681565b6040516001600160a01b039091168152602001610289565b6102a56102ee366004612927565b6106d9565b61023e6103013660046129b9565b610761565b61023e610314366004612b5f565b610799565b61023e6103273660046129b9565b61086c565b61027c61033a366004612a65565b61089b565b610348609d5481565b604051908152602001610289565b61027c6040518060400160405280600c81526020016b4c616d62746f6e20576f726d60a01b81525081565b61034861038f366004612cae565b6108b0565b61027c6103a23660046128ed565b610941565b61027c6103b5366004612a29565b61097d565b61023e6103c83660046128ed565b6109d5565b61023e6103db3660046128ed565b610a21565b6103486103ee366004612c29565b610a6d565b61027c6040518060400160405280600381526020016219171960e91b81525081565b6102a5610423366004612ab3565b610aa1565b610348610436366004612bd0565b610ad2565b609e546102c8906001600160a01b031681565b61023e610aef565b6098546102c8906001600160a01b031681565b610348609c5481565b6102a56104803660046129b9565b609a6020526000908152604090205460ff1681565b6065546001600160a01b03166102c8565b6103486104b4366004612c29565b610b25565b609f546102c8906001600160a01b031681565b6102a56104da366004612cae565b610d2c565b6097546102c8906001600160a01b031681565b61023e610500366004612d5f565b610f2a565b61034861271081565b61023e61051c366004612c5d565b61145e565b6102a561052f3660046129b9565b609b6020526000908152604090205460ff1681565b610348610552366004612c29565b6115f2565b61023e6105653660046128ed565b61164e565b6102a5610578366004612c29565b6116e9565b60006105898383611774565b905082602001516001600160a01b0316336001600160a01b0316146105ad57600080fd5b6000818152609a6020526040808220805460ff191660011790555182917f5152abf959f6564662358c2e52b702259b78bac5ee7842a0f01937e670efcc7d91a2505050565b60006105fd836116e9565b610609575060006106d2565b6000848152609a602052604090205460ff1615610628575060006106d2565b6000848152609b602052604090205460ff1615610647575060016106d2565b6020808401518351848301516040808701518151600081529586018083528a905260ff90931690850152606084015260808301526001600160a01b03169060019060a0016020604051602081039080840390855afa1580156106ad573d6000803e3d6000fd5b505050602060405103516001600160a01b031614156106ce575060016106d2565b5060005b9392505050565b600080825184516106ea9190613043565b6001600160401b0381111561070157610701613126565b6040519080825280601f01601f19166020018201604052801561072b576020820181803683370190505b5090506020810161073c8185611796565b90506107488186611796565b506000604051835160208501895afa9695505050505050565b6065546001600160a01b031633146107945760405162461bcd60e51b815260040161078b90612f9a565b60405180910390fd5b609c55565b600054610100900460ff166107b45760005460ff16156107b8565b303b155b61081b5760405162461bcd60e51b815260206004820152602e60248201527f496e697469616c697a61626c653a20636f6e747261637420697320616c72656160448201526d191e481a5b9a5d1a585b1a5e995960921b606482015260840161078b565b600054610100900460ff1615801561083d576000805461ffff19166101011790555b6108456117d9565b6108528686868686611810565b8015610864576000805461ff00191690555b505050505050565b6065546001600160a01b031633146108965760405162461bcd60e51b815260040161078b90612f9a565b609d55565b60606108a884848461184b565b509192915050565b6000806108df836101200151846101400151856102400151866102600151876102800151886102a001516119cf565b9050600061090f8561012001518661014001518761024001518861026001518961028001518a6102a001516119cf565b90508181101561091e57600080fd5b60e08401516001600160a01b03166109365780610938565b815b95945050505050565b60408051601480825281830190925260609160009190602082018180368337019050509050602081016109748185611a6a565b50909392505050565b6060600082516001600160401b0381111561099a5761099a613126565b6040519080825280601f01601f1916602001820160405280156109c4576020820181803683370190505b509050602081016109748185611796565b6065546001600160a01b031633146109ff5760405162461bcd60e51b815260040161078b90612f9a565b609f80546001600160a01b0319166001600160a01b0392909216919091179055565b6065546001600160a01b03163314610a4b5760405162461bcd60e51b815260040161078b90612f9a565b609e80546001600160a01b0319166001600160a01b0392909216919091179055565b6000610a9b826101200151836101400151846102400151856102600151866102800151876102a001516119cf565b92915050565b825160009015610ab657610ab685848661184b565b815115610ac857610ac883868461184b565b6109388584611a84565b6000610ae28787878787876119cf565b90505b9695505050505050565b6065546001600160a01b03163314610b195760405162461bcd60e51b815260040161078b90612f9a565b610b236000611ae8565b565b600080610b3183611b3a565b90506000816001600160401b03811115610b4d57610b4d613126565b6040519080825280601f01601f191660200182016040528015610b77576020820181803683370190505b5084519091506020820190610b8d908290611a6a565b9050610b9d818660200151611a6a565b9050610bad818660400151611a6a565b6060868101518252608080880151602084015260a0880151604084015260c08801519183019190915260e087015191019150610bea908290611a6a565b9050610c0c818661010001516001811115610c0757610c076130fa565b611b8e565b9050610c29818661012001516001811115610c0757610c076130fa565b9050610c46818661014001516001811115610c0757610c076130fa565b9050610c5781866101600151611a6a565b9050610c74818661018001516001811115610c0757610c076130fa565b9050610c8581866101a00151611796565b9050610c9681866101c00151611796565b9050610ca781866101e00151611a6a565b9050610cb881866102000151611796565b9050610cc981866102200151611a6a565b6102408601518152610260860151602082015261028086015160408201526102a086015160608201526102c086015160808201526102e086015160a082015261030086015160a49091019150610d20908290611796565b50506020012092915050565b6000808361012001516001811115610d4657610d466130fa565b148015610d69575060018261012001516001811115610d6757610d676130fa565b145b8015610da057508161010001516001811115610d8757610d876130fa565b8361010001516001811115610d9e57610d9e6130fa565b145b8015610dc757508161022001516001600160a01b03168361022001516001600160a01b0316145b8015610e01575060408201516001600160a01b03161580610e01575082602001516001600160a01b031682604001516001600160a01b0316145b8015610e3b575060408301516001600160a01b03161580610e3b575081602001516001600160a01b031683604001516001600160a01b0316145b8015610e96575060e08201516001600160a01b0316158015610e69575060e08301516001600160a01b031615155b80610e96575060e08201516001600160a01b031615801590610e96575060e08301516001600160a01b0316155b8015610ebd57508161016001516001600160a01b03168361016001516001600160a01b0316145b8015610ef457508161018001516001811115610edb57610edb6130fa565b8361018001516001811115610ef257610ef26130fa565b145b8015610f0f5750610f0f836102800151846102a00151611b9b565b80156106d257506106d2826102800151836102a00151611b9b565b60026001541415610f7d5760405162461bcd60e51b815260206004820152601f60248201527f5265656e7472616e637947756172643a207265656e7472616e742063616c6c00604482015260640161078b565b600260015560208501516000906001600160a01b0316331415610fb157610fa3866116e9565b610fac57600080fd5b610fbe565b610fbb8686611774565b90505b60208401516000906001600160a01b0316331415610fed57610fdf856116e9565b610fe857600080fd5b610ffa565b610ff78585611774565b90505b6110048786610d2c565b61100d57600080fd5b610160850151803b908161102057600080fd5b6101c0890151511561104657611046896101a00151886101a001518b6101c0015161184b565b6101c0870151511561106c5761106c876101a001518a6101a00151896101c0015161184b565b611080896101a00151886101a00151611a84565b61108957600080fd5b609854602088015160405163c455279160e01b81526001600160a01b039182166004820152600092919091169063c45527919060240160206040518083038186803b1580156110d757600080fd5b505afa1580156110eb573d6000803e3d6000fd5b505050506040513d601f19601f8201168201806040525081019061110f919061290a565b90506001600160a01b03811661112457600080fd5b609860009054906101000a90046001600160a01b03166001600160a01b03166397204d8e6040518163ffffffff1660e01b815260040160206040518083038186803b15801561117257600080fd5b505afa158015611186573d6000803e3d6000fd5b505050506040513d601f19601f820116820180604052508101906111aa919061290a565b6001600160a01b0316816001600160a01b0316635c60da1b6040518163ffffffff1660e01b815260040160206040518083038186803b1580156111ec57600080fd5b505afa158015611200573d6000803e3d6000fd5b505050506040513d601f19601f82011682018060405250810190611224919061290a565b6001600160a01b03161461123757600080fd5b60208a015181906001600160a01b03163314611267576000868152609a60205260409020805460ff191660011790555b88602001516001600160a01b0316336001600160a01b03161461129e576000858152609a60205260409020805460ff191660011790555b60006112aa8c8b611bb7565b9050816001600160a01b0316631b0f7ba98b61016001518c61018001518d6101a001516040518463ffffffff1660e01b81526004016112eb93929190612eba565b602060405180830381600087803b15801561130557600080fd5b505af1158015611319573d6000803e3d6000fd5b505050506040513d601f19601f8201168201806040525081019061133d919061299c565b61134657600080fd5b6101e08c01516001600160a01b03161561137d576113748c6101e001518b6101a001518e61020001516106d9565b61137d57600080fd5b6101e08a01516001600160a01b0316156113b4576113ab8a6101e001518b6101a001518c61020001516106d9565b6113b457600080fd5b60e08a015188906001600160a01b03166113d2578a602001516113d8565b8c602001515b60e08c01516001600160a01b0391821691166113f8578d602001516113fe565b8b602001515b604080518b8152602081018b90529081018590526001600160a01b0391909116907fc4109843e0b7d514e4c093114b863f8e7d8d9a458c372cd51bfe526b588006c99060600160405180910390a450506001805550505050505050505050565b81602001516001600160a01b0316336001600160a01b03161461148057600080fd5b600061148b836115f2565b6000818152609b602052604090205490915060ff16156114aa57600080fd5b6001609b600083815260200190815260200160002060006101000a81548160ff0219169083151502179055508260e001516001600160a01b031683602001516001600160a01b0316827f90c7f9f5b58c15f0f635bfb99f55d3d78fdbef3559e7d8abf5c81052a527662286600001518760400151886060015189608001518a60a001518b60c001518c61010001518d61012001518e61014001518f61016001516040516115609a99989796959493929190612e3c565b60405180910390a4807fe55393c778364e440d958b39ac1debd99dcfae3775a8a04d1e79124adf6a2d08846101800151856101a00151866101c00151876101e001518861020001518961022001518a61024001518b61026001518c61028001518d6102a001518e6102c001518e6040516115e59c9b9a99989796959493929190612efe565b60405180910390a2505050565b60006115fd82610b25565b6040517f19457468657265756d205369676e6564204d6573736167653a0a3332000000006020820152603c810191909152605c01604051602081830303815290604052805190602001209050919050565b6065546001600160a01b031633146116785760405162461bcd60e51b815260040161078b90612f9a565b6001600160a01b0381166116dd5760405162461bcd60e51b815260206004820152602660248201527f4f776e61626c653a206e6577206f776e657220697320746865207a65726f206160448201526564647265737360d01b606482015260840161078b565b6116e681611ae8565b50565b80516000906001600160a01b0316301461170557506000919050565b611719826101400151836102a00151612237565b61172557506000919050565b6001826101000151600181111561173e5761173e6130fa565b14801561175f5750609c548260a00151108061175f5750609d548260c00151105b1561176c57506000919050565b506001919050565b600080611780846115f2565b905061178d8185856105f2565b6106d257600080fd5b8051600090156117d257815180602001830160208401855b600183831014156117c95781518152602091820191016117ae565b50505092909201915b5090919050565b600054610100900460ff166118005760405162461bcd60e51b815260040161078b90612fcf565b61180861225b565b610b236122a2565b600054610100900460ff166118375760405162461bcd60e51b815260040161078b90612fcf565b61184485858585856122c9565b5050505050565b815183511461185957600080fd5b805183511461186757600080fd5b600060208451611877919061305b565b9050600061188682602061307d565b90508161189460208361305b565b146118a1576118a16130ce565b60005b828110156118de578060010160200280850151818701518116828901518219161782890152505080806118d6906130b3565b9150506118a4565b821561190b5782905080600101602002808501518187015181168289015182191617828901525050610864565b50805b85518110156108645784818151811061192957611929613110565b602001015160f81c60f81b84828151811061194657611946613110565b602001015160f81c60f81b1686828151811061196457611964613110565b602001015160f81c60f81b85838151811061198157611981613110565b602001015160f81c60f81b60ff60f81b1816178682815181106119a6576119a6613110565b60200101906001600160f81b031916908160001a905350806119c7816130b3565b91505061190e565b6000808660018111156119e4576119e46130fa565b14156119f1575083610ae5565b6001866001811115611a0557611a056130fa565b1415610ae5576000611a32611a2386611a1e428861234f565b61235b565b611a2d858761234f565b612367565b90506001886001811115611a4857611a486130fa565b1415611a6057611a58868261234f565b915050610ae5565b611a588682612373565b60601b6bffffffffffffffffffffffff1916815260140190565b815181516000916001918114808314611aa05760009250611ade565b600160208701838101602088015b600284838510011415611ad9578051835114611acd5760009650600093505b60209283019201611aae565b505050505b5090949350505050565b606580546001600160a01b038381166001600160a01b0319831681179093556040519116919082907f8be0079c531659141344cd1fd0a4f28419497f9722a3daafe3b4186f6b6457e090600090a35050565b60008161030001515182610200015151836101c0015151846101a00151516101b0611b659190613043565b611b6f9190613043565b611b799190613043565b611b84906004613043565b610a9b9190613043565b6000818353505060010190565b600042831080156106d257508115806106d25750504210919050565b6102208101516000906001600160a01b031615611bd9573415611bd957600080fd5b6000611be584846108b0565b9050600081118015611c0457506102208301516001600160a01b031615155b15611c2257611c22836102200151856020015185602001518461237f565b60e0830151819081906001600160a01b031615611f9757856080015185608001511115611c4e57600080fd5b60018561010001516001811115611c6757611c676130fa565b1415611f69578560c001518560c001511115611c8257600080fd5b606085015115611d25576000611ca7611c9f87606001518661235b565b612710612367565b6102208701519091506001600160a01b0316611d0a57611cc7838261234f565b60e08701516040519194506001600160a01b03169082156108fc029083906000818181858888f19350505050158015611d04573d6000803e3d6000fd5b50611d23565b611d2386610220015187602001518860e001518461237f565b505b608085015115611dc0576000611d42611c9f87608001518661235b565b6102208701519091506001600160a01b0316611da557611d628282612373565b60e08701516040519193506001600160a01b03169082156108fc029083906000818181858888f19350505050158015611d9f573d6000803e3d6000fd5b50611dbe565b611dbe86610220015188602001518860e001518461237f565b505b60a085015115611e92576000611ddd611c9f8760a001518661235b565b6102208701519091506001600160a01b0316611e3e57611dfd838261234f565b609e546040519194506001600160a01b03169082156108fc029083906000818181858888f19350505050158015611e38573d6000803e3d6000fd5b50611e90565b6097546102208701516001600160a01b0390811691161415611e6d57611e6886602001518261242a565b611e90565b6102208601516020870151609e54611e909291906001600160a01b03168461237f565b505b60c085015115611f64576000611eaf611c9f8760c001518661235b565b6102208701519091506001600160a01b0316611f1057611ecf8282612373565b609e546040519193506001600160a01b03169082156108fc029083906000818181858888f19350505050158015611f0a573d6000803e3d6000fd5b50611f62565b6097546102208701516001600160a01b0390811691161415611f3f57611f3a87602001518261242a565b611f62565b6102208601516020880151609e54611f629291906001600160a01b03168461237f565b505b61217b565b611f8085602001518660e001518760600151612518565b611f6486602001518660e001518760800151612518565b846080015186608001511115611fac57600080fd5b60018561010001516001811115611fc557611fc56130fa565b141561214d576102208501516001600160a01b0316611fe357600080fd5b8460c001518660c001511115611ff857600080fd5b606086015115612032576000612015611c9f88606001518661235b565b905061203086610220015188602001518960e001518461237f565b505b60808601511561206c57600061204f611c9f88608001518661235b565b905061206a86610220015187602001518960e001518461237f565b505b60a0860151156120e0576000612089611c9f8860a001518661235b565b6097546102208801519192506001600160a01b03918216911614156120bb576120b687602001518261242a565b6120de565b6102208601516020880151609e546120de9291906001600160a01b03168461237f565b505b60c086015115611f645760006120fd611c9f8860c001518661235b565b6097546102208801519192506001600160a01b039182169116141561212a57611f3a86602001518261242a565b6102208601516020870151609e54611f629291906001600160a01b03168461237f565b61216486602001518760e001518860600151612518565b61217b85602001518760e001518860800151612518565b6102208501516001600160a01b0316611ade578034101561219b57600080fd5b84602001516001600160a01b03166108fc839081150290604051600060405180830381858888f193505050501580156121d8573d6000803e3d6000fd5b5060006121e5348361234f565b9050801561222c5786602001516001600160a01b03166108fc829081150290604051600060405180830381858888f1935050505015801561222a573d6000803e3d6000fd5b505b505090949350505050565b60008083600181111561224c5761224c6130fa565b14806106d25750501515919050565b600054610100900460ff166122825760405162461bcd60e51b815260040161078b90612fcf565b61228a6122a2565b612292612535565b61229a612565565b610b23612592565b600054610100900460ff16610b235760405162461bcd60e51b815260040161078b90612fcf565b600054610100900460ff166122f05760405162461bcd60e51b815260040161078b90612fcf565b609880546001600160a01b03199081166001600160a01b03978816179091556099805482169587169590951790945560978054851693861693909317909255609e80548416918516919091179055609f80549092169216919091179055565b60006106d2828461309c565b60006106d2828461307d565b60006106d2828461305b565b60006106d28284613043565b801561242457609954604051630aed65f560e11b81526001600160a01b0386811660048301528581166024830152848116604483015260648201849052909116906315dacbea90608401602060405180830381600087803b1580156123e357600080fd5b505af11580156123f7573d6000803e3d6000fd5b505050506040513d601f19601f8201168201806040525081019061241b919061299c565b61242457600080fd5b50505050565b801561251457600061244761244083600a61235b565b6064612367565b905080600061245f612459858461234f565b8361234f565b609754609e54919250612481916001600160a01b03918216918891168461237f565b609754609f546124a0916001600160a01b03908116918891168661237f565b60995460975460405163ec60bcf360e01b81526001600160a01b03918216600482015287821660248201526044810185905291169063ec60bcf390606401600060405180830381600087803b1580156124f857600080fd5b505af115801561250c573d6000803e3d6000fd5b505050505050505b5050565b609754612530906001600160a01b031684848461237f565b505050565b600054610100900460ff1661255c5760405162461bcd60e51b815260040161078b90612fcf565b610b2333611ae8565b600054610100900460ff1661258c5760405162461bcd60e51b815260040161078b90612fcf565b60018055565b600054610100900460ff166125b95760405162461bcd60e51b815260040161078b90612fcf565b6000609c819055609d55565b80356125d08161315a565b919050565b80356001600160e01b0319811681146125d057600080fd5b600082601f8301126125fe57600080fd5b81356001600160401b038082111561261857612618613126565b604051601f8301601f19908116603f0116810190828211818310171561264057612640613126565b8160405283815286602085880101111561265957600080fd5b836020870160208301376000602085830101528094505050505092915050565b80356125d08161317d565b6000610320828403121561269757600080fd5b61269f61301a565b90506126aa826125c5565b81526126b8602083016125c5565b60208201526126c9604083016125c5565b6040820152606082013560608201526080820135608082015260a082013560a082015260c082013560c082015261270260e083016125c5565b60e0820152610100612715818401612679565b90820152610120612727838201612679565b90820152610140612739838201612679565b9082015261016061274b8382016125c5565b9082015261018061275d838201612679565b908201526101a0828101356001600160401b038082111561277d57600080fd5b612789868387016125ed565b838501526101c09250828501359150808211156127a557600080fd5b6127b1868387016125ed565b838501526101e092506127c58386016125c5565b838501526102009250828501359150808211156127e157600080fd5b6127ed868387016125ed565b8385015261022092506128018386016125c5565b928401929092526102408481013590840152610260808501359084015261028080850135908401526102a080850135908401526102c080850135908401526102e09161284e8386016125d5565b8385015261030092508285013591508082111561286a57600080fd5b50612877858286016125ed565b82840152505092915050565b60006060828403121561289557600080fd5b604051606081018181106001600160401b03821117156128b7576128b7613126565b604052905080823560ff811681146128ce57600080fd5b8082525060208301356020820152604083013560408201525092915050565b6000602082840312156128ff57600080fd5b81356106d28161315a565b60006020828403121561291c57600080fd5b81516106d28161315a565b60008060006060848603121561293c57600080fd5b83356129478161315a565b925060208401356001600160401b038082111561296357600080fd5b61296f878388016125ed565b9350604086013591508082111561298557600080fd5b50612992868287016125ed565b9150509250925092565b6000602082840312156129ae57600080fd5b81516106d28161316f565b6000602082840312156129cb57600080fd5b5035919050565b600080600060a084860312156129e757600080fd5b8335925060208401356001600160401b03811115612a0457600080fd5b612a1086828701612684565b925050612a208560408601612883565b90509250925092565b600060208284031215612a3b57600080fd5b81356001600160401b03811115612a5157600080fd5b612a5d848285016125ed565b949350505050565b600080600060608486031215612a7a57600080fd5b83356001600160401b0380821115612a9157600080fd5b612a9d878388016125ed565b9450602086013591508082111561296357600080fd5b60008060008060808587031215612ac957600080fd5b84356001600160401b0380821115612ae057600080fd5b612aec888389016125ed565b95506020870135915080821115612b0257600080fd5b612b0e888389016125ed565b94506040870135915080821115612b2457600080fd5b612b30888389016125ed565b93506060870135915080821115612b4657600080fd5b50612b53878288016125ed565b91505092959194509250565b600080600080600060a08688031215612b7757600080fd5b8535612b828161315a565b94506020860135612b928161315a565b93506040860135612ba28161315a565b92506060860135612bb28161315a565b91506080860135612bc28161315a565b809150509295509295909350565b60008060008060008060c08789031215612be957600080fd5b8635612bf48161317d565b95506020870135612c048161317d565b95989597505050506040840135936060810135936080820135935060a0909101359150565b600060208284031215612c3b57600080fd5b81356001600160401b03811115612c5157600080fd5b612a5d84828501612684565b60008060408385031215612c7057600080fd5b82356001600160401b03811115612c8657600080fd5b612c9285828601612684565b9250506020830135612ca38161316f565b809150509250929050565b60008060408385031215612cc157600080fd5b82356001600160401b0380821115612cd857600080fd5b612ce486838701612684565b93506020850135915080821115612cfa57600080fd5b50612d0785828601612684565b9150509250929050565b60008060808385031215612d2457600080fd5b82356001600160401b03811115612d3a57600080fd5b612d4685828601612684565b925050612d568460208501612883565b90509250929050565b60008060008060006101208688031215612d7857600080fd5b85356001600160401b0380821115612d8f57600080fd5b612d9b89838a01612684565b9650612daa8960208a01612883565b95506080880135915080821115612dc057600080fd5b50612dcd88828901612684565b935050612ddd8760a08801612883565b94979396509194610100013592915050565b6000815180845260005b81811015612e1557602081850181015186830182015201612df9565b81811115612e27576000602083870101525b50601f01601f19169290920160200192915050565b6001600160a01b038b811682528a81166020830152604082018a9052606082018990526080820188905260a08201879052610140820190612e7c8761313c565b8660c0840152612e8b8661313c565b8560e0840152612e9a8561313c565b84610100840152808416610120840152509b9a5050505050505050505050565b6001600160a01b0384168152612ecf8361313c565b8260208201526060604082015260006109386060830184612def565b6020815260006106d26020830184612def565b6000610180612f0c8f61313c565b8e8352806020840152612f218184018f612def565b90508281036040840152612f35818e612def565b6001600160a01b038d811660608601528482036080860152909150612f5a828d612def565b9a1660a0840152505060c081019690965260e086019490945261010085019290925261012084015261014083015215156101609091015295945050505050565b6020808252818101527f4f776e61626c653a2063616c6c6572206973206e6f7420746865206f776e6572604082015260600190565b6020808252602b908201527f496e697469616c697a61626c653a20636f6e7472616374206973206e6f74206960408201526a6e697469616c697a696e6760a81b606082015260800190565b60405161032081016001600160401b038111828210171561303d5761303d613126565b60405290565b60008219821115613056576130566130e4565b500190565b60008261307857634e487b7160e01b600052601260045260246000fd5b500490565b6000816000190483118215151615613097576130976130e4565b500290565b6000828210156130ae576130ae6130e4565b500390565b60006000198214156130c7576130c76130e4565b5060010190565b634e487b7160e01b600052600160045260246000fd5b634e487b7160e01b600052601160045260246000fd5b634e487b7160e01b600052602160045260246000fd5b634e487b7160e01b600052603260045260246000fd5b634e487b7160e01b600052604160045260246000fd5b600281106116e657634e487b7160e01b600052602160045260246000fd5b6001600160a01b03811681146116e657600080fd5b80151581146116e657600080fd5b600281106116e657600080fdfea26469706673582212205ad7fb999db55993ca6a6f2a4fa37c9140b6daf9d4a55ce1fce7204e5fcbd0cc64736f6c63430008070033",
  "linkReferences": {},
  "deployedLinkReferences": {}
}