{
  "contractName": "WyvernAtomicizer",
  "abi": [
    {
      "constant": false,
      "inputs": [
        {
          "name": "addrs",
          "type": "address[]"
        },
        {
          "name": "values",
          "type": "uint256[]"
        },
        {
          "name": "calldataLengths",
          "type": "uint256[]"
        },
        {
          "name": "calldatas",
          "type": "bytes"
        }
      ],
      "name": "atomicize",
      "outputs": [],
      "payable": false,
      "stateMutability": "nonpayable",
      "type": "function"
    }
  ],
  "bytecode": "0x61051661003a600b82828239805160001a60731461002d57634e487b7160e01b600052600060045260246000fd5b30600052607381538281f3fe73000000000000000000000000000000000000000030146080604052600436106100355760003560e01c806368f0bcaa1461003a575b600080fd5b81801561004657600080fd5b5061005a61005536600461035f565b61005c565b005b868514801561006a57508683145b6100e15760405162461bcd60e51b815260206004820152603e60248201527f4164647265737365732c2063616c6c64617461206c656e677468732c20616e6460448201527f2076616c756573206d757374206d6174636820696e207175616e74697479000060648201526084015b60405180910390fd5b6000805b888110156102d7576000868683818110610101576101016104b4565b9050602002013567ffffffffffffffff811115610120576101206104ca565b6040519080825280601f01601f19166020018201604052801561014a576020820181803683370190505b50905060005b878784818110610162576101626104b4565b905060200201358110156101d557858585818110610182576101826104b4565b9050013560f81c60f81b82828151811061019e5761019e6104b4565b60200101906001600160f81b031916908160001a905350836101bf8161048b565b94505080806101cd9061048b565b915050610150565b5060008b8b848181106101ea576101ea6104b4565b90506020020160208101906101ff919061032f565b6001600160a01b03168a8a8581811061021a5761021a6104b4565b905060200201358360405161022f9190610450565b60006040518083038185875af1925050503d806000811461026c576040519150601f19603f3d011682016040523d82523d6000602084013e610271565b606091505b50509050806102c25760405162461bcd60e51b815260206004820152601960248201527f41746f6d6963697a65722073756263616c6c206661696c65640000000000000060448201526064016100d8565b505080806102cf9061048b565b9150506100e5565b50505050505050505050565b60008083601f8401126102f557600080fd5b50813567ffffffffffffffff81111561030d57600080fd5b6020830191508360208260051b850101111561032857600080fd5b9250929050565b60006020828403121561034157600080fd5b81356001600160a01b038116811461035857600080fd5b9392505050565b6000806000806000806000806080898b03121561037b57600080fd5b883567ffffffffffffffff8082111561039357600080fd5b61039f8c838d016102e3565b909a50985060208b01359150808211156103b857600080fd5b6103c48c838d016102e3565b909850965060408b01359150808211156103dd57600080fd5b6103e98c838d016102e3565b909650945060608b013591508082111561040257600080fd5b818b0191508b601f83011261041657600080fd5b81358181111561042557600080fd5b8c602082850101111561043757600080fd5b6020830194508093505050509295985092959890939650565b6000825160005b818110156104715760208186018101518583015201610457565b81811115610480576000828501525b509190910192915050565b60006000198214156104ad57634e487b7160e01b600052601160045260246000fd5b5060010190565b634e487b7160e01b600052603260045260246000fd5b634e487b7160e01b600052604160045260246000fdfea2646970667358221220e5b06af1b0d36b322862f0a8574bb1aa4dcb55779bdb7317fbcc966fa9df192864736f6c63430008070033",
  "immutableReferences": {},
  "source": "/*\n\n  << Project Wyvern Atomicizer >>\n\n  Execute multiple transactions, in order, atomically (if any fails, all revert).\n  This contract MUST be DELEGATECALLed.\n\n*/\n\n// SPDX-License-Identifier: MIT\n\npragma solidity 0.8.7;\n\n/**\n * @title WyvernAtomicizer\n * @author Project Wyvern Developers\n */\nlibrary WyvernAtomicizer {\n\n    function atomicize (address[] calldata addrs, uint[] calldata values, uint[] calldata calldataLengths, bytes calldata calldatas)\n        public\n    {\n        require(addrs.length == values.length && addrs.length == calldataLengths.length, \"Addresses, calldata lengths, and values must match in quantity\");\n\n        uint j = 0;\n        for (uint i = 0; i < addrs.length; i++) {\n            bytes memory cd = new bytes(calldataLengths[i]);\n            for (uint k = 0; k < calldataLengths[i]; k++) {\n                cd[k] = calldatas[j];\n                j++;\n            }\n            (bool success,) = addrs[i].call{value: values[i]}(cd);\n            require(success, \"Atomicizer subcall failed\");\n        }\n    }\n\n}\n",
  "sourcePath": "/Users/ronak/Developer/projects/tsgit/wyvern-js/src/wyvern-ethereum/contracts/WyvernAtomicizer.sol",
  "compiler": {
    "name": "solc",
    "version": "0.8.7+commit.e28d00a7.Emscripten.clang"
  },
  "schemaVersion": "3.2.0",
  "updatedAt": "2022-01-11T06:39:41.522Z",
  "devdoc": {
    "author": "Project Wyvern Developers",
    "kind": "dev",
    "methods": {},
    "title": "WyvernAtomicizer",
    "version": 1
  },
  "userdoc": {
    "kind": "user",
    "methods": {},
    "version": 1
  }
}