{
  "_format": "hh-sol-artifact-1",
  "contractName": "WyvernExchange",
  "sourceName": "contracts/WyvernExchange.sol",
  "abi": [
    {
      "anonymous": false,
      "inputs": [
        {
          "indexed": true,
          "internalType": "bytes32",
          "name": "hash",
          "type": "bytes32"
        },
        {
          "indexed": false,
          "internalType": "address",
          "name": "exchange",
          "type": "address"
        },
        {
          "indexed": true,
          "internalType": "address",
          "name": "maker",
          "type": "address"
        },
        {
          "indexed": false,
          "internalType": "address",
          "name": "taker",
          "type": "address"
        },
        {
          "indexed": false,
          "internalType": "uint256",
          "name": "makerRelayerFee",
          "type": "uint256"
        },
        {
          "indexed": false,
          "internalType": "uint256",
          "name": "takerRelayerFee",
          "type": "uint256"
        },
        {
          "indexed": false,
          "internalType": "uint256",
          "name": "makerProtocolFee",
          "type": "uint256"
        },
        {
          "indexed": false,
          "internalType": "uint256",
          "name": "takerProtocolFee",
          "type": "uint256"
        },
        {
          "indexed": true,
          "internalType": "address",
          "name": "feeRecipient",
          "type": "address"
        },
        {
          "indexed": false,
          "internalType": "enum ExchangeCore.FeeMethod",
          "name": "feeMethod",
          "type": "uint8"
        },
        {
          "indexed": false,
          "internalType": "enum SaleKindInterface.Side",
          "name": "side",
          "type": "uint8"
        },
        {
          "indexed": false,
          "internalType": "enum SaleKindInterface.SaleKind",
          "name": "saleKind",
          "type": "uint8"
        },
        {
          "indexed": false,
          "internalType": "address",
          "name": "target",
          "type": "address"
        }
      ],
      "name": "OrderApprovedPartOne",
      "type": "event"
    },
    {
      "anonymous": false,
      "inputs": [
        {
          "indexed": true,
          "internalType": "bytes32",
          "name": "hash",
          "type": "bytes32"
        },
        {
          "indexed": false,
          "internalType": "enum AuthenticatedProxy.HowToCall",
          "name": "howToCall",
          "type": "uint8"
        },
        {
          "indexed": false,
          "internalType": "bytes",
          "name": "calldatas",
          "type": "bytes"
        },
        {
          "indexed": false,
          "internalType": "bytes",
          "name": "replacementPattern",
          "type": "bytes"
        },
        {
          "indexed": false,
          "internalType": "address",
          "name": "staticTarget",
          "type": "address"
        },
        {
          "indexed": false,
          "internalType": "bytes",
          "name": "staticExtradata",
          "type": "bytes"
        },
        {
          "indexed": false,
          "internalType": "address",
          "name": "paymentToken",
          "type": "address"
        },
        {
          "indexed": false,
          "internalType": "uint256",
          "name": "basePrice",
          "type": "uint256"
        },
        {
          "indexed": false,
          "internalType": "uint256",
          "name": "extra",
          "type": "uint256"
        },
        {
          "indexed": false,
          "internalType": "uint256",
          "name": "listingTime",
          "type": "uint256"
        },
        {
          "indexed": false,
          "internalType": "uint256",
          "name": "expirationTime",
          "type": "uint256"
        },
        {
          "indexed": false,
          "internalType": "uint256",
          "name": "salt",
          "type": "uint256"
        },
        {
          "indexed": false,
          "internalType": "bool",
          "name": "orderbookInclusionDesired",
          "type": "bool"
        }
      ],
      "name": "OrderApprovedPartTwo",
      "type": "event"
    },
    {
      "anonymous": false,
      "inputs": [
        {
          "indexed": true,
          "internalType": "bytes32",
          "name": "hash",
          "type": "bytes32"
        }
      ],
      "name": "OrderCancelled",
      "type": "event"
    },
    {
      "anonymous": false,
      "inputs": [
        {
          "indexed": false,
          "internalType": "bytes32",
          "name": "buyHash",
          "type": "bytes32"
        },
        {
          "indexed": false,
          "internalType": "bytes32",
          "name": "sellHash",
          "type": "bytes32"
        },
        {
          "indexed": true,
          "internalType": "address",
          "name": "maker",
          "type": "address"
        },
        {
          "indexed": true,
          "internalType": "address",
          "name": "taker",
          "type": "address"
        },
        {
          "indexed": false,
          "internalType": "uint256",
          "name": "price",
          "type": "uint256"
        },
        {
          "indexed": true,
          "internalType": "bytes32",
          "name": "metadata",
          "type": "bytes32"
        }
      ],
      "name": "OrdersMatched",
      "type": "event"
    },
    {
      "anonymous": false,
      "inputs": [
        {
          "indexed": true,
          "internalType": "address",
          "name": "previousOwner",
          "type": "address"
        },
        {
          "indexed": true,
          "internalType": "address",
          "name": "newOwner",
          "type": "address"
        }
      ],
      "name": "OwnershipTransferred",
      "type": "event"
    },
    {
      "inputs": [],
      "name": "INVERSE_BASIS_POINT",
      "outputs": [
        {
          "internalType": "uint256",
          "name": "",
          "type": "uint256"
        }
      ],
      "stateMutability": "view",
      "type": "function"
    },
    {
      "inputs": [
        {
          "components": [
            {
              "internalType": "address",
              "name": "exchange",
              "type": "address"
            },
            {
              "internalType": "address",
              "name": "maker",
              "type": "address"
            },
            {
              "internalType": "address",
              "name": "taker",
              "type": "address"
            },
            {
              "internalType": "uint256",
              "name": "makerRelayerFee",
              "type": "uint256"
            },
            {
              "internalType": "uint256",
              "name": "takerRelayerFee",
              "type": "uint256"
            },
            {
              "internalType": "uint256",
              "name": "makerProtocolFee",
              "type": "uint256"
            },
            {
              "internalType": "uint256",
              "name": "takerProtocolFee",
              "type": "uint256"
            },
            {
              "internalType": "address",
              "name": "feeRecipient",
              "type": "address"
            },
            {
              "internalType": "enum ExchangeCore.FeeMethod",
              "name": "feeMethod",
              "type": "uint8"
            },
            {
              "internalType": "enum SaleKindInterface.Side",
              "name": "side",
              "type": "uint8"
            },
            {
              "internalType": "enum SaleKindInterface.SaleKind",
              "name": "saleKind",
              "type": "uint8"
            },
            {
              "internalType": "address",
              "name": "target",
              "type": "address"
            },
            {
              "internalType": "enum AuthenticatedProxy.HowToCall",
              "name": "howToCall",
              "type": "uint8"
            },
            {
              "internalType": "bytes",
              "name": "calldatas",
              "type": "bytes"
            },
            {
              "internalType": "bytes",
              "name": "replacementPattern",
              "type": "bytes"
            },
            {
              "internalType": "address",
              "name": "staticTarget",
              "type": "address"
            },
            {
              "internalType": "bytes",
              "name": "staticExtradata",
              "type": "bytes"
            },
            {
              "internalType": "address",
              "name": "paymentToken",
              "type": "address"
            },
            {
              "internalType": "uint256",
              "name": "basePrice",
              "type": "uint256"
            },
            {
              "internalType": "uint256",
              "name": "extra",
              "type": "uint256"
            },
            {
              "internalType": "uint256",
              "name": "listingTime",
              "type": "uint256"
            },
            {
              "internalType": "uint256",
              "name": "expirationTime",
              "type": "uint256"
            },
            {
              "internalType": "uint256",
              "name": "salt",
              "type": "uint256"
            }
          ],
          "internalType": "struct ExchangeCore.Order",
          "name": "order",
          "type": "tuple"
        },
        {
          "internalType": "bool",
          "name": "orderbookInclusionDesired",
          "type": "bool"
        }
      ],
      "name": "approveOrder",
      "outputs": [],
      "stateMutability": "nonpayable",
      "type": "function"
    },
    {
      "inputs": [
        {
          "internalType": "bytes32",
          "name": "",
          "type": "bytes32"
        }
      ],
      "name": "approvedOrders",
      "outputs": [
        {
          "internalType": "bool",
          "name": "",
          "type": "bool"
        }
      ],
      "stateMutability": "view",
      "type": "function"
    },
    {
      "inputs": [
        {
          "components": [
            {
              "internalType": "address",
              "name": "exchange",
              "type": "address"
            },
            {
              "internalType": "address",
              "name": "maker",
              "type": "address"
            },
            {
              "internalType": "address",
              "name": "taker",
              "type": "address"
            },
            {
              "internalType": "uint256",
              "name": "makerRelayerFee",
              "type": "uint256"
            },
            {
              "internalType": "uint256",
              "name": "takerRelayerFee",
              "type": "uint256"
            },
            {
              "internalType": "uint256",
              "name": "makerProtocolFee",
              "type": "uint256"
            },
            {
              "internalType": "uint256",
              "name": "takerProtocolFee",
              "type": "uint256"
            },
            {
              "internalType": "address",
              "name": "feeRecipient",
              "type": "address"
            },
            {
              "internalType": "enum ExchangeCore.FeeMethod",
              "name": "feeMethod",
              "type": "uint8"
            },
            {
              "internalType": "enum SaleKindInterface.Side",
              "name": "side",
              "type": "uint8"
            },
            {
              "internalType": "enum SaleKindInterface.SaleKind",
              "name": "saleKind",
              "type": "uint8"
            },
            {
              "internalType": "address",
              "name": "target",
              "type": "address"
            },
            {
              "internalType": "enum AuthenticatedProxy.HowToCall",
              "name": "howToCall",
              "type": "uint8"
            },
            {
              "internalType": "bytes",
              "name": "calldatas",
              "type": "bytes"
            },
            {
              "internalType": "bytes",
              "name": "replacementPattern",
              "type": "bytes"
            },
            {
              "internalType": "address",
              "name": "staticTarget",
              "type": "address"
            },
            {
              "internalType": "bytes",
              "name": "staticExtradata",
              "type": "bytes"
            },
            {
              "internalType": "address",
              "name": "paymentToken",
              "type": "address"
            },
            {
              "internalType": "uint256",
              "name": "basePrice",
              "type": "uint256"
            },
            {
              "internalType": "uint256",
              "name": "extra",
              "type": "uint256"
            },
            {
              "internalType": "uint256",
              "name": "listingTime",
              "type": "uint256"
            },
            {
              "internalType": "uint256",
              "name": "expirationTime",
              "type": "uint256"
            },
            {
              "internalType": "uint256",
              "name": "salt",
              "type": "uint256"
            }
          ],
          "internalType": "struct ExchangeCore.Order",
          "name": "buy",
          "type": "tuple"
        },
        {
          "components": [
            {
              "internalType": "uint8",
              "name": "v",
              "type": "uint8"
            },
            {
              "internalType": "bytes32",
              "name": "r",
              "type": "bytes32"
            },
            {
              "internalType": "bytes32",
              "name": "s",
              "type": "bytes32"
            }
          ],
          "internalType": "struct ExchangeCore.Sig",
          "name": "buySig",
          "type": "tuple"
        },
        {
          "components": [
            {
              "internalType": "address",
              "name": "exchange",
              "type": "address"
            },
            {
              "internalType": "address",
              "name": "maker",
              "type": "address"
            },
            {
              "internalType": "address",
              "name": "taker",
              "type": "address"
            },
            {
              "internalType": "uint256",
              "name": "makerRelayerFee",
              "type": "uint256"
            },
            {
              "internalType": "uint256",
              "name": "takerRelayerFee",
              "type": "uint256"
            },
            {
              "internalType": "uint256",
              "name": "makerProtocolFee",
              "type": "uint256"
            },
            {
              "internalType": "uint256",
              "name": "takerProtocolFee",
              "type": "uint256"
            },
            {
              "internalType": "address",
              "name": "feeRecipient",
              "type": "address"
            },
            {
              "internalType": "enum ExchangeCore.FeeMethod",
              "name": "feeMethod",
              "type": "uint8"
            },
            {
              "internalType": "enum SaleKindInterface.Side",
              "name": "side",
              "type": "uint8"
            },
            {
              "internalType": "enum SaleKindInterface.SaleKind",
              "name": "saleKind",
              "type": "uint8"
            },
            {
              "internalType": "address",
              "name": "target",
              "type": "address"
            },
            {
              "internalType": "enum AuthenticatedProxy.HowToCall",
              "name": "howToCall",
              "type": "uint8"
            },
            {
              "internalType": "bytes",
              "name": "calldatas",
              "type": "bytes"
            },
            {
              "internalType": "bytes",
              "name": "replacementPattern",
              "type": "bytes"
            },
            {
              "internalType": "address",
              "name": "staticTarget",
              "type": "address"
            },
            {
              "internalType": "bytes",
              "name": "staticExtradata",
              "type": "bytes"
            },
            {
              "internalType": "address",
              "name": "paymentToken",
              "type": "address"
            },
            {
              "internalType": "uint256",
              "name": "basePrice",
              "type": "uint256"
            },
            {
              "internalType": "uint256",
              "name": "extra",
              "type": "uint256"
            },
            {
              "internalType": "uint256",
              "name": "listingTime",
              "type": "uint256"
            },
            {
              "internalType": "uint256",
              "name": "expirationTime",
              "type": "uint256"
            },
            {
              "internalType": "uint256",
              "name": "salt",
              "type": "uint256"
            }
          ],
          "internalType": "struct ExchangeCore.Order",
          "name": "sell",
          "type": "tuple"
        },
        {
          "components": [
            {
              "internalType": "uint8",
              "name": "v",
              "type": "uint8"
            },
            {
              "internalType": "bytes32",
              "name": "r",
              "type": "bytes32"
            },
            {
              "internalType": "bytes32",
              "name": "s",
              "type": "bytes32"
            }
          ],
          "internalType": "struct ExchangeCore.Sig",
          "name": "sellSig",
          "type": "tuple"
        },
        {
          "internalType": "bytes32",
          "name": "metadata",
          "type": "bytes32"
        }
      ],
      "name": "atomicMatch",
      "outputs": [],
      "stateMutability": "nonpayable",
      "type": "function"
    },
    {
      "inputs": [
        {
          "components": [
            {
              "internalType": "address",
              "name": "exchange",
              "type": "address"
            },
            {
              "internalType": "address",
              "name": "maker",
              "type": "address"
            },
            {
              "internalType": "address",
              "name": "taker",
              "type": "address"
            },
            {
              "internalType": "uint256",
              "name": "makerRelayerFee",
              "type": "uint256"
            },
            {
              "internalType": "uint256",
              "name": "takerRelayerFee",
              "type": "uint256"
            },
            {
              "internalType": "uint256",
              "name": "makerProtocolFee",
              "type": "uint256"
            },
            {
              "internalType": "uint256",
              "name": "takerProtocolFee",
              "type": "uint256"
            },
            {
              "internalType": "address",
              "name": "feeRecipient",
              "type": "address"
            },
            {
              "internalType": "enum ExchangeCore.FeeMethod",
              "name": "feeMethod",
              "type": "uint8"
            },
            {
              "internalType": "enum SaleKindInterface.Side",
              "name": "side",
              "type": "uint8"
            },
            {
              "internalType": "enum SaleKindInterface.SaleKind",
              "name": "saleKind",
              "type": "uint8"
            },
            {
              "internalType": "address",
              "name": "target",
              "type": "address"
            },
            {
              "internalType": "enum AuthenticatedProxy.HowToCall",
              "name": "howToCall",
              "type": "uint8"
            },
            {
              "internalType": "bytes",
              "name": "calldatas",
              "type": "bytes"
            },
            {
              "internalType": "bytes",
              "name": "replacementPattern",
              "type": "bytes"
            },
            {
              "internalType": "address",
              "name": "staticTarget",
              "type": "address"
            },
            {
              "internalType": "bytes",
              "name": "staticExtradata",
              "type": "bytes"
            },
            {
              "internalType": "address",
              "name": "paymentToken",
              "type": "address"
            },
            {
              "internalType": "uint256",
              "name": "basePrice",
              "type": "uint256"
            },
            {
              "internalType": "uint256",
              "name": "extra",
              "type": "uint256"
            },
            {
              "internalType": "uint256",
              "name": "listingTime",
              "type": "uint256"
            },
            {
              "internalType": "uint256",
              "name": "expirationTime",
              "type": "uint256"
            },
            {
              "internalType": "uint256",
              "name": "salt",
              "type": "uint256"
            }
          ],
          "internalType": "struct ExchangeCore.Order",
          "name": "order",
          "type": "tuple"
        }
      ],
      "name": "calculateCurrentPrice",
      "outputs": [
        {
          "internalType": "uint256",
          "name": "",
          "type": "uint256"
        }
      ],
      "stateMutability": "view",
      "type": "function"
    },
    {
      "inputs": [
        {
          "internalType": "enum SaleKindInterface.Side",
          "name": "side",
          "type": "uint8"
        },
        {
          "internalType": "enum SaleKindInterface.SaleKind",
          "name": "saleKind",
          "type": "uint8"
        },
        {
          "internalType": "uint256",
          "name": "basePrice",
          "type": "uint256"
        },
        {
          "internalType": "uint256",
          "name": "extra",
          "type": "uint256"
        },
        {
          "internalType": "uint256",
          "name": "listingTime",
          "type": "uint256"
        },
        {
          "internalType": "uint256",
          "name": "expirationTime",
          "type": "uint256"
        }
      ],
      "name": "calculateFinalPrice",
      "outputs": [
        {
          "internalType": "uint256",
          "name": "",
          "type": "uint256"
        }
      ],
      "stateMutability": "view",
      "type": "function"
    },
    {
      "inputs": [
        {
          "components": [
            {
              "internalType": "address",
              "name": "exchange",
              "type": "address"
            },
            {
              "internalType": "address",
              "name": "maker",
              "type": "address"
            },
            {
              "internalType": "address",
              "name": "taker",
              "type": "address"
            },
            {
              "internalType": "uint256",
              "name": "makerRelayerFee",
              "type": "uint256"
            },
            {
              "internalType": "uint256",
              "name": "takerRelayerFee",
              "type": "uint256"
            },
            {
              "internalType": "uint256",
              "name": "makerProtocolFee",
              "type": "uint256"
            },
            {
              "internalType": "uint256",
              "name": "takerProtocolFee",
              "type": "uint256"
            },
            {
              "internalType": "address",
              "name": "feeRecipient",
              "type": "address"
            },
            {
              "internalType": "enum ExchangeCore.FeeMethod",
              "name": "feeMethod",
              "type": "uint8"
            },
            {
              "internalType": "enum SaleKindInterface.Side",
              "name": "side",
              "type": "uint8"
            },
            {
              "internalType": "enum SaleKindInterface.SaleKind",
              "name": "saleKind",
              "type": "uint8"
            },
            {
              "internalType": "address",
              "name": "target",
              "type": "address"
            },
            {
              "internalType": "enum AuthenticatedProxy.HowToCall",
              "name": "howToCall",
              "type": "uint8"
            },
            {
              "internalType": "bytes",
              "name": "calldatas",
              "type": "bytes"
            },
            {
              "internalType": "bytes",
              "name": "replacementPattern",
              "type": "bytes"
            },
            {
              "internalType": "address",
              "name": "staticTarget",
              "type": "address"
            },
            {
              "internalType": "bytes",
              "name": "staticExtradata",
              "type": "bytes"
            },
            {
              "internalType": "address",
              "name": "paymentToken",
              "type": "address"
            },
            {
              "internalType": "uint256",
              "name": "basePrice",
              "type": "uint256"
            },
            {
              "internalType": "uint256",
              "name": "extra",
              "type": "uint256"
            },
            {
              "internalType": "uint256",
              "name": "listingTime",
              "type": "uint256"
            },
            {
              "internalType": "uint256",
              "name": "expirationTime",
              "type": "uint256"
            },
            {
              "internalType": "uint256",
              "name": "salt",
              "type": "uint256"
            }
          ],
          "internalType": "struct ExchangeCore.Order",
          "name": "buy",
          "type": "tuple"
        },
        {
          "components": [
            {
              "internalType": "address",
              "name": "exchange",
              "type": "address"
            },
            {
              "internalType": "address",
              "name": "maker",
              "type": "address"
            },
            {
              "internalType": "address",
              "name": "taker",
              "type": "address"
            },
            {
              "internalType": "uint256",
              "name": "makerRelayerFee",
              "type": "uint256"
            },
            {
              "internalType": "uint256",
              "name": "takerRelayerFee",
              "type": "uint256"
            },
            {
              "internalType": "uint256",
              "name": "makerProtocolFee",
              "type": "uint256"
            },
            {
              "internalType": "uint256",
              "name": "takerProtocolFee",
              "type": "uint256"
            },
            {
              "internalType": "address",
              "name": "feeRecipient",
              "type": "address"
            },
            {
              "internalType": "enum ExchangeCore.FeeMethod",
              "name": "feeMethod",
              "type": "uint8"
            },
            {
              "internalType": "enum SaleKindInterface.Side",
              "name": "side",
              "type": "uint8"
            },
            {
              "internalType": "enum SaleKindInterface.SaleKind",
              "name": "saleKind",
              "type": "uint8"
            },
            {
              "internalType": "address",
              "name": "target",
              "type": "address"
            },
            {
              "internalType": "enum AuthenticatedProxy.HowToCall",
              "name": "howToCall",
              "type": "uint8"
            },
            {
              "internalType": "bytes",
              "name": "calldatas",
              "type": "bytes"
            },
            {
              "internalType": "bytes",
              "name": "replacementPattern",
              "type": "bytes"
            },
            {
              "internalType": "address",
              "name": "staticTarget",
              "type": "address"
            },
            {
              "internalType": "bytes",
              "name": "staticExtradata",
              "type": "bytes"
            },
            {
              "internalType": "address",
              "name": "paymentToken",
              "type": "address"
            },
            {
              "internalType": "uint256",
              "name": "basePrice",
              "type": "uint256"
            },
            {
              "internalType": "uint256",
              "name": "extra",
              "type": "uint256"
            },
            {
              "internalType": "uint256",
              "name": "listingTime",
              "type": "uint256"
            },
            {
              "internalType": "uint256",
              "name": "expirationTime",
              "type": "uint256"
            },
            {
              "internalType": "uint256",
              "name": "salt",
              "type": "uint256"
            }
          ],
          "internalType": "struct ExchangeCore.Order",
          "name": "sell",
          "type": "tuple"
        }
      ],
      "name": "calculateMatchPrice",
      "outputs": [
        {
          "internalType": "uint256",
          "name": "",
          "type": "uint256"
        }
      ],
      "stateMutability": "view",
      "type": "function"
    },
    {
      "inputs": [
        {
          "components": [
            {
              "internalType": "address",
              "name": "exchange",
              "type": "address"
            },
            {
              "internalType": "address",
              "name": "maker",
              "type": "address"
            },
            {
              "internalType": "address",
              "name": "taker",
              "type": "address"
            },
            {
              "internalType": "uint256",
              "name": "makerRelayerFee",
              "type": "uint256"
            },
            {
              "internalType": "uint256",
              "name": "takerRelayerFee",
              "type": "uint256"
            },
            {
              "internalType": "uint256",
              "name": "makerProtocolFee",
              "type": "uint256"
            },
            {
              "internalType": "uint256",
              "name": "takerProtocolFee",
              "type": "uint256"
            },
            {
              "internalType": "address",
              "name": "feeRecipient",
              "type": "address"
            },
            {
              "internalType": "enum ExchangeCore.FeeMethod",
              "name": "feeMethod",
              "type": "uint8"
            },
            {
              "internalType": "enum SaleKindInterface.Side",
              "name": "side",
              "type": "uint8"
            },
            {
              "internalType": "enum SaleKindInterface.SaleKind",
              "name": "saleKind",
              "type": "uint8"
            },
            {
              "internalType": "address",
              "name": "target",
              "type": "address"
            },
            {
              "internalType": "enum AuthenticatedProxy.HowToCall",
              "name": "howToCall",
              "type": "uint8"
            },
            {
              "internalType": "bytes",
              "name": "calldatas",
              "type": "bytes"
            },
            {
              "internalType": "bytes",
              "name": "replacementPattern",
              "type": "bytes"
            },
            {
              "internalType": "address",
              "name": "staticTarget",
              "type": "address"
            },
            {
              "internalType": "bytes",
              "name": "staticExtradata",
              "type": "bytes"
            },
            {
              "internalType": "address",
              "name": "paymentToken",
              "type": "address"
            },
            {
              "internalType": "uint256",
              "name": "basePrice",
              "type": "uint256"
            },
            {
              "internalType": "uint256",
              "name": "extra",
              "type": "uint256"
            },
            {
              "internalType": "uint256",
              "name": "listingTime",
              "type": "uint256"
            },
            {
              "internalType": "uint256",
              "name": "expirationTime",
              "type": "uint256"
            },
            {
              "internalType": "uint256",
              "name": "salt",
              "type": "uint256"
            }
          ],
          "internalType": "struct ExchangeCore.Order",
          "name": "order",
          "type": "tuple"
        },
        {
          "components": [
            {
              "internalType": "uint8",
              "name": "v",
              "type": "uint8"
            },
            {
              "internalType": "bytes32",
              "name": "r",
              "type": "bytes32"
            },
            {
              "internalType": "bytes32",
              "name": "s",
              "type": "bytes32"
            }
          ],
          "internalType": "struct ExchangeCore.Sig",
          "name": "sig",
          "type": "tuple"
        }
      ],
      "name": "cancelOrder",
      "outputs": [],
      "stateMutability": "nonpayable",
      "type": "function"
    },
    {
      "inputs": [
        {
          "internalType": "bytes32",
          "name": "",
          "type": "bytes32"
        }
      ],
      "name": "cancelledOrFinalized",
      "outputs": [
        {
          "internalType": "bool",
          "name": "",
          "type": "bool"
        }
      ],
      "stateMutability": "view",
      "type": "function"
    },
    {
      "inputs": [
        {
          "internalType": "address",
          "name": "newDevWalletAddress",
          "type": "address"
        }
      ],
      "name": "changeDevWalletAddress",
      "outputs": [],
      "stateMutability": "nonpayable",
      "type": "function"
    },
    {
      "inputs": [
        {
          "internalType": "uint256",
          "name": "newMinimumMakerProtocolFee",
          "type": "uint256"
        }
      ],
      "name": "changeMinimumMakerProtocolFee",
      "outputs": [],
      "stateMutability": "nonpayable",
      "type": "function"
    },
    {
      "inputs": [
        {
          "internalType": "uint256",
          "name": "newMinimumTakerProtocolFee",
          "type": "uint256"
        }
      ],
      "name": "changeMinimumTakerProtocolFee",
      "outputs": [],
      "stateMutability": "nonpayable",
      "type": "function"
    },
    {
      "inputs": [
        {
          "internalType": "address",
          "name": "newProtocolFeeRecipient",
          "type": "address"
        }
      ],
      "name": "changeProtocolFeeRecipient",
      "outputs": [],
      "stateMutability": "nonpayable",
      "type": "function"
    },
    {
      "inputs": [],
      "name": "codename",
      "outputs": [
        {
          "internalType": "string",
          "name": "",
          "type": "string"
        }
      ],
      "stateMutability": "view",
      "type": "function"
    },
    {
      "inputs": [],
      "name": "devWallet",
      "outputs": [
        {
          "internalType": "address",
          "name": "",
          "type": "address"
        }
      ],
      "stateMutability": "view",
      "type": "function"
    },
    {
      "inputs": [],
      "name": "exchangeToken",
      "outputs": [
        {
          "internalType": "contract ERC20Upgradeable",
          "name": "",
          "type": "address"
        }
      ],
      "stateMutability": "view",
      "type": "function"
    },
    {
      "inputs": [
        {
          "internalType": "bytes",
          "name": "array",
          "type": "bytes"
        },
        {
          "internalType": "bytes",
          "name": "desired",
          "type": "bytes"
        },
        {
          "internalType": "bytes",
          "name": "mask",
          "type": "bytes"
        }
      ],
      "name": "guardedArrayReplace",
      "outputs": [
        {
          "internalType": "bytes",
          "name": "",
          "type": "bytes"
        }
      ],
      "stateMutability": "pure",
      "type": "function"
    },
    {
      "inputs": [
        {
          "components": [
            {
              "internalType": "address",
              "name": "exchange",
              "type": "address"
            },
            {
              "internalType": "address",
              "name": "maker",
              "type": "address"
            },
            {
              "internalType": "address",
              "name": "taker",
              "type": "address"
            },
            {
              "internalType": "uint256",
              "name": "makerRelayerFee",
              "type": "uint256"
            },
            {
              "internalType": "uint256",
              "name": "takerRelayerFee",
              "type": "uint256"
            },
            {
              "internalType": "uint256",
              "name": "makerProtocolFee",
              "type": "uint256"
            },
            {
              "internalType": "uint256",
              "name": "takerProtocolFee",
              "type": "uint256"
            },
            {
              "internalType": "address",
              "name": "feeRecipient",
              "type": "address"
            },
            {
              "internalType": "enum ExchangeCore.FeeMethod",
              "name": "feeMethod",
              "type": "uint8"
            },
            {
              "internalType": "enum SaleKindInterface.Side",
              "name": "side",
              "type": "uint8"
            },
            {
              "internalType": "enum SaleKindInterface.SaleKind",
              "name": "saleKind",
              "type": "uint8"
            },
            {
              "internalType": "address",
              "name": "target",
              "type": "address"
            },
            {
              "internalType": "enum AuthenticatedProxy.HowToCall",
              "name": "howToCall",
              "type": "uint8"
            },
            {
              "internalType": "bytes",
              "name": "calldatas",
              "type": "bytes"
            },
            {
              "internalType": "bytes",
              "name": "replacementPattern",
              "type": "bytes"
            },
            {
              "internalType": "address",
              "name": "staticTarget",
              "type": "address"
            },
            {
              "internalType": "bytes",
              "name": "staticExtradata",
              "type": "bytes"
            },
            {
              "internalType": "address",
              "name": "paymentToken",
              "type": "address"
            },
            {
              "internalType": "uint256",
              "name": "basePrice",
              "type": "uint256"
            },
            {
              "internalType": "uint256",
              "name": "extra",
              "type": "uint256"
            },
            {
              "internalType": "uint256",
              "name": "listingTime",
              "type": "uint256"
            },
            {
              "internalType": "uint256",
              "name": "expirationTime",
              "type": "uint256"
            },
            {
              "internalType": "uint256",
              "name": "salt",
              "type": "uint256"
            }
          ],
          "internalType": "struct ExchangeCore.Order",
          "name": "order",
          "type": "tuple"
        }
      ],
      "name": "hashOrder",
      "outputs": [
        {
          "internalType": "bytes32",
          "name": "hash",
          "type": "bytes32"
        }
      ],
      "stateMutability": "pure",
      "type": "function"
    },
    {
      "inputs": [
        {
          "components": [
            {
              "internalType": "address",
              "name": "exchange",
              "type": "address"
            },
            {
              "internalType": "address",
              "name": "maker",
              "type": "address"
            },
            {
              "internalType": "address",
              "name": "taker",
              "type": "address"
            },
            {
              "internalType": "uint256",
              "name": "makerRelayerFee",
              "type": "uint256"
            },
            {
              "internalType": "uint256",
              "name": "takerRelayerFee",
              "type": "uint256"
            },
            {
              "internalType": "uint256",
              "name": "makerProtocolFee",
              "type": "uint256"
            },
            {
              "internalType": "uint256",
              "name": "takerProtocolFee",
              "type": "uint256"
            },
            {
              "internalType": "address",
              "name": "feeRecipient",
              "type": "address"
            },
            {
              "internalType": "enum ExchangeCore.FeeMethod",
              "name": "feeMethod",
              "type": "uint8"
            },
            {
              "internalType": "enum SaleKindInterface.Side",
              "name": "side",
              "type": "uint8"
            },
            {
              "internalType": "enum SaleKindInterface.SaleKind",
              "name": "saleKind",
              "type": "uint8"
            },
            {
              "internalType": "address",
              "name": "target",
              "type": "address"
            },
            {
              "internalType": "enum AuthenticatedProxy.HowToCall",
              "name": "howToCall",
              "type": "uint8"
            },
            {
              "internalType": "bytes",
              "name": "calldatas",
              "type": "bytes"
            },
            {
              "internalType": "bytes",
              "name": "replacementPattern",
              "type": "bytes"
            },
            {
              "internalType": "address",
              "name": "staticTarget",
              "type": "address"
            },
            {
              "internalType": "bytes",
              "name": "staticExtradata",
              "type": "bytes"
            },
            {
              "internalType": "address",
              "name": "paymentToken",
              "type": "address"
            },
            {
              "internalType": "uint256",
              "name": "basePrice",
              "type": "uint256"
            },
            {
              "internalType": "uint256",
              "name": "extra",
              "type": "uint256"
            },
            {
              "internalType": "uint256",
              "name": "listingTime",
              "type": "uint256"
            },
            {
              "internalType": "uint256",
              "name": "expirationTime",
              "type": "uint256"
            },
            {
              "internalType": "uint256",
              "name": "salt",
              "type": "uint256"
            }
          ],
          "internalType": "struct ExchangeCore.Order",
          "name": "order",
          "type": "tuple"
        }
      ],
      "name": "hashToSign",
      "outputs": [
        {
          "internalType": "bytes32",
          "name": "",
          "type": "bytes32"
        }
      ],
      "stateMutability": "pure",
      "type": "function"
    },
    {
      "inputs": [
        {
          "internalType": "contract ProxyRegistry",
          "name": "registryAddress",
          "type": "address"
        },
        {
          "internalType": "contract TokenTransferProxy",
          "name": "tokenTransferProxyAddress",
          "type": "address"
        },
        {
          "internalType": "contract ERC20Upgradeable",
          "name": "tokenAddress",
          "type": "address"
        },
        {
          "internalType": "address",
          "name": "protocolFeeAddress",
          "type": "address"
        },
        {
          "internalType": "address",
          "name": "devWalletAddress",
          "type": "address"
        }
      ],
      "name": "initialize",
      "outputs": [],
      "stateMutability": "nonpayable",
      "type": "function"
    },
    {
      "inputs": [],
      "name": "minimumMakerProtocolFee",
      "outputs": [
        {
          "internalType": "uint256",
          "name": "",
          "type": "uint256"
        }
      ],
      "stateMutability": "view",
      "type": "function"
    },
    {
      "inputs": [],
      "name": "minimumTakerProtocolFee",
      "outputs": [
        {
          "internalType": "uint256",
          "name": "",
          "type": "uint256"
        }
      ],
      "stateMutability": "view",
      "type": "function"
    },
    {
      "inputs": [],
      "name": "name",
      "outputs": [
        {
          "internalType": "string",
          "name": "",
          "type": "string"
        }
      ],
      "stateMutability": "view",
      "type": "function"
    },
    {
      "inputs": [
        {
          "internalType": "bytes",
          "name": "buyCalldata",
          "type": "bytes"
        },
        {
          "internalType": "bytes",
          "name": "buyReplacementPattern",
          "type": "bytes"
        },
        {
          "internalType": "bytes",
          "name": "sellCalldata",
          "type": "bytes"
        },
        {
          "internalType": "bytes",
          "name": "sellReplacementPattern",
          "type": "bytes"
        }
      ],
      "name": "orderCalldataCanMatch",
      "outputs": [
        {
          "internalType": "bool",
          "name": "",
          "type": "bool"
        }
      ],
      "stateMutability": "pure",
      "type": "function"
    },
    {
      "inputs": [
        {
          "components": [
            {
              "internalType": "address",
              "name": "exchange",
              "type": "address"
            },
            {
              "internalType": "address",
              "name": "maker",
              "type": "address"
            },
            {
              "internalType": "address",
              "name": "taker",
              "type": "address"
            },
            {
              "internalType": "uint256",
              "name": "makerRelayerFee",
              "type": "uint256"
            },
            {
              "internalType": "uint256",
              "name": "takerRelayerFee",
              "type": "uint256"
            },
            {
              "internalType": "uint256",
              "name": "makerProtocolFee",
              "type": "uint256"
            },
            {
              "internalType": "uint256",
              "name": "takerProtocolFee",
              "type": "uint256"
            },
            {
              "internalType": "address",
              "name": "feeRecipient",
              "type": "address"
            },
            {
              "internalType": "enum ExchangeCore.FeeMethod",
              "name": "feeMethod",
              "type": "uint8"
            },
            {
              "internalType": "enum SaleKindInterface.Side",
              "name": "side",
              "type": "uint8"
            },
            {
              "internalType": "enum SaleKindInterface.SaleKind",
              "name": "saleKind",
              "type": "uint8"
            },
            {
              "internalType": "address",
              "name": "target",
              "type": "address"
            },
            {
              "internalType": "enum AuthenticatedProxy.HowToCall",
              "name": "howToCall",
              "type": "uint8"
            },
            {
              "internalType": "bytes",
              "name": "calldatas",
              "type": "bytes"
            },
            {
              "internalType": "bytes",
              "name": "replacementPattern",
              "type": "bytes"
            },
            {
              "internalType": "address",
              "name": "staticTarget",
              "type": "address"
            },
            {
              "internalType": "bytes",
              "name": "staticExtradata",
              "type": "bytes"
            },
            {
              "internalType": "address",
              "name": "paymentToken",
              "type": "address"
            },
            {
              "internalType": "uint256",
              "name": "basePrice",
              "type": "uint256"
            },
            {
              "internalType": "uint256",
              "name": "extra",
              "type": "uint256"
            },
            {
              "internalType": "uint256",
              "name": "listingTime",
              "type": "uint256"
            },
            {
              "internalType": "uint256",
              "name": "expirationTime",
              "type": "uint256"
            },
            {
              "internalType": "uint256",
              "name": "salt",
              "type": "uint256"
            }
          ],
          "internalType": "struct ExchangeCore.Order",
          "name": "buy",
          "type": "tuple"
        },
        {
          "components": [
            {
              "internalType": "address",
              "name": "exchange",
              "type": "address"
            },
            {
              "internalType": "address",
              "name": "maker",
              "type": "address"
            },
            {
              "internalType": "address",
              "name": "taker",
              "type": "address"
            },
            {
              "internalType": "uint256",
              "name": "makerRelayerFee",
              "type": "uint256"
            },
            {
              "internalType": "uint256",
              "name": "takerRelayerFee",
              "type": "uint256"
            },
            {
              "internalType": "uint256",
              "name": "makerProtocolFee",
              "type": "uint256"
            },
            {
              "internalType": "uint256",
              "name": "takerProtocolFee",
              "type": "uint256"
            },
            {
              "internalType": "address",
              "name": "feeRecipient",
              "type": "address"
            },
            {
              "internalType": "enum ExchangeCore.FeeMethod",
              "name": "feeMethod",
              "type": "uint8"
            },
            {
              "internalType": "enum SaleKindInterface.Side",
              "name": "side",
              "type": "uint8"
            },
            {
              "internalType": "enum SaleKindInterface.SaleKind",
              "name": "saleKind",
              "type": "uint8"
            },
            {
              "internalType": "address",
              "name": "target",
              "type": "address"
            },
            {
              "internalType": "enum AuthenticatedProxy.HowToCall",
              "name": "howToCall",
              "type": "uint8"
            },
            {
              "internalType": "bytes",
              "name": "calldatas",
              "type": "bytes"
            },
            {
              "internalType": "bytes",
              "name": "replacementPattern",
              "type": "bytes"
            },
            {
              "internalType": "address",
              "name": "staticTarget",
              "type": "address"
            },
            {
              "internalType": "bytes",
              "name": "staticExtradata",
              "type": "bytes"
            },
            {
              "internalType": "address",
              "name": "paymentToken",
              "type": "address"
            },
            {
              "internalType": "uint256",
              "name": "basePrice",
              "type": "uint256"
            },
            {
              "internalType": "uint256",
              "name": "extra",
              "type": "uint256"
            },
            {
              "internalType": "uint256",
              "name": "listingTime",
              "type": "uint256"
            },
            {
              "internalType": "uint256",
              "name": "expirationTime",
              "type": "uint256"
            },
            {
              "internalType": "uint256",
              "name": "salt",
              "type": "uint256"
            }
          ],
          "internalType": "struct ExchangeCore.Order",
          "name": "sell",
          "type": "tuple"
        }
      ],
      "name": "ordersCanMatch",
      "outputs": [
        {
          "internalType": "bool",
          "name": "",
          "type": "bool"
        }
      ],
      "stateMutability": "view",
      "type": "function"
    },
    {
      "inputs": [],
      "name": "owner",
      "outputs": [
        {
          "internalType": "address",
          "name": "",
          "type": "address"
        }
      ],
      "stateMutability": "view",
      "type": "function"
    },
    {
      "inputs": [],
      "name": "protocolFeeRecipient",
      "outputs": [
        {
          "internalType": "address",
          "name": "",
          "type": "address"
        }
      ],
      "stateMutability": "view",
      "type": "function"
    },
    {
      "inputs": [],
      "name": "registry",
      "outputs": [
        {
          "internalType": "contract ProxyRegistry",
          "name": "",
          "type": "address"
        }
      ],
      "stateMutability": "view",
      "type": "function"
    },
    {
      "inputs": [],
      "name": "renounceOwnership",
      "outputs": [],
      "stateMutability": "nonpayable",
      "type": "function"
    },
    {
      "inputs": [
        {
          "internalType": "address",
          "name": "target",
          "type": "address"
        },
        {
          "internalType": "bytes",
          "name": "calldatas",
          "type": "bytes"
        },
        {
          "internalType": "bytes",
          "name": "extradata",
          "type": "bytes"
        }
      ],
      "name": "staticCall",
      "outputs": [
        {
          "internalType": "bool",
          "name": "result",
          "type": "bool"
        }
      ],
      "stateMutability": "view",
      "type": "function"
    },
    {
      "inputs": [
        {
          "internalType": "bytes",
          "name": "arrToCopy",
          "type": "bytes"
        }
      ],
      "name": "testCopy",
      "outputs": [
        {
          "internalType": "bytes",
          "name": "",
          "type": "bytes"
        }
      ],
      "stateMutability": "pure",
      "type": "function"
    },
    {
      "inputs": [
        {
          "internalType": "address",
          "name": "addr",
          "type": "address"
        }
      ],
      "name": "testCopyAddress",
      "outputs": [
        {
          "internalType": "bytes",
          "name": "",
          "type": "bytes"
        }
      ],
      "stateMutability": "pure",
      "type": "function"
    },
    {
      "inputs": [],
      "name": "tokenTransferProxy",
      "outputs": [
        {
          "internalType": "contract TokenTransferProxy",
          "name": "",
          "type": "address"
        }
      ],
      "stateMutability": "view",
      "type": "function"
    },
    {
      "inputs": [
        {
          "internalType": "address",
          "name": "newOwner",
          "type": "address"
        }
      ],
      "name": "transferOwnership",
      "outputs": [],
      "stateMutability": "nonpayable",
      "type": "function"
    },
    {
      "inputs": [
        {
          "internalType": "bytes32",
          "name": "hash",
          "type": "bytes32"
        },
        {
          "components": [
            {
              "internalType": "address",
              "name": "exchange",
              "type": "address"
            },
            {
              "internalType": "address",
              "name": "maker",
              "type": "address"
            },
            {
              "internalType": "address",
              "name": "taker",
              "type": "address"
            },
            {
              "internalType": "uint256",
              "name": "makerRelayerFee",
              "type": "uint256"
            },
            {
              "internalType": "uint256",
              "name": "takerRelayerFee",
              "type": "uint256"
            },
            {
              "internalType": "uint256",
              "name": "makerProtocolFee",
              "type": "uint256"
            },
            {
              "internalType": "uint256",
              "name": "takerProtocolFee",
              "type": "uint256"
            },
            {
              "internalType": "address",
              "name": "feeRecipient",
              "type": "address"
            },
            {
              "internalType": "enum ExchangeCore.FeeMethod",
              "name": "feeMethod",
              "type": "uint8"
            },
            {
              "internalType": "enum SaleKindInterface.Side",
              "name": "side",
              "type": "uint8"
            },
            {
              "internalType": "enum SaleKindInterface.SaleKind",
              "name": "saleKind",
              "type": "uint8"
            },
            {
              "internalType": "address",
              "name": "target",
              "type": "address"
            },
            {
              "internalType": "enum AuthenticatedProxy.HowToCall",
              "name": "howToCall",
              "type": "uint8"
            },
            {
              "internalType": "bytes",
              "name": "calldatas",
              "type": "bytes"
            },
            {
              "internalType": "bytes",
              "name": "replacementPattern",
              "type": "bytes"
            },
            {
              "internalType": "address",
              "name": "staticTarget",
              "type": "address"
            },
            {
              "internalType": "bytes",
              "name": "staticExtradata",
              "type": "bytes"
            },
            {
              "internalType": "address",
              "name": "paymentToken",
              "type": "address"
            },
            {
              "internalType": "uint256",
              "name": "basePrice",
              "type": "uint256"
            },
            {
              "internalType": "uint256",
              "name": "extra",
              "type": "uint256"
            },
            {
              "internalType": "uint256",
              "name": "listingTime",
              "type": "uint256"
            },
            {
              "internalType": "uint256",
              "name": "expirationTime",
              "type": "uint256"
            },
            {
              "internalType": "uint256",
              "name": "salt",
              "type": "uint256"
            }
          ],
          "internalType": "struct ExchangeCore.Order",
          "name": "order",
          "type": "tuple"
        },
        {
          "components": [
            {
              "internalType": "uint8",
              "name": "v",
              "type": "uint8"
            },
            {
              "internalType": "bytes32",
              "name": "r",
              "type": "bytes32"
            },
            {
              "internalType": "bytes32",
              "name": "s",
              "type": "bytes32"
            }
          ],
          "internalType": "struct ExchangeCore.Sig",
          "name": "sig",
          "type": "tuple"
        }
      ],
      "name": "validateOrder",
      "outputs": [
        {
          "internalType": "bool",
          "name": "",
          "type": "bool"
        }
      ],
      "stateMutability": "view",
      "type": "function"
    },
    {
      "inputs": [
        {
          "components": [
            {
              "internalType": "address",
              "name": "exchange",
              "type": "address"
            },
            {
              "internalType": "address",
              "name": "maker",
              "type": "address"
            },
            {
              "internalType": "address",
              "name": "taker",
              "type": "address"
            },
            {
              "internalType": "uint256",
              "name": "makerRelayerFee",
              "type": "uint256"
            },
            {
              "internalType": "uint256",
              "name": "takerRelayerFee",
              "type": "uint256"
            },
            {
              "internalType": "uint256",
              "name": "makerProtocolFee",
              "type": "uint256"
            },
            {
              "internalType": "uint256",
              "name": "takerProtocolFee",
              "type": "uint256"
            },
            {
              "internalType": "address",
              "name": "feeRecipient",
              "type": "address"
            },
            {
              "internalType": "enum ExchangeCore.FeeMethod",
              "name": "feeMethod",
              "type": "uint8"
            },
            {
              "internalType": "enum SaleKindInterface.Side",
              "name": "side",
              "type": "uint8"
            },
            {
              "internalType": "enum SaleKindInterface.SaleKind",
              "name": "saleKind",
              "type": "uint8"
            },
            {
              "internalType": "address",
              "name": "target",
              "type": "address"
            },
            {
              "internalType": "enum AuthenticatedProxy.HowToCall",
              "name": "howToCall",
              "type": "uint8"
            },
            {
              "internalType": "bytes",
              "name": "calldatas",
              "type": "bytes"
            },
            {
              "internalType": "bytes",
              "name": "replacementPattern",
              "type": "bytes"
            },
            {
              "internalType": "address",
              "name": "staticTarget",
              "type": "address"
            },
            {
              "internalType": "bytes",
              "name": "staticExtradata",
              "type": "bytes"
            },
            {
              "internalType": "address",
              "name": "paymentToken",
              "type": "address"
            },
            {
              "internalType": "uint256",
              "name": "basePrice",
              "type": "uint256"
            },
            {
              "internalType": "uint256",
              "name": "extra",
              "type": "uint256"
            },
            {
              "internalType": "uint256",
              "name": "listingTime",
              "type": "uint256"
            },
            {
              "internalType": "uint256",
              "name": "expirationTime",
              "type": "uint256"
            },
            {
              "internalType": "uint256",
              "name": "salt",
              "type": "uint256"
            }
          ],
          "internalType": "struct ExchangeCore.Order",
          "name": "order",
          "type": "tuple"
        }
      ],
      "name": "validateOrderParameters",
      "outputs": [
        {
          "internalType": "bool",
          "name": "",
          "type": "bool"
        }
      ],
      "stateMutability": "view",
      "type": "function"
    },
    {
      "inputs": [],
      "name": "version",
      "outputs": [
        {
          "internalType": "string",
          "name": "",
          "type": "string"
        }
      ],
      "stateMutability": "view",
      "type": "function"
    }
  ],
  "bytecode": "0x60806040526000609c556000609d5534801561001a57600080fd5b506130f88061002a6000396000f3fe608060405234801561001057600080fd5b50600436106102275760003560e01c806354fd4d50116101305780637ccefc52116100b8578063cae6047f1161007c578063cae6047f14610519578063e57d4adb14610522578063e9147ade14610545578063f2fde38b14610558578063fd902d061461056b57600080fd5b80637ccefc52146104b65780638076f005146104bf5780638da5cb5b146104e25780638ea5220f146104f3578063a25eb5d91461050657600080fd5b806364df049e116100ff57806364df049e14610462578063715018a6146104755780637771bc5f1461047d578063782428e6146104905780637b103999146104a357600080fd5b806354fd4d5014610407578063562b2ebc146104295780635fda3f221461043c57806363d36c0b1461044f57600080fd5b8063239e83df116101b35780633e1e292a116101825780633e1e292a146103a85780633fcaeb74146103bb5780634222fd1a146103ce578063514f0330146103e15780635315bea0146103f457600080fd5b8063239e83df1461034e57806328a8ee681461036157806331e631991461036a5780633464af6a1461039557600080fd5b806310796a47116101fa57806310796a47146102ed578063107a9e1f1461030057806314350c24146103135780631459457a146103285780631a6b13e21461033b57600080fd5b806306fdde031461022c5780630990a6f71461027e5780630a992d54146102a15780630eefdbad146102c2575b600080fd5b6102686040518060400160405280601781526020017f50726f6a6563742057797665726e2045786368616e676500000000000000000081525081565b6040516102759190612e23565b60405180910390f35b61029161028c36600461290a565b61057e565b6040519015158152602001610275565b6102b46102af366004612b61565b610665565b604051908152602001610275565b6099546102d5906001600160a01b031681565b6040516001600160a01b039091168152602001610275565b6102916102fb36600461285f565b610699565b61029161030e366004612b61565b610721565b6103266103213660046128f1565b6107ac565b005b610326610336366004612a97565b6107e4565b6103266103493660046128f1565b6108b7565b61026861035c36600461299d565b6108e6565b6102b4609d5481565b6102686040518060400160405280600c81526020016b4c616d62746f6e20576f726d60a01b81525081565b6102686103a3366004612825565b6108fb565b6102686103b6366004612961565b610937565b6103266103c9366004612825565b61098f565b6102b46103dc366004612be6565b6109db565b6103266103ef366004612825565b610a6c565b610326610402366004612c97565b610ab8565b6102686040518060400160405280600381526020016219171960e91b81525081565b6102916104373660046129eb565b610fec565b61029161044a366004612be6565b61101d565b6102b461045d366004612b08565b61121b565b609e546102d5906001600160a01b031681565b610326611238565b6102b461048b366004612b61565b61126e565b61032661049e366004612b95565b611459565b6098546102d5906001600160a01b031681565b6102b4609c5481565b6102916104cd3660046128f1565b609a6020526000908152604090205460ff1681565b6065546001600160a01b03166102d5565b609f546102d5906001600160a01b031681565b6097546102d5906001600160a01b031681565b6102b461271081565b6102916105303660046128f1565b609b6020526000908152604090205460ff1681565b6102b4610553366004612b61565b6115ed565b610326610566366004612825565b611649565b610326610579366004612c49565b6116e4565b600061058983610721565b6105955750600061065e565b6000848152609a602052604090205460ff16156105b45750600061065e565b6000848152609b602052604090205460ff16156105d35750600161065e565b6020808401518351848301516040808701518151600081529586018083528a905260ff90931690850152606084015260808301526001600160a01b03169060019060a0016020604051602081039080840390855afa158015610639573d6000803e3d6000fd5b505050602060405103516001600160a01b0316141561065a5750600161065e565b5060005b9392505050565b6000610693826101200151836101400151846102400151856102600151866102800151876102a00151611759565b92915050565b600080825184516106aa9190612f7b565b6001600160401b038111156106c1576106c161305e565b6040519080825280601f01601f1916602001820160405280156106eb576020820181803683370190505b509050602081016106fc81856117f4565b905061070881866117f4565b506000604051835160208501895afa9695505050505050565b80516000906001600160a01b0316301461073d57506000919050565b610751826101400151836102a00151611837565b61075d57506000919050565b6001826101000151600181111561077657610776613032565b1480156107975750609c548260a0015110806107975750609d548260c00151105b156107a457506000919050565b506001919050565b6065546001600160a01b031633146107df5760405162461bcd60e51b81526004016107d690612ed2565b60405180910390fd5b609c55565b600054610100900460ff166107ff5760005460ff1615610803565b303b155b6108665760405162461bcd60e51b815260206004820152602e60248201527f496e697469616c697a61626c653a20636f6e747261637420697320616c72656160448201526d191e481a5b9a5d1a585b1a5e995960921b60648201526084016107d6565b600054610100900460ff16158015610888576000805461ffff19166101011790555b61089061185b565b61089d8686868686611892565b80156108af576000805461ff00191690555b505050505050565b6065546001600160a01b031633146108e15760405162461bcd60e51b81526004016107d690612ed2565b609d55565b60606108f38484846118cd565b509192915050565b604080516014808252818301909252606091600091906020820181803683370190505090506020810161092e8185611a51565b50909392505050565b6060600082516001600160401b038111156109545761095461305e565b6040519080825280601f01601f19166020018201604052801561097e576020820181803683370190505b5090506020810161092e81856117f4565b6065546001600160a01b031633146109b95760405162461bcd60e51b81526004016107d690612ed2565b609f80546001600160a01b0319166001600160a01b0392909216919091179055565b600080610a0a836101200151846101400151856102400151866102600151876102800151886102a00151611759565b90506000610a3a8561012001518661014001518761024001518861026001518961028001518a6102a00151611759565b905081811015610a4957600080fd5b60e08401516001600160a01b0316610a615780610a63565b815b95945050505050565b6065546001600160a01b03163314610a965760405162461bcd60e51b81526004016107d690612ed2565b609e80546001600160a01b0319166001600160a01b0392909216919091179055565b60026001541415610b0b5760405162461bcd60e51b815260206004820152601f60248201527f5265656e7472616e637947756172643a207265656e7472616e742063616c6c0060448201526064016107d6565b600260015560208501516000906001600160a01b0316331415610b3f57610b3186610721565b610b3a57600080fd5b610b4c565b610b498686611a6b565b90505b60208401516000906001600160a01b0316331415610b7b57610b6d85610721565b610b7657600080fd5b610b88565b610b858585611a6b565b90505b610b92878661101d565b610b9b57600080fd5b610160850151803b9081610bae57600080fd5b6101c08901515115610bd457610bd4896101a00151886101a001518b6101c001516118cd565b6101c08701515115610bfa57610bfa876101a001518a6101a00151896101c001516118cd565b610c0e896101a00151886101a00151611a8d565b610c1757600080fd5b609854602088015160405163c455279160e01b81526001600160a01b039182166004820152600092919091169063c45527919060240160206040518083038186803b158015610c6557600080fd5b505afa158015610c79573d6000803e3d6000fd5b505050506040513d601f19601f82011682018060405250810190610c9d9190612842565b90506001600160a01b038116610cb257600080fd5b609860009054906101000a90046001600160a01b03166001600160a01b03166397204d8e6040518163ffffffff1660e01b815260040160206040518083038186803b158015610d0057600080fd5b505afa158015610d14573d6000803e3d6000fd5b505050506040513d601f19601f82011682018060405250810190610d389190612842565b6001600160a01b0316816001600160a01b0316635c60da1b6040518163ffffffff1660e01b815260040160206040518083038186803b158015610d7a57600080fd5b505afa158015610d8e573d6000803e3d6000fd5b505050506040513d601f19601f82011682018060405250810190610db29190612842565b6001600160a01b031614610dc557600080fd5b60208a015181906001600160a01b03163314610df5576000868152609a60205260409020805460ff191660011790555b88602001516001600160a01b0316336001600160a01b031614610e2c576000858152609a60205260409020805460ff191660011790555b6000610e388c8b611af1565b9050816001600160a01b0316631b0f7ba98b61016001518c61018001518d6101a001516040518463ffffffff1660e01b8152600401610e7993929190612df2565b602060405180830381600087803b158015610e9357600080fd5b505af1158015610ea7573d6000803e3d6000fd5b505050506040513d601f19601f82011682018060405250810190610ecb91906128d4565b610ed457600080fd5b6101e08c01516001600160a01b031615610f0b57610f028c6101e001518b6101a001518e6102000151610699565b610f0b57600080fd5b6101e08a01516001600160a01b031615610f4257610f398a6101e001518b6101a001518c6102000151610699565b610f4257600080fd5b60e08a015188906001600160a01b0316610f60578a60200151610f66565b8c602001515b60e08c01516001600160a01b039182169116610f86578d60200151610f8c565b8b602001515b604080518b8152602081018b90529081018590526001600160a01b0391909116907fc4109843e0b7d514e4c093114b863f8e7d8d9a458c372cd51bfe526b588006c99060600160405180910390a450506001805550505050505050505050565b825160009015611001576110018584866118cd565b815115611013576110138386846118cd565b610a638584611a8d565b600080836101200151600181111561103757611037613032565b14801561105a57506001826101200151600181111561105857611058613032565b145b80156110915750816101000151600181111561107857611078613032565b836101000151600181111561108f5761108f613032565b145b80156110b857508161022001516001600160a01b03168361022001516001600160a01b0316145b80156110f2575060408201516001600160a01b031615806110f2575082602001516001600160a01b031682604001516001600160a01b0316145b801561112c575060408301516001600160a01b0316158061112c575081602001516001600160a01b031683604001516001600160a01b0316145b8015611187575060e08201516001600160a01b031615801561115a575060e08301516001600160a01b031615155b80611187575060e08201516001600160a01b031615801590611187575060e08301516001600160a01b0316155b80156111ae57508161016001516001600160a01b03168361016001516001600160a01b0316145b80156111e5575081610180015160018111156111cc576111cc613032565b83610180015160018111156111e3576111e3613032565b145b80156112005750611200836102800151846102a00151612171565b801561065e575061065e826102800151836102a00151612171565b600061122b878787878787611759565b90505b9695505050505050565b6065546001600160a01b031633146112625760405162461bcd60e51b81526004016107d690612ed2565b61126c600061218d565b565b60008061127a836121df565b90506000816001600160401b038111156112965761129661305e565b6040519080825280601f01601f1916602001820160405280156112c0576020820181803683370190505b50845190915060208201906112d6908290611a51565b90506112e6818660200151611a51565b90506112f6818660400151611a51565b6060868101518252608080880151602084015260a0880151604084015260c08801519183019190915260e087015191019150611333908290611a51565b905061135581866101000151600181111561135057611350613032565b612217565b905061137281866101200151600181111561135057611350613032565b905061138f81866101400151600181111561135057611350613032565b90506113a081866101600151611a51565b90506113bd81866101800151600181111561135057611350613032565b90506113ce81866101a001516117f4565b90506113df81866101c001516117f4565b90506113f081866101e00151611a51565b9050611401818661020001516117f4565b905061141281866102200151611a51565b610240860151815261026086015160208083019190915261028087015160408301526102a087015160608301526102c0909601516080909101525090920191909120919050565b81602001516001600160a01b0316336001600160a01b03161461147b57600080fd5b6000611486836115ed565b6000818152609b602052604090205490915060ff16156114a557600080fd5b6001609b600083815260200190815260200160002060006101000a81548160ff0219169083151502179055508260e001516001600160a01b031683602001516001600160a01b0316827f90c7f9f5b58c15f0f635bfb99f55d3d78fdbef3559e7d8abf5c81052a527662286600001518760400151886060015189608001518a60a001518b60c001518c61010001518d61012001518e61014001518f610160015160405161155b9a99989796959493929190612d74565b60405180910390a4807fe55393c778364e440d958b39ac1debd99dcfae3775a8a04d1e79124adf6a2d08846101800151856101a00151866101c00151876101e001518861020001518961022001518a61024001518b61026001518c61028001518d6102a001518e6102c001518e6040516115e09c9b9a99989796959493929190612e36565b60405180910390a2505050565b60006115f88261126e565b6040517f19457468657265756d205369676e6564204d6573736167653a0a3332000000006020820152603c810191909152605c01604051602081830303815290604052805190602001209050919050565b6065546001600160a01b031633146116735760405162461bcd60e51b81526004016107d690612ed2565b6001600160a01b0381166116d85760405162461bcd60e51b815260206004820152602660248201527f4f776e61626c653a206e6577206f776e657220697320746865207a65726f206160448201526564647265737360d01b60648201526084016107d6565b6116e18161218d565b50565b60006116f08383611a6b565b905082602001516001600160a01b0316336001600160a01b03161461171457600080fd5b6000818152609a6020526040808220805460ff191660011790555182917f5152abf959f6564662358c2e52b702259b78bac5ee7842a0f01937e670efcc7d91a2505050565b60008086600181111561176e5761176e613032565b141561177b57508361122e565b600186600181111561178f5761178f613032565b141561122e5760006117bc6117ad866117a84288612224565b612230565b6117b78587612224565b61223c565b905060018860018111156117d2576117d2613032565b14156117ea576117e28682612224565b91505061122e565b6117e28682612248565b80516000901561183057815180602001830160208401855b6001838310141561182757815181526020918201910161180c565b50505092909201915b5090919050565b60008083600181111561184c5761184c613032565b148061065e5750501515919050565b600054610100900460ff166118825760405162461bcd60e51b81526004016107d690612f07565b61188a612254565b61126c612293565b600054610100900460ff166118b95760405162461bcd60e51b81526004016107d690612f07565b6118c685858585856122ba565b5050505050565b81518351146118db57600080fd5b80518351146118e957600080fd5b6000602084516118f99190612f93565b90506000611908826020612fb5565b905081611916602083612f93565b1461192357611923613006565b60005b828110156119605780600101602002808501518187015181168289015182191617828901525050808061195890612feb565b915050611926565b821561198d57829050806001016020028085015181870151811682890151821916178289015250506108af565b50805b85518110156108af578481815181106119ab576119ab613048565b602001015160f81c60f81b8482815181106119c8576119c8613048565b602001015160f81c60f81b168682815181106119e6576119e6613048565b602001015160f81c60f81b858381518110611a0357611a03613048565b602001015160f81c60f81b60ff60f81b181617868281518110611a2857611a28613048565b60200101906001600160f81b031916908160001a90535080611a4981612feb565b915050611990565b60601b6bffffffffffffffffffffffff1916815260140190565b600080611a77846115ed565b9050611a8481858561057e565b61065e57600080fd5b815181516000916001918114808314611aa95760009250611ae7565b600160208701838101602088015b600284838510011415611ae2578051835114611ad65760009650600093505b60209283019201611ab7565b505050505b5090949350505050565b6102208101516000906001600160a01b031615611b13573415611b1357600080fd5b6000611b1f84846109db565b9050600081118015611b3e57506102208301516001600160a01b031615155b15611b5c57611b5c8361022001518560200151856020015184612340565b60e0830151819081906001600160a01b031615611ed157856080015185608001511115611b8857600080fd5b60018561010001516001811115611ba157611ba1613032565b1415611ea3578560c001518560c001511115611bbc57600080fd5b606085015115611c5f576000611be1611bd9876060015186612230565b61271061223c565b6102208701519091506001600160a01b0316611c4457611c018382612224565b60e08701516040519194506001600160a01b03169082156108fc029083906000818181858888f19350505050158015611c3e573d6000803e3d6000fd5b50611c5d565b611c5d86610220015187602001518860e0015184612340565b505b608085015115611cfa576000611c7c611bd9876080015186612230565b6102208701519091506001600160a01b0316611cdf57611c9c8282612248565b60e08701516040519193506001600160a01b03169082156108fc029083906000818181858888f19350505050158015611cd9573d6000803e3d6000fd5b50611cf8565b611cf886610220015188602001518860e0015184612340565b505b60a085015115611dcc576000611d17611bd98760a0015186612230565b6102208701519091506001600160a01b0316611d7857611d378382612224565b609e546040519194506001600160a01b03169082156108fc029083906000818181858888f19350505050158015611d72573d6000803e3d6000fd5b50611dca565b6097546102208701516001600160a01b0390811691161415611da757611da28660200151826123eb565b611dca565b6102208601516020870151609e54611dca9291906001600160a01b031684612340565b505b60c085015115611e9e576000611de9611bd98760c0015186612230565b6102208701519091506001600160a01b0316611e4a57611e098282612248565b609e546040519193506001600160a01b03169082156108fc029083906000818181858888f19350505050158015611e44573d6000803e3d6000fd5b50611e9c565b6097546102208701516001600160a01b0390811691161415611e7957611e748760200151826123eb565b611e9c565b6102208601516020880151609e54611e9c9291906001600160a01b031684612340565b505b6120b5565b611eba85602001518660e0015187606001516124d9565b611e9e86602001518660e0015187608001516124d9565b846080015186608001511115611ee657600080fd5b60018561010001516001811115611eff57611eff613032565b1415612087576102208501516001600160a01b0316611f1d57600080fd5b8460c001518660c001511115611f3257600080fd5b606086015115611f6c576000611f4f611bd9886060015186612230565b9050611f6a86610220015188602001518960e0015184612340565b505b608086015115611fa6576000611f89611bd9886080015186612230565b9050611fa486610220015187602001518960e0015184612340565b505b60a08601511561201a576000611fc3611bd98860a0015186612230565b6097546102208801519192506001600160a01b0391821691161415611ff557611ff08760200151826123eb565b612018565b6102208601516020880151609e546120189291906001600160a01b031684612340565b505b60c086015115611e9e576000612037611bd98860c0015186612230565b6097546102208801519192506001600160a01b039182169116141561206457611e748660200151826123eb565b6102208601516020870151609e54611e9c9291906001600160a01b031684612340565b61209e86602001518760e0015188606001516124d9565b6120b585602001518760e0015188608001516124d9565b6102208501516001600160a01b0316611ae757803410156120d557600080fd5b84602001516001600160a01b03166108fc839081150290604051600060405180830381858888f19350505050158015612112573d6000803e3d6000fd5b50600061211f3483612224565b905080156121665786602001516001600160a01b03166108fc829081150290604051600060405180830381858888f19350505050158015612164573d6000803e3d6000fd5b505b505090949350505050565b6000428310801561065e575081158061065e5750504210919050565b606580546001600160a01b038381166001600160a01b0319831681179093556040519116919082907f8be0079c531659141344cd1fd0a4f28419497f9722a3daafe3b4186f6b6457e090600090a35050565b600081610200015151826101c0015151836101a00151516101b06122039190612f7b565b61220d9190612f7b565b6106939190612f7b565b6000818353505060010190565b600061065e8284612fd4565b600061065e8284612fb5565b600061065e8284612f93565b600061065e8284612f7b565b600054610100900460ff1661227b5760405162461bcd60e51b81526004016107d690612f07565b612283612293565b61228b6124f6565b61188a612526565b600054610100900460ff1661126c5760405162461bcd60e51b81526004016107d690612f07565b600054610100900460ff166122e15760405162461bcd60e51b81526004016107d690612f07565b609880546001600160a01b03199081166001600160a01b03978816179091556099805482169587169590951790945560978054851693861693909317909255609e80548416918516919091179055609f80549092169216919091179055565b80156123e557609954604051630aed65f560e11b81526001600160a01b0386811660048301528581166024830152848116604483015260648201849052909116906315dacbea90608401602060405180830381600087803b1580156123a457600080fd5b505af11580156123b8573d6000803e3d6000fd5b505050506040513d601f19601f820116820180604052508101906123dc91906128d4565b6123e557600080fd5b50505050565b80156124d557600061240861240183600a612230565b606461223c565b905080600061242061241a8584612224565b83612224565b609754609e54919250612442916001600160a01b039182169188911684612340565b609754609f54612461916001600160a01b039081169188911686612340565b60995460975460405163ec60bcf360e01b81526001600160a01b03918216600482015287821660248201526044810185905291169063ec60bcf390606401600060405180830381600087803b1580156124b957600080fd5b505af11580156124cd573d6000803e3d6000fd5b505050505050505b5050565b6097546124f1906001600160a01b0316848484612340565b505050565b600054610100900460ff1661251d5760405162461bcd60e51b81526004016107d690612f07565b61126c3361218d565b600054610100900460ff1661254d5760405162461bcd60e51b81526004016107d690612f07565b60018055565b803561255e81613092565b919050565b600082601f83011261257457600080fd5b81356001600160401b038082111561258e5761258e61305e565b604051601f8301601f19908116603f011681019082821181831017156125b6576125b661305e565b816040528381528660208588010111156125cf57600080fd5b836020870160208301376000602085830101528094505050505092915050565b803561255e816130b5565b60006102e0828403121561260d57600080fd5b612615612f52565b905061262082612553565b815261262e60208301612553565b602082015261263f60408301612553565b6040820152606082013560608201526080820135608082015260a082013560a082015260c082013560c082015261267860e08301612553565b60e082015261010061268b8184016125ef565b9082015261012061269d8382016125ef565b908201526101406126af8382016125ef565b908201526101606126c1838201612553565b908201526101806126d38382016125ef565b908201526101a0828101356001600160401b03808211156126f357600080fd5b6126ff86838701612563565b838501526101c092508285013591508082111561271b57600080fd5b61272786838701612563565b838501526101e0925061273b838601612553565b8385015261020092508285013591508082111561275757600080fd5b5061276485828601612563565b828401525050610220612778818401612553565b908201526102408281013590820152610260808301359082015261028080830135908201526102a080830135908201526102c09182013591810191909152919050565b6000606082840312156127cd57600080fd5b604051606081018181106001600160401b03821117156127ef576127ef61305e565b604052905080823560ff8116811461280657600080fd5b8082525060208301356020820152604083013560408201525092915050565b60006020828403121561283757600080fd5b813561065e81613092565b60006020828403121561285457600080fd5b815161065e81613092565b60008060006060848603121561287457600080fd5b833561287f81613092565b925060208401356001600160401b038082111561289b57600080fd5b6128a787838801612563565b935060408601359150808211156128bd57600080fd5b506128ca86828701612563565b9150509250925092565b6000602082840312156128e657600080fd5b815161065e816130a7565b60006020828403121561290357600080fd5b5035919050565b600080600060a0848603121561291f57600080fd5b8335925060208401356001600160401b0381111561293c57600080fd5b612948868287016125fa565b92505061295885604086016127bb565b90509250925092565b60006020828403121561297357600080fd5b81356001600160401b0381111561298957600080fd5b61299584828501612563565b949350505050565b6000806000606084860312156129b257600080fd5b83356001600160401b03808211156129c957600080fd5b6129d587838801612563565b9450602086013591508082111561289b57600080fd5b60008060008060808587031215612a0157600080fd5b84356001600160401b0380821115612a1857600080fd5b612a2488838901612563565b95506020870135915080821115612a3a57600080fd5b612a4688838901612563565b94506040870135915080821115612a5c57600080fd5b612a6888838901612563565b93506060870135915080821115612a7e57600080fd5b50612a8b87828801612563565b91505092959194509250565b600080600080600060a08688031215612aaf57600080fd5b8535612aba81613092565b94506020860135612aca81613092565b93506040860135612ada81613092565b92506060860135612aea81613092565b91506080860135612afa81613092565b809150509295509295909350565b60008060008060008060c08789031215612b2157600080fd5b8635612b2c816130b5565b95506020870135612b3c816130b5565b95989597505050506040840135936060810135936080820135935060a0909101359150565b600060208284031215612b7357600080fd5b81356001600160401b03811115612b8957600080fd5b612995848285016125fa565b60008060408385031215612ba857600080fd5b82356001600160401b03811115612bbe57600080fd5b612bca858286016125fa565b9250506020830135612bdb816130a7565b809150509250929050565b60008060408385031215612bf957600080fd5b82356001600160401b0380821115612c1057600080fd5b612c1c868387016125fa565b93506020850135915080821115612c3257600080fd5b50612c3f858286016125fa565b9150509250929050565b60008060808385031215612c5c57600080fd5b82356001600160401b03811115612c7257600080fd5b612c7e858286016125fa565b925050612c8e84602085016127bb565b90509250929050565b60008060008060006101208688031215612cb057600080fd5b85356001600160401b0380821115612cc757600080fd5b612cd389838a016125fa565b9650612ce28960208a016127bb565b95506080880135915080821115612cf857600080fd5b50612d05888289016125fa565b935050612d158760a088016127bb565b94979396509194610100013592915050565b6000815180845260005b81811015612d4d57602081850181015186830182015201612d31565b81811115612d5f576000602083870101525b50601f01601f19169290920160200192915050565b6001600160a01b038b811682528a81166020830152604082018a9052606082018990526080820188905260a08201879052610140820190612db487613074565b8660c0840152612dc386613074565b8560e0840152612dd285613074565b84610100840152808416610120840152509b9a5050505050505050505050565b6001600160a01b0384168152612e0783613074565b826020820152606060408201526000610a636060830184612d27565b60208152600061065e6020830184612d27565b6000610180612e448f613074565b8e8352806020840152612e598184018f612d27565b90508281036040840152612e6d818e612d27565b6001600160a01b038d811660608601528482036080860152909150612e92828d612d27565b9a1660a0840152505060c081019690965260e086019490945261010085019290925261012084015261014083015215156101609091015295945050505050565b6020808252818101527f4f776e61626c653a2063616c6c6572206973206e6f7420746865206f776e6572604082015260600190565b6020808252602b908201527f496e697469616c697a61626c653a20636f6e7472616374206973206e6f74206960408201526a6e697469616c697a696e6760a81b606082015260800190565b6040516102e081016001600160401b0381118282101715612f7557612f7561305e565b60405290565b60008219821115612f8e57612f8e61301c565b500190565b600082612fb057634e487b7160e01b600052601260045260246000fd5b500490565b6000816000190483118215151615612fcf57612fcf61301c565b500290565b600082821015612fe657612fe661301c565b500390565b6000600019821415612fff57612fff61301c565b5060010190565b634e487b7160e01b600052600160045260246000fd5b634e487b7160e01b600052601160045260246000fd5b634e487b7160e01b600052602160045260246000fd5b634e487b7160e01b600052603260045260246000fd5b634e487b7160e01b600052604160045260246000fd5b600281106116e157634e487b7160e01b600052602160045260246000fd5b6001600160a01b03811681146116e157600080fd5b80151581146116e157600080fd5b600281106116e157600080fdfea26469706673582212208324fc9050354140489d5870f32a483d128c293d752cbb1b495ec51259bd0a0364736f6c63430008070033",
  "linkReferences": {},
  "deployedLinkReferences": {}
}