{
  "contractName": "WyvernTokenTransferProxy",
  "abi": [
    {
      "constant": false,
      "inputs": [
        {
          "name": "token",
          "type": "address"
        },
        {
          "name": "from",
          "type": "address"
        },
        {
          "name": "to",
          "type": "address"
        },
        {
          "name": "amount",
          "type": "uint256"
        }
      ],
      "name": "transferFrom",
      "outputs": [
        {
          "name": "",
          "type": "bool"
        }
      ],
      "payable": false,
      "stateMutability": "nonpayable",
      "type": "function"
    },
    {
      "constant": true,
      "inputs": [],
      "name": "registry",
      "outputs": [
        {
          "name": "",
          "type": "address"
        }
      ],
      "payable": false,
      "stateMutability": "view",
      "type": "function"
    },
    {
      "constant": false,
      "inputs": [
        {
          "name": "token",
          "type": "address"
        },
        {
          "name": "from",
          "type": "address"
        },
        {
          "name": "amount",
          "type": "uint256"
        }
      ],
      "name": "burnFrom",
      "outputs": [],
      "payable": false,
      "stateMutability": "nonpayable",
      "type": "function"
    },
    {
      "inputs": [
        {
          "name": "registryAddr",
          "type": "address"
        }
      ],
      "payable": false,
      "stateMutability": "nonpayable",
      "type": "constructor"
    }
  ],
  "bytecode": "0x608060405234801561001057600080fd5b5060405160208061040c833981016040525160008054600160a060020a03909216600160a060020a03199092169190911790556103ba806100526000396000f3006080604052600436106100565763ffffffff7c010000000000000000000000000000000000000000000000000000000060003504166315dacbea811461005b5780637b1039991461009f578063ec60bcf3146100d0575b600080fd5b34801561006757600080fd5b5061008b600160a060020a03600435811690602435811690604435166064356100fc565b604080519115158252519081900360200190f35b3480156100ab57600080fd5b506100b4610244565b60408051600160a060020a039092168252519081900360200190f35b3480156100dc57600080fd5b506100fa600160a060020a0360043581169060243516604435610253565b005b60008054604080517f69dc9ff3000000000000000000000000000000000000000000000000000000008152600160a060020a033381166004830152915191909216916369dc9ff391602480830192602092919082900301818787803b15801561016457600080fd5b505af1158015610178573d6000803e3d6000fd5b505050506040513d602081101561018e57600080fd5b5051151561019b57600080fd5b604080517f23b872dd000000000000000000000000000000000000000000000000000000008152600160a060020a0386811660048301528581166024830152604482018590529151918716916323b872dd916064808201926020929091908290030181600087803b15801561020f57600080fd5b505af1158015610223573d6000803e3d6000fd5b505050506040513d602081101561023957600080fd5b505195945050505050565b600054600160a060020a031681565b60008054604080517f69dc9ff3000000000000000000000000000000000000000000000000000000008152600160a060020a033381166004830152915191909216926369dc9ff392602480820193602093909283900390910190829087803b1580156102be57600080fd5b505af11580156102d2573d6000803e3d6000fd5b505050506040513d60208110156102e857600080fd5b505115156102f557600080fd5b82600160a060020a03166379cc679083836040518363ffffffff167c01000000000000000000000000000000000000000000000000000000000281526004018083600160a060020a0316600160a060020a0316815260200182815260200192505050600060405180830381600087803b15801561037157600080fd5b505af1158015610385573d6000803e3d6000fd5b505050505050505600a165627a7a72305820807e0cc04684b77924c86c88b8d00d6d21dc90fbe1dfb8ddc33206ffefd229dc0029",
  "source": "/*\n\n  << Project Wyvern Token Transfer Proxy >.\n\n*/\n\npragma solidity 0.4.23;\n\nimport \"./registry/TokenTransferProxy.sol\";\n\ncontract WyvernTokenTransferProxy is TokenTransferProxy {\n\n    constructor (ProxyRegistry registryAddr)\n        public\n    {\n        registry = registryAddr;\n    }\n\n}\n",
  "sourcePath": "/Users/ronak/Developer/projects/tsgit/wyvern-js/src/wyvern-ethereum/contracts/WyvernTokenTransferProxy.sol",
  "compiler": {
    "name": "solc",
    "version": "0.4.23+commit.124ca40d.Emscripten.clang"
  },
  "schemaVersion": "3.2.0",
  "updatedAt": "2021-08-18T09:52:32.356Z",
  "devdoc": {
    "methods": {
      "burnFrom(address,address,uint256)": {
        "details": "Authenticated contract only",
        "params": {
          "amount": "Burn amount",
          "from": "From address",
          "token": "ERC20 token address"
        }
      },
      "transferFrom(address,address,address,uint256)": {
        "details": "Authenticated contract only",
        "params": {
          "amount": "Transfer amount",
          "from": "From address",
          "to": "To address",
          "token": "ERC20 token address"
        }
      }
    }
  },
  "userdoc": {
    "methods": {
      "burnFrom(address,address,uint256)": {
        "notice": "Call ERC20 `burnFrom`"
      },
      "transferFrom(address,address,address,uint256)": {
        "notice": "Call ERC20 `transferFrom`"
      }
    }
  }
}