{
  "contractName": "WyvernExchange",
  "abi": [
    {
      "anonymous": false,
      "inputs": [
        {
          "indexed": true,
          "internalType": "bytes32",
          "name": "hash",
          "type": "bytes32"
        },
        {
          "indexed": false,
          "internalType": "address",
          "name": "exchange",
          "type": "address"
        },
        {
          "indexed": true,
          "internalType": "address",
          "name": "maker",
          "type": "address"
        },
        {
          "indexed": false,
          "internalType": "address",
          "name": "taker",
          "type": "address"
        },
        {
          "indexed": false,
          "internalType": "uint256",
          "name": "makerRelayerFee",
          "type": "uint256"
        },
        {
          "indexed": false,
          "internalType": "uint256",
          "name": "takerRelayerFee",
          "type": "uint256"
        },
        {
          "indexed": false,
          "internalType": "uint256",
          "name": "makerProtocolFee",
          "type": "uint256"
        },
        {
          "indexed": false,
          "internalType": "uint256",
          "name": "takerProtocolFee",
          "type": "uint256"
        },
        {
          "indexed": true,
          "internalType": "address",
          "name": "feeRecipient",
          "type": "address"
        },
        {
          "indexed": false,
          "internalType": "enum ExchangeCore.FeeMethod",
          "name": "feeMethod",
          "type": "uint8"
        },
        {
          "indexed": false,
          "internalType": "enum SaleKindInterface.Side",
          "name": "side",
          "type": "uint8"
        },
        {
          "indexed": false,
          "internalType": "enum SaleKindInterface.SaleKind",
          "name": "saleKind",
          "type": "uint8"
        },
        {
          "indexed": false,
          "internalType": "address",
          "name": "target",
          "type": "address"
        }
      ],
      "name": "OrderApprovedPartOne",
      "type": "event"
    },
    {
      "anonymous": false,
      "inputs": [
        {
          "indexed": true,
          "internalType": "bytes32",
          "name": "hash",
          "type": "bytes32"
        },
        {
          "indexed": false,
          "internalType": "enum AuthenticatedProxy.HowToCall",
          "name": "howToCall",
          "type": "uint8"
        },
        {
          "indexed": false,
          "internalType": "bytes",
          "name": "calldatas",
          "type": "bytes"
        },
        {
          "indexed": false,
          "internalType": "bytes",
          "name": "replacementPattern",
          "type": "bytes"
        },
        {
          "indexed": false,
          "internalType": "address",
          "name": "staticTarget",
          "type": "address"
        },
        {
          "indexed": false,
          "internalType": "bytes",
          "name": "staticExtradata",
          "type": "bytes"
        },
        {
          "indexed": false,
          "internalType": "address",
          "name": "paymentToken",
          "type": "address"
        },
        {
          "indexed": false,
          "internalType": "uint256",
          "name": "basePrice",
          "type": "uint256"
        },
        {
          "indexed": false,
          "internalType": "uint256",
          "name": "extra",
          "type": "uint256"
        },
        {
          "indexed": false,
          "internalType": "uint256",
          "name": "listingTime",
          "type": "uint256"
        },
        {
          "indexed": false,
          "internalType": "uint256",
          "name": "expirationTime",
          "type": "uint256"
        },
        {
          "indexed": false,
          "internalType": "uint256",
          "name": "salt",
          "type": "uint256"
        },
        {
          "indexed": false,
          "internalType": "bool",
          "name": "orderbookInclusionDesired",
          "type": "bool"
        }
      ],
      "name": "OrderApprovedPartTwo",
      "type": "event"
    },
    {
      "anonymous": false,
      "inputs": [
        {
          "indexed": true,
          "internalType": "bytes32",
          "name": "hash",
          "type": "bytes32"
        }
      ],
      "name": "OrderCancelled",
      "type": "event"
    },
    {
      "anonymous": false,
      "inputs": [
        {
          "indexed": false,
          "internalType": "bytes32",
          "name": "buyHash",
          "type": "bytes32"
        },
        {
          "indexed": false,
          "internalType": "bytes32",
          "name": "sellHash",
          "type": "bytes32"
        },
        {
          "indexed": true,
          "internalType": "address",
          "name": "maker",
          "type": "address"
        },
        {
          "indexed": true,
          "internalType": "address",
          "name": "taker",
          "type": "address"
        },
        {
          "indexed": false,
          "internalType": "uint256",
          "name": "price",
          "type": "uint256"
        },
        {
          "indexed": true,
          "internalType": "bytes32",
          "name": "metadata",
          "type": "bytes32"
        }
      ],
      "name": "OrdersMatched",
      "type": "event"
    },
    {
      "anonymous": false,
      "inputs": [
        {
          "indexed": true,
          "internalType": "address",
          "name": "previousOwner",
          "type": "address"
        },
        {
          "indexed": true,
          "internalType": "address",
          "name": "newOwner",
          "type": "address"
        }
      ],
      "name": "OwnershipTransferred",
      "type": "event"
    },
    {
      "inputs": [],
      "name": "INVERSE_BASIS_POINT",
      "outputs": [
        {
          "internalType": "uint256",
          "name": "",
          "type": "uint256"
        }
      ],
      "stateMutability": "view",
      "type": "function"
    },
    {
      "inputs": [
        {
          "internalType": "address[7]",
          "name": "addrs",
          "type": "address[7]"
        },
        {
          "internalType": "uint256[9]",
          "name": "uints",
          "type": "uint256[9]"
        },
        {
          "internalType": "enum ExchangeCore.FeeMethod",
          "name": "feeMethod",
          "type": "uint8"
        },
        {
          "internalType": "enum SaleKindInterface.Side",
          "name": "side",
          "type": "uint8"
        },
        {
          "internalType": "enum SaleKindInterface.SaleKind",
          "name": "saleKind",
          "type": "uint8"
        },
        {
          "internalType": "enum AuthenticatedProxy.HowToCall",
          "name": "howToCall",
          "type": "uint8"
        },
        {
          "internalType": "bytes",
          "name": "calldatas",
          "type": "bytes"
        },
        {
          "internalType": "bytes",
          "name": "replacementPattern",
          "type": "bytes"
        },
        {
          "internalType": "bytes",
          "name": "staticExtradata",
          "type": "bytes"
        },
        {
          "internalType": "bool",
          "name": "orderbookInclusionDesired",
          "type": "bool"
        }
      ],
      "name": "approveOrder_",
      "outputs": [],
      "stateMutability": "nonpayable",
      "type": "function"
    },
    {
      "inputs": [
        {
          "internalType": "bytes32",
          "name": "",
          "type": "bytes32"
        }
      ],
      "name": "approvedOrders",
      "outputs": [
        {
          "internalType": "bool",
          "name": "",
          "type": "bool"
        }
      ],
      "stateMutability": "view",
      "type": "function"
    },
    {
      "inputs": [
        {
          "internalType": "address[14]",
          "name": "addrs",
          "type": "address[14]"
        },
        {
          "internalType": "uint256[18]",
          "name": "uints",
          "type": "uint256[18]"
        },
        {
          "internalType": "uint8[8]",
          "name": "feeMethodsSidesKindsHowToCalls",
          "type": "uint8[8]"
        },
        {
          "internalType": "bytes",
          "name": "calldataBuy",
          "type": "bytes"
        },
        {
          "internalType": "bytes",
          "name": "calldataSell",
          "type": "bytes"
        },
        {
          "internalType": "bytes",
          "name": "replacementPatternBuy",
          "type": "bytes"
        },
        {
          "internalType": "bytes",
          "name": "replacementPatternSell",
          "type": "bytes"
        },
        {
          "internalType": "bytes",
          "name": "staticExtradataBuy",
          "type": "bytes"
        },
        {
          "internalType": "bytes",
          "name": "staticExtradataSell",
          "type": "bytes"
        },
        {
          "internalType": "uint8[2]",
          "name": "vs",
          "type": "uint8[2]"
        },
        {
          "internalType": "bytes32[5]",
          "name": "rssMetadata",
          "type": "bytes32[5]"
        }
      ],
      "name": "atomicMatch_",
      "outputs": [],
      "stateMutability": "payable",
      "type": "function"
    },
    {
      "inputs": [
        {
          "internalType": "address[7]",
          "name": "addrs",
          "type": "address[7]"
        },
        {
          "internalType": "uint256[9]",
          "name": "uints",
          "type": "uint256[9]"
        },
        {
          "internalType": "enum ExchangeCore.FeeMethod",
          "name": "feeMethod",
          "type": "uint8"
        },
        {
          "internalType": "enum SaleKindInterface.Side",
          "name": "side",
          "type": "uint8"
        },
        {
          "internalType": "enum SaleKindInterface.SaleKind",
          "name": "saleKind",
          "type": "uint8"
        },
        {
          "internalType": "enum AuthenticatedProxy.HowToCall",
          "name": "howToCall",
          "type": "uint8"
        },
        {
          "internalType": "bytes",
          "name": "calldatas",
          "type": "bytes"
        },
        {
          "internalType": "bytes",
          "name": "replacementPattern",
          "type": "bytes"
        },
        {
          "internalType": "bytes",
          "name": "staticExtradata",
          "type": "bytes"
        }
      ],
      "name": "calculateCurrentPrice_",
      "outputs": [
        {
          "internalType": "uint256",
          "name": "",
          "type": "uint256"
        }
      ],
      "stateMutability": "view",
      "type": "function"
    },
    {
      "inputs": [
        {
          "internalType": "enum SaleKindInterface.Side",
          "name": "side",
          "type": "uint8"
        },
        {
          "internalType": "enum SaleKindInterface.SaleKind",
          "name": "saleKind",
          "type": "uint8"
        },
        {
          "internalType": "uint256",
          "name": "basePrice",
          "type": "uint256"
        },
        {
          "internalType": "uint256",
          "name": "extra",
          "type": "uint256"
        },
        {
          "internalType": "uint256",
          "name": "listingTime",
          "type": "uint256"
        },
        {
          "internalType": "uint256",
          "name": "expirationTime",
          "type": "uint256"
        }
      ],
      "name": "calculateFinalPrice",
      "outputs": [
        {
          "internalType": "uint256",
          "name": "",
          "type": "uint256"
        }
      ],
      "stateMutability": "view",
      "type": "function"
    },
    {
      "inputs": [
        {
          "internalType": "address[14]",
          "name": "addrs",
          "type": "address[14]"
        },
        {
          "internalType": "uint256[18]",
          "name": "uints",
          "type": "uint256[18]"
        },
        {
          "internalType": "uint8[8]",
          "name": "feeMethodsSidesKindsHowToCalls",
          "type": "uint8[8]"
        },
        {
          "internalType": "bytes",
          "name": "calldataBuy",
          "type": "bytes"
        },
        {
          "internalType": "bytes",
          "name": "calldataSell",
          "type": "bytes"
        },
        {
          "internalType": "bytes",
          "name": "replacementPatternBuy",
          "type": "bytes"
        },
        {
          "internalType": "bytes",
          "name": "replacementPatternSell",
          "type": "bytes"
        },
        {
          "internalType": "bytes",
          "name": "staticExtradataBuy",
          "type": "bytes"
        },
        {
          "internalType": "bytes",
          "name": "staticExtradataSell",
          "type": "bytes"
        }
      ],
      "name": "calculateMatchPrice_",
      "outputs": [
        {
          "internalType": "uint256",
          "name": "",
          "type": "uint256"
        }
      ],
      "stateMutability": "view",
      "type": "function"
    },
    {
      "inputs": [
        {
          "internalType": "address[7]",
          "name": "addrs",
          "type": "address[7]"
        },
        {
          "internalType": "uint256[9]",
          "name": "uints",
          "type": "uint256[9]"
        },
        {
          "internalType": "enum ExchangeCore.FeeMethod",
          "name": "feeMethod",
          "type": "uint8"
        },
        {
          "internalType": "enum SaleKindInterface.Side",
          "name": "side",
          "type": "uint8"
        },
        {
          "internalType": "enum SaleKindInterface.SaleKind",
          "name": "saleKind",
          "type": "uint8"
        },
        {
          "internalType": "enum AuthenticatedProxy.HowToCall",
          "name": "howToCall",
          "type": "uint8"
        },
        {
          "internalType": "bytes",
          "name": "calldatas",
          "type": "bytes"
        },
        {
          "internalType": "bytes",
          "name": "replacementPattern",
          "type": "bytes"
        },
        {
          "internalType": "bytes",
          "name": "staticExtradata",
          "type": "bytes"
        },
        {
          "internalType": "uint8",
          "name": "v",
          "type": "uint8"
        },
        {
          "internalType": "bytes32",
          "name": "r",
          "type": "bytes32"
        },
        {
          "internalType": "bytes32",
          "name": "s",
          "type": "bytes32"
        }
      ],
      "name": "cancelOrder_",
      "outputs": [],
      "stateMutability": "nonpayable",
      "type": "function"
    },
    {
      "inputs": [
        {
          "internalType": "bytes32",
          "name": "",
          "type": "bytes32"
        }
      ],
      "name": "cancelledOrFinalized",
      "outputs": [
        {
          "internalType": "bool",
          "name": "",
          "type": "bool"
        }
      ],
      "stateMutability": "view",
      "type": "function"
    },
    {
      "inputs": [
        {
          "internalType": "address",
          "name": "newDevWalletAddress",
          "type": "address"
        }
      ],
      "name": "changeDevWalletAddress",
      "outputs": [],
      "stateMutability": "nonpayable",
      "type": "function"
    },
    {
      "inputs": [
        {
          "internalType": "uint256",
          "name": "newMinimumMakerProtocolFee",
          "type": "uint256"
        }
      ],
      "name": "changeMinimumMakerProtocolFee",
      "outputs": [],
      "stateMutability": "nonpayable",
      "type": "function"
    },
    {
      "inputs": [
        {
          "internalType": "uint256",
          "name": "newMinimumTakerProtocolFee",
          "type": "uint256"
        }
      ],
      "name": "changeMinimumTakerProtocolFee",
      "outputs": [],
      "stateMutability": "nonpayable",
      "type": "function"
    },
    {
      "inputs": [
        {
          "internalType": "address",
          "name": "newProtocolFeeRecipient",
          "type": "address"
        }
      ],
      "name": "changeProtocolFeeRecipient",
      "outputs": [],
      "stateMutability": "nonpayable",
      "type": "function"
    },
    {
      "inputs": [],
      "name": "codename",
      "outputs": [
        {
          "internalType": "string",
          "name": "",
          "type": "string"
        }
      ],
      "stateMutability": "view",
      "type": "function"
    },
    {
      "inputs": [],
      "name": "devWallet",
      "outputs": [
        {
          "internalType": "address",
          "name": "",
          "type": "address"
        }
      ],
      "stateMutability": "view",
      "type": "function"
    },
    {
      "inputs": [],
      "name": "exchangeToken",
      "outputs": [
        {
          "internalType": "contract ERC20Upgradeable",
          "name": "",
          "type": "address"
        }
      ],
      "stateMutability": "view",
      "type": "function"
    },
    {
      "inputs": [
        {
          "internalType": "bytes",
          "name": "array",
          "type": "bytes"
        },
        {
          "internalType": "bytes",
          "name": "desired",
          "type": "bytes"
        },
        {
          "internalType": "bytes",
          "name": "mask",
          "type": "bytes"
        }
      ],
      "name": "guardedArrayReplace",
      "outputs": [
        {
          "internalType": "bytes",
          "name": "",
          "type": "bytes"
        }
      ],
      "stateMutability": "pure",
      "type": "function"
    },
    {
      "inputs": [
        {
          "internalType": "address[7]",
          "name": "addrs",
          "type": "address[7]"
        },
        {
          "internalType": "uint256[9]",
          "name": "uints",
          "type": "uint256[9]"
        },
        {
          "internalType": "enum ExchangeCore.FeeMethod",
          "name": "feeMethod",
          "type": "uint8"
        },
        {
          "internalType": "enum SaleKindInterface.Side",
          "name": "side",
          "type": "uint8"
        },
        {
          "internalType": "enum SaleKindInterface.SaleKind",
          "name": "saleKind",
          "type": "uint8"
        },
        {
          "internalType": "enum AuthenticatedProxy.HowToCall",
          "name": "howToCall",
          "type": "uint8"
        },
        {
          "internalType": "bytes",
          "name": "calldatas",
          "type": "bytes"
        },
        {
          "internalType": "bytes",
          "name": "replacementPattern",
          "type": "bytes"
        },
        {
          "internalType": "bytes",
          "name": "staticExtradata",
          "type": "bytes"
        }
      ],
      "name": "hashOrder_",
      "outputs": [
        {
          "internalType": "bytes32",
          "name": "",
          "type": "bytes32"
        }
      ],
      "stateMutability": "pure",
      "type": "function"
    },
    {
      "inputs": [
        {
          "internalType": "address[7]",
          "name": "addrs",
          "type": "address[7]"
        },
        {
          "internalType": "uint256[9]",
          "name": "uints",
          "type": "uint256[9]"
        },
        {
          "internalType": "enum ExchangeCore.FeeMethod",
          "name": "feeMethod",
          "type": "uint8"
        },
        {
          "internalType": "enum SaleKindInterface.Side",
          "name": "side",
          "type": "uint8"
        },
        {
          "internalType": "enum SaleKindInterface.SaleKind",
          "name": "saleKind",
          "type": "uint8"
        },
        {
          "internalType": "enum AuthenticatedProxy.HowToCall",
          "name": "howToCall",
          "type": "uint8"
        },
        {
          "internalType": "bytes",
          "name": "calldatas",
          "type": "bytes"
        },
        {
          "internalType": "bytes",
          "name": "replacementPattern",
          "type": "bytes"
        },
        {
          "internalType": "bytes",
          "name": "staticExtradata",
          "type": "bytes"
        }
      ],
      "name": "hashToSign_",
      "outputs": [
        {
          "internalType": "bytes32",
          "name": "",
          "type": "bytes32"
        }
      ],
      "stateMutability": "pure",
      "type": "function"
    },
    {
      "inputs": [],
      "name": "minimumMakerProtocolFee",
      "outputs": [
        {
          "internalType": "uint256",
          "name": "",
          "type": "uint256"
        }
      ],
      "stateMutability": "view",
      "type": "function"
    },
    {
      "inputs": [],
      "name": "minimumTakerProtocolFee",
      "outputs": [
        {
          "internalType": "uint256",
          "name": "",
          "type": "uint256"
        }
      ],
      "stateMutability": "view",
      "type": "function"
    },
    {
      "inputs": [],
      "name": "name",
      "outputs": [
        {
          "internalType": "string",
          "name": "",
          "type": "string"
        }
      ],
      "stateMutability": "view",
      "type": "function"
    },
    {
      "inputs": [
        {
          "internalType": "bytes",
          "name": "buyCalldata",
          "type": "bytes"
        },
        {
          "internalType": "bytes",
          "name": "buyReplacementPattern",
          "type": "bytes"
        },
        {
          "internalType": "bytes",
          "name": "sellCalldata",
          "type": "bytes"
        },
        {
          "internalType": "bytes",
          "name": "sellReplacementPattern",
          "type": "bytes"
        }
      ],
      "name": "orderCalldataCanMatch",
      "outputs": [
        {
          "internalType": "bool",
          "name": "",
          "type": "bool"
        }
      ],
      "stateMutability": "pure",
      "type": "function"
    },
    {
      "inputs": [
        {
          "internalType": "address[14]",
          "name": "addrs",
          "type": "address[14]"
        },
        {
          "internalType": "uint256[18]",
          "name": "uints",
          "type": "uint256[18]"
        },
        {
          "internalType": "uint8[8]",
          "name": "feeMethodsSidesKindsHowToCalls",
          "type": "uint8[8]"
        },
        {
          "internalType": "bytes",
          "name": "calldataBuy",
          "type": "bytes"
        },
        {
          "internalType": "bytes",
          "name": "calldataSell",
          "type": "bytes"
        },
        {
          "internalType": "bytes",
          "name": "replacementPatternBuy",
          "type": "bytes"
        },
        {
          "internalType": "bytes",
          "name": "replacementPatternSell",
          "type": "bytes"
        },
        {
          "internalType": "bytes",
          "name": "staticExtradataBuy",
          "type": "bytes"
        },
        {
          "internalType": "bytes",
          "name": "staticExtradataSell",
          "type": "bytes"
        }
      ],
      "name": "ordersCanMatch_",
      "outputs": [
        {
          "internalType": "bool",
          "name": "",
          "type": "bool"
        }
      ],
      "stateMutability": "view",
      "type": "function"
    },
    {
      "inputs": [],
      "name": "owner",
      "outputs": [
        {
          "internalType": "address",
          "name": "",
          "type": "address"
        }
      ],
      "stateMutability": "view",
      "type": "function"
    },
    {
      "inputs": [],
      "name": "protocolFeeRecipient",
      "outputs": [
        {
          "internalType": "address",
          "name": "",
          "type": "address"
        }
      ],
      "stateMutability": "view",
      "type": "function"
    },
    {
      "inputs": [],
      "name": "registry",
      "outputs": [
        {
          "internalType": "contract ProxyRegistry",
          "name": "",
          "type": "address"
        }
      ],
      "stateMutability": "view",
      "type": "function"
    },
    {
      "inputs": [],
      "name": "renounceOwnership",
      "outputs": [],
      "stateMutability": "nonpayable",
      "type": "function"
    },
    {
      "inputs": [
        {
          "internalType": "address",
          "name": "target",
          "type": "address"
        },
        {
          "internalType": "bytes",
          "name": "calldatas",
          "type": "bytes"
        },
        {
          "internalType": "bytes",
          "name": "extradata",
          "type": "bytes"
        }
      ],
      "name": "staticCall",
      "outputs": [
        {
          "internalType": "bool",
          "name": "result",
          "type": "bool"
        }
      ],
      "stateMutability": "view",
      "type": "function"
    },
    {
      "inputs": [
        {
          "internalType": "bytes",
          "name": "arrToCopy",
          "type": "bytes"
        }
      ],
      "name": "testCopy",
      "outputs": [
        {
          "internalType": "bytes",
          "name": "",
          "type": "bytes"
        }
      ],
      "stateMutability": "pure",
      "type": "function"
    },
    {
      "inputs": [
        {
          "internalType": "address",
          "name": "addr",
          "type": "address"
        }
      ],
      "name": "testCopyAddress",
      "outputs": [
        {
          "internalType": "bytes",
          "name": "",
          "type": "bytes"
        }
      ],
      "stateMutability": "pure",
      "type": "function"
    },
    {
      "inputs": [],
      "name": "tokenTransferProxy",
      "outputs": [
        {
          "internalType": "contract TokenTransferProxy",
          "name": "",
          "type": "address"
        }
      ],
      "stateMutability": "view",
      "type": "function"
    },
    {
      "inputs": [
        {
          "internalType": "address",
          "name": "newOwner",
          "type": "address"
        }
      ],
      "name": "transferOwnership",
      "outputs": [],
      "stateMutability": "nonpayable",
      "type": "function"
    },
    {
      "inputs": [
        {
          "internalType": "address[7]",
          "name": "addrs",
          "type": "address[7]"
        },
        {
          "internalType": "uint256[9]",
          "name": "uints",
          "type": "uint256[9]"
        },
        {
          "internalType": "enum ExchangeCore.FeeMethod",
          "name": "feeMethod",
          "type": "uint8"
        },
        {
          "internalType": "enum SaleKindInterface.Side",
          "name": "side",
          "type": "uint8"
        },
        {
          "internalType": "enum SaleKindInterface.SaleKind",
          "name": "saleKind",
          "type": "uint8"
        },
        {
          "internalType": "enum AuthenticatedProxy.HowToCall",
          "name": "howToCall",
          "type": "uint8"
        },
        {
          "internalType": "bytes",
          "name": "calldatas",
          "type": "bytes"
        },
        {
          "internalType": "bytes",
          "name": "replacementPattern",
          "type": "bytes"
        },
        {
          "internalType": "bytes",
          "name": "staticExtradata",
          "type": "bytes"
        }
      ],
      "name": "validateOrderParameters_",
      "outputs": [
        {
          "internalType": "bool",
          "name": "",
          "type": "bool"
        }
      ],
      "stateMutability": "view",
      "type": "function"
    },
    {
      "inputs": [
        {
          "internalType": "address[7]",
          "name": "addrs",
          "type": "address[7]"
        },
        {
          "internalType": "uint256[9]",
          "name": "uints",
          "type": "uint256[9]"
        },
        {
          "internalType": "enum ExchangeCore.FeeMethod",
          "name": "feeMethod",
          "type": "uint8"
        },
        {
          "internalType": "enum SaleKindInterface.Side",
          "name": "side",
          "type": "uint8"
        },
        {
          "internalType": "enum SaleKindInterface.SaleKind",
          "name": "saleKind",
          "type": "uint8"
        },
        {
          "internalType": "enum AuthenticatedProxy.HowToCall",
          "name": "howToCall",
          "type": "uint8"
        },
        {
          "internalType": "bytes",
          "name": "calldatas",
          "type": "bytes"
        },
        {
          "internalType": "bytes",
          "name": "replacementPattern",
          "type": "bytes"
        },
        {
          "internalType": "bytes",
          "name": "staticExtradata",
          "type": "bytes"
        },
        {
          "internalType": "uint8",
          "name": "v",
          "type": "uint8"
        },
        {
          "internalType": "bytes32",
          "name": "r",
          "type": "bytes32"
        },
        {
          "internalType": "bytes32",
          "name": "s",
          "type": "bytes32"
        }
      ],
      "name": "validateOrder_",
      "outputs": [
        {
          "internalType": "bool",
          "name": "",
          "type": "bool"
        }
      ],
      "stateMutability": "view",
      "type": "function"
    },
    {
      "inputs": [],
      "name": "version",
      "outputs": [
        {
          "internalType": "string",
          "name": "",
          "type": "string"
        }
      ],
      "stateMutability": "view",
      "type": "function"
    },
    {
      "inputs": [
        {
          "internalType": "contract ProxyRegistry",
          "name": "registryAddress",
          "type": "address"
        },
        {
          "internalType": "contract TokenTransferProxy",
          "name": "tokenTransferProxyAddress",
          "type": "address"
        },
        {
          "internalType": "contract ERC20Upgradeable",
          "name": "tokenAddress",
          "type": "address"
        },
        {
          "internalType": "address",
          "name": "protocolFeeAddress",
          "type": "address"
        },
        {
          "internalType": "address",
          "name": "devWalletAddress",
          "type": "address"
        }
      ],
      "name": "initialize",
      "outputs": [],
      "stateMutability": "nonpayable",
      "type": "function"
    }
  ],
  "bytecode": "0x60806040526000609c556000609d5534801561001a57600080fd5b506159f8806200002b6000396000f3fe60806040526004361061021a5760003560e01c806364df049e116101235780638da5cb5b116100ab578063ca595b9a1161006f578063ca595b9a1461069f578063cae6047f146106bf578063d537e131146106d5578063e57d4adb146106f5578063f2fde38b1461072557600080fd5b80638da5cb5b1461060e5780638ea5220f1461062c578063a25eb5d91461064c578063a8a41c701461066c578063ab834bab1461068c57600080fd5b806379666868116100f257806379666868146105685780637b103999146105885780637ccefc52146105a85780637d766981146105be5780638076f005146105de57600080fd5b806364df049e146104f3578063715018a61461051357806371d02b381461052857806372593b4c1461054857600080fd5b80633464af6a116101a6578063514f033011610175578063514f03301461044457806354fd4d5014610464578063562b2ebc1461049357806360bef33a146104b357806363d36c0b146104d357600080fd5b80633464af6a146103c45780633e1e292a146103e45780633f67ee0d146104045780633fcaeb741461042457600080fd5b80631459457a116101ed5780631459457a146103085780631a6b13e214610328578063239e83df1461034857806328a8ee681461036857806331e631991461038c57600080fd5b806306fdde031461021f5780630eefdbad1461027e57806310796a47146102b657806314350c24146102e6575b600080fd5b34801561022b57600080fd5b506102686040518060400160405280601781526020017f50726f6a6563742057797665726e2045786368616e676500000000000000000081525081565b604051610275919061574c565b60405180910390f35b34801561028a57600080fd5b5060995461029e906001600160a01b031681565b6040516001600160a01b039091168152602001610275565b3480156102c257600080fd5b506102d66102d1366004614e04565b610745565b6040519015158152602001610275565b3480156102f257600080fd5b50610306610301366004615437565b6107cf565b005b34801561031457600080fd5b50610306610323366004615586565b610807565b34801561033457600080fd5b50610306610343366004615437565b6108da565b34801561035457600080fd5b5061026861036336600461548c565b610909565b34801561037457600080fd5b5061037e609d5481565b604051908152602001610275565b34801561039857600080fd5b506102686040518060400160405280600c81526020016b4c616d62746f6e20576f726d60a01b81525081565b3480156103d057600080fd5b506102686103df366004614dca565b61091e565b3480156103f057600080fd5b506102686103ff366004615450565b61095a565b34801561041057600080fd5b5061037e61041f366004615110565b6109b2565b34801561043057600080fd5b5061030661043f366004614dca565b610c1c565b34801561045057600080fd5b5061030661045f366004614dca565b610c68565b34801561047057600080fd5b506102686040518060400160405280600381526020016219171960e91b81525081565b34801561049f57600080fd5b506102d66104ae3660046154da565b610cb4565b3480156104bf57600080fd5b506102d66104ce3660046152ed565b610cee565b3480156104df57600080fd5b5061037e6104ee3660046155f7565b610f9d565b3480156104ff57600080fd5b50609e5461029e906001600160a01b031681565b34801561051f57600080fd5b50610306610fba565b34801561053457600080fd5b5061037e610543366004615110565b610ff0565b34801561055457600080fd5b506102d6610563366004614e79565b61124c565b34801561057457600080fd5b506103066105833660046151e7565b6117f7565b34801561059457600080fd5b5060985461029e906001600160a01b031681565b3480156105b457600080fd5b5061037e609c5481565b3480156105ca57600080fd5b5061037e6105d9366004615110565b611a64565b3480156105ea57600080fd5b506102d66105f9366004615437565b609a6020526000908152604090205460ff1681565b34801561061a57600080fd5b506065546001600160a01b031661029e565b34801561063857600080fd5b50609f5461029e906001600160a01b031681565b34801561065857600080fd5b5060975461029e906001600160a01b031681565b34801561067857600080fd5b506103066106873660046152ed565b611cc0565b61030661069a366004614fab565b611f5a565b3480156106ab57600080fd5b506102d66106ba366004615110565b612599565b3480156106cb57600080fd5b5061037e61271081565b3480156106e157600080fd5b5061037e6106f0366004614e79565b612808565b34801561070157600080fd5b506102d6610710366004615437565b609b6020526000908152604090205460ff1681565b34801561073157600080fd5b50610306610740366004614dca565b612da3565b60008082518451610756919061587b565b6001600160401b0381111561076d5761076d61595e565b6040519080825280601f01601f191660200182016040528015610797576020820181803683370190505b509050602081016107a88185612e3e565b90506107b48186612e3e565b506000604051835160208501895afa925050505b9392505050565b6065546001600160a01b031633146108025760405162461bcd60e51b81526004016107f9906157fb565b60405180910390fd5b609c55565b600054610100900460ff166108225760005460ff1615610826565b303b155b6108895760405162461bcd60e51b815260206004820152602e60248201527f496e697469616c697a61626c653a20636f6e747261637420697320616c72656160448201526d191e481a5b9a5d1a585b1a5e995960921b60648201526084016107f9565b600054610100900460ff161580156108ab576000805461ffff19166101011790555b6108b3612e81565b6108c08686868686612eb8565b80156108d2576000805461ff00191690555b505050505050565b6065546001600160a01b031633146109045760405162461bcd60e51b81526004016107f9906157fb565b609d55565b6060610916848484612ef3565b509192915050565b60408051601480825281830190925260609160009190602082018180368337019050509050602081016109518185613077565b50909392505050565b6060600082516001600160401b038111156109775761097761595e565b6040519080825280601f01601f1916602001820160405280156109a1576020820181803683370190505b509050602081016109518185612e3e565b6000610c0e604051806102e001604052808c6000600781106109d6576109d6615948565b60200201516001600160a01b031681526020018c6001600781106109fc576109fc615948565b60200201516001600160a01b031681526020018c600260078110610a2257610a22615948565b60200201516001600160a01b031681526020018b600060098110610a4857610a48615948565b602002015181526020018b600160098110610a6557610a65615948565b602002015181526020018b600260098110610a8257610a82615948565b602002015181526020018b600360098110610a9f57610a9f615948565b602002015181526020018c600360078110610abc57610abc615948565b60200201516001600160a01b031681526020018a6001811115610ae157610ae1615932565b8152602001896001811115610af857610af8615932565b8152602001886001811115610b0f57610b0f615932565b815260808d01516001600160a01b03166020820152604001876001811115610b3957610b39615932565b8152602081018790526040810186905260a0808e01516001600160a01b0316606083015260808201869052018c600660200201516001600160a01b031681526020018b600460098110610b8e57610b8e615948565b602002015181526020018b600560098110610bab57610bab615948565b602002015181526020018b600660098110610bc857610bc8615948565b602002015181526020018b600760098110610be557610be5615948565b602002015181526020018b600860098110610c0257610c02615948565b60200201519052613091565b9a9950505050505050505050565b6065546001600160a01b03163314610c465760405162461bcd60e51b81526004016107f9906157fb565b609f80546001600160a01b0319166001600160a01b0392909216919091179055565b6065546001600160a01b03163314610c925760405162461bcd60e51b81526004016107f9906157fb565b609e80546001600160a01b0319166001600160a01b0392909216919091179055565b825160009015610cc957610cc9858486612ef3565b815115610cdb57610cdb838684612ef3565b610ce585846130c5565b95945050505050565b600080604051806102e001604052808f600060078110610d1057610d10615948565b60200201516001600160a01b031681526020018f600160078110610d3657610d36615948565b60200201516001600160a01b031681526020018f600260078110610d5c57610d5c615948565b60200201516001600160a01b031681526020018e600060098110610d8257610d82615948565b602002015181526020018e600160098110610d9f57610d9f615948565b602002015181526020018e600260098110610dbc57610dbc615948565b602002015181526020018e600360098110610dd957610dd9615948565b602002015181526020018f600360078110610df657610df6615948565b60200201516001600160a01b031681526020018d6001811115610e1b57610e1b615932565b81526020018c6001811115610e3257610e32615932565b81526020018b6001811115610e4957610e49615932565b81526020018f600460200201516001600160a01b031681526020018a6001811115610e7657610e76615932565b8152602081018a9052604081018990526060018f600560200201516001600160a01b031681526020018781526020018f600660078110610eb857610eb8615948565b60200201516001600160a01b031681526020018e600460098110610ede57610ede615948565b602002015181526020018e600560098110610efb57610efb615948565b602002015181526020018e600660098110610f1857610f18615948565b602002015181526020018e600760098110610f3557610f35615948565b602002015181526020018e600860098110610f5257610f52615948565b602002015190529050610f8b610f6782613129565b8260405180606001604052808960ff16815260200188815260200187815250613185565b9e9d5050505050505050505050505050565b6000610fad87878787878761326b565b90505b9695505050505050565b6065546001600160a01b03163314610fe45760405162461bcd60e51b81526004016107f9906157fb565b610fee6000613306565b565b6000610c0e604051806102e001604052808c60006007811061101457611014615948565b60200201516001600160a01b031681526020018c60016007811061103a5761103a615948565b60200201516001600160a01b031681526020018c60026007811061106057611060615948565b60200201516001600160a01b031681526020018b60006009811061108657611086615948565b602002015181526020018b6001600981106110a3576110a3615948565b602002015181526020018b6002600981106110c0576110c0615948565b602002015181526020018b6003600981106110dd576110dd615948565b602002015181526020018c6003600781106110fa576110fa615948565b60200201516001600160a01b031681526020018a600181111561111f5761111f615932565b815260200189600181111561113657611136615932565b815260200188600181111561114d5761114d615932565b815260808d01516001600160a01b0316602082015260400187600181111561117757611177615932565b8152602081018790526040810186905260a0808e01516001600160a01b0316606083015260808201869052018c600660200201516001600160a01b031681526020018b6004600981106111cc576111cc615948565b602002015181526020018b6005600981106111e9576111e9615948565b602002015181526020018b60066009811061120657611206615948565b602002015181526020018b60076009811061122357611223615948565b602002015181526020018b60086009811061124057611240615948565b60200201519052613358565b600080604051806102e001604052808c6000600e811061126e5761126e615948565b60200201516001600160a01b031681526020018c6001600e811061129457611294615948565b60200201516001600160a01b031681526020018c6002600e81106112ba576112ba615948565b60200201516001600160a01b031681526020018b6000601281106112e0576112e0615948565b602002015181526020018b6001601281106112fd576112fd615948565b602002015181526020018b60026012811061131a5761131a615948565b602002015181526020018b60036012811061133757611337615948565b602002015181526020018c6003600e811061135457611354615948565b60200201516001600160a01b031681526020018a60006008811061137a5761137a615948565b602002015160ff16600181111561139357611393615932565b60018111156113a4576113a4615932565b81526020018a6001602002015160ff1660018111156113c5576113c5615932565b60018111156113d6576113d6615932565b81526020018a6002602002015160ff1660018111156113f7576113f7615932565b600181111561140857611408615932565b815260808d01516001600160a01b031660208201526040018a6003602002015160ff16600181111561143c5761143c615932565b600181111561144d5761144d615932565b8152602081018a90526040810188905260a0808e01516001600160a01b0316606083015260808201879052018c600660200201516001600160a01b031681526020018b6004601281106114a2576114a2615948565b602002015181526020018b6005601281106114bf576114bf615948565b602002015181526020018b6006601281106114dc576114dc615948565b602002015181526020018b6007601281106114f9576114f9615948565b602002015181526020018b60086012811061151657611516615948565b602002015181525090506000604051806102e001604052808d6007600e811061154157611541615948565b60200201516001600160a01b031681526020018d6008600e811061156757611567615948565b60200201516001600160a01b031681526020018d6009600e811061158d5761158d615948565b60200201516001600160a01b031681526020018c6009601281106115b3576115b3615948565b602002015181526020018c600a601281106115d0576115d0615948565b602002015181526020018c600b601281106115ed576115ed615948565b602002015181526020018c600c6012811061160a5761160a615948565b602002015181526020018d600a600e811061162757611627615948565b60200201516001600160a01b031681526020018b60046008811061164d5761164d615948565b602002015160ff16600181111561166657611666615932565b600181111561167757611677615932565b81526020018b6005602002015160ff16600181111561169857611698615932565b60018111156116a9576116a9615932565b81526020018b6006602002015160ff1660018111156116ca576116ca615932565b60018111156116db576116db615932565b81526101608e01516001600160a01b031660208201526040018b6007602002015160ff16600181111561171057611710615932565b600181111561172157611721615932565b8152602081018a9052604081018890526101808e01516001600160a01b039081166060830152608082018790526101a08f01511660a082015260c0018c600d602002015181526020018c600e6012811061177d5761177d615948565b602002015181526020018c600f6012811061179a5761179a615948565b602002015181526020018c6010601281106117b7576117b7615948565b602002015181526020018c6011601281106117d4576117d4615948565b6020020151905290506117e78282613543565b9c9b505050505050505050505050565b6000604051806102e001604052808c60006007811061181857611818615948565b60200201516001600160a01b031681526020018c60016007811061183e5761183e615948565b60200201516001600160a01b031681526020018c60026007811061186457611864615948565b60200201516001600160a01b031681526020018b60006009811061188a5761188a615948565b602002015181526020018b6001600981106118a7576118a7615948565b602002015181526020018b6002600981106118c4576118c4615948565b602002015181526020018b6003600981106118e1576118e1615948565b602002015181526020018c6003600781106118fe576118fe615948565b60200201516001600160a01b031681526020018a600181111561192357611923615932565b815260200189600181111561193a5761193a615932565b815260200188600181111561195157611951615932565b815260808d01516001600160a01b0316602082015260400187600181111561197b5761197b615932565b8152602081018790526040810186905260a0808e01516001600160a01b0316606083015260808201869052018c600660200201516001600160a01b031681526020018b6004600981106119d0576119d0615948565b602002015181526020018b6005600981106119ed576119ed615948565b602002015181526020018b600660098110611a0a57611a0a615948565b602002015181526020018b600760098110611a2757611a27615948565b602002015181526020018b600860098110611a4457611a44615948565b602002015190529050611a578183613741565b5050505050505050505050565b6000610c0e604051806102e001604052808c600060078110611a8857611a88615948565b60200201516001600160a01b031681526020018c600160078110611aae57611aae615948565b60200201516001600160a01b031681526020018c600260078110611ad457611ad4615948565b60200201516001600160a01b031681526020018b600060098110611afa57611afa615948565b602002015181526020018b600160098110611b1757611b17615948565b602002015181526020018b600260098110611b3457611b34615948565b602002015181526020018b600360098110611b5157611b51615948565b602002015181526020018c600360078110611b6e57611b6e615948565b60200201516001600160a01b031681526020018a6001811115611b9357611b93615932565b8152602001896001811115611baa57611baa615932565b8152602001886001811115611bc157611bc1615932565b815260808d01516001600160a01b03166020820152604001876001811115611beb57611beb615932565b8152602081018790526040810186905260a0808e01516001600160a01b0316606083015260808201869052018c600660200201516001600160a01b031681526020018b600460098110611c4057611c40615948565b602002015181526020018b600560098110611c5d57611c5d615948565b602002015181526020018b600660098110611c7a57611c7a615948565b602002015181526020018b600760098110611c9757611c97615948565b602002015181526020018b600860098110611cb457611cb4615948565b60200201519052613129565b611f4c604051806102e001604052808e600060078110611ce257611ce2615948565b60200201516001600160a01b031681526020018e600160078110611d0857611d08615948565b60200201516001600160a01b031681526020018e600260078110611d2e57611d2e615948565b60200201516001600160a01b031681526020018d600060098110611d5457611d54615948565b602002015181526020018d600160098110611d7157611d71615948565b602002015181526020018d600260098110611d8e57611d8e615948565b602002015181526020018d600360098110611dab57611dab615948565b602002015181526020018e600360078110611dc857611dc8615948565b60200201516001600160a01b031681526020018c6001811115611ded57611ded615932565b81526020018b6001811115611e0457611e04615932565b81526020018a6001811115611e1b57611e1b615932565b815260808f01516001600160a01b03166020820152604001896001811115611e4557611e45615932565b815260208101899052604081018890526060018e600560200201516001600160a01b031681526020018681526020018e600660078110611e8757611e87615948565b60200201516001600160a01b031681526020018d600460098110611ead57611ead615948565b602002015181526020018d600560098110611eca57611eca615948565b602002015181526020018d600660098110611ee757611ee7615948565b602002015181526020018d600760098110611f0457611f04615948565b602002015181526020018d600860098110611f2157611f21615948565b602002015181525060405180606001604052808660ff168152602001858152602001848152506138d5565b505050505050505050505050565b611a57604051806102e001604052808d6000600e8110611f7c57611f7c615948565b60200201516001600160a01b031681526020018d6001600e8110611fa257611fa2615948565b60200201516001600160a01b031681526020018d6002600e8110611fc857611fc8615948565b60200201516001600160a01b031681526020018c600060128110611fee57611fee615948565b602002015181526020018c60016012811061200b5761200b615948565b602002015181526020018c60026012811061202857612028615948565b602002015181526020018c60036012811061204557612045615948565b602002015181526020018d6003600e811061206257612062615948565b60200201516001600160a01b031681526020018b60006008811061208857612088615948565b602002015160ff1660018111156120a1576120a1615932565b60018111156120b2576120b2615932565b81526020018b6001602002015160ff1660018111156120d3576120d3615932565b60018111156120e4576120e4615932565b81526020018b6002602002015160ff16600181111561210557612105615932565b600181111561211657612116615932565b815260808e01516001600160a01b031660208201526040018b6003602002015160ff16600181111561214a5761214a615932565b600181111561215b5761215b615932565b8152602081018b90526040810189905260a0808f01516001600160a01b0316606083015260808201889052018d600660200201516001600160a01b031681526020018c6004601281106121b0576121b0615948565b602002015181526020018c6005601281106121cd576121cd615948565b602002015181526020018c6006601281106121ea576121ea615948565b602002015181526020018c60076012811061220757612207615948565b602002015181526020018c60086012811061222457612224615948565b6020908102919091015190915260408051606081018252865160ff168152855192810192909252810184600160200201519052604080516102e08101909152808f600760200201516001600160a01b031681526020018f6008600e811061228d5761228d615948565b60200201516001600160a01b031681526020018f6009600e81106122b3576122b3615948565b60200201516001600160a01b031681526020018e6009601281106122d9576122d9615948565b602002015181526020018e600a601281106122f6576122f6615948565b602002015181526020018e600b6012811061231357612313615948565b602002015181526020018e600c6012811061233057612330615948565b602002015181526020018f600a600e811061234d5761234d615948565b60200201516001600160a01b031681526020018d60046008811061237357612373615948565b602002015160ff16600181111561238c5761238c615932565b600181111561239d5761239d615932565b81526020018d6005602002015160ff1660018111156123be576123be615932565b60018111156123cf576123cf615932565b81526020018d6006602002015160ff1660018111156123f0576123f0615932565b600181111561240157612401615932565b81526020018f600b60200201516001600160a01b031681526020018d60076008811061242f5761242f615948565b602002015160ff16600181111561244857612448615932565b600181111561245957612459615932565b8152602081018c9052604081018a90526060018f600c60200201516001600160a01b031681526020018781526020018f600d600e811061249b5761249b615948565b60200201516001600160a01b031681526020018e600d601281106124c1576124c1615948565b602002015181526020018e600e601281106124de576124de615948565b602002015181526020018e600f601281106124fb576124fb615948565b602002015181526020018e60106012811061251857612518615948565b602002015181526020018e60116012811061253557612535615948565b60200201519052604080516060810190915280876001602002015160ff1681526020018660026005811061256b5761256b615948565b602002015181526020018660036005811061258857612588615948565b60200201519052608086015161394a565b600080604051806102e001604052808c6000600781106125bb576125bb615948565b60200201516001600160a01b031681526020018c6001600781106125e1576125e1615948565b60200201516001600160a01b031681526020018c60026007811061260757612607615948565b60200201516001600160a01b031681526020018b60006009811061262d5761262d615948565b602002015181526020018b60016009811061264a5761264a615948565b602002015181526020018b60026009811061266757612667615948565b602002015181526020018b60036009811061268457612684615948565b602002015181526020018c6003600781106126a1576126a1615948565b60200201516001600160a01b031681526020018a60018111156126c6576126c6615932565b81526020018960018111156126dd576126dd615932565b81526020018860018111156126f4576126f4615932565b815260808d01516001600160a01b0316602082015260400187600181111561271e5761271e615932565b8152602081018790526040810186905260a0808e01516001600160a01b0316606083015260808201869052018c600660200201516001600160a01b031681526020018b60046009811061277357612773615948565b602002015181526020018b60056009811061279057612790615948565b602002015181526020018b6006600981106127ad576127ad615948565b602002015181526020018b6007600981106127ca576127ca615948565b602002015181526020018b6008600981106127e7576127e7615948565b6020020151905290506127f981613e7e565b9b9a5050505050505050505050565b600080604051806102e001604052808c6000600e811061282a5761282a615948565b60200201516001600160a01b031681526020018c6001600e811061285057612850615948565b60200201516001600160a01b031681526020018c6002600e811061287657612876615948565b60200201516001600160a01b031681526020018b60006012811061289c5761289c615948565b602002015181526020018b6001601281106128b9576128b9615948565b602002015181526020018b6002601281106128d6576128d6615948565b602002015181526020018b6003601281106128f3576128f3615948565b602002015181526020018c6003600e811061291057612910615948565b60200201516001600160a01b031681526020018a60006008811061293657612936615948565b602002015160ff16600181111561294f5761294f615932565b600181111561296057612960615932565b81526020018a6001602002015160ff16600181111561298157612981615932565b600181111561299257612992615932565b81526020018a6002602002015160ff1660018111156129b3576129b3615932565b60018111156129c4576129c4615932565b815260808d01516001600160a01b031660208201526040018a6003602002015160ff1660018111156129f8576129f8615932565b6001811115612a0957612a09615932565b8152602081018a90526040810188905260a0808e01516001600160a01b0316606083015260808201879052018c600660200201516001600160a01b031681526020018b600460128110612a5e57612a5e615948565b602002015181526020018b600560128110612a7b57612a7b615948565b602002015181526020018b600660128110612a9857612a98615948565b602002015181526020018b600760128110612ab557612ab5615948565b602002015181526020018b600860128110612ad257612ad2615948565b602002015181525090506000604051806102e001604052808d6007600e8110612afd57612afd615948565b60200201516001600160a01b031681526020018d6008600e8110612b2357612b23615948565b60200201516001600160a01b031681526020018d6009600e8110612b4957612b49615948565b60200201516001600160a01b031681526020018c600960128110612b6f57612b6f615948565b602002015181526020018c600a60128110612b8c57612b8c615948565b602002015181526020018c600b60128110612ba957612ba9615948565b602002015181526020018c600c60128110612bc657612bc6615948565b602002015181526020018d600a600e8110612be357612be3615948565b60200201516001600160a01b031681526020018b600460088110612c0957612c09615948565b602002015160ff166001811115612c2257612c22615932565b6001811115612c3357612c33615932565b81526020018b6005602002015160ff166001811115612c5457612c54615932565b6001811115612c6557612c65615932565b81526020018b6006602002015160ff166001811115612c8657612c86615932565b6001811115612c9757612c97615932565b81526101608e01516001600160a01b031660208201526040018b6007602002015160ff166001811115612ccc57612ccc615932565b6001811115612cdd57612cdd615932565b8152602081018a9052604081018890526101808e01516001600160a01b039081166060830152608082018790526101a08f01511660a082015260c0018c600d602002015181526020018c600e60128110612d3957612d39615948565b602002015181526020018c600f60128110612d5657612d56615948565b602002015181526020018c601060128110612d7357612d73615948565b602002015181526020018c601160128110612d9057612d90615948565b6020020151905290506117e78282613f09565b6065546001600160a01b03163314612dcd5760405162461bcd60e51b81526004016107f9906157fb565b6001600160a01b038116612e325760405162461bcd60e51b815260206004820152602660248201527f4f776e61626c653a206e6577206f776e657220697320746865207a65726f206160448201526564647265737360d01b60648201526084016107f9565b612e3b81613306565b50565b805160009015612e7a57815180602001830160208401855b60018383101415612e71578151815260209182019101612e56565b50505092909201915b5090919050565b600054610100900460ff16612ea85760405162461bcd60e51b81526004016107f990615830565b612eb0613f97565b610fee613fd6565b600054610100900460ff16612edf5760405162461bcd60e51b81526004016107f990615830565b612eec8585858585613ffd565b5050505050565b8151835114612f0157600080fd5b8051835114612f0f57600080fd5b600060208451612f1f9190615893565b90506000612f2e8260206158b5565b905081612f3c602083615893565b14612f4957612f49615906565b60005b82811015612f8657806001016020028085015181870151811682890151821916178289015250508080612f7e906158eb565b915050612f4c565b8215612fb357829050806001016020028085015181870151811682890151821916178289015250506108d2565b50805b85518110156108d257848181518110612fd157612fd1615948565b602001015160f81c60f81b848281518110612fee57612fee615948565b602001015160f81c60f81b1686828151811061300c5761300c615948565b602001015160f81c60f81b85838151811061302957613029615948565b602001015160f81c60f81b60ff60f81b18161786828151811061304e5761304e615948565b60200101906001600160f81b031916908160001a9053508061306f816158eb565b915050612fb6565b60601b6bffffffffffffffffffffffff1916815260140190565b60006130bf826101200151836101400151846102400151856102600151866102800151876102a0015161326b565b92915050565b8151815160009160019181148083146130e1576000925061311f565b600160208701838101602088015b60028483851001141561311a57805183511461310e5760009650600093505b602092830192016130ef565b505050505b5090949350505050565b600061313482613358565b6040517f19457468657265756d205369676e6564204d6573736167653a0a3332000000006020820152603c810191909152605c01604051602081830303815290604052805190602001209050919050565b600061319083613e7e565b61319c575060006107c8565b6000848152609a602052604090205460ff16156131bb575060006107c8565b6000848152609b602052604090205460ff16156131da575060016107c8565b6020808401518351848301516040808701518151600081529586018083528a905260ff90931690850152606084015260808301526001600160a01b03169060019060a0016020604051602081039080840390855afa158015613240573d6000803e3d6000fd5b505050602060405103516001600160a01b03161415613261575060016107c8565b5060009392505050565b60008086600181111561328057613280615932565b141561328d575083610fb0565b60018660018111156132a1576132a1615932565b1415610fb05760006132ce6132bf866132ba4288614083565b61408f565b6132c98587614083565b61409b565b905060018860018111156132e4576132e4615932565b14156132fc576132f48682614083565b915050610fb0565b6132f486826140a7565b606580546001600160a01b038381166001600160a01b0319831681179093556040519116919082907f8be0079c531659141344cd1fd0a4f28419497f9722a3daafe3b4186f6b6457e090600090a35050565b600080613364836140b3565b90506000816001600160401b038111156133805761338061595e565b6040519080825280601f01601f1916602001820160405280156133aa576020820181803683370190505b50845190915060208201906133c0908290613077565b90506133d0818660200151613077565b90506133e0818660400151613077565b6060868101518252608080880151602084015260a0880151604084015260c08801519183019190915260e08701519101915061341d908290613077565b905061343f81866101000151600181111561343a5761343a615932565b6140eb565b905061345c81866101200151600181111561343a5761343a615932565b905061347981866101400151600181111561343a5761343a615932565b905061348a81866101600151613077565b90506134a781866101800151600181111561343a5761343a615932565b90506134b881866101a00151612e3e565b90506134c981866101c00151612e3e565b90506134da81866101e00151613077565b90506134eb81866102000151612e3e565b90506134fc81866102200151613077565b610240860151815261026086015160208083019190915261028087015160408301526102a087015160608301526102c0909601516080909101525090920191909120919050565b600080836101200151600181111561355d5761355d615932565b14801561358057506001826101200151600181111561357e5761357e615932565b145b80156135b75750816101000151600181111561359e5761359e615932565b83610100015160018111156135b5576135b5615932565b145b80156135de57508161022001516001600160a01b03168361022001516001600160a01b0316145b8015613618575060408201516001600160a01b03161580613618575082602001516001600160a01b031682604001516001600160a01b0316145b8015613652575060408301516001600160a01b03161580613652575081602001516001600160a01b031683604001516001600160a01b0316145b80156136ad575060e08201516001600160a01b0316158015613680575060e08301516001600160a01b031615155b806136ad575060e08201516001600160a01b0316158015906136ad575060e08301516001600160a01b0316155b80156136d457508161016001516001600160a01b03168361016001516001600160a01b0316145b801561370b575081610180015160018111156136f2576136f2615932565b836101800151600181111561370957613709615932565b145b80156137265750613726836102800151846102a001516140f8565b80156107c857506107c8826102800151836102a001516140f8565b81602001516001600160a01b0316336001600160a01b03161461376357600080fd5b600061376e83613129565b6000818152609b602052604090205490915060ff161561378d57600080fd5b6001609b600083815260200190815260200160002060006101000a81548160ff0219169083151502179055508260e001516001600160a01b031683602001516001600160a01b0316827f90c7f9f5b58c15f0f635bfb99f55d3d78fdbef3559e7d8abf5c81052a527662286600001518760400151886060015189608001518a60a001518b60c001518c61010001518d61012001518e61014001518f61016001516040516138439a9998979695949392919061569d565b60405180910390a4807fe55393c778364e440d958b39ac1debd99dcfae3775a8a04d1e79124adf6a2d08846101800151856101a00151866101c00151876101e001518861020001518961022001518a61024001518b61026001518c61028001518d6102a001518e6102c001518e6040516138c89c9b9a9998979695949392919061575f565b60405180910390a2505050565b60006138e18383614114565b905082602001516001600160a01b0316336001600160a01b03161461390557600080fd5b6000818152609a6020526040808220805460ff191660011790555182917f5152abf959f6564662358c2e52b702259b78bac5ee7842a0f01937e670efcc7d91a2505050565b6002600154141561399d5760405162461bcd60e51b815260206004820152601f60248201527f5265656e7472616e637947756172643a207265656e7472616e742063616c6c0060448201526064016107f9565b600260015560208501516000906001600160a01b03163314156139d1576139c386613e7e565b6139cc57600080fd5b6139de565b6139db8686614114565b90505b60208401516000906001600160a01b0316331415613a0d576139ff85613e7e565b613a0857600080fd5b613a1a565b613a178585614114565b90505b613a248786613543565b613a2d57600080fd5b610160850151803b9081613a4057600080fd5b6101c08901515115613a6657613a66896101a00151886101a001518b6101c00151612ef3565b6101c08701515115613a8c57613a8c876101a001518a6101a00151896101c00151612ef3565b613aa0896101a00151886101a001516130c5565b613aa957600080fd5b609854602088015160405163c455279160e01b81526001600160a01b039182166004820152600092919091169063c45527919060240160206040518083038186803b158015613af757600080fd5b505afa158015613b0b573d6000803e3d6000fd5b505050506040513d601f19601f82011682018060405250810190613b2f9190614de7565b90506001600160a01b038116613b4457600080fd5b609860009054906101000a90046001600160a01b03166001600160a01b03166397204d8e6040518163ffffffff1660e01b815260040160206040518083038186803b158015613b9257600080fd5b505afa158015613ba6573d6000803e3d6000fd5b505050506040513d601f19601f82011682018060405250810190613bca9190614de7565b6001600160a01b0316816001600160a01b0316635c60da1b6040518163ffffffff1660e01b815260040160206040518083038186803b158015613c0c57600080fd5b505afa158015613c20573d6000803e3d6000fd5b505050506040513d601f19601f82011682018060405250810190613c449190614de7565b6001600160a01b031614613c5757600080fd5b60208a015181906001600160a01b03163314613c87576000868152609a60205260409020805460ff191660011790555b88602001516001600160a01b0316336001600160a01b031614613cbe576000858152609a60205260409020805460ff191660011790555b6000613cca8c8b614136565b9050816001600160a01b0316631b0f7ba98b61016001518c61018001518d6101a001516040518463ffffffff1660e01b8152600401613d0b9392919061571b565b602060405180830381600087803b158015613d2557600080fd5b505af1158015613d39573d6000803e3d6000fd5b505050506040513d601f19601f82011682018060405250810190613d5d919061541a565b613d6657600080fd5b6101e08c01516001600160a01b031615613d9d57613d948c6101e001518b6101a001518e6102000151610745565b613d9d57600080fd5b6101e08a01516001600160a01b031615613dd457613dcb8a6101e001518b6101a001518c6102000151610745565b613dd457600080fd5b60e08a015188906001600160a01b0316613df2578a60200151613df8565b8c602001515b60e08c01516001600160a01b039182169116613e18578d60200151613e1e565b8b602001515b604080518b8152602081018b90529081018590526001600160a01b0391909116907fc4109843e0b7d514e4c093114b863f8e7d8d9a458c372cd51bfe526b588006c99060600160405180910390a450506001805550505050505050505050565b80516000906001600160a01b03163014613e9a57506000919050565b613eae826101400151836102a001516147b6565b613eba57506000919050565b60018261010001516001811115613ed357613ed3615932565b148015613ef45750609c548260a001511080613ef45750609d548260c00151105b15613f0157506000919050565b506001919050565b600080613f38836101200151846101400151856102400151866102600151876102800151886102a0015161326b565b90506000613f688561012001518661014001518761024001518861026001518961028001518a6102a0015161326b565b905081811015613f7757600080fd5b60e08401516001600160a01b0316613f8f5780610ce5565b509392505050565b600054610100900460ff16613fbe5760405162461bcd60e51b81526004016107f990615830565b613fc6613fd6565b613fce6147da565b612eb061480a565b600054610100900460ff16610fee5760405162461bcd60e51b81526004016107f990615830565b600054610100900460ff166140245760405162461bcd60e51b81526004016107f990615830565b609880546001600160a01b03199081166001600160a01b03978816179091556099805482169587169590951790945560978054851693861693909317909255609e80548416918516919091179055609f80549092169216919091179055565b60006107c882846158d4565b60006107c882846158b5565b60006107c88284615893565b60006107c8828461587b565b600081610200015151826101c0015151836101a00151516101b06140d7919061587b565b6140e1919061587b565b6130bf919061587b565b6000818353505060010190565b600042831080156107c857508115806107c85750504210919050565b60008061412084613129565b905061412d818585613185565b6107c857600080fd5b6102208101516000906001600160a01b03161561415857341561415857600080fd5b60006141648484613f09565b905060008111801561418357506102208301516001600160a01b031615155b156141a1576141a18361022001518560200151856020015184614837565b60e0830151819081906001600160a01b031615614516578560800151856080015111156141cd57600080fd5b600185610100015160018111156141e6576141e6615932565b14156144e8578560c001518560c00151111561420157600080fd5b6060850151156142a457600061422661421e87606001518661408f565b61271061409b565b6102208701519091506001600160a01b0316614289576142468382614083565b60e08701516040519194506001600160a01b03169082156108fc029083906000818181858888f19350505050158015614283573d6000803e3d6000fd5b506142a2565b6142a286610220015187602001518860e0015184614837565b505b60808501511561433f5760006142c161421e87608001518661408f565b6102208701519091506001600160a01b0316614324576142e182826140a7565b60e08701516040519193506001600160a01b03169082156108fc029083906000818181858888f1935050505015801561431e573d6000803e3d6000fd5b5061433d565b61433d86610220015188602001518860e0015184614837565b505b60a08501511561441157600061435c61421e8760a001518661408f565b6102208701519091506001600160a01b03166143bd5761437c8382614083565b609e546040519194506001600160a01b03169082156108fc029083906000818181858888f193505050501580156143b7573d6000803e3d6000fd5b5061440f565b6097546102208701516001600160a01b03908116911614156143ec576143e78660200151826148e2565b61440f565b6102208601516020870151609e5461440f9291906001600160a01b031684614837565b505b60c0850151156144e357600061442e61421e8760c001518661408f565b6102208701519091506001600160a01b031661448f5761444e82826140a7565b609e546040519193506001600160a01b03169082156108fc029083906000818181858888f19350505050158015614489573d6000803e3d6000fd5b506144e1565b6097546102208701516001600160a01b03908116911614156144be576144b98760200151826148e2565b6144e1565b6102208601516020880151609e546144e19291906001600160a01b031684614837565b505b6146fa565b6144ff85602001518660e0015187606001516149d0565b6144e386602001518660e0015187608001516149d0565b84608001518660800151111561452b57600080fd5b6001856101000151600181111561454457614544615932565b14156146cc576102208501516001600160a01b031661456257600080fd5b8460c001518660c00151111561457757600080fd5b6060860151156145b157600061459461421e88606001518661408f565b90506145af86610220015188602001518960e0015184614837565b505b6080860151156145eb5760006145ce61421e88608001518661408f565b90506145e986610220015187602001518960e0015184614837565b505b60a08601511561465f57600061460861421e8860a001518661408f565b6097546102208801519192506001600160a01b039182169116141561463a576146358760200151826148e2565b61465d565b6102208601516020880151609e5461465d9291906001600160a01b031684614837565b505b60c0860151156144e357600061467c61421e8860c001518661408f565b6097546102208801519192506001600160a01b03918216911614156146a9576144b98660200151826148e2565b6102208601516020870151609e546144e19291906001600160a01b031684614837565b6146e386602001518760e0015188606001516149d0565b6146fa85602001518760e0015188608001516149d0565b6102208501516001600160a01b031661311f578034101561471a57600080fd5b84602001516001600160a01b03166108fc839081150290604051600060405180830381858888f19350505050158015614757573d6000803e3d6000fd5b5060006147643483614083565b905080156147ab5786602001516001600160a01b03166108fc829081150290604051600060405180830381858888f193505050501580156147a9573d6000803e3d6000fd5b505b505090949350505050565b6000808360018111156147cb576147cb615932565b14806107c85750501515919050565b600054610100900460ff166148015760405162461bcd60e51b81526004016107f990615830565b610fee33613306565b600054610100900460ff166148315760405162461bcd60e51b81526004016107f990615830565b60018055565b80156148dc57609954604051630aed65f560e11b81526001600160a01b0386811660048301528581166024830152848116604483015260648201849052909116906315dacbea90608401602060405180830381600087803b15801561489b57600080fd5b505af11580156148af573d6000803e3d6000fd5b505050506040513d601f19601f820116820180604052508101906148d3919061541a565b6148dc57600080fd5b50505050565b80156149cc5760006148ff6148f883600a61408f565b606461409b565b90508060006149176149118584614083565b83614083565b609754609e54919250614939916001600160a01b039182169188911684614837565b609754609f54614958916001600160a01b039081169188911686614837565b60995460975460405163ec60bcf360e01b81526001600160a01b03918216600482015287821660248201526044810185905291169063ec60bcf390606401600060405180830381600087803b1580156149b057600080fd5b505af11580156149c4573d6000803e3d6000fd5b505050505050505b5050565b6097546149e8906001600160a01b0316848484614837565b505050565b600082601f8301126149fe57600080fd5b6040516101c08082018281106001600160401b0382111715614a2257614a2261595e565b6040528184828101871015614a3657600080fd5b600092505b600e831015614a64578035614a4f81615992565b82526001929092019160209182019101614a3b565b509195945050505050565b600082601f830112614a8057600080fd5b60405160e081018181106001600160401b0382111715614aa257614aa261595e565b604052808360e08101861015614ab757600080fd5b60005b6007811015614a64578135614ace81615992565b83526020928301929190910190600101614aba565b600082601f830112614af457600080fd5b60405160a081018181106001600160401b0382111715614b1657614b1661595e565b604052808360a08101861015614b2b57600080fd5b60005b6005811015614a64578135835260209283019290910190600101614b2e565b600082601f830112614b5e57600080fd5b6040516102408082018281106001600160401b0382111715614b8257614b8261595e565b6040528184828101871015614b9657600080fd5b600092505b6012831015614a6457803582526001929092019160209182019101614b9b565b600082601f830112614bcc57600080fd5b6040516101208082018281106001600160401b0382111715614bf057614bf061595e565b6040528184828101871015614c0457600080fd5b600092505b6009831015614a6457803582526001929092019160209182019101614c09565b600082601f830112614c3a57600080fd5b604051604081018181106001600160401b0382111715614c5c57614c5c61595e565b8060405250808385604086011115614c7357600080fd5b60005b6002811015614a6457614c8882614db9565b83526020928301929190910190600101614c76565b600082601f830112614cae57600080fd5b6040516101008082018281106001600160401b0382111715614cd257614cd261595e565b6040528184828101871015614ce657600080fd5b600092505b6008831015614a6457614cfd81614db9565b82526001929092019160209182019101614ceb565b8035614d1d816159a7565b919050565b600082601f830112614d3357600080fd5b81356001600160401b0380821115614d4d57614d4d61595e565b604051601f8301601f19908116603f01168101908282118183101715614d7557614d7561595e565b81604052838152866020858801011115614d8e57600080fd5b836020870160208301376000602085830101528094505050505092915050565b8035614d1d816159b5565b803560ff81168114614d1d57600080fd5b600060208284031215614ddc57600080fd5b81356107c881615992565b600060208284031215614df957600080fd5b81516107c881615992565b600080600060608486031215614e1957600080fd5b8335614e2481615992565b925060208401356001600160401b0380821115614e4057600080fd5b614e4c87838801614d22565b93506040860135915080821115614e6257600080fd5b50614e6f86828701614d22565b9150509250925092565b60008060008060008060008060006105c08a8c031215614e9857600080fd5b614ea28b8b6149ed565b9850614eb28b6101c08c01614b4d565b9750614ec28b6104008c01614c9d565b96506105008a01356001600160401b0380821115614edf57600080fd5b614eeb8d838e01614d22565b97506105208c0135915080821115614f0257600080fd5b614f0e8d838e01614d22565b96506105408c0135915080821115614f2557600080fd5b614f318d838e01614d22565b95506105608c0135915080821115614f4857600080fd5b614f548d838e01614d22565b94506105808c0135915080821115614f6b57600080fd5b614f778d838e01614d22565b93506105a08c0135915080821115614f8e57600080fd5b50614f9b8c828d01614d22565b9150509295985092959850929598565b60008060008060008060008060008060006106a08c8e031215614fcd57600080fd5b614fd78d8d6149ed565b9a50614fe78d6101c08e01614b4d565b9950614ff78d6104008e01614c9d565b98506001600160401b03806105008e0135111561501357600080fd5b6150248e6105008f01358f01614d22565b9850806105208e0135111561503857600080fd5b6150498e6105208f01358f01614d22565b9750806105408e0135111561505d57600080fd5b61506e8e6105408f01358f01614d22565b9650806105608e0135111561508257600080fd5b6150938e6105608f01358f01614d22565b9550806105808e013511156150a757600080fd5b6150b88e6105808f01358f01614d22565b9450806105a08e013511156150cc57600080fd5b506150de8d6105a08e01358e01614d22565b92506150ee8d6105c08e01614c29565b91506150fe8d6106008e01614ae3565b90509295989b509295989b9093969950565b60008060008060008060008060006102e08a8c03121561512f57600080fd5b6151398b8b614a6f565b98506151488b60e08c01614bbb565b97506151576102008b01614dae565b96506151666102208b01614dae565b95506151756102408b01614dae565b94506151846102608b01614dae565b93506102808a01356001600160401b03808211156151a157600080fd5b6151ad8d838e01614d22565b94506102a08c01359150808211156151c457600080fd5b6151d08d838e01614d22565b93506102c08c0135915080821115614f8e57600080fd5b6000806000806000806000806000806103008b8d03121561520757600080fd5b6152118c8c614a6f565b99506152208c60e08d01614bbb565b985061522f6102008c01614dae565b975061523e6102208c01614dae565b965061524d6102408c01614dae565b955061525c6102608c01614dae565b94506102808b01356001600160401b038082111561527957600080fd5b6152858e838f01614d22565b95506102a08d013591508082111561529c57600080fd5b6152a88e838f01614d22565b94506102c08d01359150808211156152bf57600080fd5b506152cc8d828e01614d22565b9250506152dc6102e08c01614d12565b90509295989b9194979a5092959850565b6000806000806000806000806000806000806103408d8f03121561531057600080fd5b61531a8e8e614a6f565b9b506153298e60e08f01614bbb565b9a506153386102008e01614dae565b99506153476102208e01614dae565b98506153566102408e01614dae565b97506153656102608e01614dae565b96506001600160401b036102808e0135111561538057600080fd5b6153918e6102808f01358f01614d22565b95506001600160401b036102a08e013511156153ac57600080fd5b6153bd8e6102a08f01358f01614d22565b94506001600160401b036102c08e013511156153d857600080fd5b6153e98e6102c08f01358f01614d22565b93506153f86102e08e01614db9565b92506103008d013591506103208d013590509295989b509295989b509295989b565b60006020828403121561542c57600080fd5b81516107c8816159a7565b60006020828403121561544957600080fd5b5035919050565b60006020828403121561546257600080fd5b81356001600160401b0381111561547857600080fd5b61548484828501614d22565b949350505050565b6000806000606084860312156154a157600080fd5b83356001600160401b03808211156154b857600080fd5b6154c487838801614d22565b94506020860135915080821115614e4057600080fd5b600080600080608085870312156154f057600080fd5b84356001600160401b038082111561550757600080fd5b61551388838901614d22565b9550602087013591508082111561552957600080fd5b61553588838901614d22565b9450604087013591508082111561554b57600080fd5b61555788838901614d22565b9350606087013591508082111561556d57600080fd5b5061557a87828801614d22565b91505092959194509250565b600080600080600060a0868803121561559e57600080fd5b85356155a981615992565b945060208601356155b981615992565b935060408601356155c981615992565b925060608601356155d981615992565b915060808601356155e981615992565b809150509295509295909350565b60008060008060008060c0878903121561561057600080fd5b863561561b816159b5565b9550602087013561562b816159b5565b95989597505050506040840135936060810135936080820135935060a0909101359150565b6000815180845260005b818110156156765760208185018101518683018201520161565a565b81811115615688576000602083870101525b50601f01601f19169290920160200192915050565b6001600160a01b038b811682528a81166020830152604082018a9052606082018990526080820188905260a082018790526101408201906156dd87615974565b8660c08401526156ec86615974565b8560e08401526156fb85615974565b84610100840152808416610120840152509b9a5050505050505050505050565b6001600160a01b038416815261573083615974565b826020820152606060408201526000610ce56060830184615650565b6020815260006107c86020830184615650565b600061018061576d8f615974565b8e83528060208401526157828184018f615650565b90508281036040840152615796818e615650565b6001600160a01b038d8116606086015284820360808601529091506157bb828d615650565b9a1660a0840152505060c081019690965260e086019490945261010085019290925261012084015261014083015215156101609091015295945050505050565b6020808252818101527f4f776e61626c653a2063616c6c6572206973206e6f7420746865206f776e6572604082015260600190565b6020808252602b908201527f496e697469616c697a61626c653a20636f6e7472616374206973206e6f74206960408201526a6e697469616c697a696e6760a81b606082015260800190565b6000821982111561588e5761588e61591c565b500190565b6000826158b057634e487b7160e01b600052601260045260246000fd5b500490565b60008160001904831182151516156158cf576158cf61591c565b500290565b6000828210156158e6576158e661591c565b500390565b60006000198214156158ff576158ff61591c565b5060010190565b634e487b7160e01b600052600160045260246000fd5b634e487b7160e01b600052601160045260246000fd5b634e487b7160e01b600052602160045260246000fd5b634e487b7160e01b600052603260045260246000fd5b634e487b7160e01b600052604160045260246000fd5b60028110612e3b57634e487b7160e01b600052602160045260246000fd5b6001600160a01b0381168114612e3b57600080fd5b8015158114612e3b57600080fd5b60028110612e3b57600080fdfea2646970667358221220750ec3d8a783f3983dfb6d110d7add2d2c7f645c97b7d678449b7f17c2fbaf6e64736f6c63430008070033",
  "immutableReferences": {},
  "source": "/*\n\n  << Project Wyvern Exchange >>\n\n*/\n\n// SPDX-License-Identifier: MIT\n\npragma solidity 0.8.7;\n\nimport \"@openzeppelin/contracts-upgradeable/utils/ContextUpgradeable.sol\";\nimport \"@openzeppelin/contracts-upgradeable/proxy/utils/Initializable.sol\";\nimport \"./exchange/Exchange.sol\";\n\n/**\n * @title WyvernExchange\n * @author Project Wyvern Developers\n */\ncontract WyvernExchange is Exchange {\n\n    string public constant name = \"Project Wyvern Exchange\";\n\n    string public constant version = \"2.2\";\n\n    string public constant codename = \"Lambton Worm\";\n\n    function initialize(\n      ProxyRegistry registryAddress, \n      TokenTransferProxy tokenTransferProxyAddress, \n      ERC20Upgradeable tokenAddress, \n      address protocolFeeAddress, \n      address devWalletAddress\n    )\n      external\n      virtual\n      initializer\n    {\n        __Exchange_init();\n        __WyvernExchange_init(registryAddress, tokenTransferProxyAddress, tokenAddress, protocolFeeAddress, devWalletAddress);\n    }\n\n    function __WyvernExchange_init(\n      ProxyRegistry registryAddress, \n      TokenTransferProxy tokenTransferProxyAddress, \n      ERC20Upgradeable tokenAddress, \n      address protocolFeeAddress, \n      address devWalletAddress\n    )\n      internal\n      onlyInitializing\n    {\n        __WyvernExchange_init_unchained(registryAddress, tokenTransferProxyAddress, tokenAddress, protocolFeeAddress, devWalletAddress);\n    }\n\n    function __WyvernExchange_init_unchained(\n      ProxyRegistry registryAddress, \n      TokenTransferProxy tokenTransferProxyAddress, \n      ERC20Upgradeable tokenAddress, \n      address protocolFeeAddress, \n      address devWalletAddress\n    )\n      internal\n      onlyInitializing\n    {\n      registry = registryAddress;\n      tokenTransferProxy = tokenTransferProxyAddress;\n      exchangeToken = tokenAddress;\n      protocolFeeRecipient = protocolFeeAddress;\n      devWallet = devWalletAddress;\n    }\n\n}\n",
  "sourcePath": "/Users/ronak/Developer/projects/tsgit/wyvern-js/src/wyvern-ethereum/contracts/WyvernExchange.sol",
  "compiler": {
    "name": "solc",
    "version": "0.8.7+commit.e28d00a7.Emscripten.clang"
  },
  "schemaVersion": "3.2.0",
  "updatedAt": "2022-01-11T10:25:40.161Z",
  "devdoc": {
    "author": "Project Wyvern Developers",
    "kind": "dev",
    "methods": {
      "approveOrder_(address[7],uint256[9],uint8,uint8,uint8,uint8,bytes,bytes,bytes,bool)": {
        "details": "Call approveOrder - Solidity ABI encoding limitation workaround, hopefully temporary."
      },
      "atomicMatch_(address[14],uint256[18],uint8[8],bytes,bytes,bytes,bytes,bytes,bytes,uint8[2],bytes32[5])": {
        "details": "Call atomicMatch - Solidity ABI encoding limitation workaround, hopefully temporary."
      },
      "calculateCurrentPrice_(address[7],uint256[9],uint8,uint8,uint8,uint8,bytes,bytes,bytes)": {
        "details": "Call calculateCurrentPrice - Solidity ABI encoding limitation workaround, hopefully temporary."
      },
      "calculateFinalPrice(uint8,uint8,uint256,uint256,uint256,uint256)": {
        "details": "Call calculateFinalPrice - library function exposed for testing."
      },
      "calculateMatchPrice_(address[14],uint256[18],uint8[8],bytes,bytes,bytes,bytes,bytes,bytes)": {
        "details": "Call calculateMatchPrice - Solidity ABI encoding limitation workaround, hopefully temporary."
      },
      "cancelOrder_(address[7],uint256[9],uint8,uint8,uint8,uint8,bytes,bytes,bytes,uint8,bytes32,bytes32)": {
        "details": "Call cancelOrder - Solidity ABI encoding limitation workaround, hopefully temporary."
      },
      "changeDevWalletAddress(address)": {
        "details": "Change the dev wallet (owner only)",
        "params": {
          "newDevWalletAddress": "New dev wallet address"
        }
      },
      "changeMinimumMakerProtocolFee(uint256)": {
        "details": "Change the minimum maker fee paid to the protocol (owner only)",
        "params": {
          "newMinimumMakerProtocolFee": "New fee to set in basis points"
        }
      },
      "changeMinimumTakerProtocolFee(uint256)": {
        "details": "Change the minimum taker fee paid to the protocol (owner only)",
        "params": {
          "newMinimumTakerProtocolFee": "New fee to set in basis points"
        }
      },
      "changeProtocolFeeRecipient(address)": {
        "details": "Change the protocol fee recipient (owner only)",
        "params": {
          "newProtocolFeeRecipient": "New protocol fee recipient address"
        }
      },
      "guardedArrayReplace(bytes,bytes,bytes)": {
        "details": "Call guardedArrayReplace - library function exposed for testing."
      },
      "hashOrder_(address[7],uint256[9],uint8,uint8,uint8,uint8,bytes,bytes,bytes)": {
        "details": "Call hashOrder - Solidity ABI encoding limitation workaround, hopefully temporary."
      },
      "hashToSign_(address[7],uint256[9],uint8,uint8,uint8,uint8,bytes,bytes,bytes)": {
        "details": "Call hashToSign - Solidity ABI encoding limitation workaround, hopefully temporary."
      },
      "orderCalldataCanMatch(bytes,bytes,bytes,bytes)": {
        "details": "Return whether or not two orders' calldatas specifications can match",
        "params": {
          "buyCalldata": "Buy-side order calldatas",
          "buyReplacementPattern": "Buy-side order calldatas replacement mask",
          "sellCalldata": "Sell-side order calldatas",
          "sellReplacementPattern": "Sell-side order calldatas replacement mask"
        },
        "returns": {
          "_0": "Whether the orders' calldatas can be matched"
        }
      },
      "ordersCanMatch_(address[14],uint256[18],uint8[8],bytes,bytes,bytes,bytes,bytes,bytes)": {
        "details": "Call ordersCanMatch - Solidity ABI encoding limitation workaround, hopefully temporary."
      },
      "owner()": {
        "details": "Returns the address of the current owner."
      },
      "renounceOwnership()": {
        "details": "Leaves the contract without owner. It will not be possible to call `onlyOwner` functions anymore. Can only be called by the current owner. NOTE: Renouncing ownership will leave the contract without an owner, thereby removing any functionality that is only available to the owner."
      },
      "staticCall(address,bytes,bytes)": {
        "details": "Execute a STATICCALL (introduced with Ethereum Metropolis, non-state-modifying external call)",
        "params": {
          "calldatas": "Calldata (appended to extradata)",
          "extradata": "Base data for STATICCALL (probably function selector and argument encoding)",
          "target": "Contract to call"
        },
        "returns": {
          "result": "The result of the call (success or failure)"
        }
      },
      "testCopy(bytes)": {
        "params": {
          "arrToCopy": "Array to copy"
        },
        "returns": {
          "_0": "byte array"
        }
      },
      "testCopyAddress(address)": {
        "params": {
          "addr": "Address to write"
        },
        "returns": {
          "_0": "byte array"
        }
      },
      "transferOwnership(address)": {
        "details": "Transfers ownership of the contract to a new account (`newOwner`). Can only be called by the current owner."
      },
      "validateOrderParameters_(address[7],uint256[9],uint8,uint8,uint8,uint8,bytes,bytes,bytes)": {
        "details": "Call validateOrderParameters - Solidity ABI encoding limitation workaround, hopefully temporary."
      },
      "validateOrder_(address[7],uint256[9],uint8,uint8,uint8,uint8,bytes,bytes,bytes,uint8,bytes32,bytes32)": {
        "details": "Call validateOrder - Solidity ABI encoding limitation workaround, hopefully temporary."
      }
    },
    "title": "WyvernExchange",
    "version": 1
  },
  "userdoc": {
    "kind": "user",
    "methods": {
      "testCopy(bytes)": {
        "notice": "Test copy byte array"
      },
      "testCopyAddress(address)": {
        "notice": "Test write address to bytes"
      }
    },
    "version": 1
  }
}