{
  "contractName": "WyvernProxyRegistry",
  "abi": [
    {
      "inputs": [],
      "stateMutability": "nonpayable",
      "type": "constructor"
    },
    {
      "anonymous": false,
      "inputs": [
        {
          "indexed": true,
          "internalType": "address",
          "name": "previousOwner",
          "type": "address"
        },
        {
          "indexed": true,
          "internalType": "address",
          "name": "newOwner",
          "type": "address"
        }
      ],
      "name": "OwnershipTransferred",
      "type": "event"
    },
    {
      "inputs": [],
      "name": "DELAY_PERIOD",
      "outputs": [
        {
          "internalType": "uint256",
          "name": "",
          "type": "uint256"
        }
      ],
      "stateMutability": "view",
      "type": "function"
    },
    {
      "inputs": [
        {
          "internalType": "address",
          "name": "",
          "type": "address"
        }
      ],
      "name": "contracts",
      "outputs": [
        {
          "internalType": "bool",
          "name": "",
          "type": "bool"
        }
      ],
      "stateMutability": "view",
      "type": "function"
    },
    {
      "inputs": [],
      "name": "delegateProxyImplementation",
      "outputs": [
        {
          "internalType": "address",
          "name": "",
          "type": "address"
        }
      ],
      "stateMutability": "view",
      "type": "function"
    },
    {
      "inputs": [
        {
          "internalType": "address",
          "name": "addr",
          "type": "address"
        }
      ],
      "name": "endGrantAuthentication",
      "outputs": [],
      "stateMutability": "nonpayable",
      "type": "function"
    },
    {
      "inputs": [],
      "name": "initialAddressSet",
      "outputs": [
        {
          "internalType": "bool",
          "name": "",
          "type": "bool"
        }
      ],
      "stateMutability": "view",
      "type": "function"
    },
    {
      "inputs": [],
      "name": "name",
      "outputs": [
        {
          "internalType": "string",
          "name": "",
          "type": "string"
        }
      ],
      "stateMutability": "view",
      "type": "function"
    },
    {
      "inputs": [],
      "name": "owner",
      "outputs": [
        {
          "internalType": "address",
          "name": "",
          "type": "address"
        }
      ],
      "stateMutability": "view",
      "type": "function"
    },
    {
      "inputs": [
        {
          "internalType": "address",
          "name": "",
          "type": "address"
        }
      ],
      "name": "pending",
      "outputs": [
        {
          "internalType": "uint256",
          "name": "",
          "type": "uint256"
        }
      ],
      "stateMutability": "view",
      "type": "function"
    },
    {
      "inputs": [
        {
          "internalType": "address",
          "name": "",
          "type": "address"
        }
      ],
      "name": "proxies",
      "outputs": [
        {
          "internalType": "contract OwnableDelegateProxy",
          "name": "",
          "type": "address"
        }
      ],
      "stateMutability": "view",
      "type": "function"
    },
    {
      "inputs": [],
      "name": "registerProxy",
      "outputs": [
        {
          "internalType": "contract OwnableDelegateProxy",
          "name": "proxy",
          "type": "address"
        }
      ],
      "stateMutability": "nonpayable",
      "type": "function"
    },
    {
      "inputs": [],
      "name": "renounceOwnership",
      "outputs": [],
      "stateMutability": "nonpayable",
      "type": "function"
    },
    {
      "inputs": [
        {
          "internalType": "address",
          "name": "addr",
          "type": "address"
        }
      ],
      "name": "revokeAuthentication",
      "outputs": [],
      "stateMutability": "nonpayable",
      "type": "function"
    },
    {
      "inputs": [
        {
          "internalType": "address",
          "name": "addr",
          "type": "address"
        }
      ],
      "name": "startGrantAuthentication",
      "outputs": [],
      "stateMutability": "nonpayable",
      "type": "function"
    },
    {
      "inputs": [
        {
          "internalType": "address",
          "name": "newOwner",
          "type": "address"
        }
      ],
      "name": "transferOwnership",
      "outputs": [],
      "stateMutability": "nonpayable",
      "type": "function"
    },
    {
      "inputs": [
        {
          "internalType": "address",
          "name": "authAddress",
          "type": "address"
        }
      ],
      "name": "grantInitialAuthentication",
      "outputs": [],
      "stateMutability": "nonpayable",
      "type": "function"
    }
  ],
  "bytecode": "0x6080604052621275006005556006805460ff1916905534801561002157600080fd5b5061002b3361007c565b6000604051610039906100cc565b604051809103906000f080158015610055573d6000803e3d6000fd5b50600180546001600160a01b0319166001600160a01b0392909216919091179055506100d9565b600080546001600160a01b038381166001600160a01b0319831681178455604051919092169283917f8be0079c531659141344cd1fd0a4f28419497f9722a3daafe3b4186f6b6457e09190a35050565b610a448061134d83390190565b611265806100e86000396000f3fe60806040523480156200001157600080fd5b5060043610620001095760003560e01c80638da5cb5b11620000a3578063ddd81f82116200006e578063ddd81f821462000291578063e71a02e1146200029b578063ef7f383414620002a5578063f2fde38b14620002bc57600080fd5b80638da5cb5b146200021457806397204d8e146200023a578063c4552791146200024e578063d4e8e063146200027a57600080fd5b806353376d1f11620000e457806353376d1f146200019b5780635eebea2014620001b257806369dc9ff314620001e4578063715018a6146200020a57600080fd5b806306fdde03146200010e5780631a86ac4f146200016357806338b6e4071462000182575b600080fd5b6200014b6040518060400160405280601d81526020017f50726f6a6563742057797665726e2050726f787920526567697374727900000081525081565b6040516200015a919062000819565b60405180910390f35b600654620001719060ff1681565b60405190151581526020016200015a565b620001996200019336600462000760565b620002d3565b005b62000199620001ac36600462000760565b620003b8565b620001d5620001c336600462000760565b60036020526000908152604090205481565b6040519081526020016200015a565b62000171620001f536600462000760565b60046020526000908152604090205460ff1681565b6200019962000406565b6000546001600160a01b03165b6040516001600160a01b0390911681526020016200015a565b60015462000221906001600160a01b031681565b620002216200025f36600462000760565b6002602052600090815260409020546001600160a01b031681565b620001996200028b36600462000760565b62000441565b62000221620004d4565b620001d560055481565b62000199620002b636600462000760565b620005ed565b62000199620002cd36600462000760565b62000660565b6000546001600160a01b03163314620003095760405162461bcd60e51b815260040162000300906200082e565b60405180910390fd5b6001600160a01b03811660009081526004602052604090205460ff161580156200034a57506001600160a01b03811660009081526003602052604090205415155b80156200037d57506005546001600160a01b03821660009081526003602052604090205442916200037b9162000863565b105b6200038757600080fd5b6001600160a01b0316600090815260036020908152604080832083905560049091529020805460ff19166001179055565b6000546001600160a01b03163314620003e55760405162461bcd60e51b815260040162000300906200082e565b6001600160a01b03166000908152600460205260409020805460ff19169055565b6000546001600160a01b03163314620004335760405162461bcd60e51b815260040162000300906200082e565b6200043f600062000702565b565b6000546001600160a01b031633146200046e5760405162461bcd60e51b815260040162000300906200082e565b6001600160a01b03811660009081526004602052604090205460ff16158015620004ae57506001600160a01b038116600090815260036020526040902054155b620004b857600080fd5b6001600160a01b03166000908152600360205260409020429055565b336000908152600260205260408120546001600160a01b0316156200053c5760405162461bcd60e51b815260206004820152601860248201527f5573657220616c72656164792068617320612070726f78790000000000000000604482015260640162000300565b6001546040513360248201819052306044830152916001600160a01b03169060640160408051601f198184030181529181526020820180516001600160e01b031663485cc95560e01b17905251620005949062000752565b620005a293929190620007e2565b604051809103906000f080158015620005bf573d6000803e3d6000fd5b5033600090815260026020526040902080546001600160a01b0319166001600160a01b038316179055919050565b6000546001600160a01b031633146200061a5760405162461bcd60e51b815260040162000300906200082e565b60065460ff16156200062b57600080fd5b6006805460ff1990811660019081179092556001600160a01b0390921660009081526004602052604090208054909216179055565b6000546001600160a01b031633146200068d5760405162461bcd60e51b815260040162000300906200082e565b6001600160a01b038116620006f45760405162461bcd60e51b815260206004820152602660248201527f4f776e61626c653a206e6577206f776e657220697320746865207a65726f206160448201526564647265737360d01b606482015260840162000300565b620006ff8162000702565b50565b600080546001600160a01b038381166001600160a01b0319831681178455604051919092169283917f8be0079c531659141344cd1fd0a4f28419497f9722a3daafe3b4186f6b6457e09190a35050565b6109a5806200088b83390190565b6000602082840312156200077357600080fd5b81356001600160a01b03811681146200078b57600080fd5b9392505050565b6000815180845260005b81811015620007ba576020818501810151868301820152016200079c565b81811115620007cd576000602083870101525b50601f01601f19169290920160200192915050565b6001600160a01b03848116825283166020820152606060408201819052600090620008109083018462000792565b95945050505050565b6020815260006200078b602083018462000792565b6020808252818101527f4f776e61626c653a2063616c6c6572206973206e6f7420746865206f776e6572604082015260600190565b600082198211156200088557634e487b7160e01b600052601160045260246000fd5b50019056fe608060405234801561001057600080fd5b506040516109a53803806109a583398101604081905261002f916101f0565b600180546001600160a01b0319166001600160a01b0385161790556100538261011f565b6000826001600160a01b03168260405161006d91906102c0565b600060405180830381855af49150503d80600081146100a8576040519150601f19603f3d011682016040523d82523d6000602084013e6100ad565b606091505b50509050806101165760405162461bcd60e51b815260206004820152602a60248201527f4f776e61626c6544656c656761746550726f7879206661696c656420696d706c60448201526932b6b2b73a30ba34b7b760b11b60648201526084015b60405180910390fd5b50505050610322565b6000546001600160a01b038281169116141561018c5760405162461bcd60e51b815260206004820152602660248201527f50726f787920616c72656164792075736573207468697320696d706c656d656e6044820152653a30ba34b7b760d11b606482015260840161010d565b600080546001600160a01b0319166001600160a01b038316908117825560405190917fbc7cd75a20ee27fd9adebab32041f755214dbc6bffa90cc0225b39da2e5c2d3b91a250565b80516001600160a01b03811681146101eb57600080fd5b919050565b60008060006060848603121561020557600080fd5b61020e846101d4565b925061021c602085016101d4565b60408501519092506001600160401b038082111561023957600080fd5b818601915086601f83011261024d57600080fd5b81518181111561025f5761025f61030c565b604051601f8201601f19908116603f011681019083821181831017156102875761028761030c565b816040528281528960208487010111156102a057600080fd5b6102b18360208301602088016102dc565b80955050505050509250925092565b600082516102d28184602087016102dc565b9190910192915050565b60005b838110156102f75781810151838201526020016102df565b83811115610306576000848401525b50505050565b634e487b7160e01b600052604160045260246000fd5b610674806103316000396000f3fe6080604052600436106100745760003560e01c80634f1ef2861161004e5780634f1ef286146101265780635c60da1b146101395780636fde820214610157578063f1739cae146101755761007b565b8063025313a2146100b65780633659cfe6146100e85780634555d5c91461010a5761007b565b3661007b57005b6000546001600160a01b03168061009157600080fd5b60405136600082376000803683855af43d806000843e8180156100b2578184f35b8184fd5b3480156100c257600080fd5b506100cb610195565b6040516001600160a01b0390911681526020015b60405180910390f35b3480156100f457600080fd5b506101086101033660046104c0565b6101ae565b005b34801561011657600080fd5b50604051600281526020016100df565b6101086101343660046104e2565b6101fb565b34801561014557600080fd5b506000546001600160a01b03166100cb565b34801561016357600080fd5b506001546001600160a01b03166100cb565b34801561018157600080fd5b506101086101903660046104c0565b6102ec565b60006101a96001546001600160a01b031690565b905090565b6101b6610195565b6001600160a01b0316336001600160a01b0316146101ef5760405162461bcd60e51b81526004016101e6906105df565b60405180910390fd5b6101f8816103ef565b50565b610203610195565b6001600160a01b0316336001600160a01b0316146102335760405162461bcd60e51b81526004016101e6906105df565b61023c826101ae565b6000306001600160a01b03168260405161025691906105a4565b600060405180830381855af49150503d8060008114610291576040519150601f19603f3d011682016040523d82523d6000602084013e610296565b606091505b50509050806102e75760405162461bcd60e51b815260206004820152601f60248201527f43616c6c206661696c65642061667465722070726f787920757067726164650060448201526064016101e6565b505050565b6102f4610195565b6001600160a01b0316336001600160a01b0316146103245760405162461bcd60e51b81526004016101e6906105df565b6001600160a01b0381166103865760405162461bcd60e51b8152602060048201526024808201527f4e6577206f776e65722063616e6e6f7420626520746865206e756c6c206164646044820152637265737360e01b60648201526084016101e6565b7f5a3e66efaa1e445ebd894728a69d6959842ea1e97bd79b892797106e270efcd96103af610195565b604080516001600160a01b03928316815291841660208301520160405180910390a1600180546001600160a01b0319166001600160a01b03831617905550565b6000546001600160a01b038281169116141561045c5760405162461bcd60e51b815260206004820152602660248201527f50726f787920616c72656164792075736573207468697320696d706c656d656e6044820152653a30ba34b7b760d11b60648201526084016101e6565b600080546001600160a01b0319166001600160a01b038316908117825560405190917fbc7cd75a20ee27fd9adebab32041f755214dbc6bffa90cc0225b39da2e5c2d3b91a250565b80356001600160a01b03811681146104bb57600080fd5b919050565b6000602082840312156104d257600080fd5b6104db826104a4565b9392505050565b600080604083850312156104f557600080fd5b6104fe836104a4565b9150602083013567ffffffffffffffff8082111561051b57600080fd5b818501915085601f83011261052f57600080fd5b81358181111561054157610541610628565b604051601f8201601f19908116603f0116810190838211818310171561056957610569610628565b8160405282815288602084870101111561058257600080fd5b8260208601602083013760006020848301015280955050505050509250929050565b6000825160005b818110156105c557602081860181015185830152016105ab565b818111156105d4576000828501525b509190910192915050565b60208082526029908201527f4f6e6c79207468652070726f7879206f776e65722063616e2063616c6c2074686040820152681a5cc81b595d1a1bd960ba1b606082015260800190565b634e487b7160e01b600052604160045260246000fdfea26469706673582212206765beb4c37fa771daa8c50794cd3cf294f9cff44f94be8fce731cdba0460a1464736f6c63430008070033a26469706673582212202ff9de6c614d6ffa9efa524a2be15b3319f3d5b0b26eba1ebdc1a0be943d621a64736f6c6343000807003360806040526001805460ff60a01b1916905534801561001d57600080fd5b50610a178061002d6000396000f3fe60806040526004361061008a5760003560e01c80634f8632ba116100595780634f8632ba1461016257806363d256ce1461019a5780636fde8202146101bb5780637b103999146101d95780638f4ffcb1146101f957600080fd5b80631b0f7ba9146100cb5780633f801f9114610100578063485cc955146101225780634c93505f1461014257600080fd5b366100c65760405134815233907fa419615bc8fda4c87663805ee2a3597a6d71c1d476911d9892f340d965bc7bf19060200160405180910390a2005b600080fd5b3480156100d757600080fd5b506100eb6100e6366004610800565b610219565b60405190151581526020015b60405180910390f35b34801561010c57600080fd5b5061012061011b366004610770565b610497565b005b34801561012e57600080fd5b5061012061013d366004610737565b6104e7565b34801561014e57600080fd5b5061012061015d3660046108cc565b61053f565b34801561016e57600080fd5b50600254610182906001600160a01b031681565b6040516001600160a01b0390911681526020016100f7565b3480156101a657600080fd5b506003546100eb90600160a01b900460ff1681565b3480156101c757600080fd5b506001546001600160a01b0316610182565b3480156101e557600080fd5b50600354610182906001600160a01b031681565b34801561020557600080fd5b50610120610214366004610860565b6105ae565b6002546000906001600160a01b03163314806102c05750600354600160a01b900460ff161580156102c057506003546040516369dc9ff360e01b81523360048201526001600160a01b03909116906369dc9ff39060240160206040518083038186803b15801561028857600080fd5b505afa15801561029c573d6000803e3d6000fd5b505050506040513d601f19601f820116820180604052508101906102c091906108f0565b6103955760405162461bcd60e51b815260206004820152608a60248201527f41757468656e746963617465642070726f78792063616e206f6e6c792062652060448201527f63616c6c65642062792069747320757365722c206f72206279206120636f6e7460648201527f7261637420617574686f72697a6564206279207468652072656769737472792060848201527f6173206c6f6e6720617320746865207573657220686173206e6f74207265766f60a4820152696b65642061636365737360b01b60c482015260e40160405180910390fd5b606060008460018111156103ab576103ab61098f565b141561041657846001600160a01b0316836040516103c9919061090d565b6000604051808303816000865af19150503d8060008114610406576040519150601f19603f3d011682016040523d82523d6000602084013e61040b565b606091505b50909250905061048f565b600184600181111561042a5761042a61098f565b141561048f57846001600160a01b031683604051610448919061090d565b600060405180830381855af49150503d8060008114610483576040519150601f19603f3d011682016040523d82523d6000602084013e610488565b606091505b5090925090505b509392505050565b6104d8848484848080601f01602080910402602001604051908101604052809392919081815260200183838082843760009201919091525061021992505050565b6104e157600080fd5b50505050565b600154600160a01b900460ff16156104fe57600080fd5b6001805460ff60a01b1916600160a01b179055600280546001600160a01b039384166001600160a01b03199182161790915560038054929093169116179055565b6002546001600160a01b0316331461055657600080fd5b60038054821515600160a01b0260ff60a01b199091161790556040517f2165014523a6f4135deffed62d70149aad59b64de5aac51e3abbcbe2a83e2f7e906105a390831515815260200190565b60405180910390a150565b6040516323b872dd60e01b81526001600160a01b038581166004830152306024830152604482018590528391908216906323b872dd90606401602060405180830381600087803b15801561060157600080fd5b505af1158015610615573d6000803e3d6000fd5b505050506040513d601f19601f8201168201806040525081019061063991906108f0565b61064257600080fd5b826001600160a01b0316856001600160a01b03167fd65b48fd35864b3528d38e44760be5553248f89bf3ff6b06cca57817cc2650bf8685604051610687929190610929565b60405180910390a35050505050565b600082601f8301126106a757600080fd5b813567ffffffffffffffff808211156106c2576106c26109a5565b604051601f8301601f19908116603f011681019082821181831017156106ea576106ea6109a5565b8160405283815286602085880101111561070357600080fd5b836020870160208301376000602085830101528094505050505092915050565b80356002811061073257600080fd5b919050565b6000806040838503121561074a57600080fd5b8235610755816109bb565b91506020830135610765816109bb565b809150509250929050565b6000806000806060858703121561078657600080fd5b8435610791816109bb565b935061079f60208601610723565b9250604085013567ffffffffffffffff808211156107bc57600080fd5b818701915087601f8301126107d057600080fd5b8135818111156107df57600080fd5b8860208285010111156107f157600080fd5b95989497505060200194505050565b60008060006060848603121561081557600080fd5b8335610820816109bb565b925061082e60208501610723565b9150604084013567ffffffffffffffff81111561084a57600080fd5b61085686828701610696565b9150509250925092565b6000806000806080858703121561087657600080fd5b8435610881816109bb565b9350602085013592506040850135610898816109bb565b9150606085013567ffffffffffffffff8111156108b457600080fd5b6108c087828801610696565b91505092959194509250565b6000602082840312156108de57600080fd5b81356108e9816109d3565b9392505050565b60006020828403121561090257600080fd5b81516108e9816109d3565b6000825161091f818460208701610963565b9190910192915050565b828152604060208201526000825180604084015261094e816060850160208701610963565b601f01601f1916919091016060019392505050565b60005b8381101561097e578181015183820152602001610966565b838111156104e15750506000910152565b634e487b7160e01b600052602160045260246000fd5b634e487b7160e01b600052604160045260246000fd5b6001600160a01b03811681146109d057600080fd5b50565b80151581146109d057600080fdfea26469706673582212202390c8a2909b514c5ca161616f1da07e4a75fa11d74c3b582efba63258e7ed2d64736f6c63430008070033",
  "immutableReferences": {},
  "source": "/*\n\n  << Project Wyvern Proxy Registry >>\n\n*/\n\n// SPDX-License-Identifier: MIT\n\npragma solidity 0.8.7;\n\nimport \"./registry/ProxyRegistry.sol\";\nimport \"./registry/AuthenticatedProxy.sol\";\n\n/**\n * @title WyvernProxyRegistry\n * @author Project Wyvern Developers\n */\ncontract WyvernProxyRegistry is ProxyRegistry {\n\n    string public constant name = \"Project Wyvern Proxy Registry\";\n\n    /* Whether the initial auth address has been set. */\n    bool public initialAddressSet = false;\n\n    constructor ()\n    {\n        AuthenticatedProxy impl = new AuthenticatedProxy();\n        delegateProxyImplementation = address(impl);\n    }\n\n    /** \n     * Grant authentication to the initial Exchange protocol contract\n     *\n     * @dev No delay, can only be called once - after that the standard registry process with a delay must be used\n     * @param authAddress Address of the contract to grant authentication\n     */\n    function grantInitialAuthentication (address authAddress)\n        onlyOwner\n        public\n    {\n        require(!initialAddressSet);\n        initialAddressSet = true;\n        contracts[authAddress] = true;\n    }\n\n}\n",
  "sourcePath": "/Users/ronak/Developer/projects/tsgit/wyvern-js/src/wyvern-ethereum/contracts/WyvernProxyRegistry.sol",
  "compiler": {
    "name": "solc",
    "version": "0.8.7+commit.e28d00a7.Emscripten.clang"
  },
  "schemaVersion": "3.2.0",
  "updatedAt": "2022-01-11T06:39:41.533Z",
  "devdoc": {
    "author": "Project Wyvern Developers",
    "kind": "dev",
    "methods": {
      "endGrantAuthentication(address)": {
        "details": "ProxyRegistry owner only",
        "params": {
          "addr": "Address to which to grant permissions"
        }
      },
      "grantInitialAuthentication(address)": {
        "details": "No delay, can only be called once - after that the standard registry process with a delay must be used",
        "params": {
          "authAddress": "Address of the contract to grant authentication"
        }
      },
      "owner()": {
        "details": "Returns the address of the current owner."
      },
      "registerProxy()": {
        "details": "Must be called by the user which the proxy is for, creates a new AuthenticatedProxy",
        "returns": {
          "proxy": "New AuthenticatedProxy contract"
        }
      },
      "renounceOwnership()": {
        "details": "Leaves the contract without owner. It will not be possible to call `onlyOwner` functions anymore. Can only be called by the current owner. NOTE: Renouncing ownership will leave the contract without an owner, thereby removing any functionality that is only available to the owner."
      },
      "revokeAuthentication(address)": {
        "details": "ProxyRegistry owner only",
        "params": {
          "addr": "Address of which to revoke permissions"
        }
      },
      "startGrantAuthentication(address)": {
        "details": "ProxyRegistry owner only",
        "params": {
          "addr": "Address to which to grant permissions"
        }
      },
      "transferOwnership(address)": {
        "details": "Transfers ownership of the contract to a new account (`newOwner`). Can only be called by the current owner."
      }
    },
    "title": "WyvernProxyRegistry",
    "version": 1
  },
  "userdoc": {
    "kind": "user",
    "methods": {
      "endGrantAuthentication(address)": {
        "notice": "End the process to nable access for specified contract after delay period has passed."
      },
      "grantInitialAuthentication(address)": {
        "notice": "Grant authentication to the initial Exchange protocol contract"
      },
      "registerProxy()": {
        "notice": "Register a proxy contract with this registry"
      },
      "revokeAuthentication(address)": {
        "notice": "Revoke access for specified contract. Can be done instantly."
      },
      "startGrantAuthentication(address)": {
        "notice": "Start the process to enable access for specified contract. Subject to delay period."
      }
    },
    "version": 1
  }
}